:020000040800F2
:1000000000000220112D0008B9240008BF240008B8
:10001000C5240008CB240008D124000800000000FB
:10002000000000000000000000000000D7240008CD
:10003000E524000800000000F32400080125000862
:10004000612D0008612D0008612D0008612D000858
:10005000612D0008612D0008612D0008612D000848
:10006000612D0008612D0008612D0008612D000838
:10007000612D0008612D0008612D0008612D000828
:10008000612D0008612D0008612D0008612D000818
:10009000612D0008612D0008612D0008612D000808
:1000A000612D0008612D0008612D0008612D0008F8
:1000B0000D250008612D0008612D0008612D000844
:1000C000612D0008612D0008612D0008612D0008D8
:1000D000612D00082125000835250008612D000844
:1000E000612D0008612D0008612D0008612D0008B8
:1000F000612D0008612D0008612D0008612D0008A8
:10010000612D0008612D0008612D0008612D000897
:10011000612D0008612D0008612D0008612D000887
:1001200049250008612D0008612D0008612D000897
:10013000612D0008612D0008612D0008612D000867
:10014000612D0008612D0008612D0008612D000857
:10015000612D0008612D0008612D0008612D000847
:10016000612D0008612D0008612D0008612D000837
:10017000612D0008612D0008612D000800000000BD
:08018000612D0008612D00084B
:1001900010B5054C237833B9044B13B10448AFF3C1
:1001A00000800123237010BD5C00002000000000CF
:1001B000EC83000808B5034B1BB103490348AFF3B8
:1001C000008008BD0000000060000020EC830008F3
:1001D00001F0FF01102A2BDB10F0070F08D010F8F8
:1001E000013B013A8B422DD010F0070F42B3F6D1FC
:1001F000F0B441EA012141EA014122F007047FF015
:1002000000070023F0E80256083C85EA010586EA6B
:10021000010685FA47F5A3FA87F586FA47F6A5FAA7
:1002200087F68EB9EED1F0BC01F0FF0102F00702B3
:1002300032B110F8013B013A83EA010313B1F8D15E
:100240000020704701387047002D06BF354603383F
:10025000073815F0010F07D1013015F4807F02BF78
:10026000013015F4C03F0130F0BC0138704700BFC9
:1002700081F0004102E000BF83F0004330B54FEA57
:1002800041044FEA430594EA050F08BF90EA020FC4
:100290001FBF54EA000C55EA020C7FEA645C7FEA57
:1002A000655C00F0E2804FEA5454D4EB5555B8BF7A
:1002B0006D420CDD2C4480EA020281EA030382EAEB
:1002C000000083EA010180EA020281EA0303362D7D
:1002D00088BF30BD11F0004F4FEA01314FF4801C50
:1002E0004CEA113102D0404261EB410113F0004F62
:1002F0004FEA03334CEA133302D0524263EB430319
:1003000094EA050F00F0A780A4F10104D5F1200EB6
:100310000DDB02FA0EFC22FA05F2801841F1000111
:1003200003FA0EF2801843FA05F359410EE0A5F1E5
:1003300020050EF1200E012A03FA0EFC28BF4CF016
:10034000020C43FA05F3C01851EBE37101F00045CC
:1003500007D54FF0000EDCF1000C7EEB00006EEBD9
:100360000101B1F5801F1BD3B1F5001F0CD3490863
:100370005FEA30004FEA3C0C04F101044FEA4452BA
:1003800012F5800F80F09A80BCF1004F08BF5FEA41
:10039000500C50F1000041EB045141EA050130BD21
:1003A0005FEA4C0C404141EB0101013C28BFB1F533
:1003B000801FE9D291F0000F04BF01460020B1FA7E
:1003C00081F308BF2033A3F10B03B3F120020CDA51
:1003D0000C3208DD02F1140CC2F10C0201FA0CF02F
:1003E00021FA02F10CE002F11402D8BFC2F1200C94
:1003F00001FA02F120FA0CFCDCBF41EA0C0190404A
:10040000E41AA2BF01EB0451294330BD6FEA040492
:100410001F3C1CDA0C340EDC04F11404C4F120027D
:1004200020FA04F001FA02F340EA030021FA04F38F
:1004300045EA030130BDC4F10C04C4F1200220FAE6
:1004400002F001FA04F340EA0300294630BD21FA24
:1004500004F0294630BD94F0000F83F4801306BFEA
:1004600081F480110134013D4EE77FEA645C18BFDE
:100470007FEA655C29D094EA050F08BF90EA020F75
:1004800005D054EA000C04BF1946104630BD91EA6D
:10049000030F1EBF0021002030BD5FEA545C05D170
:1004A0004000494128BF41F0004130BD14F58004AF
:1004B0003CBF01F5801130BD01F0004545F0FE4123
:1004C00041F470014FF0000030BD7FEA645C1ABF58
:1004D000194610467FEA655C1CBF0B46024650EA8F
:1004E000013406BF52EA033591EA030F41F40021BB
:1004F00030BD00BF90F0000F04BF0021704730B541
:100500004FF4806404F132044FF000054FF0000115
:1005100050E700BF90F0000F04BF0021704730B5D6
:100520004FF4806404F1320410F0004548BF4042AB
:100530004FF000013EE700BF42004FEAE2014FEA00
:1005400031014FEA02701FBF12F07F4393F07F4FDB
:1005500081F06051704732F07F4208BF704793F0DE
:100560007F4F04BF41F40021704730B54FF46074F1
:1005700001F0004521F000411CE700BF50EA0102F4
:1005800008BF704730B54FF000050AE050EA01029D
:1005900008BF704730B511F0004502D5404261EB0D
:1005A00041014FF4806404F132045FEA915C3FF44E
:1005B000D8AE4FF003025FEADC0C18BF03325FEAEB
:1005C000DC0C18BF033202EBDC02C2F1200300FA9C
:1005D00003FC20FA02F001FA03FE40EA0E0021FAC1
:1005E00002F11444BDE600BF70B54FF0FF0C4CF4AF
:1005F000E06C1CEA11541DBF1CEA135594EA0C0F61
:1006000095EA0C0F00F0DEF82C4481EA030621EA9B
:100610004C5123EA4C5350EA013518BF52EA0335D6
:1006200041F4801143F4801338D0A0FB02CE4FF088
:100630000005E1FB02E506F00042E0FB03E54FF0B8
:100640000006E1FB03569CF0000F18BF4EF0010EB0
:10065000A4F1FF04B6F5007F64F5407404D25FEAAC
:100660004E0E6D4146EB060642EAC62141EA55515F
:100670004FEAC52040EA5E504FEACE2EB4F1FD0CA1
:1006800088BFBCF5E06F1ED8BEF1004F08BF5FEA1F
:10069000500E50F1000041EB045170BD06F00046D1
:1006A00046EA010140EA020081EA0301B4EB5C047E
:1006B000C2BFD4EB0C0541EA045170BD41F4801176
:1006C0004FF0000E013C00F3AB8014F1360FDEBF9B
:1006D000002001F0004170BDC4F10004203C35DA77
:1006E0000C341BDC04F11404C4F1200500FA05F3FA
:1006F00020FA04F001FA05F240EA020001F000429B
:1007000021F0004110EBD37021FA04F642EB060110
:100710005EEA430E08BF20EAD37070BDC4F10C043A
:10072000C4F1200500FA04F320FA05F001FA04F2FE
:1007300040EA020001F0004110EBD37041F10001EA
:100740005EEA430E08BF20EAD37070BDC4F12005F5
:1007500000FA05F24EEA020E20FA04F301FA05F25D
:1007600043EA020321FA04F001F0004121FA04F205
:1007700020EA020000EBD3705EEA430E08BF20EAD5
:10078000D37070BD94F0000F0FD101F0004640000F
:1007900041EB010111F4801F08BF013CF7D041EA91
:1007A000060195F0000F18BF704703F00046520095
:1007B00043EB030313F4801F08BF013DF7D043EA66
:1007C0000603704794EA0C0F0CEA135518BF95EA1C
:1007D0000C0F0CD050EA410618BF52EA4306D1D1A3
:1007E00081EA030101F000414FF0000070BD50EAC2
:1007F000410606BF1046194652EA430619D094EA4C
:100800000C0F02D150EA013613D195EA0C0F05D135
:1008100052EA03361CBF104619460AD181EA030189
:1008200001F0004141F0FE4141F470014FF0000041
:1008300070BD41F0FE4141F4780170BD70B54FF0DC
:10084000FF0C4CF4E06C1CEA11541DBF1CEA13555C
:1008500094EA0C0F95EA0C0F00F0A7F8A4EB05043E
:1008600081EA030E52EA03354FEA013100F0888035
:100870004FEA03334FF0805545EA131343EA1263FE
:100880004FEA022245EA111545EA10654FEA0026B3
:100890000EF000419D4208BF964244F1FD0404F56C
:1008A000407402D25B084FEA3202B61A65EB0305C8
:1008B0005B084FEA32024FF480104FF4002CB6EB85
:1008C000020E75EB030E22BFB61A754640EA0C0005
:1008D0005B084FEA3202B6EB020E75EB030E22BF45
:1008E000B61A754640EA5C005B084FEA3202B6EB86
:1008F000020E75EB030E22BFB61A754640EA9C0045
:100900005B084FEA3202B6EB020E75EB030E22BF14
:10091000B61A754640EADC0055EA060E18D04FEAD2
:10092000051545EA16754FEA06164FEAC30343EA72
:1009300052734FEAC2025FEA1C1CC0D111F4801F3F
:100940000BD141EA00014FF000004FF0004CB6E738
:1009500011F4801F04BF01430020B4F1FD0C88BFD7
:10096000BCF5E06F3FF6AFAEB5EB030C04BFB6EBE2
:10097000020C5FEA500C50F1000041EB045170BDD5
:100980000EF0004E4EEA113114EB5C04C2BFD4EB02
:100990000C0541EA045170BD41F480114FF0000E86
:1009A000013C90E645EA060E8DE60CEA135594EA02
:1009B0000C0F08BF95EA0C0F3FF43BAF94EA0C0F05
:1009C0000AD150EA01347FF434AF95EA0C0F7FF47A
:1009D00025AF104619462CE795EA0C0F06D152EACE
:1009E00003353FF4FDAE1046194622E750EA4106B2
:1009F00018BF52EA43067FF4C5AE50EA41047FF4C3
:100A00000DAF52EA43057FF4EBAE12E74A0011D274
:100A100012F5001211D20DD56FF47873B3EB625258
:100A20000ED44FEAC12343F0004343EA505323FA64
:100A300002F070474FF00000704750EA013002D1D9
:100A40004FF0FF3070474FF00000704753B94AB97C
:100A5000002908BF00281CBF4FF0FF314FF0FF30C6
:100A600000F070B9ADF1080C6DE904CE00F006F8A5
:100A7000DDF804E0DDE9022304B070472DE9F0471A
:100A8000089E0D4604460F46002B4AD18A429446E2
:100A900065D9B2FA82F343B102FA03FCC3F1200232
:100AA0009F4020FA02F217439C404FEA1C4E1FFA67
:100AB0008CF5B7FBFEF1220C0EFB117742EA0742E0
:100AC00001FB05F090420AD91CEB020201F1FF374D
:100AD00080F01C81904240F2198102396244121A5E
:100AE000A4B2B2FBFEF00EFB102244EA024400FB6B
:100AF00005F5A5420AD91CEB040400F1FF3280F091
:100B00000781A54240F204816444023840EA014072
:100B1000641B00211EB1DC400023C6E90043BDE890
:100B2000F0878B4208D9002E00F0ED800021C6E945
:100B300000050846BDE8F087B3FA83F1002949D1E2
:100B4000AB4202D3824200F2F880841A65EB0302C2
:100B500001201746002EE2D0C6E90047DFE702B9C0
:100B6000FFDEB2FA82F3002B40F090808A1A4FEA3F
:100B70001C471FFA8CFE0121B2FBF7F507FB15207D
:100B8000220C42EA00420EFB05F0904208D91CEB11
:100B9000020205F1FF3802D2904200F2CB804546B6
:100BA000121AA4B2B2FBF7F007FB102244EA024487
:100BB0000EFB00FEA64508D91CEB040400F1FF3231
:100BC00002D2A64500F2BB801046A4EB0E0440EA18
:100BD00005409FE7C1F120078B4022FA07FC4CEA51
:100BE000030C05FA01F420FA07F3FD404FEA1C4913
:100BF0002343B5FBF9F81FFA8CFE09FB18551C0CB2
:100C000044EA054408FB0EF5A54202FA01F200FA97
:100C100001F00BD91CEB040408F1FF3A80F0888046
:100C2000A54240F28580A8F102086444641B9DB28D
:100C3000B4FBF9F309FB134445EA044403FB0EFE3D
:100C4000A64508D91CEB040403F1FF356CD2A64578
:100C50006AD9023B644443EA0843A3FB0295A4EB30
:100C60000E04AC42C846AE4656D353D056B1B0EB94
:100C7000080264EB0E0404FA07F7CA40CC4017439D
:100C8000C6E9007418460021BDE8F087C3F12001D1
:100C900002FA03FC20FA01F225FA01F19D402A43F1
:100CA0004FEA1C471FFA8CFEB1FBF7F007FB10154B
:100CB000110C41EA054100FB0EF58D4204FA03F4E4
:100CC00008D91CEB010100F1FF382FD28D422DD93C
:100CD00002386144491B92B2B1FBF7F507FB1511CD
:100CE00042EA014205FB0EF1914208D91CEB0202D7
:100CF00005F1FF3816D2914214D9023D6244521ACE
:100D000045EA004138E73146304608E73946E6E62D
:100D10001046FBE64845A9D2B9EB020865EB0C0E7C
:100D2000013BA3E74546EAE72B4694E74046D1E777
:100D3000D0467BE7023D624432E708460AE7644456
:100D4000023842E7704700BF80B584B000AF3B4631
:100D500000221A605A609A60DA603D4B3D4A1A6080
:100D60003B4B00225A603A4B00229A60384B0122DA
:100D70001A61374B00221A76354B002283F8202067
:100D8000334B0022DA62324B334A9A62304B0022F4
:100D9000DA602F4B0522DA612D4B002283F83020D8
:100DA0002B4B01225A612A4802F072F80346002BAD
:100DB00001D001F0D7F908233B6001237B600023B9
:100DC000BB603B461946224802F0D4F90346002B8B
:100DD00001D001F0C7F909233B6002237B603B4649
:100DE00019461B4802F0C6F90346002B01D001F05A
:100DF000B9F90A233B6003237B603B46194614483C
:100E000002F0B8F90346002B01D001F0ABF90B2337
:100E10003B6004237B603B4619460D4802F0AAF96B
:100E20000346002B01D001F09DF90C233B60052304
:100E30007B603B461946064802F09CF90346002BAE
:100E400001D001F08FF900BF1037BD4680BD00BF53
:100E500078000020002001400100000F80B58AB01A
:100E600000AF786007F1140300221A605A609A609C
:100E7000DA601A617B681B683C4A934271D1002397
:100E80003B613B4B5B6C3A4A43F480735364384B91
:100E90005B6C03F480733B613B690023FB60344B64
:100EA0001B6B334A43F004031363314B1B6B03F09A
:100EB0000403FB60FB680023BB602D4B1B6B2C4ABB
:100EC00043F0020313632A4B1B6B03F00203BB6066
:100ED000BB6807237B610323BB610023FB6107F130
:100EE00014031946234803F0F9F803237B61032315
:100EF000BB610023FB6107F1140319461E4803F090
:100F0000EDF81E4B1E4A1A601C4B00225A601B4B08
:100F100000229A60194B0022DA60184B4FF480626D
:100F20001A61164B4FF400625A61144B4FF4005291
:100F30009A61124B4FF48072DA61104B00221A62F0
:100F40000E4B00225A620D4802F0C6FC0346002BED
:100F500001D001F007F97B68084A9A63074A7B6869
:100F6000936300BF2837BD4680BD00BF002001400D
:100F7000003802400008024000040240C000002087
:100F80001064024080B500AF01220821024803F03E
:100F900041FA00BF80BD00BF000C024080B584B0A4
:100FA00000AF002208212F4803F034FA0122082163
:100FB0002C4803F02FFA0A2302222B492B4804F075
:100FC000A8F80023FB604FF400437B8100237B6083
:100FD0003FE07B68002B06DB7B68032B03DC7B6830
:100FE0000433FB6018E07B68032B07DD7B68072B6D
:100FF00004DC7B68C3F10703FB600DE07B68072B13
:1010000006DD7B680B2B03DC7B680433FB6003E0AD
:101010007B68C3F11703FB60134B1A887B8913406D
:101020009BB2002B05D0124AFB68002122F8131056
:1010300009E00F4AFB6832F81330013399B20C4AC9
:10104000FB6822F813107B895B087B817B68013386
:101050007B607B680F2BBCDD00BF00BF1037BD4637
:1010600080BD00BF000C024040010020380200207B
:101070002001002080B487B000AF78603960002381
:101080007B613B68013B3B6118E07B697A681344F4
:101090001B78FB603B697A681A447B6979680B446A
:1010A00012781A703B697A681344FA68D2B21A70DF
:1010B0007B6901337B613B69013B3B617A693B6939
:1010C0009A42E2DB00BF00BF1C37BD465DF8047BDF
:1010D0007047000080B586B000AFF860B9607A60F4
:1010E00000237B611DE0FA681D4B83FB02139910FE
:1010F000D317C91A0B469B000B445B00D11ACAB226
:101100007B69591C79611946BB680B443032D2B2F5
:101110001A70FB68124A82FB03129210DB17D31A73
:10112000FB60FB68002BDED107E07B695A1C7A610B
:101130001A46BB68134430221A707A697B689A4257
:10114000F3DB7969B868FFF795FF7B69BA681344E8
:1011500000221A707B6918461837BD4680BD00BF53
:101160006766666680B586B000AF87ED010AD7ED89
:10117000017AFDEEE77A17EE903A7B617B6907EE24
:10118000903AF8EEE77A97ED017A77EE677AC7ED55
:10119000047A002213497869FFF79CFFF860114A2E
:1011A000FB6813442E221A70D7ED047AB2EE047A4B
:1011B00067EE877AB2EE047A67EE877AC7ED047A33
:1011C000D7ED047AFDEEE77AFB680133054A134454
:1011D0000222194617EE900AFFF77CFF00BF18376E
:1011E000BD4680BD4401002080B586B000AF3B1DE8
:1011F000064A0749184606F055FC3B1D184601F003
:1012000033FC00BF1837BD4680BD00BF440100203D
:101210000484000880B500AF144B5B8B012B13D105
:10122000134B1B78C3F10103DAB2114B1A70104B48
:101230001B78012B04D101210E4801F003FC03E0CF
:1012400001210D4801F0FEFB094B1B78012B05D154
:1012500001222021094803F0DDF804E000222021CA
:10126000064803F0D7F800BF80BD00BF2001002072
:10127000420100201084000814840008001002407D
:1012800080B584B004AF01F053FC0346002B04D1B9
:1012900001210A4801F0D6FB0CE000230293182339
:1012A0000193002300934FF4FC63054A32210A2086
:1012B00000F068FE00BFBD4680BD00BF1884000876
:1012C0001C84000880B582B000AF00237B600C4B0B
:1012D0001B6B0B4A43F480031363094B1B6B03F432
:1012E00080037B607B6800220021382002F0BDFA79
:1012F000382002F0D6FA00BF0837BD4680BD00BFD7
:101300000038024080B58EB000AF07F11C03002208
:101310001A605A609A60DA601A615A619A613B46B3
:1013200000221A605A609A60DA601A615A619A6102
:101330002F4B4FF020421A602D4B2E4A5A602C4BF7
:1013400000229A602A4B0022DA60294B00221A619F
:10135000274B10225A61264B00229A61244B00220F
:10136000DA61234B00221A62214B00225A62204B81
:101370004FF480529A621E4B0022DA621C4B4FF4EB
:1013800080421A631A4B00225A63194B00229A6357
:10139000174B00225A640F23FB610F233B623C234F
:1013A0007B620023BB621023FB6211233B6300239B
:1013B0007B6308233B600F237B600923BB60002312
:1013C000FB6010233B6111237B610023BB613A4624
:1013D00007F11C031946064804F07EFA0346002B69
:1013E00001D000F0BFFE00BF3837BD4680BD00BF52
:1013F0004C010020040100A080B586B000AF3B1D69
:1014000000221A605A609A60DA601A611C4B1B68ED
:10141000002B31D11A4B01221A6000233B60194B7B
:101420009B6B184A43F001039363164B9B6B03F0CD
:1014300001033B603B684FF688737B600223BB600F
:101440000023FB6003233B610C237B613B1D19469A
:101450000D4802F043FE4CF2B3737B600223BB6085
:101460000023FB6003233B610C237B613B1D19467A
:10147000064802F033FE00E000BF1837BD4680BDCD
:101480009C0100200038024000100240000C024085
:1014900080B582B000AF7860FFF7AEFF00BF0837BD
:1014A000BD4680BD80B58EB000AF07F12403002299
:1014B0001A605A609A60DA601A6100233B628F4BAF
:1014C0001B6B8E4A43F0100313638C4B1B6B03F0B2
:1014D00010033B623B6A0023FB61884B1B6B874A0E
:1014E00043F004031363854B1B6B03F00403FB61A0
:1014F000FB690023BB61814B1B6B804A43F02003D7
:1015000013637E4B1B6B03F02003BB61BB6900239D
:101510007B617A4B1B6B794A43F080031363774BF3
:101520001B6B03F080037B617B6900233B61734B82
:101530001B6B724A43F001031363704B1B6B03F088
:1015400001033B613B690023FB606C4B1B6B6B4AE7
:1015500043F002031363694B1B6B03F00203FB6050
:10156000FB680023BB60654B1B6B644A43F00803B8
:101570001363624B1B6B03F00803BB60BB68002363
:101580007B605E4B1B6B5D4A43F0400313635B4B18
:101590001B6B03F040037B607B680022702158487E
:1015A00002F038FF00224FF40851564802F032FF93
:1015B00000224FF48061544802F02CFF00224FF4C7
:1015C000E071524802F026FF00224FF4807150482B
:1015D00002F020FF002208214E4802F01BFF70237A
:1015E0007B620123BB620023FB6200233B6307F1A4
:1015F00024031946424802F071FD4FF408537B6200
:101600000123BB620023FB6200233B6307F1240339
:1016100019463C4802F062FD4FF400737B620023E0
:10162000BB620023FB6207F124031946364802F02F
:1016300055FD4FF480637B620123BB620023FB6294
:1016400000233B6307F1240319462F4802F046FDAF
:10165000C0237B620023BB620023FB6207F12403EB
:1016600019462B4802F03AFD30237B620023BB620F
:101670000023FB6207F124031946224802F02EFDE5
:101680004FF4E0737B620123BB620023FB62002303
:101690003B6307F1240319461C4802F01FFD4FF479
:1016A00088537B620023BB620123FB6207F12403A2
:1016B0001946144802F012FD4FF480737B62012337
:1016C000BB620023FB6200233B6307F1240319463E
:1016D0000F4802F003FD08237B620123BB62002355
:1016E000FB6200233B6307F124031946094802F01B
:1016F000F5FC00BF3837BD4680BD00BF0038024052
:10170000001002400008024000140240001802408D
:1017100000000240000C024080B500AF124B134A9B
:101720001A60114B124A5A600F4B00229A600E4BFE
:101730000022DA600C4B4FF480421A610A4B0022FF
:101740005A61094B00229A61074B0022DA61064B6D
:1017500000221A62044802F077FE0346002B01D0F3
:1017600000F000FD00BF80BDA0010020005400403B
:10177000A086010080B58AB000AF786007F114033D
:1017800000221A605A609A60DA601A617B681B68EE
:10179000194A93422BD100233B61184B1B6B174A0C
:1017A00043F002031363154B1B6B03F002033B6111
:1017B0003B69C0237B611223BB610023FB610323D0
:1017C0003B6204237B6207F1140319460C4802F0C4
:1017D00085FC0023FB60094B1B6C084A43F4001393
:1017E0001364064B1B6C03F40013FB60FB6800BF23
:1017F0002837BD4680BD00BF00540040003802407D
:101800000004024080B483B000AF0346FB80044A6A
:10181000FB88138000BF0C37BD465DF8047B704722
:10182000FEFF0F6080B483B000AF0346FB80044A24
:10183000FB88538000BF0C37BD465DF8047B7047C2
:10184000FEFF0F6080B483B000AF064B5B889BB295
:10185000FB80FB889BB218460C37BD465DF8047BC5
:10186000704700BFFEFF0F6090B583B000AF044625
:10187000084611461A462346FB800346BB800B46AA
:101880007B8013463B802A20FFF7BCFFFB881B0AA6
:101890009BB21846FFF7C6FFFB88DBB29BB2184627
:1018A000FFF7C0FF7B881B0A9BB21846FFF7BAFF01
:1018B0007B88DBB29BB21846FFF7B4FF2B20FFF703
:1018C000A1FFBB881B0A9BB21846FFF7ABFFBB8882
:1018D000DBB29BB21846FFF7A5FF3B881B0A9BB201
:1018E0001846FFF79FFF3B88DBB29BB21846FFF715
:1018F00099FF2C20FFF786FF00BF0C37BD4690BD37
:1019000080B584B000AF0346FB80154B1B88013BBC
:101910009AB2134B5B88013B9BB200210020FFF77A
:10192000A3FF0023FB8111E00023BB8106E0FB88BD
:101930001846FFF777FFBB890133BB81084B5B88F3
:10194000BA899A42F3D3FB890133FB81044B1B888C
:10195000FA899A42E8D300BF00BF1037BD4680BD68
:10196000F401002080B582B000AF0346FB800B4637
:10197000BB8013467B80BB88FA88B988F888FFF75C
:1019800073FF7B881846FFF74DFF00BF0837BD4641
:1019900080BD000090B587B000AF044608461146F0
:1019A0001A462346FB800346BB800B46FB7013465A
:1019B0003B8000237B75FB883B8297F82C305B08CB
:1019C000FB73FB7BDB08DBB21A46FB7B03F00703F0
:1019D000DBB2002B14BF01230023DBB213449AB205
:1019E00097F82C309BB212FB03F3BB81FB78203BB2
:1019F000FB70FB7B9AB2FB8813449BB2013B9CB209
:101A000097F82C309AB2BB8813449BB2013B9BB22F
:101A1000B988F8882246FFF727FF00237B827AE007
:101A200097F82C300C2B28D097F82C30102B08D19D
:101A3000FA787B8A3C4912010A4413441B78FB75EF
:101A40001BE097F82C30182B0BD1FA78798A37489D
:101A500013465B0013441B0103440B441B78FB75C6
:101A60000BE097F82C30202B5AD1FA787B8A30493A
:101A700092010A4413441B78FB750023BB7544E0B4
:101A800097F83030002B20D1FA7DBB7D42FA03F36A
:101A900003F00103002B04D03B881846FFF7C2FE79
:101AA00003E03B8D1846FFF7BDFE7B7D01337B7560
:101AB0007B7DFA7BB3FBF2F101FB02F29B1ADBB2F6
:101AC000002B1FD100237B7522E0FA7DBB7D42FAFB
:101AD00003F303F00103002B05D03A88B988FB8893
:101AE0001846FFF73FFFFB880133FB80FA883B8AEB
:101AF000D21AFB7B9A4205D13B8AFB80BB8801331B
:101B0000BB8005E0BB7D0133BB75BB7D072BB7D91F
:101B10007B8A01337B827A8ABB899A4280D300E038
:101B200000BF1C37BD4690BD48840008388A0008B5
:101B3000089C000880B485B000AF03460A46FB71DC
:101B40001346BB710123FB6004E0FA79FB6802FBDA
:101B500003F3FB60BB795A1EBA71002BF5D1FB6809
:101B600018461437BD465DF8047B704790B58BB0BE
:101B700004AF0446084687ED020A11461A4623467A
:101B8000FB810346BB810B46FB711346BB8097F874
:101B90002C305B08BB75D7ED027A9FED367A67EE85
:101BA000877AFCEEE77A17EE903ABB820023FB754A
:101BB00057E0BC8AFA79FB7DD31ADBB2013BDBB27A
:101BC00019460A20FFF7B6FF0346B4FBF3F12A4B90
:101BD000A3FB0123DA0813469B0013445B00CA1AD7
:101BE0001346FB74FA7DFB79023B9A421DD1FB79C7
:101BF000023B9AB2BB7D9BB212FB03F39AB2FB8904
:101C0000134498B2BA88B9890023029397F82C300C
:101C100001933B8D009313462E22FFF7BBFEFB7D05
:101C20000133FB75FB790133FB71FB7D9AB2BB7D00
:101C30009BB212FB03F39AB2FB89134498B2FB7C6C
:101C40003033DAB2BC88B9890023029397F82C307C
:101C500001933B8D00932346FFF79CFEFB7D0133F0
:101C6000FB75FA7DFB799A42A3D300BF00BF1C37F6
:101C7000BD4690BD0000C842CDCCCCCC80B483B072
:101C800000AF0346FB71FB791B09DBB203F00303D2
:101C9000DBB2002B07D00A4B4FF4A0721A80084B1E
:101CA000F0225A8006E0064BF0221A80044B4FF4D3
:101CB000A0725A8000BF0C37BD465DF8047B7047A8
:101CC000F401002080B500AF00224FF40051AA4873
:101CD00002F0A0FB4FF4FA7001F0B6F801224FF4C5
:101CE0000051A54802F096FB4FF4FA7001F0ACF8F1
:101CF0000020FFF7C3FFD320FFF784FDFFF7A2FD0D
:101D000003461A469D4B9A80FFF79CFD03461A46F0
:101D10009A4B9A80FFF796FD03461A46974B9A8096
:101D2000964B9B881B029AB2944B9A80FFF78AFDD0
:101D300003461A46914B9B8813439AB28F4B9A8065
:101D4000CF20FFF75FFD0020FFF76CFDC120FFF7FC
:101D500069FD3020FFF766FDED20FFF753FD64209D
:101D6000FFF760FD0320FFF75DFD1220FFF75AFD2E
:101D70008120FFF757FDE820FFF744FD8520FFF79E
:101D800051FD1020FFF74EFD7A20FFF74BFDCB20D1
:101D9000FFF738FD3920FFF745FD2C20FFF742FD06
:101DA0000020FFF73FFD3420FFF73CFD0220FFF746
:101DB00039FDF720FFF726FD2020FFF733FDEA204D
:101DC000FFF720FD0020FFF72DFD0020FFF72AFD83
:101DD000C020FFF717FD1B20FFF724FDC120FFF7F0
:101DE00011FD0120FFF71EFDC520FFF70BFD302080
:101DF000FFF718FD3020FFF715FDC720FFF702FDA4
:101E0000B720FFF70FFD3620FFF7FCFC0820FFF797
:101E100009FD3A20FFF7F6FC5520FFF703FDB1203E
:101E2000FFF7F0FC0020FFF7FDFC1A20FFF7FAFC9B
:101E3000B620FFF7E7FC0A20FFF7F4FCA220FFF72B
:101E4000F1FCF220FFF7DEFC0020FFF7EBFC262080
:101E5000FFF7D8FC0120FFF7E5FCE020FFF7D2FCFC
:101E60000F20FFF7DFFC2A20FFF7DCFC2820FFF71C
:101E7000D9FC0820FFF7D6FC0E20FFF7D3FC082082
:101E8000FFF7D0FC5420FFF7CDFCA920FFF7CAFCD8
:101E90004320FFF7C7FC0A20FFF7C4FC0F20FFF721
:101EA000C1FC0020FFF7BEFC0020FFF7BBFC0020B8
:101EB000FFF7B8FC0020FFF7B5FCE120FFF7A2FC1C
:101EC0000020FFF7AFFC1520FFF7ACFC1720FFF751
:101ED000A9FC0720FFF7A6FC1120FFF7A3FC0620B2
:101EE000FFF7A0FC2B20FFF79DFC5620FFF79AFC84
:101EF0003C20FFF797FC0520FFF794FC1020FFF72C
:101F000091FC0F20FFF78EFC3F20FFF78BFC3F205A
:101F1000FFF788FC0F20FFF785FC2B20FFF772FCF2
:101F20000020FFF77FFC0020FFF77CFC0120FFF77B
:101F300079FC3F20FFF776FC2A20FFF763FC0020A6
:101F4000FFF770FC0020FFF76DFC0020FFF76AFC34
:101F5000EF20FFF767FC1120FFF754FC782000F01A
:101F600073FF2920FFF74EFC01224FF480710448D3
:101F700002F050FA00BF80BD00080240F4010020CA
:101F80000000024090B58BB004AFBA601A46034619
:101F9000FB810B46BB811346FB80FB89BB82002380
:101FA000FB7548E0FB7D002B45D1FA89264B1B8849
:101FB000194697F82C305B08DBB2CB1A9A423FDC0B
:101FC000BA89214B5B88194697F82C30CB1A9A4274
:101FD00036DCBB681B78802B02D90123FB752AE015
:101FE000BB681B780D2B0BD197F82C309AB2BB89AC
:101FF0001344BB81BB8AFB81BB680133BB6017E024
:10200000BB681A78FC88B989F88997F83030029350
:1020100097F82C3001933B8D00932346FFF7BAFCD1
:1020200097F82C305B08DBB29AB2FB891344FB8132
:10203000BB680133BB60BB681B78002BB2D100E0EA
:1020400000BF1C37BD4690BDF401002080B500AF35
:1020500000F088FE00F01CF8FFF724FAFFF732F9D1
:1020600000F084F9FFF74EF9FFF756FB00F0FAFB9A
:1020700000F0ACFBFEF768FE00F058FB00F092FDAC
:1020800000F066FD00F0A0FA00F0D0FAFCE70000D6
:1020900080B594B000AF07F120033022002118462C
:1020A00005F020FD07F10C0300221A605A609A60C7
:1020B000DA601A610023BB60284B1B6C274A43F08F
:1020C00080531364254B1B6C03F08053BB60BB68CB
:1020D00000237B60224B1B68214A43F4804313603A
:1020E0001F4B1B6803F480437B607B6802233B62C9
:1020F0000123FB6210233B630223BB630023FB63CA
:1021000008233B64A8237B640223BB640423FB6491
:1021100007F12003184602F0DBFA0346002B01D03A
:1021200000F020F80F23FB6002233B6100237B615A
:102130004FF4A053BB614FF4A053FB6107F10C03B4
:102140000521184602F03CFD0346002B01D000F0AB
:1021500009F800BF5037BD4680BD00BF00380240BF
:102160000070004080B400AF72B600BFFEE7000010
:1021700080B400AF0A4B1B8907EE903AF8EE677AFD
:102180009FED087A67EE877A9FED077AC7EE876A38
:10219000F0EE667AB0EE670ABD465DF8047B7047E4
:1021A000FC0100200000A54300F07F4580B500AF92
:1021B00005220349034800F0AFFE00BF80BD00BF09
:1021C000FC0100207800002080B500AF0522034903
:1021D000034800F0A1FE00BF80BD00BFFC0100204D
:1021E0007800002080B582B000AF0346FB80FFF787
:1021F000BFFFF0EE407AFB88FCEEE77A17EE902AFC
:1022000091B20B4A22F81310FB88094A32F81330B6
:1022100007EE903AB8EEE77A064BD3ED007A77EE08
:10222000277A044BC3ED007A00BF0837BD4680BD56
:10223000080200201C02002080B483B000AF0B4BCA
:1022400093ED007AF2EE046AC7EE267AC7ED017AC2
:10225000064B4FF000021A607B6807EE903AB0EE32
:10226000670A0C37BD465DF8047B70471C020020EE
:1022700080B582B000AF786000F030F800BF08375A
:10228000BD4680BD80B582B000AF786039603B68E4
:102290004FF47A7202FB03F31846FEF72BF94FF066
:1022A00000020C4BFEF7CAFA02460B4610461946CE
:1022B000FEF7ACFB024608497B68DB000B445A6022
:1022C000054A7B68012102F8331000BF0837BD467C
:1022D00080BD00BF00408F402002002080B483B04A
:1022E00000AF00237B601FE0144A7B6812F8333094
:1022F000002B16D0114A7B68DB0013445B685A1E22
:102300000E497B68DB000B445A600C4A7B68DB009B
:1023100013445B68002B04D1084A7B68002102F853
:1023200033107B6801337B607B68022BDCD900BFF4
:1023300000BF0C37BD465DF8047B704720020020CB
:1023400080B483B000AF7860074A7B6812F83330FE
:10235000012B0CBF01230023DBB218460C37BD460E
:102360005DF8047B704700BF2002002080B500AFFD
:10237000174B184A1A60164B4FF482725A60144B6E
:1023800000229A60124B0022DA60114B00221A617F
:102390000F4B00225A610E4B4FF400729A610C4BA6
:1023A0000022DA610A4B00221A62094B00225A62AB
:1023B000074B00229A62064B0A22DA62044802F0B6
:1023C0001FFE0346002B01D0FFF7CCFE00BF80BDEF
:1023D000380200200030014080B58AB000AF78603C
:1023E00007F1140300221A605A609A60DA601A61D9
:1023F0007B681B68194A93422BD100233B61184B21
:102400005B6C174A43F480535364154B5B6C03F4C5
:1024100080533B613B690023FB60114B1B6B104AEF
:1024200043F0020313630E4B1B6B03F00203FB60CC
:10243000FB6838237B610223BB610023FB6103231C
:102440003B6205237B6207F114031946054801F03E
:1024500045FE00BF2837BD4680BD00BF00300140AB
:10246000003802400004024080B483B000AF002373
:102470007B60104B5B6C0F4A43F4804353640D4BFD
:102480005B6C03F480437B607B6800233B60094BFB
:102490001B6C084A43F080531364064B1B6C03F01B
:1024A00080533B603B6800BF0C37BD465DF8047B42
:1024B000704700BF0038024080B400AFFEE780B430
:1024C00000AFFEE780B400AFFEE780B400AFFEE7E8
:1024D00080B400AFFEE780B400AF00BFBD465DF83A
:1024E000047B704780B400AF00BFBD465DF8047B3D
:1024F000704780B400AF00BFBD465DF8047B7047F5
:1025000080B500AF00F080FC00BF80BD80B500AF9B
:10251000024803F042FB00BF80BD00BFE402002080
:1025200080B500AF024804F07DFA00BF80BD00BF57
:10253000DC03002080B500AF024804F073FA00BF4E
:1025400080BD00BF2004002080B500AF024801F02C
:102550005BFB00BF80BD00BFC000002080B586B01F
:1025600000AF7860144A154BD31A7B617B693B61DD
:10257000134B1B68002B02D1114B124A1A60104BEF
:102580001A687B6813443A699A4207D205F0B2FA96
:1025900003460C221A604FF0FF3309E0084B1B681A
:1025A000FB60074B1A687B681344054A1360FB689D
:1025B00018461837BD4680BD000002200004000008
:1025C00090020020B005002080B584B004AF15480B
:1025D00003F01AFA0A210020FFF754FE64210120BB
:1025E000FFF750FE43F698210220FFF74BFEFEF75F
:1025F000C9FCFFF767FBFFF7D9FD00F00DFA0020DB
:10260000FFF77EF900230293182301930023009320
:102610004FF6FF73044AAF210020FFF7B3FC00BF61
:10262000BD4680BDE40200202884000880B584B047
:1026300002AF0020FFF784FE0346002B0BD1FEF70C
:10264000ADFCFEF71DFEFEF7E5FD0A210020FFF7B9
:1026500019FEFFF7B9FD0120FFF772FE0346002BBC
:102660002ED1274B1B885A1C91B2254A118018463F
:10267000FFF7B8FD224B1B88092B1DD9FFF7DCFDA6
:1026800087ED010A1F4B93ED007AD7ED017A77EEC3
:10269000277A1C4BC3ED007A182301930023009383
:1026A0004FF6FF73042297ED010AC8210020FFF7BF
:1026B0005DFA134B00221A8064210120FFF7E2FD2E
:1026C0000220FFF73DFE0346002B15D10D4BD3ED45
:1026D000007AF2EE0E6A87EEA67AB0EE470AFEF7AF
:1026E00041FD084B4FF000021A60FEF77DFD43F6F6
:1026F00098210220FFF7C6FD00BF0837BD4680BD08
:10270000940200209802002080B400AF064BD3F85A
:102710008830054A43F47003C2F8883000BFBD46D4
:102720005DF8047B704700BF00ED00E080B586B027
:1027300000AF07F1080300221A605A609A60DA605D
:102740003B4600221A605A601E4B1F4A1A601D4BFE
:1027500053225A601B4B00229A601A4B4FF6FF72AD
:10276000DA60184B00221A61164B00225A61154B91
:1027700000229A61134803F0F7F80346002B01D0BA
:10278000FFF7F0FC4FF48053BB6007F108031946D4
:102790000C4803F0CDFB0346002B01D0FFF7E2FC11
:1027A00000233B6000237B603B461946054803F04D
:1027B00099FF0346002B01D0FFF7D4FC00BF183768
:1027C000BD4680BD9C0200200000014080B586B05F
:1027D00000AF07F1080300221A605A609A60DA60BD
:1027E0003B4600221A605A601D4B4FF080421A602F
:1027F0001B4B40F247325A60194B00229A60184B2B
:102800006322DA60164B00221A61154B00229A618E
:10281000134803F0A9F80346002B01D0FFF7A2FCF0
:102820004FF48053BB6007F1080319460C4803F0CE
:102830007FFB0346002B01D0FFF794FC00233B6095
:1028400000237B603B461946054803F04BFF0346D7
:10285000002B01D0FFF786FC00BF1837BD4680BDB6
:10286000E402002080B588B000AF3B1D00221A6052
:102870005A609A60DA601A615A619A611E4B1F4A67
:102880001A601D4B40F247325A601B4B00229A607F
:10289000194B6322DA60184B00221A61164B002292
:1028A0009A61154803F060F80346002B01D0FFF74A
:1028B00059FC114803F018F90346002B01D0FFF72B
:1028C00051FC60237B600023BB600023FB6000237E
:1028D0007B613B1D00221946074803F067FA034657
:1028E000002B01D0FFF73EFC034800F05BF800BF6F
:1028F0002037BD4680BD00BF2C030020001C0040D7
:1029000080B586B000AF78607B681B68224A93422E
:102910000ED100237B61214B5B6C204A43F0010305
:1029200053641E4B5B6C03F001037B617B692EE0FB
:102930007B681B68B3F1804F16D100233B61174BB6
:102940001B6C164A43F001031364144B1B6C03F019
:1029500001033B613B69002200211C2000F085FF40
:102960001C2000F09EFF12E07B681B680C4A93421B
:102970000DD10023FB60094B1B6C084A43F0800318
:102980001364064B1B6C03F08003FB60FB6800BF05
:102990001837BD4680BD00BF00000140003802402E
:1029A000001C004080B588B000AF786007F10C03D0
:1029B00000221A605A609A60DA601A617B681B68AC
:1029C000124A93421ED10023BB60114B1B6B104A6D
:1029D00043F0200313630E4B1B6B03F02003BB601B
:1029E000BB684FF48073FB6002233B6100237B6173
:1029F0000023BB610923FB6107F10C03194605485D
:102A000001F06CFB00BF2037BD4680BD001C0040BC
:102A1000003802400014024080B500AF0122064990
:102A2000064803F0CEFF01224FF48061044801F014
:102A3000F1FC00BF80BD00BFD903002020040020AE
:102A40000014024080B582B000AF78600B467B80F6
:102A50007A880A237968034803F021FF00BF08370A
:102A6000BD4680BD2004002080B582B000AF7860F4
:102A70007A680749074805F015F803469AB20A2311
:102A80000449054803F00BFF00BF0837BD4680BD71
:102A900034840008740300202004002080B582B034
:102AA00000AF78607B681B68194A93420AD10A23F9
:102AB00001221849184803F0F2FE01221549164870
:102AC00003F07FFF7B681B68144A93421BD1144BB1
:102AD0001B784F2B03D1134B01221A700EE0104BC1
:102AE0001B78612B03D1104B00221A7006E00C4BAF
:102AF0001B78412B02D10C4B01221A70012208498C
:102B00000A4803F05EFF00BF0837BD4680BD00BF26
:102B100000100140D8030020DC03002000440040E6
:102B2000D9030020DA030020420100202004002005
:102B300080B400AF054B1B78012B01D1012300E0CD
:102B400000231846BD465DF8047B7047DA03002079
:102B500080B500AF114B124A1A60104B4FF4E132AE
:102B60005A600E4B00229A600C4B0022DA600B4B2D
:102B700000221A61094B0C225A61084B00229A610B
:102B8000064B0022DA61054803F03CFE0346002BA9
:102B900001D0FFF7E7FA00BF80BD00BFDC030020D3
:102BA0000010014080B500AF114B124A1A60104B63
:102BB0004FF4E1325A600E4B00229A600C4B002217
:102BC000DA600B4B00221A61094B0C225A61084B48
:102BD00000229A61064B0022DA61054803F012FEDA
:102BE0000346002B01D0FFF7BDFA00BF80BD00BF38
:102BF000200400200044004080B58CB000AF786015
:102C000007F11C0300221A605A609A60DA601A61A8
:102C10007B681B683A4A934235D10023BB61394B2C
:102C20005B6C384A43F010035364364B5B6C03F023
:102C30001003BB61BB6900237B61324B1B6B314AC4
:102C400043F0010313632F4B1B6B03F001037B6104
:102C50007B694FF4C063FB6102233B6200237B620C
:102C60000323BB620723FB6207F11C0319462648B6
:102C700001F034FA00220021252000F0F6FD252085
:102C800000F00FFE38E07B681B68204A934233D186
:102C900000233B611B4B1B6C1A4A43F40033136443
:102CA000184B1B6C03F400333B613B690023FB6052
:102CB000144B1B6B134A43F001031363114B1B6B43
:102CC00003F00103FB60FB680C23FB6102233B6202
:102CD00000237B620323BB620723FB6207F11C0313
:102CE0001946094801F0FAF900220021262000F0D7
:102CF000BCFD262000F0D5FD00BF3037BD4680BDAD
:102D00000010014000380240000002400044004032
:102D1000DFF834D00D480E490E4A002302E0D458A3
:102D2000C4500433C4188C42F9D30B4A0B4C002313
:102D300001E013600432A242FBD3FFF7E5FC04F08C
:102D4000DFFEFFF783F9704700000220000000203B
:102D50005C0000202CB400085C000020B0050020BE
:102D6000FEE7000080B500AF0E4B1B680D4A43F430
:102D7000007313600B4B1B680A4A43F480631360B3
:102D8000084B1B68074A43F480731360032000F06C
:102D900061FD0F2000F008F8FFF766FB00231846DE
:102DA00080BD00BF003C024080B582B000AF7860BB
:102DB000124B1A68124B1B7819464FF47A73B3FB07
:102DC000F1F3B2FBF3F3184600F079FD0346002B54
:102DD00001D001230EE07B680F2B0AD8002279680E
:102DE0004FF0FF3000F041FD064A7B68136000237E
:102DF00000E0012318460837BD4680BD00000020D2
:102E0000080000200400002080B400AF064B1B78AF
:102E10001A46064B1B681344044A136000BFBD46A4
:102E20005DF8047B704700BF0800002064040020A8
:102E300080B400AF034B1B681846BD465DF8047BA9
:102E4000704700BF6404002080B584B000AF786094
:102E5000FFF7EEFFB8607B68FB60FB68B3F1FF3FF4
:102E600005D00A4B1B781A46FB681344FB6000BF71
:102E7000FFF7DEFF0246BB68D31AFA689A42F7D81A
:102E800000BF00BF1037BD4680BD00BF0800002056
:102E900080B584B000AF78600023FB737B68002BA3
:102EA00001D1012333E07B681B6C002B09D17868CA
:102EB000FDF7D4FF7B6800225A647B68002283F808
:102EC0003C207B681B6C03F01003002B18D17B683F
:102ED0001B6C23F4885323F0020343F002027B6847
:102EE0001A64786800F068FA7B6800225A647B688C
:102EF0001B6C23F0030343F001027B681A6401E0BA
:102F00000123FB737B68002283F83C20FB7B18467F
:102F10001037BD4680BD000080B586B000AFF860B8
:102F2000B9607A6000233B61FB6893F83C30012B69
:102F300001D10223E9E0FB68012283F83C20FB6811
:102F40001B689B6803F00103012B18D0FB681B680A
:102F50009A68FB681B6842F001029A606D4B1B681F
:102F60006D4AA2FB03239A0C13465B0013443B619A
:102F700002E03B69013B3B613B69002BF9D1FB68F7
:102F80001B689B6803F48073B3F5807F07D1FB68EF
:102F90001B689A68FB681B6822F480729A60FB6861
:102FA0001B689B6803F00103012B40F0A180FB68C4
:102FB0001B6C23F4E06323F0010343F48072FB688D
:102FC0001A64FB681B685B6803F48063002B07D0FE
:102FD000FB681B6C23F4405343F48052FB681A6473
:102FE000FB681B6C03F48053B3F5805F06D1FB686C
:102FF0005B6C23F00602FB685A6402E0FB68002267
:103000005A64FB68002283F83C20444B7B61FB68D8
:103010009B6B434ADA63FB689B6B424A1A64FB680A
:103020009B6B414ADA64FB681B686FF022021A60EE
:10303000FB681B685A68FB681B6842F080625A6034
:10304000FB681B689A68FB681B6842F480729A6090
:10305000FB68986BFB681B684C331946BA687B6841
:1030600000F0E8FC7B695B6803F01F03002B2AD1AA
:10307000FB681B682D4A934215D0FB681B682C4ADD
:10308000934205D1254B5B6803F01F03002B0AD048
:10309000FB681B68274A934236D1204B5B6803F0DC
:1030A0001003002B30D1FB681B689B6803F0405372
:1030B000002B29D1FB681B689A68FB681B6842F0EB
:1030C00080429A6020E0FB681B68184A93421BD13B
:1030D000FB681B689B6803F04053002B14D1FB680E
:1030E0001B689A68FB681B6842F080429A600BE09C
:1030F000FB681B6C43F01002FB681A64FB685B6C96
:1031000043F00102FB685A64002318461837BD4695
:1031100080BD00BF0000002083DE1B430023014070
:10312000B13500086B3600088736000800200140E2
:10313000002101400022014080B483B000AF7860DC
:1031400000BF0C37BD465DF8047B704780B483B088
:1031500000AF786000BF0C37BD465DF8047B704758
:1031600080B483B000AF786000BF0C37BD465DF817
:10317000047B704780B485B000AF7860396000236D
:10318000BB607B6893F83C30012B01D1022305E141
:103190007B68012283F83C203B681B68092B25D9FA
:1031A0007B681B68D9683B681B689BB21A4613464C
:1031B0005B0013441E3B072202FA03F3DA437B68E9
:1031C0001B680A40DA607B681B68D9683B689A68AC
:1031D0003B681B689BB2184603465B0003441E3BDA
:1031E0009A407B681B680A43DA6022E07B681B68B0
:1031F00019693B681B689BB21A4613465B0013446F
:10320000072202FA03F3DA437B681B680A401A615B
:103210007B681B6819693B689A683B681B689BB2AE
:10322000184603465B0003449A407B681B680A43C8
:103230001A613B685B68062B24D87B681B68596B56
:103240003B685A6813469B001344053B1F2202FA51
:1032500003F3DA437B681B680A405A637B681B6888
:10326000596B3B681B689BB218463B685A6813460B
:103270009B001344053B00FA03F27B681B680A437A
:103280005A634CE03B685B680C2B24D87B681B6856
:10329000196B3B685A6813469B001344233B1F225B
:1032A00002FA03F3DA437B681B680A401A637B68FF
:1032B0001B68196B3B681B689BB218463B685A68D1
:1032C00013469B001344233B00FA03F27B681B6800
:1032D0000A431A6323E07B681B68D96A3B685A6813
:1032E00013469B001344413B1F2202FA03F3DA43C7
:1032F0007B681B680A40DA627B681B68D96A3B6896
:103300001B689BB218463B685A6813469B001344DF
:10331000413B00FA03F27B681B680A43DA62224BE6
:10332000FB607B681B68214A934209D13B681B689C
:10333000122B05D1FB685B6843F48002FB685A607E
:103340007B681B68194A934223D13B681B68102B8A
:1033500003D03B681B68112B1BD1FB685B6843F4EF
:103360000002FB685A603B681B68102B11D1104BA0
:103370001B68104AA2FB03239A0C13469B001344BC
:103380005B00BB6002E0BB68013BBB60BB68002B1D
:10339000F9D17B68002283F83C20002318461437BB
:1033A000BD465DF8047B70470023014000200140CA
:1033B0000000002083DE1B4380B485B000AF78603E
:1033C000794BFB60FB685B6823F44032FB685A6012
:1033D000FB685A687B685B681A43FB685A607B68C5
:1033E0001B685A687B681B6822F480725A607B688D
:1033F0001B6859687B681B691A027B681B680A4353
:103400005A607B681B685A687B681B6822F04072B0
:103410005A607B681B6859687B689A687B681B6880
:103420000A435A607B681B689A687B681B6822F4B1
:1034300000629A607B681B6899687B68DA687B68C1
:103440001B680A439A607B689B6A584A934222D061
:103450007B681B689A687B681B6822F070629A60C0
:103460007B681B6899687B689A6A7B681B680A435B
:103470009A607B681B689A687B681B6822F04052E0
:103480009A607B681B6899687B68DA6A7B681B684E
:103490000A439A600FE07B681B689A687B681B6828
:1034A00022F070629A607B681B689A687B681B6870
:1034B00022F040529A607B681B689A687B681B68A0
:1034C00022F002029A607B681B6899687B681B7E09
:1034D0005A007B681B680A439A607B6893F8203027
:1034E000002B1BD07B681B685A687B681B6842F402
:1034F00000625A607B681B685A687B681B6822F40C
:1035000060425A607B681B6859687B685B6A013B54
:103510005A037B681B680A435A6007E07B681B6894
:103520005A687B681B6822F400625A607B681B68DB
:10353000DA6A7B681B6822F47002DA627B681B68B7
:10354000D96A7B68DB69013B1A057B681B680A4303
:10355000DA627B681B689A687B681B6822F40072D9
:103560009A607B681B6899687B6893F830305A02D0
:103570007B681B680A439A607B681B689A687B6853
:103580001B6822F480629A607B681B6899687B687C
:103590005B699A027B681B680A439A6000BF143714
:1035A000BD465DF8047B7047002301400100000F19
:1035B00080B584B000AF78607B689B6BFB60FB6874
:1035C0001B6C03F05003002B3CD1FB681B6C43F4D5
:1035D0000072FB681A64FB681B689B6803F0405329
:1035E000002B2BD1FB681B7E002B27D1FB681B68AF
:1035F000DB6A03F47003002B06D0FB681B689B6832
:1036000003F48063002B19D1FB681B685A68FB68C0
:103610001B6822F020025A60FB681B6C23F4807246
:10362000FB681A64FB681B6C03F48053002B05D104
:10363000FB681B6C43F00102FB681A64F868FFF733
:103640007BFD0EE0FB681B6C03F01003002B03D026
:10365000F868FFF785FD04E0FB689B6BDB6C78681E
:10366000984700BF1037BD4680BD80B584B000AF1D
:1036700078607B689B6BFB60F868FFF767FD00BFB5
:103680001037BD4680BD80B584B000AF78607B68E0
:103690009B6BFB60FB6840221A64FB685B6C43F029
:1036A0000402FB685A64F868FFF75AFD00BF103740
:1036B000BD4680BD80B485B000AF78607B6803F004
:1036C0000703FB600C4BDB68BB60BA684FF6FF0377
:1036D0001340BB60FB681A02BB68134343F0BF632F
:1036E00043F40033BB60044ABB68D36000BF1437A7
:1036F000BD465DF8047B704700ED00E080B400AF8C
:10370000044BDB681B0A03F007031846BD465DF84F
:10371000047B704700ED00E080B483B000AF034647
:10372000FB7197F90730002B0BDBFB7903F01F02CD
:10373000074997F907305B09012000FA02F241F8C6
:10374000232000BF0C37BD465DF8047B704700BFE7
:1037500000E100E080B483B000AF03463960FB7144
:1037600097F90730002B0ADB3B68DAB20C4997F96E
:1037700007301201D2B20B4483F800230AE03B6801
:10378000DAB20849FB7903F00F03043B1201D2B20D
:103790000B441A7600BF0C37BD465DF8047B7047BA
:1037A00000E100E000ED00E080B489B000AFF86017
:1037B000B9607A60FB6803F00703FB61FB69C3F142
:1037C0000703042B28BF0423BB61FB690433062BCA
:1037D00002D9FB69033B00E000237B614FF0FF321D
:1037E000BB6902FA03F3DA43BB681A407B699A406B
:1037F0004FF0FF317B6901FA03F3D9437B680B403B
:10380000134318462437BD465DF8047B704700001B
:1038100080B582B000AF78607B68013BB3F1807FF8
:1038200001D301230FE00A4A7B68013B53600F215B
:103830004FF0FF30FFF78EFF054B00229A60044BDC
:1038400007221A60002318460837BD4680BD00BF16
:1038500010E000E080B582B000AF78607868FFF7D4
:1038600029FF00BF0837BD4680BD80B586B000AFD8
:103870000346B9607A60FB7300237B61FFF73EFF6C
:1038800078617A68B9687869FFF78EFF024697F920
:103890000F3011461846FFF75DFF00BF1837BD46D1
:1038A00080BD80B582B000AF0346FB7197F9073049
:1038B0001846FFF731FF00BF0837BD4680BD80B511
:1038C00082B000AF78607868FFF7A2FF0346184621
:1038D0000837BD4680BD000080B586B000AF786077
:1038E00000237B61FFF7A4FA38617B68002B01D1CC
:1038F000012399E07B68022283F835207B6800224F
:1039000083F834207B681B681A687B681B6822F088
:1039100001021A600FE0FFF78BFA02463B69D31AE7
:10392000052B08D97B6820225A657B68032283F81F
:103930003520032378E07B681B681B6803F00103D4
:10394000002BE8D17B681B681B687B617A69384B68
:1039500013407B617B685A687B689B681A437B686D
:10396000DB681A437B681B691A437B685B691A43EF
:103970007B689B691A437B68DB691A437B681B6A17
:1039800013437A6913437B617B685B6A042B07D11D
:103990007B68DA6A7B681B6B13437A6913437B612C
:1039A0007B681B687A691A607B681B685B697B614E
:1039B0007B6923F007037B617B685B6A7A69134349
:1039C0007B617B685B6A042B17D17B689B6A7A6991
:1039D00013437B617B68DB6A002B0ED0786800F0B4
:1039E00001FB0346002B08D07B6840225A657B68A8
:1039F000012283F83520012316E07B681B687A6971
:103A00005A61786800F0B8FA0346FB607B68DB6DAA
:103A10003F229A40FB689A607B6800225A657B6867
:103A2000012283F83520002318461837BD4680BD93
:103A30003F8010F080B586B000AFF860B9607A6062
:103A40003B600023FB75FB689B6D3B61FB6893F853
:103A50003430012B01D1022340E0FB68012283F8BE
:103A60003420FB6893F83530DBB2012B2FD1FB6893
:103A7000022283F83520FB6800225A653B687A6889
:103A8000B968F86800F04AFAFB68DB6D3F229A409B
:103A90003B699A60FB681B681A68FB681B6842F008
:103AA00016021A60FB681B6C002B07D0FB681B68B2
:103AB0001A68FB681B6842F008021A60FB681B6802
:103AC0001A68FB681B6842F001021A6005E0FB6897
:103AD000002283F834200223FB75FB7D184618373B
:103AE000BD4680BD80B584B000AF78607B689B6DBB
:103AF000FB60FFF79DF9B8607B6893F83530DBB267
:103B0000022B08D07B6880225A657B68002283F8EC
:103B10003420012352E07B681B681A687B681B68AD
:103B200022F016021A607B681B685A697B681B6862
:103B300022F080025A617B681B6C002B03D17B68EA
:103B40009B6C002B07D07B681B681A687B681B681E
:103B500022F008021A607B681B681A687B681B6881
:103B600022F001021A6013E0FFF762F90246BB6817
:103B7000D31A052B0CD97B6820225A657B68032257
:103B800083F835207B68002283F83420032315E076
:103B90007B681B681B6803F00103002BE4D17B6882
:103BA000DB6D3F229A40FB689A607B68012283F8B4
:103BB00035207B68002283F8342000231846103714
:103BC000BD4680BD80B483B000AF78607B6893F859
:103BD0003530DBB2022B04D07B6880225A6501238A
:103BE0000CE07B68052283F835207B681B681A6827
:103BF0007B681B6822F001021A60002318460C370C
:103C0000BD465DF8047B704780B586B000AF786034
:103C10000023BB608E4B1B688E4AA2FB03239B0ACA
:103C20007B617B689B6D3B613B691B68FB607B68CC
:103C3000DB6D08229A40FB681340002B1AD07B688A
:103C40001B681B6803F00403002B13D07B681B6800
:103C50001A687B681B6822F004021A607B68DB6DBF
:103C600008229A403B699A607B685B6D43F00102D1
:103C70007B685A657B68DB6D01229A40FB681340C4
:103C8000002B12D07B681B685B6903F08003002B5C
:103C90000BD07B68DB6D01229A403B699A607B68A0
:103CA0005B6D43F002027B685A657B68DB6D042222
:103CB0009A40FB681340002B12D07B681B681B687E
:103CC00003F00203002B0BD07B68DB6D04229A40CB
:103CD0003B699A607B685B6D43F004027B685A65C0
:103CE0007B68DB6D10229A40FB681340002B43D0A9
:103CF0007B681B681B6803F00803002B3CD07B68C3
:103D0000DB6D10229A403B699A607B681B681B68D8
:103D100003F48023002B18D07B681B681B6803F416
:103D20000023002B08D17B681B6C002B24D07B6800
:103D30001B6C786898471FE07B689B6C002B1BD03E
:103D40007B689B6C7868984716E07B681B681B68EB
:103D500003F48073002B07D17B681B681A687B68AB
:103D60001B6822F008021A607B681B6C002B03D0D2
:103D70007B681B6C786898477B68DB6D20229A40D3
:103D8000FB681340002B00F08F807B681B681B686A
:103D900003F01003002B00F087807B68DB6D20228E
:103DA0009A403B699A607B6893F83530DBB2052B0B
:103DB00036D17B681B681A687B681B6822F0160284
:103DC0001A607B681B685A697B681B6822F0800256
:103DD0005A617B681B6C002B03D17B689B6C002BAA
:103DE00007D07B681B681A687B681B6822F0080292
:103DF0001A607B68DB6D3F229A403B699A607B6862
:103E0000012283F835207B68002283F834207B6808
:103E10001B6D002B7ED07B681B6D7868984779E01E
:103E20007B681B681B6803F48023002B1DD07B6814
:103E30001B681B6803F40023002B0DD17B685B6CAF
:103E4000002B31D07B685B6C786898472CE000BF12
:103E500000000020B5814E1B7B68DB6B002B23D05C
:103E60007B68DB6B786898471EE07B681B681B6883
:103E700003F48073002B0FD17B681B681A687B6882
:103E80001B6822F010021A607B68012283F835203B
:103E90007B68002283F834207B68DB6B002B03D027
:103EA0007B68DB6B786898477B685B6D002B32D052
:103EB0007B685B6D03F00103002B22D07B68052239
:103EC00083F835207B681B681A687B681B6822F0C2
:103ED00001021A60BB680133BB607A699A4207D35A
:103EE0007B681B681B6803F00103002BF2D100E024
:103EF00000BF7B68012283F835207B68002283F8AD
:103F000034207B68DB6C002B05D07B68DB6C786829
:103F1000984700E000BF1837BD4680BD80B485B02B
:103F200000AFF860B9607A603B60FB681B681A6894
:103F3000FB681B6822F480221A60FB681B683A68E1
:103F40005A60FB689B68402B08D1FB681B687A6845
:103F50009A60FB681B68BA68DA6007E0FB681B6858
:103F6000BA689A60FB681B687A68DA6000BF143729
:103F7000BD465DF8047B704780B485B000AF7860C3
:103F80007B681B68DBB2103B144AA2FB03231B09AE
:103F9000FB60134AFB6813441B781A467B68DA659A
:103FA000FB68032B09D97B681B6823F47F7323F01C
:103FB00003031A1D7B689A6507E07B681B6823F47E
:103FC0007F7323F003037A6893657B689B6D1846C3
:103FD0001437BD465DF8047B704700BFABAAAAAAA0
:103FE000E0B3000880B485B000AF78600023FB73B5
:103FF0007B689B6ABB607B689B69002B1FD1BB6899
:10400000032B56D801A252F823F000BF1D40000830
:104010002F4000081D400008B34000087B68DB6AA1
:1040200003F08073002B46D00123FB7343E07B68D1
:10403000DB6AB3F1C07F40D10123FB733DE07B68B5
:104040009B69B3F5005F21D1BB68032B37D801A270
:1040500052F823F0654000086B40000865400008F6
:104060007D4000080123FB7330E07B68DB6A03F0CE
:104070008073002B25D00123FB7322E07B68DB6A71
:10408000B3F1C07F1FD10123FB731CE0BB68022B7F
:1040900003D9BB68032B03D018E00123FB7315E0A1
:1040A0007B68DB6A03F08073002B0ED00123FB7367
:1040B0000BE000BF0AE000BF08E000BF06E000BF61
:1040C00004E000BF02E000BF00E000BFFB7B184639
:1040D0001437BD465DF8047B704700BF80B489B0DB
:1040E00000AF7860396000237B6100233B610023CF
:1040F000BB610023FB616BE10122FB6902FA03F360
:104100007B613B681B687A6913403B613A697B6954
:104110009A4240F05A813B685B6803F00303012B2D
:1041200005D03B685B6803F00303022B30D17B684A
:104130009B68BB61FB695B00032202FA03F3DB436C
:10414000BA691340BB613B68DA68FB695B0002FA3D
:1041500003F3BA691343BB617B68BA699A607B68F1
:104160005B68BB610122FB6902FA03F3DB43BA69B6
:104170001340BB613B685B681B0903F00102FB69EC
:1041800002FA03F3BA691343BB617B68BA695A60E8
:104190003B685B6803F00303032B17D07B68DB6885
:1041A000BB61FB695B00032202FA03F3DB43BA69DC
:1041B0001340BB613B689A68FB695B0002FA03F33A
:1041C000BA691343BB617B68BA69DA603B685B68B4
:1041D00003F00303022B23D1FB69DA087B68083262
:1041E00053F82230BB61FB6903F007039B000F22E9
:1041F00002FA03F3DB43BA691340BB613B681A69F7
:10420000FB6903F007039B0002FA03F3BA69134347
:10421000BB61FB69DA087B680832B96943F8221090
:104220007B681B68BB61FB695B00032202FA03F336
:10423000DB43BA691340BB613B685B6803F0030270
:10424000FB695B0002FA03F3BA691343BB617B6845
:10425000BA691A603B685B6803F44033002B00F0D6
:10426000B4800023FB60604B5B6C5F4A43F4804387
:1042700053645D4B5B6C03F48043FB60FB685B4AFB
:10428000FB699B08023352F82330BB61FB6903F0E2
:1042900003039B000F2202FA03F3DB43BA691340C6
:1042A000BB617B68524A93422BD07B68514A934250
:1042B00025D07B68504A93421FD07B684F4A934277
:1042C00019D07B684E4A934213D07B684D4A934283
:1042D0000DD07B684C4A934207D07B684B4A93428F
:1042E00001D107230EE008230CE006230AE0052392
:1042F00008E0042306E0032304E0022302E0012394
:1043000000E00023FA6902F0030292009340BA69C8
:104310001343BB613549FB699B080233BA6941F815
:1043200023203B4B9B68BB613B69DB43BA6913406D
:10433000BB613B685B6803F48013002B03D0BA6950
:104340003B691343BB61324ABB699360304BDB6806
:10435000BB613B69DB43BA691340BB613B685B6887
:1043600003F40013002B03D0BA693B691343BB610C
:10437000274ABB69D360264B5B68BB613B69DB4363
:10438000BA691340BB613B685B6803F40033002BE0
:1043900003D0BA693B691343BB611D4ABB695360D3
:1043A0001B4B1B68BB613B69DB43BA691340BB61B4
:1043B0003B685B6803F48033002B03D0BA693B6928
:1043C0001343BB61124ABB691360FB690133FB6194
:1043D000FB690F2B7FF690AE00BF00BF2437BD46B0
:1043E0005DF8047B704700BF003802400038014090
:1043F000000002400004024000080240000C02409D
:10440000001002400014024000180240001C02404C
:10441000003C014080B483B000AF78600B467B80E5
:1044200013467B707B78002B03D07A887B689A6177
:1044300003E07B881A047B689A6100BF0C37BD4695
:104440005DF8047B7047000080B584B000AF7860F1
:104450007B68002B01D101232BE17B6893F83D3071
:10446000DBB2002B06D17B68002283F83C20786801
:10447000FDF780F97B68242283F83D207B681B6868
:104480001A687B681B6822F001021A607B681B684F
:104490001A687B681B6842F400421A607B681B68DC
:1044A0001A687B681B6822F400421A6000F080FDE5
:1044B000F8607B685B68814A934207D8FB68804A52
:1044C000934294BF01230023DBB206E0FB687D4AE0
:1044D000934294BF01230023DBB2002B01D00123C0
:1044E000E7E0FB68784AA2FB03239B0CBB607B6878
:1044F0001B685B6823F03F017B681B68BA680A434E
:104500005A607B681B681B6A23F03F017B685B680D
:104510006A4A934202D8BB68013309E0BB684FF492
:10452000967202FB03F3694AA2FB03239B09013342
:104530007A6812680B4313627B681B68DB6923F49B
:104540004F4222F0FF027B685B685C498B4219D8BE
:10455000FB68591E7B685B685B00B1FBF3F3591C79
:1045600040F6FC730B40002B0AD0FB68591E7B6899
:104570005B685B00B1FBF3F30133C3F30B0351E062
:1045800004234FE07B689B68002B11D1FB68581E09
:104590007B6859680B465B000B44B0FBF3F30133B7
:1045A000C3F30B03002B0CBF01230023DBB212E08B
:1045B000FB68581E7B6859680B469B000B449900AA
:1045C0000B44B0FBF3F30133C3F30B03002B0CBF1D
:1045D00001230023DBB2002B01D0012322E07B6802
:1045E0009B68002B0ED1FB68581E7B6859680B46F0
:1045F0005B000B44B0FBF3F30133C3F30B0343F451
:1046000000430FE0FB68581E7B6859680B469B000F
:104610000B4499000B44B0FBF3F30133C3F30B03DA
:1046200043F44043796809681343CB617B681B6896
:104630001B6823F0C0017B68DA697B681B6A1A4338
:104640007B681B680A431A607B681B689B6823F4BD
:10465000034323F0FF037A6811697A68D268114333
:104660007A6812680B4393607B681B68DB6823F0F1
:10467000FF017B685A697B689B691A437B681B68EA
:104680000A43DA607B681B681A687B681B6842F023
:1046900001021A607B6800221A647B68202283F87A
:1046A0003D207B6800221A637B68002283F83E204D
:1046B000002318461037BD4680BD00BFA08601000C
:1046C0007F841E00FF083D0083DE1B43D34D621034
:1046D00080B586B000AF78607B68002B01D10123E4
:1046E00067E27B681B6803F00103002B75D0884BE1
:1046F0009B6803F00C03042B0CD0854B9B6803F0E4
:104700000C03082B12D1824B5B6803F48003B3F5D2
:10471000800F0BD17E4B1B6803F40033002B5BD062
:104720007B685B68002B57D1012342E27B685B68A2
:10473000B3F5803F06D1764B1B68754A43F480334E
:1047400013601DE07B685B68B3F5A02F0CD1704B44
:104750001B686F4A43F4802313606D4B1B686C4ADF
:1047600043F4803313600BE0694B1B68684A23F401
:1047700080331360664B1B68654A23F48023136003
:104780007B685B68002B13D0FEF752FB386108E0B2
:10479000FEF74EFB02463B69D31A642B01D9032373
:1047A00007E25B4B1B6803F40033002BF0D014E0EE
:1047B000FEF73EFB386108E0FEF73AFB02463B6934
:1047C000D31A642B01D90323F3E1514B1B6803F483
:1047D0000033002BF0D100E000BF7B681B6803F0C2
:1047E0000203002B63D04A4B9B6803F00C03002BA1
:1047F0000BD0474B9B6803F00C03082B1CD1444B98
:104800005B6803F48003002B16D1414B1B6803F057
:104810000203002B05D07B68DB68012B01D001234C
:10482000C7E13B4B1B6823F0F8027B681B69DB0088
:10483000374913430B603AE07B68DB68002B20D0DC
:10484000344B01221A60FEF7F3FA386108E0FEF7F4
:10485000EFFA02463B69D31A022B01D90323A8E1E0
:104860002B4B1B6803F00203002BF0D0284B1B6876
:1048700023F0F8027B681B69DB00254913430B60BA
:1048800015E0244B00221A60FEF7D2FA386108E0E6
:10489000FEF7CEFA02463B69D31A022B01D9032355
:1048A00087E11B4B1B6803F00203002BF0D17B68F0
:1048B0001B6803F00803002B36D07B685B69002B74
:1048C00016D0154B01221A60FEF7B2FA386108E0E3
:1048D000FEF7AEFA02463B69D31A022B01D9032335
:1048E00067E10B4B5B6F03F00203002BF0D01BE082
:1048F000094B00221A60FEF79BFA38610EE0FEF7C2
:1049000097FA02463B69D31A022B07D9032350E1D9
:104910000038024000004742800E4742884B5B6FE0
:1049200003F00203002BEAD17B681B6803F0040349
:10493000002B00F097800023FB75814B1B6C03F06C
:104940008053002B0FD10023BB607D4B1B6C7C4A36
:1049500043F0805313647A4B1B6C03F08053BB60AD
:10496000BB680123FB75774B1B6803F48073002B36
:1049700018D1744B1B68734A43F480731360FEF7BD
:1049800057FA386108E0FEF753FA02463B69D31A3A
:10499000022B01D903230CE16A4B1B6803F48073DB
:1049A000002BF0D07B689B68012B06D1644B1B6FFA
:1049B000634A43F0010313671CE07B689B68052B87
:1049C0000CD15F4B1B6F5E4A43F0040313675C4BD3
:1049D0001B6F5B4A43F0010313670BE0584B1B6FDF
:1049E000574A23F001031367554B1B6F544A23F0BA
:1049F000040313677B689B68002B15D0FEF718FA39
:104A000038610AE0FEF714FA02463B69D31A41F214
:104A10008832934201D90323CBE0494B1B6F03F04B
:104A20000203002BEED014E0FEF702FA38610AE030
:104A3000FEF7FEF902463B69D31A41F288329342EF
:104A400001D90323B5E03E4B1B6F03F00203002B9B
:104A5000EED1FB7D012B05D1394B1B6C384A23F07D
:104A6000805313647B689B69002B00F0A180344B5A
:104A70009B6803F00C03082B5CD07B689B69022BBE
:104A800041D1314B00221A60FEF7D2F9386108E0BB
:104A9000FEF7CEF902463B69D31A022B01D9032354
:104AA00087E0274B1B6803F00073002BF0D17B6875
:104AB000DA697B681B6A1A437B685B6A9B011A434D
:104AC0007B689B6A5B08013B1B041A437B68DB6ABB
:104AD0001B061B4913434B601B4B01221A60FEF758
:104AE000A7F9386108E0FEF7A3F902463B69D31A3B
:104AF000022B01D903235CE0114B1B6803F0007308
:104B0000002BF0D054E0104B00221A60FEF790F911
:104B1000386108E0FEF78CF902463B69D31A022B94
:104B200001D9032345E0064B1B6803F00073002BFB
:104B3000F0D13DE07B689B69012B07D1012338E070
:104B40000038024000700040600047421B4B5B6829
:104B5000FB607B689B69012B28D0FB6803F4800213
:104B60007B68DB699A4221D1FB6803F03F027B68D6
:104B70001B6A9A421AD1FA6847F6C07313407A68E2
:104B8000526A9201934211D1FB6803F440327B6870
:104B90009B6A5B08013B1B049A4207D1FB6803F048
:104BA00070627B68DB6A1B069A4201D0012300E039
:104BB000002318461837BD4680BD00BF00380240AC
:104BC00080B584B000AF786039607B68002B01D17C
:104BD0000123CCE0684B1B6803F007033A689A4254
:104BE0000CD9654B3A68D2B21A70634B1B6803F05C
:104BF00007033A689A4201D00123B8E07B681B683A
:104C000003F00203002B20D07B681B6803F0040331
:104C1000002B05D0594B9B68584A43F4E0539360EE
:104C20007B681B6803F00803002B05D0534B9B687F
:104C3000524A43F460439360504B9B6823F0F00268
:104C40007B689B684D4913438B607B681B6803F04E
:104C50000103002B44D07B685B68012B07D1474BD5
:104C60001B6803F40033002B19D101237FE07B681C
:104C70005B68022B03D07B685B68032B07D13F4B3B
:104C80001B6803F00073002B09D101236FE03B4B3D
:104C90001B6803F00203002B01D1012367E0374BAF
:104CA0009B6823F003027B685B68344913438B6085
:104CB000FEF7BEF8F8600AE0FEF7BAF80246FB68B5
:104CC000D31A41F28832934201D903234FE02B4B90
:104CD0009B6803F00C027B685B689B009A42EBD1F7
:104CE000254B1B6803F007033A689A420CD2224B0B
:104CF0003A68D2B21A70204B1B6803F007033A6877
:104D00009A4201D0012332E07B681B6803F0040360
:104D1000002B08D0194B9B6823F4E0527B68DB68BA
:104D2000164913438B607B681B6803F00803002B54
:104D300009D0124B9B6823F460427B681B69DB003F
:104D40000E4913438B6000F021F802460B4B9B6821
:104D50001B0903F00F030A49CB5C22FA03F3094A4B
:104D60001360094B1B681846FEF71EF8002318460F
:104D70001037BD4680BD00BF003C024000380240F5
:104D8000C8B3000800000020040000202DE9B04F47
:104D900094B000AF00237B640023FB6400233B64DA
:104DA0000023BB64794B9B6803F00C03082B0DD0E8
:104DB000082B00F2E180002B02D0042B03D0DBE0B3
:104DC000734BBB64DBE0734BBB64D8E06F4B5B6839
:104DD00003F03F037B646D4B5B6803F48003002B9F
:104DE00063D06A4B5B689B090022BB63FA63BB6BB1
:104DF000C3F308033B6300237B63D7E90C452246DA
:104E00002B464FF000004FF00001590141EAD261FA
:104E1000500102460B462146511A3961294663EB7F
:104E200001037B614FF000024FF00003D7E904ABB0
:104E300059468B01514643EA916351468A015146D6
:104E4000B2EB0108594663EB01094FF000024FF045
:104E500000034FEAC90343EA58734FEAC802904679
:104E60009946234618EB0303BB602B4649EB03032B
:104E7000FB604FF000024FF00003D7E902452946DE
:104E80004B02214643EAD15321464A0210461946B5
:104E90007B6C0022BB62FA62D7E90A23FBF7D6FDDE
:104EA00002460B461346FB6458E0384B5B689B098F
:104EB000002218461146C0F308033B6200237B62C0
:104EC000D7E9088942464B464FF000004FF00001F9
:104ED000590141EAD261500102460B464146B2EB0C
:104EE000010A494663EB010B4FF000024FF000034B
:104EF0004FEA8B1343EA9A634FEA8A12B2EB0A0431
:104F000063EB0B054FF000024FF00003EB0043EAA8
:104F10005473E20014461D464346E3183B604B467B
:104F200045EB03037B604FF000024FF00003D7E92D
:104F3000004529468B02214643EA915321468A02C5
:104F4000104619467B6C0022BB61FA61D7E9062343
:104F5000FBF77CFD02460B461346FB640B4B5B687C
:104F60001B0C03F0030301335B003B64FA6C3B6CE6
:104F7000B2FBF3F3BB6402E0054BBB6400BFBB6C48
:104F800018465037BD46BDE8B08F00BF003802401C
:104F90000024F40000127A0080B400AF034B1B68B9
:104FA0001846BD465DF8047B704700BF0000002036
:104FB00080B500AFFFF7F0FF0246054B9B689B0AE8
:104FC00003F007030349CB5C22FA03F3184680BDC4
:104FD00000380240D8B3000880B500AFFFF7DCFF0F
:104FE0000246054B9B685B0B03F007030349CB5C50
:104FF00022FA03F3184680BD00380240D8B30008F7
:1050000080B582B000AF78607B68002B01D10123AE
:105010007BE07B685B6A002B08D17B685B68B3F53B
:10502000827F09D07B680022DA6105E07B6800227C
:105030001A617B6800225A617B6800229A627B6851
:1050400093F85130DBB2002B06D17B68002283F845
:1050500050207868FDF7C0F97B68022283F8512060
:105060007B681B681A687B681B6822F040021A6024
:105070007B685B6803F482727B689B6803F404437B
:105080001A437B68DB6803F400631A437B681B697F
:1050900003F002031A437B685B6903F001031A43C0
:1050A0007B689B6903F400731A437B68DB6903F038
:1050B00038031A437B681B6A03F0800342EA03014A
:1050C0007B689B6A03F400527B681B680A431A6082
:1050D0007B689B691B0C03F004017B685B6A03F02F
:1050E00010027B681B680A435A607B681B68DA6998
:1050F0007B681B6822F40062DA617B6800225A65D3
:105100007B68012283F85120002318460837BD46EA
:1051100080BD80B588B002AFF860B9603B601346CF
:10512000FB800023FB75FB685B68B3F5827F12D1BF
:10513000FB689B68002B0ED1FB68042283F851208A
:10514000FA883B6800931346BA68B968F86800F0BB
:10515000F1F80346EAE0FB6893F85030012B01D1E7
:105160000223E3E0FB68012283F85020FDF760FE94
:105170003861FB6893F85130DBB2012B02D0022377
:10518000FB75CAE0BB68002B02D0FB88002B02D164
:105190000123FB75C1E0FB68042283F85120FB6802
:1051A00000225A65FB68BA689A63FB68FA889A8796
:1051B000FB68FA88DA87FB6800221A63FB68002222
:1051C0009A86FB680022DA86FB6800221A64FB6874
:1051D00000225A64FB689B68B3F5004F0FD1FB684F
:1051E0001B681A68FB681B6822F040021A60FB68A3
:1051F0001B681A68FB681B6822F480421A60FB680F
:105200001B681B6803F04003402B07D0FB681B683A
:105210001A68FB681B6842F040021A60FB68DB6892
:10522000002B62D12EE0FB681B689B6803F0010332
:10523000012B15D1FB681B6803F10C02FB689B6B0B
:105240001278D2B21A70FB689B6B5A1CFB689A6387
:10525000FB68DB8F9BB2013B9AB2FB68DA8711E0F7
:10526000FDF7E6FD02463B69D31A3A689A4203D835
:105270003B68B3F1FF3F02D13B68002B02D103230F
:10528000FB754AE0FB68DB8F9BB2002BCBD131E092
:10529000FB681B689B6803F00103012B13D1FB68BB
:1052A0001B68DA68FB689B6B92B21A80FB689B6B89
:1052B0009A1CFB689A63FB68DB8F9BB2013B9AB236
:1052C000FB68DA8711E0FDF7B3FD02463B69D31AAC
:1052D0003A689A4203D83B68B3F1FF3F02D13B687A
:1052E000002B02D10323FB7517E0FB68DB8F9BB219
:1052F000002BCDD13A693968F86800F045FA0346C9
:10530000002B02D0FB6820225A65FB685B6D002BE6
:1053100002D00123FB7500E000BFFB68012283F887
:105320005120FB68002283F85020FB7D1846183777
:10533000BD4680BD80B58CB000AFF860B9607A60C2
:105340007B800123FB62002387F82B30FB6893F8F6
:105350005030012B01D102238AE1FB68012283F83E
:105360005020FDF765FD7862FB6893F8513087F8AF
:105370002330FB685B68FB617B887B8397F8233075
:10538000012B0FD0FB69B3F5827F07D1FB689B68C7
:10539000002B03D197F82330042B03D0022387F886
:1053A0002B305BE1BB68002B05D07B68002B02D063
:1053B0007B88002B03D1012387F82B304EE1FB685B
:1053C00093F85130DBB2042B03D0FB68052283F83D
:1053D0005120FB6800225A65FB687A689A63FB6873
:1053E0007A88DA87FB687A889A87FB68BA681A63D2
:1053F000FB687A88DA86FB687A889A86FB680022DE
:105400001A64FB6800225A64FB681B681B6803F07F
:105410004003402B07D0FB681B681A68FB681B68B9
:1054200042F040021A60FB68DB68B3F5006F78D188
:10543000FB685B68002B02D07B8B012B66D1FB687D
:105440001B6B1A88FB681B68DA60FB681B6B9A1C75
:10545000FB681A63FB68DB8E9BB2013B9AB2FB6868
:10546000DA8653E0FB681B689B6803F00203022B9B
:105470001BD1FB68DB8E9BB2002B16D0FB6A012B85
:1054800013D1FB681B6B1A88FB681B68DA60FB682A
:105490001B6B9A1CFB681A63FB68DB8E9BB2013B9B
:1054A0009AB2FB68DA860023FB62FB681B689B6884
:1054B00003F00103012B19D1FB68DB8F9BB2002B9A
:1054C00014D0FB681B68DA68FB689B6B92B21A8089
:1054D000FB689B6B9A1CFB689A63FB68DB8F9BB233
:1054E000013B9AB2FB68DA870123FB62FDF7A0FC5F
:1054F00002467B6AD31ABA6B9A4207D8BB6BB3F1E8
:10550000FF3F03D0032387F82B30A7E0FB68DB8E37
:105510009BB2002BA6D1FB68DB8F9BB2002BA1D1E5
:105520007CE0FB685B68002B02D07B8B012B6BD18E
:10553000FB681A6BFB681B680C3312781A70FB68E7
:105540001B6B5A1CFB681A63FB68DB8E9BB2013B2A
:105550009AB2FB68DA8657E0FB681B689B6803F029
:105560000203022B1CD1FB68DB8E9BB2002B17D0F1
:10557000FB6A012B14D1FB681A6BFB681B680C33A8
:1055800012781A70FB681B6B5A1CFB681A63FB6865
:10559000DB8E9BB2013B9AB2FB68DA860023FB628A
:1055A000FB681B689B6803F00103012B19D1FB68A2
:1055B000DB8F9BB2002B14D0FB681B68DA68FB689A
:1055C0009B6BD2B21A70FB689B6B5A1CFB689A6388
:1055D000FB68DB8F9BB2013B9AB2FB68DA87012341
:1055E000FB62FDF725FC02467B6AD31ABA6B9A422E
:1055F00003D8BB6BB3F1FF3F02D1BB6B002B03D1D0
:10560000032387F82B3029E0FB68DB8E9BB2002B4D
:10561000A2D1FB68DB8F9BB2002B9DD17A6AB96B5C
:10562000F86800F017F90346002B06D0012387F82D
:105630002B30FB6820225A6510E0FB689B68002B2A
:105640000BD100237B61FB681B68DB687B61FB6817
:105650001B689B687B617B6900E000BFFB680122DF
:1056600083F85120FB68002283F8502097F82B30F4
:1056700018463037BD4680BD80B588B000AFF860B1
:10568000B9603B601346FB71FDF7D2FB0246BB6A73
:105690009B1A3A681344FB61FDF7CAFBB861394BAA
:1056A0001B685B011B0DFA6902FB03F37B6154E08D
:1056B0003B68B3F1FF3F50D0FDF7BAFB0246BB6930
:1056C000D31AFA699A4202D9FB69002B3DD1FB68D3
:1056D0001B685A68FB681B6822F0E0025A60FB688E
:1056E0005B68B3F5827F11D1FB689B68B3F5004F0F
:1056F00004D0FB689B68B3F5806F07D1FB681B681B
:105700001A68FB681B6822F040021A60FB689B6AFB
:10571000B3F5005F0FD1FB681B681A68FB681B6854
:1057200022F400521A60FB681B681A68FB681B6849
:1057300042F400521A60FB68012283F85120FB6892
:10574000002283F85020032317E07B69002B01D14E
:105750000023FB617B69013B7B61FB681B689A68E6
:10576000BB681340BA689A420CBF01230023DBB226
:105770001A46FB799A429BD1002318462037BD4632
:1057800080BD00BF0000002080B586B002AFF86089
:10579000B9607A60FB685B68B3F5827F11D1FB6802
:1057A0009B68B3F5004F04D0FB689B68B3F5806F2E
:1057B00007D1FB681B681A68FB681B6822F040026F
:1057C0001A60FB685B68B3F5827F2AD1FB689B682F
:1057D000B3F5806F12D07B680093BB6800228021F4
:1057E000F868FFF749FF0346002B2DD0FB685B6D7F
:1057F00043F02002FB685A65032326E07B68009390
:10580000BB6800220121F868FFF736FF0346002B32
:105810001AD0FB685B6D43F02002FB685A650323D6
:1058200013E07B680093BB6800220121F868FFF752
:1058300023FF0346002B07D0FB685B6D43F020027B
:10584000FB685A65032300E0002318461037BD4665
:1058500080BD000080B588B002AFF860B9607A60A2
:105860001B4B1B681B4AA2FB03235B0D4FF47A7290
:1058700002FB03F37B61FB685B68B3F5827F12D1A7
:105880007B680093BB6800228021F868FFF7F4FE74
:105890000346002B16D0FB685B6D43F02002FB68CB
:1058A0005A6503230FE07B69002B0AD07B69013B1B
:1058B0007B61FB681B689B6803F08003802BF2D040
:1058C00000E000BF002318461837BD4680BD00BF6A
:1058D00000000020819F5E1680B584B000AFF860A4
:1058E000B9607A60FB68002B01D1012338E0FB68C6
:1058F00093F84930DBB2002B06D1FB68002283F815
:105900004820F868FBF7C4FDFB681A68FB68083399
:105910001946104601F0EEFFFB681868FB689B68AB
:105920001A46B96802F050F8FB685868FB689A6834
:10593000FB681B6B796802F07DF8FB681B68FA68EE
:10594000926853F82210FB681B68FA68926841F06D
:10595000010143F82210FB68012283F8492000234B
:1059600018461037BD4680BD80B582B000AF786064
:105970007B68002B01D1012341E07B6893F83D3027
:10598000DBB2002B06D17B68002283F83C207868CC
:10599000FCF7B6FF7B68022283F83D207B681A681B
:1059A0007B6804331946104600F0B2FB7B68012285
:1059B00083F846207B68012283F83E207B68012221
:1059C00083F83F207B68012283F840207B68012216
:1059D00083F841207B68012283F842207B68012202
:1059E00083F843207B68012283F844207B680122EE
:1059F00083F845207B68012283F83D200023184668
:105A00000837BD4680BD000080B485B000AF786027
:105A10007B6893F83D30DBB2012B01D001234EE0CF
:105A20007B68022283F83D207B681B68DA687B680C
:105A30001B6842F00102DA607B681B68234A9342CC
:105A400022D07B681B68B3F1804F1DD07B681B6838
:105A50001F4A934218D07B681B681E4A934213D09A
:105A60007B681B681C4A93420ED07B681B681B4AEC
:105A7000934209D07B681B68194A934204D07B6823
:105A80001B68184A934211D17B681B689B6803F01E
:105A90000703FB60FB68062B10D07B681B681A6845
:105AA0007B681B6842F001021A6007E07B681B6894
:105AB0001A687B681B6842F001021A6000231846CE
:105AC0001437BD465DF8047B704700BF00000140FD
:105AD0000004004000080040000C004000040140A9
