:020000040800F2
:1000000000000220DD4500080D330008133300080E
:10001000193300081F3300082533000800000000D2
:100020000000000000000000000000002B3300086A
:10003000393300080000000047330008553300083A
:100040002D4600082D4600082D4600082D460008C4
:100050002D4600082D4600082D4600082D460008B4
:100060002D4600082D4600082D4600082D460008A4
:100070002D4600082D4600082D4600082D46000894
:100080002D4600082D4600082D4600082D46000884
:100090002D4600082D4600082D4600082D46000874
:1000A0002D4600082D4600082D4600082D46000864
:1000B000613300082D4600082D4600082D46000833
:1000C0002D4600082D4600082D4600082D46000844
:1000D0002D4600082D4600082D4600082D46000834
:1000E0002D4600082D4600082D4600082D46000824
:1000F0002D4600082D4600082D4600082D46000814
:100100002D4600082D4600082D4600082D46000803
:100110002D4600082D4600082D4600082D460008F3
:10012000753300082D4600082D4600082D460008AE
:100130002D4600082D4600082D4600082D460008D3
:100140002D4600082D4600082D4600082D460008C3
:100150002D4600082D4600082D4600082D460008B3
:100160002D4600082D4600082D4600082D460008A3
:100170002D4600082D4600082D460008000000000E
:080180002D4600082D46000881
:1001900010B5054C237833B9044B13B10448AFF3C1
:1001A00000800123237010BDB0000020000000007B
:1001B000DC94000808B5034B1BB103490348AFF3B7
:1001C000008008BD00000000B4000020DC9400089E
:1001D00001F0FF01102A2BDB10F0070F08D010F8F8
:1001E000013B013A8B422DD010F0070F42B3F6D1FC
:1001F000F0B441EA012141EA014122F007047FF015
:1002000000070023F0E80256083C85EA010586EA6B
:10021000010685FA47F5A3FA87F586FA47F6A5FAA7
:1002200087F68EB9EED1F0BC01F0FF0102F00702B3
:1002300032B110F8013B013A83EA010313B1F8D15E
:100240000020704701387047002D06BF354603383F
:10025000073815F0010F07D1013015F4807F02BF78
:10026000013015F4C03F0130F0BC0138704700BFC9
:1002700081F0004102E000BF83F0004330B54FEA57
:1002800041044FEA430594EA050F08BF90EA020FC4
:100290001FBF54EA000C55EA020C7FEA645C7FEA57
:1002A000655C00F0E2804FEA5454D4EB5555B8BF7A
:1002B0006D420CDD2C4480EA020281EA030382EAEB
:1002C000000083EA010180EA020281EA0303362D7D
:1002D00088BF30BD11F0004F4FEA01314FF4801C50
:1002E0004CEA113102D0404261EB410113F0004F62
:1002F0004FEA03334CEA133302D0524263EB430319
:1003000094EA050F00F0A780A4F10104D5F1200EB6
:100310000DDB02FA0EFC22FA05F2801841F1000111
:1003200003FA0EF2801843FA05F359410EE0A5F1E5
:1003300020050EF1200E012A03FA0EFC28BF4CF016
:10034000020C43FA05F3C01851EBE37101F00045CC
:1003500007D54FF0000EDCF1000C7EEB00006EEBD9
:100360000101B1F5801F1BD3B1F5001F0CD3490863
:100370005FEA30004FEA3C0C04F101044FEA4452BA
:1003800012F5800F80F09A80BCF1004F08BF5FEA41
:10039000500C50F1000041EB045141EA050130BD21
:1003A0005FEA4C0C404141EB0101013C28BFB1F533
:1003B000801FE9D291F0000F04BF01460020B1FA7E
:1003C00081F308BF2033A3F10B03B3F120020CDA51
:1003D0000C3208DD02F1140CC2F10C0201FA0CF02F
:1003E00021FA02F10CE002F11402D8BFC2F1200C94
:1003F00001FA02F120FA0CFCDCBF41EA0C0190404A
:10040000E41AA2BF01EB0451294330BD6FEA040492
:100410001F3C1CDA0C340EDC04F11404C4F120027D
:1004200020FA04F001FA02F340EA030021FA04F38F
:1004300045EA030130BDC4F10C04C4F1200220FAE6
:1004400002F001FA04F340EA0300294630BD21FA24
:1004500004F0294630BD94F0000F83F4801306BFEA
:1004600081F480110134013D4EE77FEA645C18BFDE
:100470007FEA655C29D094EA050F08BF90EA020F75
:1004800005D054EA000C04BF1946104630BD91EA6D
:10049000030F1EBF0021002030BD5FEA545C05D170
:1004A0004000494128BF41F0004130BD14F58004AF
:1004B0003CBF01F5801130BD01F0004545F0FE4123
:1004C00041F470014FF0000030BD7FEA645C1ABF58
:1004D000194610467FEA655C1CBF0B46024650EA8F
:1004E000013406BF52EA033591EA030F41F40021BB
:1004F00030BD00BF90F0000F04BF0021704730B541
:100500004FF4806404F132044FF000054FF0000115
:1005100050E700BF90F0000F04BF0021704730B5D6
:100520004FF4806404F1320410F0004548BF4042AB
:100530004FF000013EE700BF42004FEAE2014FEA00
:1005400031014FEA02701FBF12F07F4393F07F4FDB
:1005500081F06051704732F07F4208BF704793F0DE
:100560007F4F04BF41F40021704730B54FF46074F1
:1005700001F0004521F000411CE700BF50EA0102F4
:1005800008BF704730B54FF000050AE050EA01029D
:1005900008BF704730B511F0004502D5404261EB0D
:1005A00041014FF4806404F132045FEA915C3FF44E
:1005B000D8AE4FF003025FEADC0C18BF03325FEAEB
:1005C000DC0C18BF033202EBDC02C2F1200300FA9C
:1005D00003FC20FA02F001FA03FE40EA0E0021FAC1
:1005E00002F11444BDE600BF70B54FF0FF0C4CF4AF
:1005F000E06C1CEA11541DBF1CEA135594EA0C0F61
:1006000095EA0C0F00F0DEF82C4481EA030621EA9B
:100610004C5123EA4C5350EA013518BF52EA0335D6
:1006200041F4801143F4801338D0A0FB02CE4FF088
:100630000005E1FB02E506F00042E0FB03E54FF0B8
:100640000006E1FB03569CF0000F18BF4EF0010EB0
:10065000A4F1FF04B6F5007F64F5407404D25FEAAC
:100660004E0E6D4146EB060642EAC62141EA55515F
:100670004FEAC52040EA5E504FEACE2EB4F1FD0CA1
:1006800088BFBCF5E06F1ED8BEF1004F08BF5FEA1F
:10069000500E50F1000041EB045170BD06F00046D1
:1006A00046EA010140EA020081EA0301B4EB5C047E
:1006B000C2BFD4EB0C0541EA045170BD41F4801176
:1006C0004FF0000E013C00F3AB8014F1360FDEBF9B
:1006D000002001F0004170BDC4F10004203C35DA77
:1006E0000C341BDC04F11404C4F1200500FA05F3FA
:1006F00020FA04F001FA05F240EA020001F000429B
:1007000021F0004110EBD37021FA04F642EB060110
:100710005EEA430E08BF20EAD37070BDC4F10C043A
:10072000C4F1200500FA04F320FA05F001FA04F2FE
:1007300040EA020001F0004110EBD37041F10001EA
:100740005EEA430E08BF20EAD37070BDC4F12005F5
:1007500000FA05F24EEA020E20FA04F301FA05F25D
:1007600043EA020321FA04F001F0004121FA04F205
:1007700020EA020000EBD3705EEA430E08BF20EAD5
:10078000D37070BD94F0000F0FD101F0004640000F
:1007900041EB010111F4801F08BF013CF7D041EA91
:1007A000060195F0000F18BF704703F00046520095
:1007B00043EB030313F4801F08BF013DF7D043EA66
:1007C0000603704794EA0C0F0CEA135518BF95EA1C
:1007D0000C0F0CD050EA410618BF52EA4306D1D1A3
:1007E00081EA030101F000414FF0000070BD50EAC2
:1007F000410606BF1046194652EA430619D094EA4C
:100800000C0F02D150EA013613D195EA0C0F05D135
:1008100052EA03361CBF104619460AD181EA030189
:1008200001F0004141F0FE4141F470014FF0000041
:1008300070BD41F0FE4141F4780170BD70B54FF0DC
:10084000FF0C4CF4E06C1CEA11541DBF1CEA13555C
:1008500094EA0C0F95EA0C0F00F0A7F8A4EB05043E
:1008600081EA030E52EA03354FEA013100F0888035
:100870004FEA03334FF0805545EA131343EA1263FE
:100880004FEA022245EA111545EA10654FEA0026B3
:100890000EF000419D4208BF964244F1FD0404F56C
:1008A000407402D25B084FEA3202B61A65EB0305C8
:1008B0005B084FEA32024FF480104FF4002CB6EB85
:1008C000020E75EB030E22BFB61A754640EA0C0005
:1008D0005B084FEA3202B6EB020E75EB030E22BF45
:1008E000B61A754640EA5C005B084FEA3202B6EB86
:1008F000020E75EB030E22BFB61A754640EA9C0045
:100900005B084FEA3202B6EB020E75EB030E22BF14
:10091000B61A754640EADC0055EA060E18D04FEAD2
:10092000051545EA16754FEA06164FEAC30343EA72
:1009300052734FEAC2025FEA1C1CC0D111F4801F3F
:100940000BD141EA00014FF000004FF0004CB6E738
:1009500011F4801F04BF01430020B4F1FD0C88BFD7
:10096000BCF5E06F3FF6AFAEB5EB030C04BFB6EBE2
:10097000020C5FEA500C50F1000041EB045170BDD5
:100980000EF0004E4EEA113114EB5C04C2BFD4EB02
:100990000C0541EA045170BD41F480114FF0000E86
:1009A000013C90E645EA060E8DE60CEA135594EA02
:1009B0000C0F08BF95EA0C0F3FF43BAF94EA0C0F05
:1009C0000AD150EA01347FF434AF95EA0C0F7FF47A
:1009D00025AF104619462CE795EA0C0F06D152EACE
:1009E00003353FF4FDAE1046194622E750EA4106B2
:1009F00018BF52EA43067FF4C5AE50EA41047FF4C3
:100A00000DAF52EA43057FF4EBAE12E74FF0FF3C27
:100A100006E000BF4FF0010C02E000BF4FF0010CF8
:100A20004DF804CD4FEA410C7FEA6C5C4FEA430C71
:100A300018BF7FEA6C5C1BD001B050EA410C0CBFC0
:100A400052EA430C91EA030F02BF90EA020F002022
:100A5000704710F1000F91EA030F58BF994208BF89
:100A600090422CBFD8176FEAE37040F00100704746
:100A70004FEA410C7FEA6C5C02D150EA013C07D19D
:100A80004FEA430C7FEA6C5CD6D152EA033CD3D0E8
:100A90005DF8040B704700BF8446104662468C46E2
:100AA0001946634600E000BF01B5FFF7B7FF002815
:100AB00048BF10F1000F01BD4DF808EDFFF7F4FF3E
:100AC0000CBF012000205DF808FB00BF4DF808EDC9
:100AD000FFF7EAFF34BF012000205DF808FB00BFEC
:100AE0004DF808EDFFF7E0FF94BF012000205DF80E
:100AF00008FB00BF4DF808EDFFF7CEFF94BF0120C3
:100B000000205DF808FB00BF4DF808EDFFF7C4FFBB
:100B100034BF012000205DF808FB00BF4FEA410C04
:100B20007FEA6C5C02D150EA013C0AD14FEA430CE7
:100B30007FEA6C5C02D152EA033C02D14FF0000024
:100B400070474FF0010070474A0011D212F50012B1
:100B500011D20DD56FF47873B3EB62520ED44FEA15
:100B6000C12343F0004343EA505323FA02F0704795
:100B70004FF00000704750EA013002D14FF0FF30D3
:100B800070474FF00000704753B94AB9002908BFB9
:100B900000281CBF4FF0FF314FF0FF3000F070B95C
:100BA000ADF1080C6DE904CE00F006F8DDF804E0C4
:100BB000DDE9022304B070472DE9F047089E0D4699
:100BC00004460F46002B4AD18A42944665D9B2FAB0
:100BD00082F343B102FA03FCC3F120029F4020FAE2
:100BE00002F217439C404FEA1C4E1FFA8CF5B7FBEC
:100BF000FEF1220C0EFB117742EA074201FB05F0E1
:100C000090420AD91CEB020201F1FF3780F01C81EF
:100C1000904240F2198102396244121AA4B2B2FB26
:100C2000FEF00EFB102244EA024400FB05F5A5424B
:100C30000AD91CEB040400F1FF3280F00781A542C1
:100C400040F204816444023840EA0140641B002100
:100C50001EB1DC400023C6E90043BDE8F0878B42AB
:100C600008D9002E00F0ED800021C6E900050846F5
:100C7000BDE8F087B3FA83F1002949D1AB4202D332
:100C8000824200F2F880841A65EB030201201746C5
:100C9000002EE2D0C6E90047DFE702B9FFDEB2FA74
:100CA00082F3002B40F090808A1A4FEA1C471FFA0B
:100CB0008CFE0121B2FBF7F507FB1520220C42EA5E
:100CC00000420EFB05F0904208D91CEB020205F130
:100CD000FF3802D2904200F2CB804546121AA4B2ED
:100CE000B2FBF7F007FB102244EA02440EFB00FEC1
:100CF000A64508D91CEB040400F1FF3202D2A64538
:100D000000F2BB801046A4EB0E0440EA05409FE7CA
:100D1000C1F120078B4022FA07FC4CEA030C05FACC
:100D200001F420FA07F3FD404FEA1C492343B5FBC9
:100D3000F9F81FFA8CFE09FB18551C0C44EA05440F
:100D400008FB0EF5A54202FA01F200FA01F00BD9F8
:100D50001CEB040408F1FF3A80F08880A54240F2C1
:100D60008580A8F102086444641B9DB2B4FBF9F3CA
:100D700009FB134445EA044403FB0EFEA64508D9CB
:100D80001CEB040403F1FF356CD2A6456AD9023B83
:100D9000644443EA0843A3FB0295A4EB0E04AC426F
:100DA000C846AE4656D353D056B1B0EB080264EBFA
:100DB0000E0404FA07F7CA40CC401743C6E9007492
:100DC00018460021BDE8F087C3F1200102FA03FCB8
:100DD00020FA01F225FA01F19D402A434FEA1C470F
:100DE0001FFA8CFEB1FBF7F007FB1015110C41EA5E
:100DF000054100FB0EF58D4204FA03F408D91CEB03
:100E0000010100F1FF382FD28D422DD90238614403
:100E1000491B92B2B1FBF7F507FB151142EA0142FB
:100E200005FB0EF1914208D91CEB020205F1FF38D7
:100E300016D2914214D9023D6244521A45EA004149
:100E400038E73146304608E73946E6E61046FBE625
:100E50004845A9D2B9EB020865EB0C0E013BA3E7AC
:100E60004546EAE72B4694E74046D1E7D0467BE784
:100E7000023D624432E708460AE76444023842E72A
:100E8000704700BF80B584B000AF3B4600221A60B7
:100E90005A609A60DA603D4B3D4A1A603B4B002233
:100EA0005A603A4B00229A60384B01221A61374B44
:100EB00000221A76354B002283F82020334B002283
:100EC000DA62324B334A9A62304B0022DA602F4B9F
:100ED0000522DA612D4B002283F830202B4B0122B2
:100EE0005A612A4803F03AFC0346002B01D002F075
:100EF000BBF808233B6001237B600023BB603B46BB
:100F00001946224803F06EFC0346002B01D002F084
:100F1000ABF809233B6002237B603B4619461B4824
:100F200003F060FC0346002B01D002F09DF80A2379
:100F30003B6003237B603B461946144803F052FC98
:100F40000346002B01D002F08FF80B233B600423F3
:100F50007B603B4619460D4803F044FC0346002BDA
:100F600001D002F081F80C233B6005237B603B46F7
:100F70001946064803F036FC0346002B01D002F068
:100F800073F800BF1037BD4680BD00BFCC00002005
:100F9000002001400100000F80B58AB000AF7860EA
:100FA00007F1140300221A605A609A60DA601A612D
:100FB0007B681B683C4A934271D100233B613B4BE9
:100FC0005B6C3A4A43F480735364384B5B6C03F4B4
:100FD00080733B613B690023FB60344B1B6B334ADE
:100FE00043F004031363314B1B6B03F00403FB60FA
:100FF000FB680023BB602D4B1B6B2C4A43F00203A4
:1010000013632A4B1B6B03F00203BB60BB6807230F
:101010007B610323BB610023FB6107F114031946C5
:10102000234804F0F9F903237B610323BB61002308
:10103000FB6107F1140319461E4804F0EDF91E4B3D
:101040001E4A1A601C4B00225A601B4B00229A60F9
:10105000194B0022DA60184B4FF480621A61164B6C
:101060004FF400625A61144B4FF400529A61124BD4
:101070004FF48072DA61104B00221A620E4B00228C
:101080005A620D4803F0DEFE0346002B01D001F04A
:10109000EBFF7B68084A9A63074A7B68936300BF4B
:1010A0002837BD4680BD00BF002001400038024007
:1010B00000080240000402401401002010640240B5
:1010C00080B500AF00F03CF800BF80BD80B588B0AF
:1010D00004AF0346FB800023FB73FA880A230293C4
:1010E0000123019307F10F0300931023A02104486B
:1010F00004F0B8FDFB7B18461037BD4680BD00BF2D
:10110000F002002080B586B004AF03460A46FB809B
:1011100013467B71FA880A230293012301937B1DF6
:1011200000931023A021054804F0A2FC052003F041
:10113000F1FA00BF0837BD4680BD00BFF0020020B5
:1011400080B582B000AF4FF6FF70FFF7BFFF0346D8
:10115000FB71FB79552B01D1002310E055214FF68F
:10116000FF70FFF7CFFF4FF6FF70FFF7AFFF0346AB
:10117000FB71FB79552B01D1002300E001231846B8
:101180000837BD4680BD90B583B000AF03463960D7
:10119000FB801346BB800DE0FB885A1CFA803C683C
:1011A000621C3A601846FFF791FF03462370BB8824
:1011B000013BBB80BB88002BEED100BF00BF0C37CA
:1011C000BD4690BD80B582B000AF03463960FB805C
:1011D0001346BB800CE03B681A78FB881146184622
:1011E000FFF790FFFB880133FB803B6801333B60D6
:1011F000BB885A1EBA80002BEDD100BF00BF083754
:10120000BD4680BD80B500AF01220821024804F030
:10121000B7FA00BF80BD00BF000C024080B584B0AB
:1012200004AF364B1A8810230293002301934FF624
:10123000E073009303230A216C2001F00DFB304B77
:101240001B78032B57D801A252F823F05D12000837
:101250006912000879120008D712000800F052F84D
:10126000274B01221A7046E000F06AF80346002B73
:101270003CD000F0CBF839E000F082F9032001F017
:101280006FFF0346002B33D100F0C6FB0346002B53
:1012900005D100F079F81A4B03221A702BE000F008
:1012A000BBFB0346012B03D1012000F063FD0AE0E4
:1012B000124B1B8801339AB2104B1A80022000F0A7
:1012C00059FD00F06DFA00F059FB4FF4FA7103205C
:1012D00001F0E8FE0CE000F075F80346002B09D0A1
:1012E000064B00221A8000F091F803E000BF02E0F4
:1012F00000BF00E000BF00BFBD4680BDA0010020D0
:101300007401002080B584B004AF4FF4FC630093F7
:10131000BE23C32228212D2001F0E0F801230293EF
:10132000202301934FF4FC6300930023034A3C21E4
:10133000412001F08BFD00BFBD4680BDF494000844
:1013400080B500AF03F020F90346002B01D1002344
:1013500017E003F02BF903462D2B10D903F026F9E3
:101360000346C22B0BD803F02DF90346282B06D9D0
:1013700003F028F90346BD2B01D8012300E0002328
:10138000DBB2184680BD000080B584B004AF4FF4D6
:10139000FC630093BE23C32228212D2001F09EF878
:1013A00001230293202301934FF4FC630093002355
:1013B000034A3C21412001F049FD00BFBD4680BDEC
:1013C000FC94000880B500AF03F0DEF80346002B64
:1013D00001D1002317E003F0E9F803462D2B10D9C3
:1013E00003F0E4F80346C22B0BD803F0EBF80346F6
:1013F000282B06D903F0E6F80346BD2B01D80123BC
:1014000000E00023DBB2184680BD000080B500AFCD
:10141000044B02221A7000F00FFA00F0AFFA00BF7E
:1014200080BD00BF7401002090B583B002AF474B70
:1014300064221A80454BC8225A80444B1B882833AB
:101440009AB2424B9A80414B5B8828339AB23F4B09
:10145000DA803E4B00221A723C4B1A883B4B5A8171
:101460003A4BDB8828339AB2384B9A81374B5B89E9
:1014700028339AB2354BDA81344B9B8928339AB2A0
:10148000324B1A82314B00229A74304B3C229A82A2
:101490002E4BF022DA822D4B9B8A28339AB22B4BAB
:1014A0001A832A4BDB8A28339AB2284B5A83274B5C
:1014B00000221A77254B9A88244BDA83234BDA884B
:1014C000224B1A84214BDB8B28339AB21F4B5A8450
:1014D0001E4B1B8C28339AB21C4B9A841B4B002248
:1014E00083F82620194B1888184B5988174B9A886F
:1014F000164BDB881F24009400F0F0FF134B588933
:10150000124B9989114BDA89104B1B8A1F240094C6
:1015100000F0E4FF0D4B988A0C4BD98A0B4B1A8BC9
:101520000A4B5B8B1F24009400F0D8FF074BD88B2D
:10153000064B198C054B5A8C044B9B8C1F24009432
:1015400000F0CCFF00BF0437BD4690BD78010020FD
:1015500080B584B004AFFFF767FF00230293102328
:101560000193002300934FF6E073044A0A213C20C4
:1015700001F06CFC00BFBD4680BD00BF04950008B3
:1015800080B500AF002001F0EBFD0346002B05D134
:101590000A21002001F086FD00F00CFC00BF80BD98
:1015A00080B584B004AF03F001F803461A46174B28
:1015B0001B889A4226D902F0F9FF03461A46134BBC
:1015C0009B889A421ED202F0FDFF03461A460F4B3B
:1015D0005B889A4216D902F0F5FF03461A460B4B78
:1015E000DB889A420ED2002302931023019300233A
:1015F00000934FF6FF73064ADC21462001F026FCDB
:10160000012300E000231846BD4680BD780100207C
:101610000C95000880B584B004AF02F0B5FF034616
:10162000002B01D100232FE002F0C0FF03461A4631
:10163000174B5B899A4226D902F0B8FF03461A4637
:10164000134BDB899A421ED202F0BCFF03461A46B6
:101650000F4B9B899A4216D902F0B4FF03461A46F3
:101660000B4B1B8A9A420ED2002302931023019344
:10167000002300934FF6FF73064ADC21462001F059
:10168000E5FB012300E000231846BD4680BD00BFF6
:10169000780100201095000880B584B004AF02F0F6
:1016A00073FF0346002B01D100232FE002F07EFFE1
:1016B00003461A46174B9B8A9A4226D902F076FFB8
:1016C00003461A46134B1B8B9A421ED202F07AFF36
:1016D00003461A460F4BDB8A9A4216D902F072FF74
:1016E00003461A460B4B5B8B9A420ED200230293A1
:1016F00010230193002300934FF6FF73064ADC2169
:10170000462001F0A3FB012300E000231846BD465C
:1017100080BD00BF780100201495000880B584B01A
:1017200004AF02F031FF0346002B01D100232FE06C
:1017300002F03CFF03461A46174BDB8B9A4226D930
:1017400002F034FF03461A46134B5B8C9A421ED2BA
:1017500002F038FF03461A460F4B1B8C9A4216D9EB
:1017600002F030FF03461A460B4B9B8C9A420ED276
:101770000023029310230193002300934FF6FF737D
:10178000064ADC21462001F061FB012300E0002332
:101790001846BD4680BD00BF78010020189500089E
:1017A00080B500AF06F0C2FD0246204B83FB02135A
:1017B0001344D910D317C91A0B46DB005B1A5B0020
:1017C000D11A8AB21A4B1A8006F0B0FD0246174BA6
:1017D00083FB02131344D910D317C91A0B46DB003D
:1017E0005B1A5B00D11A8AB2114B5A80104B1B88CE
:1017F00019460F4B5B8818460E4A0B461B015B1AB5
:10180000134403441B78002BCCD1094B1B88194689
:10181000074B5B881846074A0B461B015B1A1344AB
:10182000034402221A7000BF80BD00BF9324499276
:10183000B0010020B801002080B584B002AF0023C1
:10184000FB7115E00023BB710CE0FA79B9792C48E3
:1018500013461B019B1A03440B4400221A70BB79E8
:101860000133BB71BB790E2BEFD9FB790133FB71CF
:10187000FB790E2BE6D94FF6FF730093BE23C322EC
:1018800028212D2000F02AFE1E4B1F221A811D4BFD
:1018900008221A801B4B07225A801A4B08229A8072
:1018A000184B0822DA80174B1B881946154B5B88AA
:1018B0001846134A0B461B015B1A134403440122CA
:1018C0001A70104B9B8819460E4BDB8818460C4A41
:1018D0000B461B015B1A1344034401221A70094B87
:1018E0001F221A81FFF75CFF074B4FF478429A8062
:1018F000064B02221A7000BF0837BD4680BD00BFEC
:10190000B8010020A4010020B0010020A2010020A5
:1019100090B585B002AF0346FB710B46BB71134611
:10192000BB80FB799BB21A46920013445B009BB2CA
:101930002D3398B2BB799BB21A46920013445B00D8
:101940009BB2283399B2FB799BB21A46920013449A
:101950005B009BB237339AB2BB799BB21C46A400A2
:1019600023445B009BB232339CB2BB880093234676
:1019700000F0B4FD00BF0C37BD4690BD80B582B00D
:1019800000AF0023FB803DE00023BB8034E0FA88F9
:10199000B988204813461B019B1A03440B441B784B
:1019A000012B08D1FB88DBB2BA88D1B21F221846BE
:1019B000FFF7AEFF1DE0FA88B988164813461B01F1
:1019C0009B1A03440B441B78022B09D1FB88DBB222
:1019D000BA88D1B24FF478421846FFF799FF08E071
:1019E000FB88DBB2BA88D1B24FF6FF721846FFF718
:1019F0008FFFBB880133BB80BB880E2BC7D9FB8808
:101A00000133FB80FB880E2BBED900BF00BF083717
:101A1000BD4680BDB801002080B400AF5B4B1B7891
:101A2000032B00F2A38001A252F823F03D1A000814
:101A3000891A0008D51A0008211B0008544B5B883E
:101A4000002B0ED0524B1B881846514B5B885A1EF8
:101A5000504903461B011B1A0B4413441B78012BEE
:101A600001D100238CE04A4B1B881846484B5B8809
:101A70005A1E484903461B011B1A0B4413441B788A
:101A8000022B75D102237BE0414B5B880D2B0ED8D6
:101A90003F4B1B8818463E4B5B885A1C3D4903460A
:101AA0001B011B1A0B4413441B78012B01D100238B
:101AB00066E0374B1B881846354B5B885A1C354906
:101AC00003461B011B1A0B4413441B78022B51D1F4
:101AD000022355E02E4B1B88002B0ED02C4B1B886D
:101AE0005A1E2B4B5B8818462A4913461B019B1A2A
:101AF0000B4403441B78012B01D1002340E0244B0D
:101B00001B885A1E224B5B881846224913461B012C
:101B10009B1A0B4403441B78022B2DD102232FE088
:101B20001B4B1B880D2B0ED8194B1B885A1C184BAE
:101B30005B881846174913461B019B1A0B44034444
:101B40001B78012B01D100231AE0114B1B885A1C72
:101B50000F4B5B8818460F4913461B019B1A0B4419
:101B600003441B78022B09D1022309E000BF06E0E1
:101B700000BF04E000BF02E000BF00E000BF01239F
:101B80001846BD465DF8047B704700BFA2010020E7
:101B9000A4010020B801002080B400AF344B1B78B2
:101BA000032B5FD801A252F823F000BFBD1B000831
:101BB000E71B0008111C00083B1C00082D4B1B886C
:101BC00018462C4B5B885A1E2B4903461B011B1AD7
:101BD0000B44134401221A70264B5B88013B9AB2D6
:101BE000244B5A803FE0234B1B881846214B5B88CF
:101BF0005A1C214903461B011B1A0B4413440122A2
:101C00001A701C4B5B8801339AB21A4B5A802AE037
:101C1000184B1B885A1E174B5B88184616491346EB
:101C20001B019B1A0B44034401221A70114B1B88A1
:101C3000013B9AB20F4B1A8015E00E4B1B885A1CC1
:101C40000C4B5B8818460C4913461B019B1A0B442E
:101C5000034401221A70074B1B8801339AB2054BCB
:101C60001A8000E000BF00BFBD465DF8047B7047EE
:101C7000A2010020A4010020B801002080B483B09C
:101C800000AF3A4B9B885A1E384BDB8818463849C0
:101C900013461B019B1A0B4403441B78012B07D1ED
:101CA000324B9B88013BFB80304BDB88BB8043E0A1
:101CB0002E4B9B885A1C2D4BDB8818462C4913460B
:101CC0001B019B1A0B4403441B78012B07D1274BA4
:101CD0009B880133FB80254BDB88BB802CE0234BAA
:101CE0009B881846214BDB885A1E214903461B015D
:101CF0001B1A0B4413441B78012B07D11B4B9B88E9
:101D0000FB801A4BDB88013BBB8015E0174B9B889F
:101D10001846164BDB885A1C154903461B011B1A33
:101D20000B4413441B78012B06D1104B9B88FB807E
:101D30000E4BDB880133BB800C4B9B8819460B4B49
:101D4000DB8818460A4A0B461B015B1A13440344FE
:101D500000221A70054AFB889380044ABB88D3800E
:101D600000BF0C37BD465DF8047B7047A40100201E
:101D7000B801002080B582B000AF0346FB71FB794B
:101D8000012B08D110210A4803F013FDFFF704FFCF
:101D9000FFF774FF08E0FB79022B05D110210448FE
:101DA00003F007FDFFF7F8FE00BF0837BD4680BD12
:101DB0000010024080B500AF314B1B78032B53D885
:101DC00001A252F823F000BFD91D0008FD1D000834
:101DD000211E0008451E0008FFF75EFC0346002B8D
:101DE00003D0274B02221A7040E0FFF797FC03460E
:101DF000002B3BD0224B03221A7037E0FFF74CFC3C
:101E00000346002B03D01E4B02221A7030E0FFF76E
:101E100085FC0346002B2BD0194B03221A7027E0B8
:101E2000FFF7BEFB0346002B03D0154B00221A70B0
:101E300020E0FFF7EFFB0346002B1BD0104B0122E5
:101E40001A7017E0FFF7ACFB0346002B03D00C4BD6
:101E500000221A7010E0FFF7DDFB0346002B0BD0C9
:101E6000074B01221A7007E000BF06E000BF04E044
:101E700000BF02E000BF00E000BF00BF80BD00BFA8
:101E8000A201002080B582B000AF00237B600C4B24
:101E90001B6B0B4A43F480031363094B1B6B03F466
:101EA00080037B607B6800220021382002F093FFD2
:101EB000382002F0ACFF00BF0837BD4680BD00BF30
:101EC0000038024080B58EB000AF07F11C0300223D
:101ED0001A605A609A60DA601A615A619A613B46E8
:101EE00000221A605A609A60DA601A615A619A6137
:101EF0002F4B4FF020421A602D4B2E4A5A602C4B2C
:101F000000229A602A4B0022DA60294B00221A61D3
:101F1000274B10225A61264B00229A61244B002243
:101F2000DA61234B00221A62214B00225A62204BB5
:101F30004FF480529A621E4B0022DA621C4B4FF41F
:101F400080421A631A4B00225A63194B00229A638B
:101F5000174B00225A640F23FB610F233B623C2383
:101F60007B620023BB621023FB6211233B630023CF
:101F70007B6308233B600F237B600923BB60002346
:101F8000FB6010233B6111237B610023BB613A4658
:101F900007F11C031946064805F0F3F80346002B29
:101FA00001D001F061F800BF3837BD4680BD00BFE9
:101FB0009C020020040100A080B586B000AF3B1D4C
:101FC00000221A605A609A60DA601A611C4B1B6822
:101FD000002B31D11A4B01221A6000233B60194BB0
:101FE0009B6B184A43F001039363164B9B6B03F002
:101FF00001033B603B684FF688737B600223BB6044
:102000000023FB6003233B610C237B613B1D1946CE
:102010000D4803F001FA4CF2B3737B600223BB60FE
:102020000023FB6003233B610C237B613B1D1946AE
:10203000064803F0F1F900E000BF1837BD4680BD47
:10204000EC0200200038024000100240000C024068
:1020500080B582B000AF7860FFF7AEFF00BF0837F1
:10206000BD4680BD80B58EB000AF07F124030022CD
:102070001A605A609A60DA601A6100233B627E4BF4
:102080001B6B7D4A43F0100313637B4B1B6B03F008
:1020900010033B623B6A0023FB61774B1B6B764A64
:1020A00043F004031363744B1B6B03F00403FB61E5
:1020B000FB690023BB61704B1B6B6F4A43F020032D
:1020C00013636D4B1B6B03F02003BB61BB690023E3
:1020D0007B61694B1B6B684A43F080031363664B5B
:1020E0001B6B03F080037B617B6900233B61624BC8
:1020F0001B6B614A43F0010313635F4B1B6B03F0DF
:1021000001033B613B690023FB605B4B1B6B5A4A3D
:1021100043F002031363584B1B6B03F00203FB6095
:10212000FB680023BB60544B1B6B534A43F008030E
:102130001363514B1B6B03F00803BB60BB680023A8
:102140007B604D4B1B6B4C4A43F0400313634A4B7F
:102150001B6B03F040037B607B68002270214748C3
:1021600003F00EFB00224FF40851454803F008FB32
:1021700000224FF4E071434803F002FB00224FF4C9
:102180008071414803F0FCFA002208213F4803F027
:10219000F7FA70237B620123BB620023FB620023FA
:1021A0003B6307F124031946344803F035F94FF433
:1021B00008537B620123BB620023FB6200233B6365
:1021C00007F1240319462E4803F026F9C0237B6249
:1021D0000023BB620023FB6207F1240319462A484F
:1021E00003F01AF930237B620023BB620023FB62F9
:1021F00007F124031946224803F00EF94FF4E07367
:102200007B620123BB620023FB6200233B6307F177
:10221000240319461B4803F0FFF84FF488537B62F0
:102220000023BB620123FB6207F124031946144813
:1022300003F0F2F84FF480737B620123BB6200234A
:10224000FB6200233B6307F1240319460E4803F0A9
:10225000E3F808237B620123BB620023FB620023B7
:102260003B6307F124031946084803F0D5F800BF83
:102270003837BD4680BD00BF003802400010024024
:10228000000802400018024000000240000C02401A
:1022900080B500AF124B134A1A60114B124A5A60B4
:1022A0000F4B00229A600E4B0022DA600C4B4FF469
:1022B00080421A610A4B00225A61094B00229A613E
:1022C000074B0022DA61064B00221A62044803F031
:1022D0008BFA0346002B01D000F0C6FE00BF80BD84
:1022E000F002002000540040A086010080B58AB0B2
:1022F00000AF786007F1140300221A605A609A60F8
:10230000DA601A617B681B68194A93422BD100235B
:102310003B61184B1B6B174A43F002031363154BC9
:102320001B6B03F002033B613B69C0237B611223FB
:10233000BB610023FB6103233B6204237B6207F143
:10234000140319460C4803F067F80023FB60094B9F
:102350001B6C084A43F400131364064B1B6C03F414
:102360000013FB60FB6800BF2837BD4680BD00BF7F
:1023700000540040003802400004024080B483B0A2
:1023800000AF0346FB80044AFB88138000BF0C3774
:10239000BD465DF8047B7047FEFF0F6080B483B0DC
:1023A00000AF0346FB80044AFB88538000BF0C3714
:1023B000BD465DF8047B7047FEFF0F6080B483B0BC
:1023C00000AF064B5B889BB2FB80FB889BB2184634
:1023D0000C37BD465DF8047B704700BFFEFF0F6001
:1023E00090B583B000AF0446084611461A4623460E
:1023F000FB800346BB800B467B8013463B802A2034
:10240000FFF7BCFFFB881B0A9BB21846FFF7C6FF0D
:10241000FB88DBB29BB21846FFF7C0FF7B881B0A24
:102420009BB21846FFF7BAFF7B88DBB29BB2184617
:10243000FFF7B4FF2B20FFF7A1FFBB881B0A9BB25D
:102440001846FFF7ABFFBB88DBB29BB21846FFF71D
:10245000A5FF3B881B0A9BB21846FFF79FFF3B88EE
:10246000DBB29BB21846FFF799FF2C20FFF786FFDF
:1024700000BF0C37BD4690BD80B584B000AF0346A9
:10248000FB80154B1B88013B9AB2134B5B88013BC9
:102490009BB200210020FFF7A3FF0023FB8111E086
:1024A0000023BB8106E0FB881846FFF777FFBB8956
:1024B0000133BB81084B5B88BA899A42F3D3FB890D
:1024C0000133FB81044B1B88FA899A42E8D300BF91
:1024D00000BF1037BD4680BD4403002090B585B0D5
:1024E00000AF0446084611461A462346FB800346C1
:1024F000BB800B467B8013463B807B88013B9AB2B6
:102500003B88013B9BB2B988F888FFF769FFBB881D
:10251000FB8110E0FB88BB8106E03B8C1846FFF78F
:102520003DFFBB890133BB81BA897B889A42F4D3D2
:10253000FB890133FB81FA893B889A42EAD300BFC9
:1025400000BF1437BD4690BD80B582B000AF0346D2
:10255000FB800B46BB8013467B80BB88FA88B9881A
:10256000F888FFF73DFF7B881846FFF717FF00BF8D
:102570000837BD4680BD90B58DB000AF0446084613
:1025800011461A462346FB800346BB800B467B80E0
:1025900013463B800023BB6200237B627A88FB8862
:1025A000D31A3B623A88BB88D31AFB61FB88FB6075
:1025B000BB88BB603B6A002B02DD01237B610BE023
:1025C0003B6A002B02D100237B6105E04FF0FF3313
:1025D0007B613B6A5B423B62FB69002B02DD0123AE
:1025E0003B610BE0FB69002B02D100233B6105E05E
:1025F0004FF0FF333B61FB695B42FB613A6AFB6969
:102600009A4202DD3B6ABB6101E0FB69BB610023CA
:10261000FB852BE0FB689BB2BA6891B2B7F840200B
:102620001846FFF791FFBA6A3B6A1344BB627A6AA5
:10263000FB6913447B62BA6ABB699A4207DDBA6AD6
:10264000BB69D31ABB62FA687B691344FB607A6A80
:10265000BB699A4207DD7A6ABB69D31A7B62BA68A2
:102660003B691344BB60FB8D0133FB85FB8DBA696D
:102670009A42CFDA00BF00BF3437BD4690BD00009C
:1026800090B587B000AF0446084611461A46234667
:10269000FB800346BB800B46FB7013463B80002348
:1026A0007B75FB883B8297F82C305B08FB73FB7BC8
:1026B000DB08DBB21A46FB7B03F00703DBB2002B1F
:1026C00014BF01230023DBB213449AB297F82C30D5
:1026D0009BB212FB03F3BB81FB78203BFB70FB7BBF
:1026E0009AB2FB8813449BB2013B9CB297F82C3002
:1026F0009AB2BB8813449BB2013B9BB2B988F8885D
:102700002246FFF76DFE00237B827AE097F82C309B
:102710000C2B28D097F82C30102B08D1FA787B8A14
:102720003C4912010A4413441B78FB751BE097F8DF
:102730002C30182B0BD1FA78798A374813465B0076
:1027400013441B0103440B441B78FB750BE097F803
:102750002C30202B5AD1FA787B8A304992010A44D6
:1027600013441B78FB750023BB7544E097F83030A9
:10277000002B20D1FA7DBB7D42FA03F303F0010365
:10278000002B04D03B881846FFF708FE03E03B8D82
:102790001846FFF703FE7B7D01337B757B7DFA7B5B
:1027A000B3FBF2F101FB02F29B1ADBB2002B1FD14B
:1027B00000237B7522E0FA7DBB7D42FA03F303F030
:1027C0000103002B05D03A88B988FB881846FFF72B
:1027D000BBFEFB880133FB80FA883B8AD21AFB7B65
:1027E0009A4205D13B8AFB80BB880133BB8005E060
:1027F000BB7D0133BB75BB7D072BB7D97B8A01330A
:102800007B827A8ABB899A4280D300E000BF1C3762
:10281000BD4690BDFC950008EC9B0008BCAD0008CF
:1028200080B485B000AF03460A46FB711346BB7106
:102830000123FB6004E0FA79FB6802FB03F3FB6011
:10284000BB795A1EBA71002BF5D1FB6818461437B4
:10285000BD465DF8047B704790B589B004AF04466F
:10286000084611461A462346FB800346BB800B46AA
:102870007B8013467B700023BB7397F828305B087E
:102880007B730023FB7359E07C887A78FB7BD31A37
:10289000DBB2013BDBB219460A20FFF7C1FF03465A
:1028A000B4FBF3F12A4BA3FB0123DA0813469B0088
:1028B00013445B00CA1A13463B73BB7B002B21D128
:1028C000FA7B7B78013B9A421CDA3B7B002B17D1C9
:1028D000FB7B9AB27B7B9BB212FB03F39AB2FB8821
:1028E000134498B23A8CB9880023029397F82830A1
:1028F0000193BB8C009313462022FFF7C1FE1AE020
:102900000123BB73FB7B9AB27B7B9BB212FB03F36D
:102910009AB2FB88134498B23B7B3033DAB23C8CDA
:10292000B9880023029397F828300193BB8C009359
:102930002346FFF7A5FEFB7B0133FB73FA7B7B7815
:102940009A42A1D300BF00BF1437BD4690BD00BF5F
:10295000CDCCCCCC80B483B000AF0346FB71FB7907
:102960001B09DBB203F00303DBB2002B07D00A4BD9
:102970004FF4A0721A80084BF0225A8006E0064BF2
:10298000F0221A80044B4FF4A0725A8000BF0C371B
:10299000BD465DF8047B70474403002080B500AF5E
:1029A00000224FF40051AA4802F0EAFE4FF4FA70F8
:1029B00001F0B0FE01224FF40051A54802F0E0FE04
:1029C0004FF4FA7001F0A6FE0020FFF7C3FFD320FA
:1029D000FFF7D4FCFFF7F2FC03461A469D4B9A80A2
:1029E000FFF7ECFC03461A469A4B9A80FFF7E6FC89
:1029F00003461A46974B9A80964B9B881B029AB2C5
:102A0000944B9A80FFF7DAFC03461A46914B9B8859
:102A100013439AB28F4B9A80CF20FFF7AFFC002070
:102A2000FFF7BCFCC120FFF7B9FC3020FFF7B6FC74
:102A3000ED20FFF7A3FC6420FFF7B0FC0320FFF7B5
:102A4000ADFC1220FFF7AAFC8120FFF7A7FCE820CD
:102A5000FFF794FC8520FFF7A1FC1020FFF79EFCF8
:102A60007A20FFF79BFCCB20FFF788FC3920FFF78B
:102A700095FC2C20FFF792FC0020FFF78FFC342000
:102A8000FFF78CFC0220FFF789FCF720FFF776FCAC
:102A90002020FFF783FCEA20FFF770FC0020FFF7FF
:102AA0007DFC0020FFF77AFCC020FFF767FC1B20AD
:102AB000FFF774FCC120FFF761FC0120FFF76EFCFB
:102AC000C520FFF75BFC3020FFF768FC3020FFF7E4
:102AD00065FCC720FFF752FCB720FFF75FFC3620EC
:102AE000FFF74CFC0820FFF759FC3A20FFF746FCA3
:102AF0005520FFF753FCB120FFF740FC0020FFF703
:102B00004DFC1A20FFF74AFCB620FFF737FC0A20DD
:102B1000FFF744FCA220FFF741FCF220FFF72EFC58
:102B20000020FFF73BFC2620FFF728FC0120FFF7E1
:102B300035FCE020FFF722FC0F20FFF72FFC2A20B6
:102B4000FFF72CFC2820FFF729FC0820FFF726FCC4
:102B50000E20FFF723FC0820FFF720FC5420FFF78E
:102B60001DFCA920FFF71AFC4320FFF717FC0A20E1
:102B7000FFF714FC0F20FFF711FC0020FFF70EFCFD
:102B80000020FFF70BFC0020FFF708FC0020FFF7F8
:102B900005FCE120FFF7F2FB0020FFF7FFFB15200B
:102BA000FFF7FCFB1720FFF7F9FB0720FFF7F6FB09
:102BB0001120FFF7F3FB0620FFF7F0FB2B20FFF7B8
:102BC000EDFB5620FFF7EAFB3C20FFF7E7FB052073
:102BD000FFF7E4FB1020FFF7E1FB0F20FFF7DEFB20
:102BE0003F20FFF7DBFB3F20FFF7D8FB0F20FFF76D
:102BF000D5FB2B20FFF7C2FB0020FFF7CFFB002007
:102C0000FFF7CCFB0120FFF7C9FB3F20FFF7C6FB16
:102C10002A20FFF7B3FB0020FFF7C0FB0020FFF7DF
:102C2000BDFB0020FFF7BAFBEF20FFF7B7FB112039
:102C3000FFF7A4FB782001F06DFD2920FFF79EFB34
:102C400001224FF48071044802F09AFD00BF80BD5C
:102C500000080240440300200000024080B584B018
:102C600000AFF860B9607A603B60FB689AB27B683D
:102C70009BB2134498B2BB689AB23B689BB21344B0
:102C80009BB23A8B1946FFF75FFCFB689AB27B68F0
:102C90009BB2D31A98B2BB689AB23B689BB21344FA
:102CA0009BB23A8B1946FFF74FFCFB689AB27B68E0
:102CB0009BB2134498B2BB689AB23B689BB2D31ADA
:102CC0009BB23A8B1946FFF73FFCFB689AB27B68D0
:102CD0009BB2D31A98B2BB689AB23B689BB2D31A24
:102CE0009BB23A8B1946FFF72FFCFB689AB23B6800
:102CF0009BB2134498B2BB689AB27B689BB21344F0
:102D00009BB23A8B1946FFF71FFCFB689AB23B68EF
:102D10009BB2D31A98B2BB689AB27B689BB2134439
:102D20009BB23A8B1946FFF70FFCFB689AB23B68DF
:102D30009BB2134498B2BB689AB27B689BB2D31A19
:102D40009BB23A8B1946FFF7FFFBFB689AB23B68D0
:102D50009BB2D31A98B2BB689AB27B689BB2D31A63
:102D60009BB23A8B1946FFF7EFFB00BF1037BD4609
:102D700080BD80B58AB002AFF860B9603B60134691
:102D8000FB800023FB613B68BB613B685B00C3F1D8
:102D900003033B61BB6A002B4FD029E0FB697B61D9
:102DA0000AE0FB8800937B69FA69B968F868FFF765
:102DB00055FF7B6901337B617A69BB699A42F0DD1B
:102DC0003B69002B06DAFB699A003B691344063322
:102DD0003B610AE0FA69BB69D31A9A003B69134464
:102DE0000A333B61BB69013BBB61FB690133FB619A
:102DF000FA69BB699A42D1DD23E0FB880093BB6985
:102E0000FA69B968F868FFF729FF3B69002B06DA11
:102E1000FB699A003B69134406333B610AE0FA6997
:102E2000BB69D31A9A003B6913440A333B61BB69FF
:102E3000013BBB61FB690133FB61FA69BB699A42E3
:102E4000DBDD00BF2037BD4680BD000090B58BB0F4
:102E500004AFBA601A460346FB810B46BB8113469A
:102E6000FB80FB89BB820023FB7548E0FB7D002BC8
:102E700045D1FA89264B1B88194697F82C305B08F8
:102E8000DBB2CB1A9A423FDCBA89214B5B881946E8
:102E900097F82C30CB1A9A4236DCBB681B78802B13
:102EA00002D90123FB752AE0BB681B780D2B0BD1DF
:102EB00097F82C309AB2BB891344BB81BB8AFB8143
:102EC000BB680133BB6017E0BB681A78FC88B9891E
:102ED000F88997F83030029397F82C3001933B8DA6
:102EE00000932346FFF7CCFB97F82C305B08DBB24E
:102EF0009AB2FB891344FB81BB680133BB60BB689A
:102F00001B78002BB2D100E000BF1C37BD4690BD3E
:102F10004403002080B500AF01F08AFB00F020F8E8
:102F2000FFF7A0F800F058FB00F04AF9FEF7CAFFDF
:102F3000FFF7AEF900F09CFBFEF7A4FFFDF7A2FF40
:102F400000F0FAFA00F076F80020FFF795FAFEF7A5
:102F500073FCFEF7FDFA01F00DFBFEF75FF9FAE7EF
:102F600080B594B000AF07F120033022002118464D
:102F700005F00DFB07F10C0300221A605A609A60FD
:102F8000DA601A610023BB60284B1B6C274A43F0B0
:102F900080531364254B1B6C03F08053BB60BB68EC
:102FA00000237B60224B1B68214A43F4804313605B
:102FB0001F4B1B6803F480437B607B6802233B62EA
:102FC0000123FB6210233B630223BB630023FB63EB
:102FD00008233B64A8237B640223BB640423FB64B3
:102FE00007F12003184603F0BFFB0346002B01D076
:102FF00000F03AF80F23FB6002233B6100237B6162
:103000004FF4A053BB614FF4A053FB6107F10C03D5
:103010000521184603F020FE0346002B01D000F0E6
:1030200023F800BF5037BD4680BD00BF00380240C6
:103030000070004080B500AF00F01CF8FEF7E2F829
:10304000FFF7ACFC01F086FA0A21002000F02AF814
:103050004FF47A71012000F025F84FF4FA71032043
:1030600000F020F800BF80BD80B400AF72B600BF92
:10307000FEE7000080B500AF034804F081F9034883
:1030800004F016F900BF80BD18040020D003002012
:1030900080B582B000AF786000F030F800BF08372C
:1030A000BD4680BD80B582B000AF786039603B68B6
:1030B0004FF47A7202FB03F31846FDF71BFA4FF048
:1030C00000020C4BFDF7BAFB02460B4610461946B0
:1030D000FDF73AFD024608497B68DB000B445A6065
:1030E000054A7B68012102F8331000BF0837BD464E
:1030F00080BD00BF00408F404C03002080B483B0EF
:1031000000AF00237B601FE0144A7B6812F8333065
:10311000002B16D0114A7B68DB0013445B685A1EF3
:103120000E497B68DB000B445A600C4A7B68DB006D
:1031300013445B68002B04D1084A7B68002102F825
:1031400033107B6801337B607B68042BDCD900BFC4
:1031500000BF0C37BD465DF8047B70474C03002070
:1031600080B483B000AF7860074A7B6812F83330D0
:10317000012B0CBF01230023DBB218460C37BD46E0
:103180005DF8047B704700BF4C03002080B483B01F
:1031900000AF0346FB80094B1B6800225A6200BF48
:1031A000064B1B685A6AFB889A42F9D300BF00BFDE
:1031B0000C37BD465DF8047B704700BFD00300208C
:1031C00080B500AF174B184A1A60164B4FF4827245
:1031D0005A60144B00229A60124B0022DA60114BA5
:1031E00000221A610F4B00225A610E4B4FF40072FD
:1031F0009A610C4B0022DA610A4B00221A62094BD9
:1032000000225A62074B00229A62064B0A22DA62B7
:10321000044803F02DFF0346002B01D0FFF724FFE5
:1032200000BF80BD740300200030014080B58AB02B
:1032300000AF786007F1140300221A605A609A60A8
:10324000DA601A617B681B68194A93422BD100230C
:103250003B61184B5B6C174A43F480535364154B26
:103260005B6C03F480533B613B690023FB60114BB3
:103270001B6B104A43F0020313630E4B1B6B03F0EE
:103280000203FB60FB6838237B610223BB610023E0
:10329000FB6103233B6205237B6207F1140319469C
:1032A000054802F0B9F800BF2837BD4680BD00BF11
:1032B00000300140003802400004024080B483B076
:1032C00000AF00237B60104B5B6C0F4A43F48043DC
:1032D00053640D4B5B6C03F480437B607B6800237D
:1032E0003B60094B1B6C084A43F080531364064B48
:1032F0001B6C03F080533B603B6800BF0C37BD463E
:103300005DF8047B704700BF0038024080B400AF16
:10331000FEE780B400AFFEE780B400AFFEE780B404
:1033200000AFFEE780B400AFFEE780B400AF00BF9F
:10333000BD465DF8047B704780B400AF00BFBD465A
:103340005DF8047B704780B400AF00BFBD465DF8F8
:10335000047B704780B500AF01F0BCF900BF80BDB1
:1033600080B500AF024804F0D4F800BF80BD00BFB4
:103370001804002080B500AF024801F011FE00BF24
:1033800080BD00BF1401002080B400AF01231846A7
:10339000BD465DF8047B704780B582B000AF7860B1
:1033A000396005F043F9034616221A604FF0FF33E7
:1033B00018460837BD4680BD80B582B000AF786042
:1033C0004FF0FF317868FFF7E7FFFEE780B586B082
:1033D00000AFF860B9607A6000237B610AE0AFF368
:1033E00000800146BB685A1CBA60CAB21A707B6979
:1033F00001337B617A697B689A42F0DB7B6818460F
:103400001837BD4680BD80B586B000AFF860B960A2
:103410007A6000237B6109E0BB685A1CBA601B78A4
:103420001846AFF300807B6901337B617A697B6862
:103430009A42F1DB7B6818461837BD4680BD80B4E0
:1034400083B000AF78604FF0FF3318460C37BD46AD
:103450005DF8047B704780B483B000AF786039605A
:103460003B684FF400525A60002318460C37BD46A3
:103470005DF8047B704780B483B000AF78600123AF
:1034800018460C37BD465DF8047B704780B485B0A4
:1034900000AFF860B9607A60002318461437BD4663
:1034A0005DF8047B7047000080B586B000AF78609F
:1034B000144A154BD31A7B617B693B61134B1B6824
:1034C000002B02D1114B124A1A60104B1A687B680C
:1034D00013443A699A4207D205F0A8F803460C2231
:1034E0001A604FF0FF3309E0084B1B68FB60074B85
:1034F0001A687B681344054A1360FB68184618373E
:10350000BD4680BD0000022000040000CC03002066
:10351000F805002080B400AF064BD3F88830054A88
:1035200043F47003C2F8883000BFBD465DF8047BE9
:10353000704700BF00ED00E080B586B000AF07F136
:10354000080300221A605A609A60DA603B46002243
:103550001A605A601E4B1F4A1A601D4B53225A6054
:103560001B4B00229A601A4B4FF6FF72DA60184B21
:1035700000221A61164B00225A61154B00229A61F3
:10358000134803F046FE0346002B01D0FFF76CFD05
:103590004FF48053BB6007F1080319460C4804F050
:1035A00083F90346002B01D0FFF75EFD00233B604B
:1035B00000237B603B461946054804F04FFD034657
:1035C000002B01D0FFF750FD00BF1837BD4680BD6E
:1035D000D00300200000014080B586B000AF07F1A5
:1035E000080300221A605A609A60DA603B460022A3
:1035F0001A605A601D4B4FF080421A601B4B40F21C
:1036000047325A60194B00229A60184B6322DA60E5
:10361000164B00221A61154B00229A61134803F0E1
:10362000F8FD0346002B01D0FFF71EFD4FF4805339
:10363000BB6007F1080319460C4804F035F903464E
:10364000002B01D0FFF710FD00233B6000237B60BF
:103650003B461946054804F001FD0346002B01D006
:10366000FFF702FD00BF1837BD4680BD18040020DB
:1036700080B588B000AF3B1D00221A605A609A6086
:10368000DA601A615A619A611E4B1F4A1A601D4B1B
:1036900040F247325A601B4B00229A60194B63225A
:1036A000DA60184B00221A61164B00229A61154805
:1036B00003F0AFFD0346002B01D0FFF7D5FC114806
:1036C00003F0CEFE0346002B01D0FFF7CDFC6023B4
:1036D0007B600023BB600023FB6000237B613B1DFC
:1036E00000221946074804F01DF80346002B01D0BC
:1036F000FFF7BAFC034800F05BF800BF2037BD4677
:1037000080BD00BF60040020001C004080B586B072
:1037100000AF78607B681B68224A93420ED1002379
:103720007B61214B5B6C204A43F0010353641E4BC9
:103730005B6C03F001037B617B692EE07B681B6897
:10374000B3F1804F16D100233B61174B1B6C164A17
:1037500043F001031364144B1B6C03F001033B6142
:103760003B69002200211C2001F035FB1C2001F0E8
:103770004EFB12E07B681B680C4A93420DD100237C
:10378000FB60094B1B6C084A43F080031364064B33
:103790001B6C03F08003FB60FB6800BF1837BD465D
:1037A00080BD00BF0000014000380240001C004006
:1037B00080B588B000AF786007F10C0300221A6072
:1037C0005A609A60DA601A617B681B68124A9342F9
:1037D0001ED10023BB60114B1B6B104A43F020032A
:1037E00013630E4B1B6B03F02003BB60BB684FF4ED
:1037F0008073FB6002233B6100237B610023BB617C
:103800000923FB6107F10C031946054801F004FE8A
:1038100000BF2037BD4680BD001C0040003802407C
:103820000014024080B584B000AF0346FB71002352
:10383000FB730023FB7325E097F90730002B06DAB2
:1038400001224FF40071134801F09AFF05E00022B5
:103850004FF400710F4801F093FFFB795B00FB719F
:1038600000224FF480710C4801F08AFF0120FFF71D
:103870008DFC01224FF48071074801F081FFFB7B32
:103880000133FB73FB7B072BD6D900BF00BF10377A
:10389000BD4680BD000802400018024080B584B0DB
:1038A00000AF0346FB710023FB730023BB810022A2
:1038B0004FF480712F4801F063FF00224FF4007134
:1038C0002D4801F05DFF002280212A4801F058FFB9
:1038D000FB791846FFF7A6FF0620FFF757FC0022EA
:1038E0004FF48071234801F04BFF0120FFF74EFC9D
:1038F00001224FF480711F4801F042FF0120FFF7C1
:1039000045FC00224FF480711A4801F039FF002372
:10391000FB731FE0BB895B00BB8100224FF4807109
:10392000144801F02DFF0120FFF730FC01224FF475
:103930008071104801F024FF4FF480510E4801F0CF
:1039400007FF0346002B02D0BB890133BB81FB7B01
:103950000133FB73FB7B0F2BDCD9BB891B09BB81BC
:1039600001228021034801F00BFFBB891846103764
:10397000BD4680BD001802400008024090B589B0E5
:1039800000AF0346FB7100237B830023FB830EE023
:10399000FC8BFB791846FFF781FF03461A4663004C
:1039A00020333B4423F8142CFB8B0133FB83FB8B2C
:1039B000042BEDD90023FB8335E0FB8B0133BB8364
:1039C0002BE0FB8B5B0020333B4433F8142CBB8B88
:1039D0005B0020333B4433F8143C9A421AD9FB8BEA
:1039E0005B0020333B4433F8143C3B83BB8BFA8BA6
:1039F0005B0020333B4433F8141C530020333B441A
:103A00000A4623F8142CBB8B5B0020333B443A8BD3
:103A100023F8142CBB8B0133BB83BB8B042BD0D975
:103A2000FB8B0133FB83FB8B032BC6D900237B83EA
:103A30000123FB830BE0FB8B5B0020333B4433F81B
:103A4000142C7B8B13447B83FB8B0133FB83FB8B1D
:103A5000032BF0D97B8B054AA2FB03235B083B8336
:103A60003B8B18462437BD4690BD00BFABAAAAAA1F
:103A700080B584B000AF786039600C4B1B78184675
:103A8000FFF77CFF0346FB81094B1B781846FFF7C5
:103A900075FF0346BB817B68FA891A803B68BA8947
:103AA0001A80012318461037BD4680BD380000201B
:103AB0003900002080B586B000AF7860396007F12A
:103AC000120207F1140311461846FFF7D1FF03460F
:103AD000FB75FB7D002B01D1002349E007F10E02AD
:103AE00007F1100311461846FFF7C2FF0346FB75A6
:103AF000FB7D002B01D100233AE03A8ABB8A9A422F
:103B000004D83B8A6333BA8A934208DABA8A3B8A7A
:103B10009A422CD8BB8A63333A8A934227DBFA89CC
:103B20007B8A9A4204D8FB8963337A8A934208DA03
:103B30007A8AFB899A421AD87B8A6333FA8993423C
:103B400015DBBB8A1A463B8A1344DA0F13445B1019
:103B50009AB27B681A807B8A1A46FB891344DA0F73
:103B600013445B109AB23B681A80012300E00023E3
:103B700018461837BD4680BD90B585B002AF0346E4
:103B8000FB800B46BB8013467B80FB880C3B98B2C6
:103B9000FB880D339AB2BC88B9887B880093234692
:103BA000FEF7E9FCBB880C3B99B2BB880D339CB295
:103BB000FA88F8887B8800932346FEF7DCFCFB88B4
:103BC000013398B2BB8801339BB27A881946FEF75D
:103BD000BBFCFB88013B98B2BB8801339BB27A885F
:103BE0001946FEF7B1FCFB88013398B2BB88013B54
:103BF0009BB27A881946FEF7A7FCFB88013B98B276
:103C0000BB88013B9BB27A881946FEF79DFCF88879
:103C1000B9887A88002300930623FFF7AAF800BF2B
:103C20000C37BD4690BD000080B582B000AF0346A2
:103C3000FB714FF48071434801F08AFD0346002B6D
:103C400057D1FB79002B04D03F494048FFF732FFA2
:103C50003CE03D493D48FFF72DFF0346002B35D0A2
:103C60003B4B93ED097A3A4B9B8907EE903AF8EE7D
:103C7000E77A27EE277A364BB3F92C3007EE903AE5
:103C8000F8EEE77A77EE277AFCEEE77A17EE903ACD
:103C90009AB22F4B9A812E4B93ED0A7A2C4BDB8AEA
:103CA00007EE903AF8EEE77A27EE277A284BB3F939
:103CB0002E3007EE903AF8EEE77A77EE277AFCEEB0
:103CC000E77A17EE903A9AB2214BDA82204B93F8BA
:103CD00020305BB2002B2ADB1D4BC02283F8202052
:103CE0001B4B9A891A4B9A82194BDA8A184BDA8342
:103CF0001DE0174B93F820305BB2002B09DA144B10
:103D000093F8203003F07F03DAB2114B83F82020C0
:103D10000DE00F4B00229A820D4B0022DA830C4BF0
:103D20004FF6FF729A810A4B4FF6FF72DA82084B08
:103D300093F8203023F07F03DBB218460837BD46E6
:103D400080BD00BF000802401A00002010000020C3
:103D50000400002080B500AF0E2205490020FDF7C9
:103D600031FA00210E20FDF7CDF900BF80BD00BF64
:103D70002800002080B582B000AF0023FB710E2028
:103D8000FDF7A4F90346FB71FB79002B06D10E2247
:103D900005490020FDF7F7F9012300E0002318464C
:103DA0000837BD4680BD00BF28000020000000008D
:103DB00080B58EB004AF002387F82730002387F842
:103DC00027305F4B1A885E4B5B884FF6FF7100917E
:103DD00000210020FEF782FB0023029310230193B1
:103DE0004FF6FF7300934FF47843564A282105207D
:103DF000FFF72CF800230293102301934FF6FF7373
:103E000000934FF47843504A41210520FFF71EF8F4
:103E100000230293102301934FF6FF7300934FF496
:103E200078434A4A5A210520FFF710F84FF47842A8
:103E300014211420FFF7A0FE454B002283F8202018
:103E4000434B4FF000025A62322000F063FC404BBB
:103E50005B68012098473E4B93F8203003F0C00385
:103E6000402BF1D13A4B93F8203023F04003DAB2E3
:103E7000374B83F8202097F82730354A92899B00EA
:103E800028333B4423F8282C97F82730304AD28A2D
:103E90009B0028333B4423F8262C97F82730013326
:103EA00087F8273097F82730013B032BCCD801A2A5
:103EB00052F823F0C53E0008E73E0008113F000815
:103EC000553F00084FF6FF7214211420FFF754FEEF
:103ED0001B4B1B88143B9BB24FF4784214211846AD
:103EE000FFF74AFE19E3164B1B88143B9BB24FF6B3
:103EF000FF7214211846FFF73FFE114B5B88143BFD
:103F00009BB24FF4784219461420FFF735FE04E3C4
:103F10000B4B5B88143B9BB24FF6FF721946142083
:103F2000FFF72AFE064B1B88143B98B2044B5B88B4
:103F3000143B9BB24FF478421946FFF71DFEECE2AA
:103F4000440300201C95000838950008509500088F
:103F5000040000203B881A46BB88D31A002BB8BF48
:103F60005B423B627B881A46FB88D31A002BB8BFA2
:103F70005B42FB613B6A03FB03F33B62FB6903FBB0
:103F800003F3FB613A6AFB6913441846FCF7B2FA83
:103F900002460B4643EC102B05F09AF953EC102B1C
:103FA00010461946FCF7D0FD03467B833B891A4631
:103FB000BB89D31A002BB8BF5B423B627B891A4690
:103FC000FB89D31A002BB8BF5B42FB613B6A03FB42
:103FD00003F33B62FB6903FB03F3FB613A6AFB6992
:103FE00013441846FCF786FA02460B4643EC102BA6
:103FF00005F06EF953EC102B10461946FCF7A4FDA2
:1040000003463B837B8B07EE903AB8EE677A3B8B97
:1040100007EE903AF8EEE77AC7EE276A16EE900AB6
:10402000FCF78AFA02460B46C7E9042384A3D3E9C6
:104030000023D7E90401FCF749FD0346002B0FD10B
:1040400081A3D3E90023D7E90401FCF75DFD034612
:10405000002B05D17B8B002B02D03B8B002B36D164
:10406000002387F827307A4B1B88143B98B2784B93
:104070005B88143B9BB24FF6FF721946FFF77CFD3D
:104080004FF4784214211420FFF776FD00230293A9
:10409000102301934FF6FF7300934FF478436D4A5A
:1040A00028210520FEF7D2FE00230293102301935E
:1040B0004FF6FF7300934FF47843674A3C21052085
:1040C000FEF7C4FE4FF47A7000F024FB25E23B8833
:1040D0001A463B89D31A002BB8BF5B423B627B88F0
:1040E0001A467B89D31A002BB8BF5B42FB613B6A3F
:1040F00003FB03F33B62FB6903FB03F3FB613A6AD7
:10410000FB6913441846FCF7F5F902460B4643ECED
:10411000102B05F0DDF853EC102B10461946FCF778
:1041200013FD03467B83BB881A46BB89D31A002B39
:10413000B8BF5B423B62FB881A46FB89D31A002B4F
:10414000B8BF5B42FB613B6A03FB03F33B62FB6965
:1041500003FB03F3FB613A6AFB6913441846FCF75F
:10416000C9F902460B4643EC102B05F0B1F853ECAD
:10417000102B10461946FCF7E7FC03463B837B8B6C
:1041800007EE903AB8EE677A3B8B07EE903AF8EE7E
:10419000E77AC7EE276A16EE900AFCF7CDF90246D9
:1041A0000B46C7E9042326A3D3E90023D7E904017A
:1041B000FCF78CFC0346002B09D123A3D3E9002391
:1041C000D7E90401FCF7A0FC0346002B46D00023EE
:1041D00087F827301E4B1B88143B98B21C4B5B881A
:1041E000143B9BB24FF6FF721946FFF7C5FC4FF424
:1041F000784214211420FFF7BFFC00230293102300
:1042000001934FF6FF7300934FF47843114A28212E
:104210000520FEF71BFE00230293102301934FF6A7
:10422000FF7300934FF478430B4A3C210520FEF7BF
:104230000DFE4FF47A7000F06DFA6EE1AFF300807E
:10424000666666666666EE3FCDCCCCCCCCCCF03FE5
:10425000440300206495000884950008BB881A4632
:104260003B89D31A002BB8BF5B423B62FB881A46DE
:104270007B89D31A002BB8BF5B42FB613B6A03FB0F
:1042800003F33B62FB6903FB03F3FB613A6AFB69DF
:1042900013441846FCF72EF902460B4643EC102B4C
:1042A00005F016F853EC102B10461946FCF74CFCA1
:1042B00003467B833B881A46BB89D31A002BB8BFC1
:1042C0005B423B627B881A46FB89D31A002BB8BF3E
:1042D0005B42FB613B6A03FB03F33B62FB6903FB4D
:1042E00003F3FB613A6AFB6913441846FCF702F9D1
:1042F00002460B4643EC102B04F0EAFF53EC102B64
:1043000010461946FCF720FC03463B837B8B07EEE7
:10431000903AB8EE677A3B8B07EE903AF8EEE77A80
:10432000C7EE276A16EE900AFCF706F902460B461E
:10433000C7E9042383A3D3E90023D7E90401FCF7E9
:10434000C5FB0346002B09D180A3D3E90023D7E99D
:104350000401FCF7D9FB0346002B36D0002387F875
:104360002730714B1B88143B98B26F4B5B88143B12
:104370009BB24FF6FF721946FFF7FEFB4FF47842EF
:1043800014211420FFF7F8FB00230293102301935C
:104390004FF6FF7300934FF47843644A28210520B9
:1043A000FEF754FD00230293102301934FF6FF7391
:1043B00000934FF478435E4A3C210520FEF746FD0A
:1043C0004FF47A7000F0A6F9A7E0574B1B88283B02
:1043D00007EE903AF8EEE76ABB881A463B88D31A94
:1043E00007EE903AB8EEE77AC6EE877A514BC3ED06
:1043F000097A4D4B1B8807EE903AB8EEE77A4D4BA1
:10440000D3ED096ABB881A463B88134407EE903AFD
:10441000F8EEE77A66EEA77A37EE677AF0EE006A92
:10442000C7EE267AFDEEE77A17EE903A1AB2414BC4
:104430009A853D4B5B88283B07EE903AF8EEE76A99
:104440007B891A467B88D31A07EE903AB8EEE77A52
:10445000C6EE877A374BC3ED0A7A334B5B8807EE9B
:10446000903AB8EEE77A334BD3ED0A6A7B891A4665
:104470007B88134407EE903AF8EEE77A66EEA77A67
:1044800037EE677AF0EE006AC7EE267AFDEEE77A3D
:1044900017EE903A1AB2274BDA85234B1B88143B50
:1044A00098B2214B5B88143B9BB24FF6FF721946C2
:1044B000FFF762FB00230293102301934FF6FF7373
:1044C00000934FF478431C4A28210520FEF7BEFCD8
:1044D00000230293102301934FF6FF7300934FF4D0
:1044E0007843164A3C210520FEF7B0FC4FF47A7061
:1044F00000F010F900230293102301934FF6FF738D
:1045000000934FF478430E4A28210520FEF79EFCC5
:10451000FFF720FCFFF72EFC00E095E42837BD46AE
:1045200080BD00BFAFF30080440300206495000805
:104530008495000804000020A4950008C495000894
:10454000E4950008666666666666EE3FCDCCCCCC28
:10455000CCCCF03F80B500AF04490548FFF788FA9E
:10456000FCF7AEFDFFF706FC00BF80BD1A0000207F
:104570001000002080B500AF024B5B680020984718
:1045800000BF80BD0400002080B500AF4FF48071F3
:10459000054801F0DDF80346002B0CBF0123002382
:1045A000DBB2184680BD00BF0008024080B400AFF7
:1045B000034B9B891846BD465DF8047B704700BFDE
:1045C0000400002080B400AF034BDB8A1846BD46D0
:1045D0005DF8047B704700BF04000020DFF834D092
:1045E0000D480E490E4A002302E0D458C45004334B
:1045F000C4188C42F9D30B4A0B4C002301E0136022
:104600000432A242FBD3FEF785FF04F015F8FEF753
:1046100081FC70470000022000000020B000002054
:104620008CC60008B0000020F8050020FEE700005E
:1046300080B500AF0E4B1B680D4A43F40073136046
:104640000B4B1B680A4A43F480631360084B1B68DA
:10465000074A43F480731360032000F0B1FB0F207E
:1046600000F008F8FEF72AFE0023184680BD00BFC0
:10467000003C024080B582B000AF7860124B1A68EF
:10468000124B1B7819464FF47A73B3FBF1F3B2FB6C
:10469000F3F3184600F0C9FB0346002B01D00123B9
:1046A0000EE07B680F2B0AD8002279684FF0FF30AC
:1046B00000F091FB064A7B681360002300E00123B1
:1046C00018460837BD4680BD00000020400000208D
:1046D0003C00002080B400AF064B1B781A46064B06
:1046E0001B681344044A136000BFBD465DF8047B99
:1046F000704700BF40000020A804002080B400AF35
:10470000034B1B681846BD465DF8047B704700BF2D
:10471000A804002080B584B000AF7860FFF7EEFFFA
:10472000B8607B68FB60FB68B3F1FF3F05D00A4BC4
:104730001B781A46FB681344FB6000BFFFF7DEFFDF
:104740000246BB68D31AFA689A42F7D800BF00BF86
:104750001037BD4680BD00BF4000002080B584B04A
:1047600000AF78600023FB737B68002B01D101232D
:1047700033E07B681B6C002B09D17868FCF70CFCDC
:104780007B6800225A647B68002283F83C207B68A7
:104790001B6C03F01003002B18D17B681B6C23F4F7
:1047A000885323F0020343F002027B681A6478689E
:1047B00000F03AF97B6800225A647B681B6C23F096
:1047C000030343F001027B681A6401E00123FB73D9
:1047D0007B68002283F83C20FB7B18461037BD46DF
:1047E00080BD000080B485B000AF786039600023E0
:1047F000BB607B6893F83C30012B01D1022305E1BB
:104800007B68012283F83C203B681B68092B25D973
:104810007B681B68D9683B681B689BB21A461346C5
:104820005B0013441E3B072202FA03F3DA437B6862
:104830001B680A40DA607B681B68D9683B689A6825
:104840003B681B689BB2184603465B0003441E3B53
:104850009A407B681B680A43DA6022E07B681B6829
:1048600019693B681B689BB21A4613465B001344E8
:10487000072202FA03F3DA437B681B680A401A61D5
:104880007B681B6819693B689A683B681B689BB228
:10489000184603465B0003449A407B681B680A4342
:1048A0001A613B685B68062B24D87B681B68596BD0
:1048B0003B685A6813469B001344053B1F2202FACB
:1048C00003F3DA437B681B680A405A637B681B6802
:1048D000596B3B681B689BB218463B685A68134685
:1048E0009B001344053B00FA03F27B681B680A43F4
:1048F0005A634CE03B685B680C2B24D87B681B68D0
:10490000196B3B685A6813469B001344233B1F22D4
:1049100002FA03F3DA437B681B680A401A637B6878
:104920001B68196B3B681B689BB218463B685A684A
:1049300013469B001344233B00FA03F27B681B6879
:104940000A431A6323E07B681B68D96A3B685A688C
:1049500013469B001344413B1F2202FA03F3DA4340
:104960007B681B680A40DA627B681B68D96A3B680F
:104970001B689BB218463B685A6813469B00134459
:10498000413B00FA03F27B681B680A43DA62224B60
:10499000FB607B681B68214A934209D13B681B6816
:1049A000122B05D1FB685B6843F48002FB685A60F8
:1049B0007B681B68194A934223D13B681B68102B04
:1049C00003D03B681B68112B1BD1FB685B6843F469
:1049D0000002FB685A603B681B68102B11D1104B1A
:1049E0001B68104AA2FB03239A0C13469B00134436
:1049F0005B00BB6002E0BB68013BBB60BB68002B97
:104A0000F9D17B68002283F83C2000231846143734
:104A1000BD465DF8047B7047002301400020014043
:104A20000000002083DE1B4380B485B000AF7860B7
:104A3000794BFB60FB685B6823F44032FB685A608B
:104A4000FB685A687B685B681A43FB685A607B683E
:104A50001B685A687B681B6822F480725A607B6806
:104A60001B6859687B681B691A027B681B680A43CC
:104A70005A607B681B685A687B681B6822F040722A
:104A80005A607B681B6859687B689A687B681B68FA
:104A90000A435A607B681B689A687B681B6822F42B
:104AA00000629A607B681B6899687B68DA687B683B
:104AB0001B680A439A607B689B6A584A934222D0DB
:104AC0007B681B689A687B681B6822F070629A603A
:104AD0007B681B6899687B689A6A7B681B680A43D5
:104AE0009A607B681B689A687B681B6822F040525A
:104AF0009A607B681B6899687B68DA6A7B681B68C8
:104B00000A439A600FE07B681B689A687B681B68A1
:104B100022F070629A607B681B689A687B681B68E9
:104B200022F040529A607B681B689A687B681B6819
:104B300022F002029A607B681B6899687B681B7E82
:104B40005A007B681B680A439A607B6893F82030A0
:104B5000002B1BD07B681B685A687B681B6842F47B
:104B600000625A607B681B685A687B681B6822F485
:104B700060425A607B681B6859687B685B6A013BCE
:104B80005A037B681B680A435A6007E07B681B680E
:104B90005A687B681B6822F400625A607B681B6855
:104BA000DA6A7B681B6822F47002DA627B681B6831
:104BB000D96A7B68DB69013B1A057B681B680A437D
:104BC000DA627B681B689A687B681B6822F4007253
:104BD0009A607B681B6899687B6893F830305A024A
:104BE0007B681B680A439A607B681B689A687B68CD
:104BF0001B6822F480629A607B681B6899687B68F6
:104C00005B699A027B681B680A439A6000BF14378D
:104C1000BD465DF8047B7047002301400100000F92
:104C200080B485B000AF78607B6803F00703FB6059
:104C30000C4BDB68BB60BA684FF6FF031340BB60E8
:104C4000FB681A02BB68134343F0BF6343F40033AD
:104C5000BB60044ABB68D36000BF1437BD465DF833
:104C6000047B704700ED00E080B400AF044BDB68CC
:104C70001B0A03F007031846BD465DF8047B704726
:104C800000ED00E080B483B000AF0346FB7197F9FC
:104C90000730002B0BDBFB7903F01F02074997F964
:104CA00007305B09012000FA02F241F8232000BF1F
:104CB0000C37BD465DF8047B704700BF00E100E0A3
:104CC00080B483B000AF03463960FB7197F90730B9
:104CD000002B0ADB3B68DAB20C4997F90730120166
:104CE000D2B20B4483F800230AE03B68DAB20849E9
:104CF000FB7903F00F03043B1201D2B20B441A7686
:104D000000BF0C37BD465DF8047B704700E100E052
:104D100000ED00E080B489B000AFF860B9607A605F
:104D2000FB6803F00703FB61FB69C3F10703042B76
:104D300028BF0423BB61FB690433062B02D9FB693E
:104D4000033B00E000237B614FF0FF32BB6902FAB6
:104D500003F3DA43BB681A407B699A404FF0FF3196
:104D60007B6901FA03F3D9437B680B401343184670
:104D70002437BD465DF8047B7047000080B582B0E3
:104D800000AF78607B68013BB3F1807F01D30123E2
:104D90000FE00A4A7B68013B53600F214FF0FF3060
:104DA000FFF78EFF054B00229A60044B07221A6022
:104DB000002318460837BD4680BD00BF10E000E064
:104DC00080B582B000AF78607868FFF729FF00BF38
:104DD0000837BD4680BD80B586B000AF0346B960D8
:104DE0007A60FB7300237B61FFF73EFF78617A688E
:104DF000B9687869FFF78EFF024697F90F301146C0
:104E00001846FFF75DFF00BF1837BD4680BD80B56F
:104E100082B000AF0346FB7197F907301846FFF7E1
:104E200031FF00BF0837BD4680BD80B582B000AFFE
:104E300078607868FFF7A2FF034618460837BD463A
:104E400080BD000080B586B000AF786000237B6134
:104E5000FFF754FC38617B68002B01D1012399E0F6
:104E60007B68022283F835207B68002283F8342097
:104E70007B681B681A687B681B6822F001021A6055
:104E80000FE0FFF73BFC02463B69D31A052B08D91C
:104E90007B6820225A657B68032283F83520032330
:104EA00078E07B681B681B6803F00103002BE8D1E6
:104EB0007B681B681B687B617A69384B13407B6198
:104EC0007B685A687B689B681A437B68DB681A4377
:104ED0007B681B691A437B685B691A437B689B6923
:104EE0001A437B68DB691A437B681B6A13437A6940
:104EF00013437B617B685B6A042B07D17B68DA6AAA
:104F00007B681B6B13437A6913437B617B681B6867
:104F10007A691A607B681B685B697B617B6923F037
:104F200007037B617B685B6A7A6913437B617B68FB
:104F30005B6A042B17D17B689B6A7A6913437B6198
:104F40007B68DB6A002B0ED0786800F0E9F9034635
:104F5000002B08D07B6840225A657B68012283F8C9
:104F60003520012316E07B681B687A695A617868EE
:104F700000F0A0F90346FB607B68DB6D3F229A409E
:104F8000FB689A607B6800225A657B68012283F87F
:104F90003520002318461837BD4680BD3F8010F0ED
:104FA00080B586B000AF78600023BB608E4B1B6875
:104FB0008E4AA2FB03239B0A7B617B689B6D3B614E
:104FC0003B691B68FB607B68DB6D08229A40FB68CD
:104FD0001340002B1AD07B681B681B6803F0040386
:104FE000002B13D07B681B681A687B681B6822F053
:104FF00004021A607B68DB6D08229A403B699A6064
:105000007B685B6D43F001027B685A657B68DB6DF2
:1050100001229A40FB681340002B12D07B681B686A
:105020005B6903F08003002B0BD07B68DB6D0122F2
:105030009A403B699A607B685B6D43F002027B6833
:105040005A657B68DB6D04229A40FB681340002B95
:1050500012D07B681B681B6803F00203002B0BD087
:105060007B68DB6D04229A403B699A607B685B6DCC
:1050700043F004027B685A657B68DB6D10229A401E
:10508000FB681340002B43D07B681B681B6803F050
:105090000803002B3CD07B68DB6D10229A403B69F3
:1050A0009A607B681B681B6803F48023002B18D070
:1050B0007B681B681B6803F40023002B08D17B6806
:1050C0001B6C002B24D07B681B6C786898471FE012
:1050D0007B689B6C002B1BD07B689B6C7868984727
:1050E00016E07B681B681B6803F48073002B07D1F4
:1050F0007B681B681A687B681B6822F008021A60CC
:105100007B681B6C002B03D07B681B6C786898470E
:105110007B68DB6D20229A40FB681340002B00F077
:105120008F807B681B681B6803F01003002B00F066
:1051300087807B68DB6D20229A403B699A607B68A0
:1051400093F83530DBB2052B36D17B681B681A68C3
:105150007B681B6822F016021A607B681B685A691C
:105160007B681B6822F080025A617B681B6C002BF5
:1051700003D17B689B6C002B07D07B681B681A6887
:105180007B681B6822F008021A607B68DB6D3F2297
:105190009A403B699A607B68012283F835207B68DE
:1051A000002283F834207B681B6D002B7ED07B6847
:1051B0001B6D7868984779E07B681B681B6803F46F
:1051C0008023002B1DD07B681B681B6803F4002321
:1051D000002B0DD17B685B6C002B31D07B685B6C46
:1051E000786898472CE000BF00000020B5814E1B76
:1051F0007B68DB6B002B23D07B68DB6B7868984780
:105200001EE07B681B681B6803F48073002B0FD1C2
:105210007B681B681A687B681B6822F010021A60A2
:105220007B68012283F835207B68002283F83420D4
:105230007B68DB6B002B03D07B68DB6B786898475F
:105240007B685B6D002B32D07B685B6D03F00103E4
:10525000002B22D07B68052283F835207B681B68F1
:105260001A687B681B6822F001021A60BB68013370
:10527000BB607A699A4207D37B681B681B6803F09E
:105280000103002BF2D100E000BF7B68012283F80C
:1052900035207B68002283F834207B68DB6C002B90
:1052A00005D07B68DB6C7868984700E000BF183752
:1052B000BD4680BD80B485B000AF78607B681B6858
:1052C000DBB2103B144AA2FB03231B09FB60134A09
:1052D000FB6813441B781A467B68DA65FB68032B6E
:1052E00009D97B681B6823F47F7323F003031A1D1D
:1052F0007B689A6507E07B681B6823F47F7323F063
:1053000003037A6893657B689B6D18461437BD4626
:105310005DF8047B704700BFABAAAAAA94C5000839
:1053200080B485B000AF78600023FB737B689B6A14
:10533000BB607B689B69002B1FD1BB68032B56D8D1
:1053400001A252F823F000BF595300086B53000824
:1053500059530008EF5300087B68DB6A03F0807341
:10536000002B46D00123FB7343E07B68DB6AB3F17B
:10537000C07F40D10123FB733DE07B689B69B3F59F
:10538000005F21D1BB68032B37D801A252F823F06C
:10539000A1530008A7530008A1530008B9530008FF
:1053A0000123FB7330E07B68DB6A03F08073002B22
:1053B00025D00123FB7322E07B68DB6AB3F1C07F59
:1053C0001FD10123FB731CE0BB68022B03D9BB6810
:1053D000032B03D018E00123FB7315E07B68DB6A25
:1053E00003F08073002B0ED00123FB730BE000BF92
:1053F0000AE000BF08E000BF06E000BF04E000BF15
:1054000002E000BF00E000BFFB7B18461437BD463A
:105410005DF8047B704700BF80B489B000AF78604E
:10542000396000237B6100233B610023BB610023C3
:10543000FB616BE10122FB6902FA03F37B613B68CC
:105440001B687A6913403B613A697B699A4240F074
:105450005A813B685B6803F00303012B05D03B686E
:105460005B6803F00303022B30D17B689B68BB6150
:10547000FB695B00032202FA03F3DB43BA691340C2
:10548000BB613B68DA68FB695B0002FA03F3BA6947
:105490001343BB617B68BA699A607B685B68BB61D8
:1054A0000122FB6902FA03F3DB43BA691340BB61D3
:1054B0003B685B681B0903F00102FB6902FA03F316
:1054C000BA691343BB617B68BA695A603B685B6821
:1054D00003F00303032B17D07B68DB68BB61FB6918
:1054E0005B00032202FA03F3DB43BA691340BB619A
:1054F0003B689A68FB695B0002FA03F3BA691343DD
:10550000BB617B68BA69DA603B685B6803F00303E0
:10551000022B23D1FB69DA087B68083253F822306A
:10552000BB61FB6903F007039B000F2202FA03F340
:10553000DB43BA691340BB613B681A69FB6903F03E
:1055400007039B0002FA03F3BA691343BB61FB69CB
:10555000DA087B680832B96943F822107B681B6857
:10556000BB61FB695B00032202FA03F3DB43BA6908
:105570001340BB613B685B6803F00302FB695B009F
:1055800002FA03F3BA691343BB617B68BA691A6014
:105590003B685B6803F44033002B00F0B4800023C9
:1055A000FB60604B5B6C5F4A43F4804353645D4B2C
:1055B0005B6C03F48043FB60FB685B4AFB699B0800
:1055C000023352F82330BB61FB6903F003039B00F5
:1055D0000F2202FA03F3DB43BA691340BB617B6815
:1055E000524A93422BD07B68514A934225D07B6824
:1055F000504A93421FD07B684F4A934219D07B6830
:105600004E4A934213D07B684D4A93420DD07B683B
:105610004C4A934207D07B684B4A934201D10723FF
:105620000EE008230CE006230AE0052308E004232B
:1056300006E0032304E0022302E0012300E000234C
:10564000FA6902F0030292009340BA691343BB6106
:105650003549FB699B080233BA6941F823203B4B6B
:105660009B68BB613B69DB43BA691340BB613B6824
:105670005B6803F48013002B03D0BA693B691343C2
:10568000BB61324ABB699360304BDB68BB613B69ED
:10569000DB43BA691340BB613B685B6803F40013EA
:1056A000002B03D0BA693B691343BB61274ABB692E
:1056B000D360264B5B68BB613B69DB43BA6913402F
:1056C000BB613B685B6803F40033002B03D0BA690D
:1056D0003B691343BB611D4ABB6953601B4B1B688D
:1056E000BB613B69DB43BA691340BB613B685B68E4
:1056F00003F48033002B03D0BA693B691343BB61C9
:10570000124ABB691360FB690133FB61FB690F2B14
:105710007FF690AE00BF00BF2437BD465DF8047B26
:10572000704700BF003802400038014000000240CE
:105730000004024000080240000C02400010024039
:105740000014024000180240001C0240003C0140CE
:1057500080B485B000AF78600B467B807B681A69A7
:105760007B881340002B02D00123FB7301E0002350
:10577000FB73FB7B18461437BD465DF8047B70470E
:1057800080B483B000AF78600B467B8013467B709B
:105790007B78002B03D07A887B689A6103E07B8852
:1057A0001A047B689A6100BF0C37BD465DF8047B24
:1057B000704780B485B000AF78600B467B807B6813
:1057C0005B69FB607A88FB6813401A04FB68D94365
:1057D0007B880B401A437B689A6100BF1437BD4633
:1057E0005DF8047B7047000080B584B000AF78603E
:1057F0007B68002B01D101232BE17B6893F83D30BE
:10580000DBB2002B06D17B68002283F83C2078684D
:10581000FCF76CFD7B68242283F83D207B681B68C5
:105820001A687B681B6822F001021A607B681B689B
:105830001A687B681B6842F400421A607B681B6828
:105840001A687B681B6822F400421A6001F0FCFBB6
:10585000F8607B685B68814A934207D8FB68804A9E
:10586000934294BF01230023DBB206E0FB687D4A2C
:10587000934294BF01230023DBB2002B01D001230C
:10588000E7E0FB68784AA2FB03239B0CBB607B68C4
:105890001B685B6823F03F017B681B68BA680A439A
:1058A0005A607B681B681B6A23F03F017B685B685A
:1058B0006A4A934202D8BB68013309E0BB684FF4DF
:1058C000967202FB03F3694AA2FB03239B0901338F
:1058D0007A6812680B4313627B681B68DB6923F4E8
:1058E0004F4222F0FF027B685B685C498B4219D80B
:1058F000FB68591E7B685B685B00B1FBF3F3591CC6
:1059000040F6FC730B40002B0AD0FB68591E7B68E5
:105910005B685B00B1FBF3F30133C3F30B0351E0AE
:1059200004234FE07B689B68002B11D1FB68581E55
:105930007B6859680B465B000B44B0FBF3F3013303
:10594000C3F30B03002B0CBF01230023DBB212E0D7
:10595000FB68581E7B6859680B469B000B449900F6
:105960000B44B0FBF3F30133C3F30B03002B0CBF69
:1059700001230023DBB2002B01D0012322E07B684E
:105980009B68002B0ED1FB68581E7B6859680B463C
:105990005B000B44B0FBF3F30133C3F30B0343F49D
:1059A00000430FE0FB68581E7B6859680B469B005C
:1059B0000B4499000B44B0FBF3F30133C3F30B0327
:1059C00043F44043796809681343CB617B681B68E3
:1059D0001B6823F0C0017B68DA697B681B6A1A4385
:1059E0007B681B680A431A607B681B689B6823F40A
:1059F000034323F0FF037A6811697A68D268114380
:105A00007A6812680B4393607B681B68DB6823F03D
:105A1000FF017B685A697B689B691A437B681B6836
:105A20000A43DA607B681B681A687B681B6842F06F
:105A300001021A607B6800221A647B68202283F8C6
:105A40003D207B6800221A637B68002283F83E2099
:105A5000002318461037BD4680BD00BFA086010058
:105A60007F841E00FF083D0083DE1B43D34D621080
:105A700080B588B002AFF860084611461A46034662
:105A80007B810B463B811346FB80FEF737FE786136
:105A9000FB6893F83D30DBB2202B40F0D9807B6966
:105AA0000093192301226D49F86800F07FFC03463A
:105AB000002B01D00223CCE0FB6893F83C30012B93
:105AC00001D10223C5E0FB68012283F83C20FB687A
:105AD0001B681B6803F00103012B07D0FB681B68E0
