:020000040800F2
:1000000000000220BD3F0008F5360008FB3600085E
:1000100001370008073700080D370008000000000E
:10002000000000000000000000000000133700087E
:1000300021370008000000002F3700083D37000876
:100040000D4000080D4000080D4000080D4000085C
:100050000D4000080D4000080D4000080D4000084C
:100060000D4000080D4000080D4000080D4000083C
:100070000D4000080D4000080D4000080D4000082C
:100080000D4000080D4000080D4000080D4000081C
:100090000D4000080D4000080D4000080D4000080C
:1000A0000D4000080D4000080D4000080D400008FC
:1000B000493700080D4000080D4000080D400008B9
:1000C0000D4000080D4000080D4000080D400008DC
:1000D0000D4000085D3700080D4000080D40000885
:1000E0000D4000080D4000080D4000080D400008BC
:1000F0000D4000080D4000080D4000080D400008AC
:100100000D4000080D4000080D4000080D4000089B
:100110000D4000080D4000080D4000080D4000088B
:10012000713700080D4000080D4000080D40000820
:100130000D4000080D4000080D4000080D4000086B
:100140000D4000080D4000080D4000080D4000085B
:100150000D4000080D4000080D4000080D4000084B
:100160000D4000080D4000080D4000080D4000083B
:100170000D4000080D4000080D4000080000000080
:080180000D4000080D400008CD
:1001900010B5054C237833B9044B13B10448AFF3C1
:1001A00000800123237010BD8400002000000000A7
:1001B00024A3000808B5034B1BB103490348AFF360
:1001C000008008BD000000008800002024A3000873
:1001D00001F0FF01102A2BDB10F0070F08D010F8F8
:1001E000013B013A8B422DD010F0070F42B3F6D1FC
:1001F000F0B441EA012141EA014122F007047FF015
:1002000000070023F0E80256083C85EA010586EA6B
:10021000010685FA47F5A3FA87F586FA47F6A5FAA7
:1002200087F68EB9EED1F0BC01F0FF0102F00702B3
:1002300032B110F8013B013A83EA010313B1F8D15E
:100240000020704701387047002D06BF354603383F
:10025000073815F0010F07D1013015F4807F02BF78
:10026000013015F4C03F0130F0BC0138704700BFC9
:1002700081F0004102E000BF83F0004330B54FEA57
:1002800041044FEA430594EA050F08BF90EA020FC4
:100290001FBF54EA000C55EA020C7FEA645C7FEA57
:1002A000655C00F0E2804FEA5454D4EB5555B8BF7A
:1002B0006D420CDD2C4480EA020281EA030382EAEB
:1002C000000083EA010180EA020281EA0303362D7D
:1002D00088BF30BD11F0004F4FEA01314FF4801C50
:1002E0004CEA113102D0404261EB410113F0004F62
:1002F0004FEA03334CEA133302D0524263EB430319
:1003000094EA050F00F0A780A4F10104D5F1200EB6
:100310000DDB02FA0EFC22FA05F2801841F1000111
:1003200003FA0EF2801843FA05F359410EE0A5F1E5
:1003300020050EF1200E012A03FA0EFC28BF4CF016
:10034000020C43FA05F3C01851EBE37101F00045CC
:1003500007D54FF0000EDCF1000C7EEB00006EEBD9
:100360000101B1F5801F1BD3B1F5001F0CD3490863
:100370005FEA30004FEA3C0C04F101044FEA4452BA
:1003800012F5800F80F09A80BCF1004F08BF5FEA41
:10039000500C50F1000041EB045141EA050130BD21
:1003A0005FEA4C0C404141EB0101013C28BFB1F533
:1003B000801FE9D291F0000F04BF01460020B1FA7E
:1003C00081F308BF2033A3F10B03B3F120020CDA51
:1003D0000C3208DD02F1140CC2F10C0201FA0CF02F
:1003E00021FA02F10CE002F11402D8BFC2F1200C94
:1003F00001FA02F120FA0CFCDCBF41EA0C0190404A
:10040000E41AA2BF01EB0451294330BD6FEA040492
:100410001F3C1CDA0C340EDC04F11404C4F120027D
:1004200020FA04F001FA02F340EA030021FA04F38F
:1004300045EA030130BDC4F10C04C4F1200220FAE6
:1004400002F001FA04F340EA0300294630BD21FA24
:1004500004F0294630BD94F0000F83F4801306BFEA
:1004600081F480110134013D4EE77FEA645C18BFDE
:100470007FEA655C29D094EA050F08BF90EA020F75
:1004800005D054EA000C04BF1946104630BD91EA6D
:10049000030F1EBF0021002030BD5FEA545C05D170
:1004A0004000494128BF41F0004130BD14F58004AF
:1004B0003CBF01F5801130BD01F0004545F0FE4123
:1004C00041F470014FF0000030BD7FEA645C1ABF58
:1004D000194610467FEA655C1CBF0B46024650EA8F
:1004E000013406BF52EA033591EA030F41F40021BB
:1004F00030BD00BF90F0000F04BF0021704730B541
:100500004FF4806404F132044FF000054FF0000115
:1005100050E700BF90F0000F04BF0021704730B5D6
:100520004FF4806404F1320410F0004548BF4042AB
:100530004FF000013EE700BF42004FEAE2014FEA00
:1005400031014FEA02701FBF12F07F4393F07F4FDB
:1005500081F06051704732F07F4208BF704793F0DE
:100560007F4F04BF41F40021704730B54FF46074F1
:1005700001F0004521F000411CE700BF50EA0102F4
:1005800008BF704730B54FF000050AE050EA01029D
:1005900008BF704730B511F0004502D5404261EB0D
:1005A00041014FF4806404F132045FEA915C3FF44E
:1005B000D8AE4FF003025FEADC0C18BF03325FEAEB
:1005C000DC0C18BF033202EBDC02C2F1200300FA9C
:1005D00003FC20FA02F001FA03FE40EA0E0021FAC1
:1005E00002F11444BDE600BF70B54FF0FF0C4CF4AF
:1005F000E06C1CEA11541DBF1CEA135594EA0C0F61
:1006000095EA0C0F00F0DEF82C4481EA030621EA9B
:100610004C5123EA4C5350EA013518BF52EA0335D6
:1006200041F4801143F4801338D0A0FB02CE4FF088
:100630000005E1FB02E506F00042E0FB03E54FF0B8
:100640000006E1FB03569CF0000F18BF4EF0010EB0
:10065000A4F1FF04B6F5007F64F5407404D25FEAAC
:100660004E0E6D4146EB060642EAC62141EA55515F
:100670004FEAC52040EA5E504FEACE2EB4F1FD0CA1
:1006800088BFBCF5E06F1ED8BEF1004F08BF5FEA1F
:10069000500E50F1000041EB045170BD06F00046D1
:1006A00046EA010140EA020081EA0301B4EB5C047E
:1006B000C2BFD4EB0C0541EA045170BD41F4801176
:1006C0004FF0000E013C00F3AB8014F1360FDEBF9B
:1006D000002001F0004170BDC4F10004203C35DA77
:1006E0000C341BDC04F11404C4F1200500FA05F3FA
:1006F00020FA04F001FA05F240EA020001F000429B
:1007000021F0004110EBD37021FA04F642EB060110
:100710005EEA430E08BF20EAD37070BDC4F10C043A
:10072000C4F1200500FA04F320FA05F001FA04F2FE
:1007300040EA020001F0004110EBD37041F10001EA
:100740005EEA430E08BF20EAD37070BDC4F12005F5
:1007500000FA05F24EEA020E20FA04F301FA05F25D
:1007600043EA020321FA04F001F0004121FA04F205
:1007700020EA020000EBD3705EEA430E08BF20EAD5
:10078000D37070BD94F0000F0FD101F0004640000F
:1007900041EB010111F4801F08BF013CF7D041EA91
:1007A000060195F0000F18BF704703F00046520095
:1007B00043EB030313F4801F08BF013DF7D043EA66
:1007C0000603704794EA0C0F0CEA135518BF95EA1C
:1007D0000C0F0CD050EA410618BF52EA4306D1D1A3
:1007E00081EA030101F000414FF0000070BD50EAC2
:1007F000410606BF1046194652EA430619D094EA4C
:100800000C0F02D150EA013613D195EA0C0F05D135
:1008100052EA03361CBF104619460AD181EA030189
:1008200001F0004141F0FE4141F470014FF0000041
:1008300070BD41F0FE4141F4780170BD70B54FF0DC
:10084000FF0C4CF4E06C1CEA11541DBF1CEA13555C
:1008500094EA0C0F95EA0C0F00F0A7F8A4EB05043E
:1008600081EA030E52EA03354FEA013100F0888035
:100870004FEA03334FF0805545EA131343EA1263FE
:100880004FEA022245EA111545EA10654FEA0026B3
:100890000EF000419D4208BF964244F1FD0404F56C
:1008A000407402D25B084FEA3202B61A65EB0305C8
:1008B0005B084FEA32024FF480104FF4002CB6EB85
:1008C000020E75EB030E22BFB61A754640EA0C0005
:1008D0005B084FEA3202B6EB020E75EB030E22BF45
:1008E000B61A754640EA5C005B084FEA3202B6EB86
:1008F000020E75EB030E22BFB61A754640EA9C0045
:100900005B084FEA3202B6EB020E75EB030E22BF14
:10091000B61A754640EADC0055EA060E18D04FEAD2
:10092000051545EA16754FEA06164FEAC30343EA72
:1009300052734FEAC2025FEA1C1CC0D111F4801F3F
:100940000BD141EA00014FF000004FF0004CB6E738
:1009500011F4801F04BF01430020B4F1FD0C88BFD7
:10096000BCF5E06F3FF6AFAEB5EB030C04BFB6EBE2
:10097000020C5FEA500C50F1000041EB045170BDD5
:100980000EF0004E4EEA113114EB5C04C2BFD4EB02
:100990000C0541EA045170BD41F480114FF0000E86
:1009A000013C90E645EA060E8DE60CEA135594EA02
:1009B0000C0F08BF95EA0C0F3FF43BAF94EA0C0F05
:1009C0000AD150EA01347FF434AF95EA0C0F7FF47A
:1009D00025AF104619462CE795EA0C0F06D152EACE
:1009E00003353FF4FDAE1046194622E750EA4106B2
:1009F00018BF52EA43067FF4C5AE50EA41047FF4C3
:100A00000DAF52EA43057FF4EBAE12E74A0011D274
:100A100012F5001211D20DD56FF47873B3EB625258
:100A20000ED44FEAC12343F0004343EA505323FA64
:100A300002F070474FF00000704750EA013002D1D9
:100A40004FF0FF3070474FF0000070474FEA41020F
:100A5000B2F1E04324BFB3F5001CDCF1FE5C0DD91C
:100A600001F0004C4FEAC0024CEA5070B2F1004F66
:100A700040EB830008BF20F00100704711F0804F69
:100A800021D113F13872BCBF01F00040704741F42E
:100A900080114FEA5252C2F11802C2F1200C10FA32
:100AA0000CF320FA02F018BF40F001004FEAC12316
:100AB0004FEAD32303FA0CFC40EA0C0023FA02F3BA
:100AC0004FEA4303CCE77FEA625307D150EA013390
:100AD0001EBF4FF0FE4040F44000704701F0004060
:100AE00040F0FE4040F40000704700BF53B94AB9DF
:100AF000002908BF00281CBF4FF0FF314FF0FF3026
:100B000000F06EB9ADF1080C6DE904CE00F006F806
:100B1000DDF804E0DDE9022304B070472DE9F04779
:100B2000089D04468C46002B40F083808A4217467D
:100B300047D9B2FA82F242B1C2F1200024FA00F0A1
:100B40009140974040EA010C94404FEA1748230C2B
:100B5000BCFBF8F61FFA87FE08FB16C143EA014307
:100B600006FB0EF1994209D9FB1806F1FF3080F01F
:100B70001981994240F21681023E3B445B1AA4B2AD
:100B8000B3FBF8F008FB103344EA034400FB0EFE0D
:100B9000A64509D93C1900F1FF3380F00581A6452F
:100BA00040F2028102383C4440EA0640A4EB0E04C5
:100BB00000261DB1D4400023C5E900433146BDE8FD
:100BC000F08702B9FFDEB2FA82F2002A50D1CB1BC5
:100BD0004FEA174E1FFA87F80126B3FBFEFC210CE3
:100BE0000EFB1C3341EA034108FB0CF38B4207D98F
:100BF00079180CF1FF3002D28B4200F2E980844672
:100C0000C91AA3B2B1FBFEF00EFB101143EA014476
:100C100008FB00F8A04507D93C1900F1FF3302D2C8
:100C2000A04500F2D9801846A4EB080440EA0C4025
:100C3000BFE78B4209D9002D00F0B1800026C5E93D
:100C4000000130463146BDE8F087B3FA83F6002E46
:100C50004AD18B4202D3824200F2B880841A61EBFF
:100C6000030101208C46002DA8D0C5E9004CA5E762
:100C7000C2F1200320FA03F6974001FA02F04FEA8E
:100C8000174ED9403043030CB1FBFEF61FFA87F82C
:100C90000EFB161143EA014306FB08F1994204FAE0
:100CA00002F409D9FB1806F1FF3C80F08D809942CF
:100CB00040F28A80023E3B445B1A81B2B3FBFEF0F5
:100CC0000EFB103341EA034100FB08F38B4207D9C6
:100CD000791800F1FF3C73D28B4271D90238394444
:100CE000CB1A40EA064678E7C6F1200C03FA06F470
:100CF00022FA0CF31C4320FA0CF701FA06F34FEA30
:100D0000144E21FA0CF11F433B0CB1FBFEF91FFA04
:100D100084F80EFB191143EA014109FB08FA8A45E0
:100D200002FA06F200FA06F308D9611809F1FF3059
:100D300048D28A4546D9A9F102092144A1EB0A010A
:100D4000BFB2B1FBFEF00EFB101147EA014700FBFA
:100D500008F8B84507D9E71900F1FF312ED2B84598
:100D60002CD90238274440EA0940A7EB0807A0FB2A
:100D700002894F45C64649461AD317D05DB1B3EB39
:100D80000E0267EB010707FA0CFCF2404CEA020284
:100D9000F740C5E9002700263146BDE8F0872E461A
:100DA00028460BE70646E9E61846FDE64345E5D248
:100DB000B8EB020E69EB04010138DFE70846D2E721
:100DC00060468DE78146B9E7664675E730464AE7F3
:100DD000ACF1020C394413E702383C4424E700BF6D
:100DE000704700BF80B584B000AF3B4600221A6058
:100DF0005A609A60DA603D4B3D4A1A603B4B0022D4
:100E00005A603A4B00229A60384B01221A61374BE4
:100E100000221A76354B002283F82020334B002223
:100E2000DA62324B334A9A62304B0022DA602F4B3F
:100E30000522DA612D4B002283F830202B4B012252
:100E40005A612A4803F07AF90346002B01D001F0D9
:100E500005FA08233B6001237B600023BB603B460F
:100E60001946224803F0DCFA0346002B01D001F0BA
:100E7000F5F909233B6002237B603B4619461B487A
:100E800003F0CEFA0346002B01D001F0E7F90A2364
:100E90003B6003237B603B461946144803F0C0FACD
:100EA0000346002B01D001F0D9F90B233B6004234A
:100EB0007B603B4619460D4803F0B2FA0346002B0F
:100EC00001D001F0CBF90C233B6005237B603B464E
:100ED0001946064803F0A4FA0346002B01D001F09E
:100EE000BDF900BF1037BD4680BD00BFBC0000206B
:100EF000002001400100000F80B58AB000AF78608B
:100F000007F1140300221A605A609A60DA601A61CD
:100F10007B681B683C4A934271D100233B613B4B89
:100F20005B6C3A4A43F480735364384B5B6C03F454
:100F300080733B613B690023FB60344B1B6B334A7E
:100F400043F004031363314B1B6B03F00403FB609A
:100F5000FB680023BB602D4B1B6B2C4A43F0020344
:100F600013632A4B1B6B03F00203BB60BB680723B0
:100F70007B610323BB610023FB6107F11403194666
:100F8000234804F001FA03237B610323BB610023A0
:100F9000FB6107F1140319461E4804F0F5F91E4BD6
:100FA0001E4A1A601C4B00225A601B4B00229A609A
:100FB000194B0022DA60184B4FF480621A61164B0D
:100FC0004FF400625A61144B4FF400529A61124B75
:100FD0004FF48072DA61104B00221A620E4B00222D
:100FE0005A620D4803F0CEFD0346002B01D001F0FC
:100FF00035F97B68084A9A63074A7B68936300BFA8
:101000002837BD4680BD00BF0020014000380240A7
:101010000008024000040240040100201064024065
:1010200080B500AF01220821024804F049FB00BF4F
:1010300080BD00BF000C024080B584B000AF00222C
:1010400008212F4804F03CFB012208212C4804F021
:1010500037FB0A2302222B492B4806F008F800230D
:10106000FB604FF400437B8100237B603FE07B68A3
:10107000002B06DB7B68032B03DC7B680433FB60FF
:1010800018E07B68032B07DD7B68072B04DC7B689B
:10109000C3F10703FB600DE07B68072B06DD7B686F
:1010A0000B2B03DC7B680433FB6003E07B68C3F13C
:1010B0001703FB60134B1A887B8913409BB2002BEC
:1010C00005D0124AFB68002122F8131009E00F4AEC
:1010D000FB6832F81330013399B20C4AFB6822F8EE
:1010E00013107B895B087B817B6801337B607B68A5
:1010F0000F2BBCDD00BF00BF1037BD4680BD00BF59
:10110000000C0240A0000020C40200206401002066
:1011100080B483B000AF0346FB71FB79102B01D97B
:10112000002308E0FB79074A32F81330002B14BF84
:1011300001230023DBB218460C37BD465DF8047B63
:10114000704700BF6401002080B483B000AF034645
:10115000FB71FB79102B01D9002308E0FB79074ACA
:1011600032F81330C72B01D8002300E001231846C2
:101170000C37BD465DF8047B704700BF640100205A
:1011800080B500AF0021024806F0B2FC00BF80BD70
:101190001C03002080B483B000AF0346FB71074AF4
:1011A000FB791370054B1A78054B1B685A6300BF17
:1011B0000C37BD465DF8047B704700BFA2000020DD
:1011C0001C03002080B582B000AF00237B600C4B75
:1011D0001B6B0B4A43F480031363094B1B6B03F433
:1011E00080037B607B6800220021382003F093FCA1
:1011F000382003F0ACFC00BF0837BD4680BD00BFFF
:101200000038024080B588B004AF03460A46FB713F
:101210001346BB71BB79184602F0ACFE0346FB7364
:10122000FB799AB20A2302930123019307F10F037A
:1012300000930123D021034804F0A0FB00BF103726
:10124000BD4680BDE401002080B584B004AF0A2310
:10125000029307230193254B009301230022D02101
:10126000234804F085FC214B1B78184602F068FEE9
:1012700003461A461F4B1A701C4B5B78184602F047
:101280005FFE03461A461C4B1A70184B9B78184693
:1012900002F056FE03461A46184B1A70134BDB78C1
:1012A000184602F04DFE03461A46154B1A700F4BB6
:1012B0001B79184602F044FE03461A46114B1A7079
:1012C0000A4B5B79184602F03BFE03461A460E4B6A
:1012D0001A70064B9B79184602F032FE03461A46F6
:1012E0000A4B1A7000BFBD4680BD00BF8C010020B4
:1012F000E4010020840100208601002089010020F3
:1013000088010020870100208A010020850100203B
:1013100080B58EB000AF07F11C0300221A605A603E
:101320009A60DA601A615A619A613B4600221A603B
:101330005A609A60DA601A615A619A612F4B4FF0D5
:1013400020421A602D4B2E4A5A602C4B00229A6084
:101350002A4B0022DA60294B00221A61274B102207
:101360005A61264B00229A61244B0022DA61234BFA
:1013700000221A62214B00225A62204B4FF4805205
:101380009A621E4B0022DA621C4B4FF480421A63B1
:101390001A4B00225A63194B00229A63174B002202
:1013A0005A640F23FB610F233B623C237B620023C3
:1013B000BB621023FB6211233B6300237B63082382
:1013C0003B600F237B600923BB600023FB6010237D
:1013D0003B6111237B610023BB613A4607F11C038B
:1013E0001946064806F026FA0346002B01D000F005
:1013F00035FF00BF3837BD4680BD00BF94010020D7
:10140000040100A080B586B000AF3B1D00221A6029
:101410005A609A60DA601A611C4B1B68002B31D14C
:101420001A4B01221A6000233B60194B9B6B184A30
:1014300043F001039363164B9B6B03F001033B6086
:101440003B684FF688737B600223BB600023FB6020
:1014500003233B610C237B613B1D19460D4803F0C0
:1014600093FF4CF2B3737B600223BB600023FB60ED
:1014700003233B610C237B613B1D1946064803F0A7
:1014800083FF00E000BF1837BD4680BDA4000020E8
:101490000038024000100240000C024080B582B0CB
:1014A00000AF7860FFF7AEFF00BF0837BD4680BDD4
:1014B00080B58EB000AF07F1240300221A605A6095
:1014C0009A60DA601A6100233B62764B1B6B754AA7
:1014D00043F010031363734B1B6B03F010033B6269
:1014E0003B6A0023FB616F4B1B6B6E4A43F00403A6
:1014F00013636C4B1B6B03F00403FB61FB6900235C
:10150000BB61684B1B6B674A43F020031363654B59
:101510001B6B03F02003BB61BB6900237B61614B44
:101520001B6B604A43F0800313635E4B1B6B03F03D
:1015300080037B617B6900233B615A4B1B6B594ADB
:1015400043F001031363574B1B6B03F001033B6133
:101550003B690023FB60534B1B6B524A43F0020371
:101560001363504B1B6B03F00203FB60FB6800230B
:10157000BB604C4B1B6B4B4A43F008031363494B56
:101580001B6B03F00803BB60BB6800237B60454B0B
:101590001B6B444A43F040031363424B1B6B03F045
:1015A00040037B607B68002270213F4804F088F88C
:1015B00000224FF400513D4804F082F800224021FF
:1015C0003B4804F07DF800224FF48071394804F064
:1015D00077F800220821384804F072F870237B6203
:1015E0000123BB620023FB6200233B6307F124035A
:1015F00019462D4803F0C8FE4FF400537B620123C7
:10160000BB620023FB6200233B6307F124031946FE
:10161000264803F0B9FEC0237B620023BB6200238F
:10162000FB6207F124031946224803F0ADFE302384
:101630007B620023BB620023FB6207F1240319468F
:101640001A4803F0A1FE40237B620123BB62002302
:10165000FB6200233B6307F124031946144803F09F
:1016600093FE4FF480737B620123BB620023FB6215
:1016700000233B6307F1240319460E4803F084FE60
:1016800008237B620123BB620023FB6200233B63D0
:1016900007F124031946084803F076FE00BF3837E7
:1016A000BD4680BD003802400010024000080240E4
:1016B0000018024000000240000C024080B500AF5C
:1016C000124B134A1A60114B124A5A600F4B0022F8
:1016D0009A600E4B0022DA600C4B4FF480421A6184
:1016E0000A4B00225A61094B00229A61074B0022E3
:1016F000DA61064B00221A62044803F0FBFF03463E
:10170000002B01D000F0AAFD00BF80BDE401002045
:1017100000540040A086010080B58AB000AF786018
:1017200007F1140300221A605A609A60DA601A61A5
:101730007B681B68194A93422BD100233B61184BED
:101740001B6B174A43F002031363154B1B6B03F02B
:1017500002033B613B69C0237B611223BB61002311
:10176000FB6103233B6204237B6207F114031946E8
:101770000C4803F009FE0023FB60094B1B6C084A70
:1017800043F400131364064B1B6C03F40013FB605B
:10179000FB6800BF2837BD4680BD00BF0054004035
:1017A000003802400004024080B483B000AF03461A
:1017B000FB80044AFB88138000BF0C37BD465DF8F0
:1017C000047B7047FEFF0F6080B483B000AF034618
:1017D000FB80044AFB88538000BF0C37BD465DF890
:1017E000047B7047FEFF0F6080B483B000AF064BF0
:1017F0005B889BB2FB80FB889BB218460C37BD46CA
:101800005DF8047B704700BFFEFF0F6090B583B0AA
:1018100000AF0446084611461A462346FB8003469D
:10182000BB800B467B8013463B802A20FFF7BCFF22
:10183000FB881B0A9BB21846FFF7C6FFFB88DBB28A
:101840009BB21846FFF7C0FF7B881B0A9BB2184665
:10185000FFF7BAFF7B88DBB29BB21846FFF7B4FFF5
:101860002B20FFF7A1FFBB881B0A9BB21846FFF78E
:10187000ABFFBB88DBB29BB21846FFF7A5FF3B88E6
:101880001B0A9BB21846FFF79FFF3B88DBB29BB257
:101890001846FFF799FF2C20FFF786FF00BF0C3793
:1018A000BD4690BD80B584B000AF0346FB80154BAC
:1018B0001B88013B9AB2134B5B88013B9BB2002112
:1018C0000020FFF7A3FF0023FB8111E00023BB8171
:1018D00006E0FB881846FFF777FFBB890133BB8121
:1018E000084B5B88BA899A42F3D3FB890133FB81A9
:1018F000044B1B88FA899A42E8D300BF00BF103717
:10190000BD4680BD3802002080B582B000AF0346DE
:10191000FB800B46BB8013467B80BB88FA88B98866
:10192000F888FFF773FF7B881846FFF74DFF00BF6D
:101930000837BD4680BD000090B587B000AF0446B3
:10194000084611461A462346FB800346BB800B46D9
:10195000FB7013463B8000237B75FB883B8297F826
:101960002C305B08FB73FB7BDB08DBB21A46FB7B8E
:1019700003F00703DBB2002B14BF01230023DBB20B
:1019800013449AB297F82C309BB212FB03F3BB813D
:10199000FB78203BFB70FB7B9AB2FB8813449BB225
:1019A000013B9CB297F82C309AB2BB8813449BB28F
:1019B000013B9BB2B988F8882246FFF727FF002336
:1019C0007B827AE097F82C300C2B28D097F82C30BB
:1019D000102B08D1FA787B8A3C4912010A4413443F
:1019E0001B78FB751BE097F82C30182B0BD1FA787D
:1019F000798A374813465B0013441B0103440B44A8
:101A00001B78FB750BE097F82C30202B5AD1FA7815
:101A10007B8A304992010A4413441B78FB750023EA
:101A2000BB7544E097F83030002B20D1FA7DBB7DA8
:101A300042FA03F303F00103002B04D03B8818465D
:101A4000FFF7C2FE03E03B8D1846FFF7BDFE7B7D2E
:101A500001337B757B7DFA7BB3FBF2F102FB01F274
:101A60009B1ADBB2002B1FD100237B7522E0FA7D8D
:101A7000BB7D42FA03F303F00103002B05D03A8843
:101A8000B988FB881846FFF73FFFFB880133FB80CE
:101A9000FA883B8AD21AFB7B9A4205D13B8AFB80AB
:101AA000BB880133BB8005E0BB7D0133BB75BB7DCB
:101AB000072BB7D97B8A01337B827A8ABB899A420A
:101AC00080D300E000BF1C37BD4690BD30A40008A5
:101AD00020AA0008F0BB000880B485B000AF034620
:101AE0000A46FB711346BB710123FB6004E0FA79DF
:101AF000FB6802FB03F3FB60BB795A1EBA71002B33
:101B0000F5D1FB6818461437BD465DF8047B704775
:101B100090B589B004AF0446084611461A462346DC
:101B2000FB800346BB800B467B8013467B70002303
:101B3000BB7397F828305B087B730023FB7359E075
:101B40007C887A78FB7BD31ADBB2013BDBB2194687
:101B50000A20FFF7C1FF0346B4FBF3F12A4BA3FBB6
:101B60000123DA0813469B0013445B00CA1A13468C
:101B70003B73BB7B002B21D1FA7B7B78013B9A42E4
:101B80001CDA3B7B002B17D1FB7B9AB27B7B9BB291
:101B900012FB03F39AB2FB88134498B23A8CB988CB
:101BA0000023029397F828300193BB8C00931346CF
:101BB0002022FFF7C1FE1AE00123BB73FB7B9AB220
:101BC0007B7B9BB212FB03F39AB2FB88134498B25F
:101BD0003B7B3033DAB23C8CB9880023029397F810
:101BE00028300193BB8C00932346FFF7A5FEFB7BB7
:101BF0000133FB73FA7B7B789A42A1D300BF00BF0D
:101C00001437BD4690BD00BFCDCCCCCC90B58BB0C9
:101C100004AF0446084687ED020A11461A462346D9
:101C2000FB810346BB810B46FB711346BB8097F8D3
:101C30002C305B08BB75D7ED027A9FED367A67EEE4
:101C4000877AFCEEE77A17EE903ABB820023FB75A9
:101C500057E0BC8AFA79FB7DD31ADBB2013BDBB2D9
:101C600019460A20FFF738FF0346B4FBF3F12A4B6D
:101C7000A3FB0123DA0813469B0013445B00CA1A36
:101C80001346FB74FA7DFB79023B9A421DD1FB7926
:101C9000023B9AB2BB7D9BB212FB03F39AB2FB8963
:101CA000134498B2BA88B9890023029397F82C306C
:101CB00001933B8D009313462E22FFF73DFEFB7DE3
:101CC0000133FB75FB790133FB71FB7D9AB2BB7D60
:101CD0009BB212FB03F39AB2FB89134498B2FB7CCC
:101CE0003033DAB2BC88B9890023029397F82C30DC
:101CF00001933B8D00932346FFF71EFEFB7D0133CE
:101D0000FB75FA7DFB799A42A3D300BF00BF1C3755
:101D1000BD4690BD0000C842CDCCCCCC80B483B0D1
:101D200000AF0346FB71FB791B09DBB203F0030331
:101D3000DBB2002B07D00A4B4FF4A0721A80084B7D
:101D4000F0225A8006E0064BF0221A80044B4FF432
:101D5000A0725A8000BF0C37BD465DF8047B704707
:101D60003802002080B500AF00224FF40051AA488D
:101D700003F0A6FC4FF4FA7002F0BCF901224FF414
:101D80000051A54803F09CFC4FF4FA7002F0B2F940
:101D90000020FFF7C3FFD320FFF706FDFFF724FD68
:101DA00003461A469D4B9A80FFF71EFD03461A46CE
:101DB0009A4B9A80FFF718FD03461A46974B9A8074
:101DC000964B9B881B029AB2944B9A80FFF70CFDAE
:101DD00003461A46914B9B8813439AB28F4B9A80C5
:101DE000CF20FFF7E1FC0020FFF7EEFCC120FFF75A
:101DF000EBFC3020FFF7E8FCED20FFF7D5FC64207A
:101E0000FFF7E2FC0320FFF7DFFC1220FFF7DCFC0A
:101E10008120FFF7D9FCE820FFF7C6FC8520FFF7FB
:101E2000D3FC1020FFF7D0FC7A20FFF7CDFCCB20AD
:101E3000FFF7BAFC3920FFF7C7FC2C20FFF7C4FCE2
:101E40000020FFF7C1FC3420FFF7BEFC0220FFF7A3
:101E5000BBFCF720FFF7A8FC2020FFF7B5FCEA2029
:101E6000FFF7A2FC0020FFF7AFFC0020FFF7ACFC5F
:101E7000C020FFF799FC1B20FFF7A6FCC120FFF74D
:101E800093FC0120FFF7A0FCC520FFF78DFC30205C
:101E9000FFF79AFC3020FFF797FCC720FFF784FC80
:101EA000B720FFF791FC3620FFF77EFC0820FFF7F4
:101EB0008BFC3A20FFF778FC5520FFF785FCB1201A
:101EC000FFF772FC0020FFF77FFC1A20FFF77CFC75
:101ED000B620FFF769FC0A20FFF776FCA220FFF787
:101EE00073FCF220FFF760FC0020FFF76DFC26205A
:101EF000FFF75AFC0120FFF767FCE020FFF754FCD6
:101F00000F20FFF761FC2A20FFF75EFC2820FFF777
:101F10005BFC0820FFF758FC0E20FFF755FC08205B
:101F2000FFF752FC5420FFF74FFCA920FFF74CFCB1
:101F30004320FFF749FC0A20FFF746FC0F20FFF77C
:101F400043FC0020FFF740FC0020FFF73DFC002091
:101F5000FFF73AFC0020FFF737FCE120FFF724FCF5
:101F60000020FFF731FC1520FFF72EFC1720FFF7AC
:101F70002BFC0720FFF728FC1120FFF725FC06208B
:101F8000FFF722FC2B20FFF71FFC5620FFF71CFC5D
:101F90003C20FFF719FC0520FFF716FC1020FFF787
:101FA00013FC0F20FFF710FC3F20FFF70DFC3F2034
:101FB000FFF70AFC0F20FFF707FC2B20FFF7F4FBCD
:101FC0000020FFF701FC0020FFF7FEFB0120FFF7D8
:101FD000FBFB3F20FFF7F8FB2A20FFF7E5FB002083
:101FE000FFF7F2FB0020FFF7EFFB0020FFF7ECFB11
:101FF000EF20FFF7E9FB1120FFF7D6FB782002F076
:1020000079F82920FFF7D0FB01224FF480710448B2
:1020100003F056FB00BF80BD0008024038020020DC
:102020000000024090B58BB004AFBA601A46034678
:10203000FB810B46BB811346FB80FB89BB820023DF
:10204000FB7548E0FB7D002B45D1FA89264B1B88A8
:10205000194697F82C305B08DBB2CB1A9A423FDC6A
:10206000BA89214B5B88194697F82C30CB1A9A42D3
:1020700036DCBB681B78802B02D90123FB752AE074
:10208000BB681B780D2B0BD197F82C309AB2BB890B
:102090001344BB81BB8AFB81BB680133BB6017E083
:1020A000BB681A78FC88B989F88997F830300293B0
:1020B00097F82C3001933B8D00932346FFF73CFCAF
:1020C00097F82C305B08DBB29AB2FB891344FB8192
:1020D000BB680133BB60BB681B78002BB2D100E04A
:1020E00000BF1C37BD4690BD3802002080B500AF50
:1020F000FFF738FE01F0F0F8FFF742F8FEF790FF27
:1021000001F05EFE00F0E0FE0A21002001F0D8F9A7
:102110004FF47A71012001F0D3F9C821022001F0B7
:10212000CFF94FF4FA71032001F0CAF94FF47A7134
:10213000042001F0C5F900BF80BD000080B500AFEC
:1021400001F066FF00F020F8FFF7B2F9FFF73AF868
:1021500001F02AFAFFF7DCF8FFF7B0FA01F06CFDA6
:1021600001F01EFDFEF73EFE01F070FE054805F091
:10217000F5FBFFF7BBFF0020FFF794FB01F0F6FC37
:10218000FCE700BF6403002080B594B000AF07F106
:10219000200330220021184607F08EFC07F10C03C3
:1021A00000221A605A609A60DA601A610023BB60EC
:1021B000284B1B6C274A43F080531364254B1B6C40
:1021C00003F08053BB60BB6800237B60224B1B681D
:1021D000214A43F4804313601F4B1B6803F4804380
:1021E0007B607B6802233B620123FB6210233B631D
:1021F0000223BB630023FB6308233B64A8237B64A7
:102200000223BB640423FB6407F12003184604F097
:1022100031FA0346002B01D000F020F80F23FB60B9
:1022200002233B6100237B614FF4A053BB614FF459
:10223000A053FB6107F10C030521184604F092FC42
:102240000346002B01D000F009F800BF5037BD460F
:1022500080BD00BF003802400070004080B400AF75
:1022600072B600BFFEE7000080B500AF0E4B1B78D2
:10227000022B12D0022B15DC002B02D0012B07D031
:1022800010E000F0A5FD00F0E3FD00F05DFB09E0CB
:1022900000F08EF900F058FB04E000F007F800F0C1
:1022A00053FBFFE700BF80BDA800002080B500AF52
:1022B000B74B1B78062B00F2698101A252F823F07C
:1022C000DD220008ED2200085D230008CD23000870
:1022D0003D240008AD2400081D2500080021012030
:1022E00000F02CFEAA4B01221A704FE1A94B1B787B
:1022F000002B02D0012B15D02AE0A74B1B7801211F
:10230000184600F059FE012001F038F90346002B71
:102310001DD1A04B01221A704FF47A71012001F0F7
:10232000CFF814E09C4B1B780021184600F044FEC7
:10233000012001F023F90346002B09D1954B00221F
:102340001A704FF47A71012001F0BAF800E000BF72
:10235000914800F0DBFC00F04BFB17E18D4B1B7844
:10236000002B02D0012B15D02AE08C4B1B780121C9
:10237000184600F05FFE012001F000F90346002B33
:102380001DD1844B01221A704FF47A71012001F0A3
:1023900097F814E0814B1B780021184600F04AFEA4
:1023A000012001F0EBF80346002B09D1794B002204
:1023B0001A704FF47A71012001F082F800E000BF3A
:1023C000764800F0A3FC00F013FBDFE0714B1B78B4
:1023D000002B02D0012B15D02AE0714B1B78012174
:1023E000184600F065FE012001F0C8F80346002BF6
:1023F0001DD1684B01221A704FF47A71012001F04F
:102400005FF814E0664B1B780021184600F050FE80
:10241000012001F0B3F80346002B09D15D4B0022E7
:102420001A704FF47A71012001F04AF800E000BF01
:102430005B4800F06BFC00F0DBFAA7E0554B1B7823
:10244000002B02D0012B15D02AE0564B1B7801211E
:10245000184600F087FE012001F090F80346002B9B
:102460001DD14C4B01221A704FF47A71012001F0FA
:1024700027F814E04B4B1B780021184600F072FE41
:10248000012001F07BF80346002B09D1414B0022CB
:102490001A704FF47A71012001F012F800E000BFC9
:1024A000404800F033FC00F0A3FA6FE0394B1B7892
:1024B000002B02D0012B15D02AE03B4B1B780121C9
:1024C000184600F08DFE012001F058F80346002B5D
:1024D0001DD1304B01221A704FF47A71012000F0A7
:1024E000EFFF14E0304B1B780021184600F078FE17
:1024F000012001F043F80346002B09D1254B0022AF
:102500001A704FF47A71012000F0DAFF00E000BF8A
:10251000254800F0FBFB00F06BFA37E01D4B1B7801
:10252000002B02D0012B15D02AE0204B1B78012173
:10253000184600F093FE012001F020F80346002B1E
:102540001DD1144B01221A704FF47A71012000F052
:10255000B7FF14E0154B1B780021184600F07EFEF3
:10256000012001F00BF80346002B09D1094B002292
:102570001A704FF47A71012000F0A2FF00E000BF52
:102580000A4800F0C3FB00F033FAFFE700BF80BD4C
:10259000A90000207702002007000020080000208A
:1025A000090000200A0000200B0000200C00002081
:1025B00080B500AFC04B1B78062B00F2AB8101A2A7
:1025C00052F823F0E125000851260008C126000832
:1025D00031270008A12700081128000881280008D9
:1025E000B64B1B78002B02D0012B15D02AE0B44B40
:1025F0001B780121184600F0A1FC012000F0BEFF6D
:102600000346002B1DD1AD4B01221A704FF47A7195
:10261000012000F055FF14E0A94B1B78002118465B
:1026200000F08CFC012000F0A9FF0346002B09D12B
:10263000A24B00221A704FF47A71012000F040FF83
:1026400000E000BF9E4800F061FB00F0D1F961E1BD
:102650009A4B1B78002B02D0012B15D02AE0994B06
:102660001B780121184600F0A7FC012000F086FF2E
:102670000346002B1DD1914B01221A704FF47A7141
:10268000012000F01DFF14E08E4B1B78002118463E
:1026900000F092FC012000F071FF0346002B09D1ED
:1026A000864B00221A704FF47A71012000F008FF67
:1026B00000E000BF834800F029FB00F099F929E110
:1026C0007E4B1B78002B02D0012B15D02AE07E4BCD
:1026D0001B780121184600F0ADFC012000F04EFFF0
:1026E0000346002B1DD1754B01221A704FF47A71ED
:1026F000012000F0E5FE14E0734B1B780021184622
:1027000000F098FC012000F039FF0346002B09D1AE
:102710006A4B00221A704FF47A71012000F0D0FE4B
:1027200000E000BF684800F0F1FA00F061F9F1E064
:10273000624B1B78002B02D0012B15D02AE0634B93
:102740001B780121184600F0B3FC012000F016FFB1
:102750000346002B1DD1594B01221A704FF47A7198
:10276000012000F0ADFE14E0584B1B780021184604
:1027700000F09EFC012000F001FF0346002B09D170
:102780004E4B00221A704FF47A71012000F098FE2F
:1027900000E000BF4D4800F0B9FA00F029F9B9E0B7
:1027A000464B1B78002B02D0012B15D02AE0484B5A
:1027B0001B780121184600F0D5FC012000F0DEFE58
:1027C0000346002B1DD13D4B01221A704FF47A7144
:1027D000012000F075FE14E03D4B1B7800211846E7
:1027E00000F0C0FC012000F0C9FE0346002B09D117
:1027F000324B00221A704FF47A71012000F060FE13
:1028000000E000BF324800F081FA00F0F1F881E00A
:102810002A4B1B78002B02D0012B15D02AE02D4B20
:102820001B780121184600F0DBFC012000F0A6FE19
:102830000346002B1DD1214B01221A704FF47A71EF
:10284000012000F03DFE14E0224B1B7800211846C9
:1028500000F0C6FC012000F091FE0346002B09D1D8
:10286000164B00221A704FF47A71012000F028FEF6
:1028700000E000BF174800F049FA00F0B9F849E05D
:102880000E4B1B78002B02D0012B27D03CE0124BC3
:102890001B780121184600F0E1FC012000F06EFEDB
:1028A0000346002B2FD1054B01221A704FF47A7189
:1028B000012000F005FE26E0A9000020770200209C
:1028C0000000002001000020020000200300002082
:1028D0000400002005000020060000200E4B1B789D
:1028E0000021184600F0BAFC012000F047FE034624
:1028F000002B09D1094B00221A704FF47A71012084
:1029000000F0DEFD00E000BF034800F0FFF900F03A
:102910006FF8FFE700BF80BD0600002077020020AF
:1029200080B584B004AF00230293182301930023E1
:1029300000930023034A1E211420FFF773FB00BFFE
:10294000BD4680BD3CA3000880B500AF254B1B7879
:10295000002B02D0012B32D03DE00020FEF7D8FB47
:102960000346012B23D1204B1B78022B16D0022BC0
:1029700017DC002B02D0012B09D012E000F068FA1E
:10298000194B01221A70194B00221A7009E0174BDB
:1029900000221A70144B02221A7002E0124B00221D
:1029A0001A70FFF7BDFF0F4B01221A7015E00020CF
:1029B000FEF7AEFB0346012B0FD100230FE00020F2
:1029C000FEF7A6FB0346002B03D1064B00221A702C
:1029D00004E0002303E0002301E000BF01231846C8
:1029E00080BD00BF74020020A8000020A9000020C4
:1029F00080B500AF5F4B9B78002B03D0012B00F01C
:102A0000A780B1E00C20FEF783FB0346012B40F0CA
:102A10009780594B1B78012B5DD1584B1B78062BA7
:102A200056D801A252F823F0452A0008592A000876
:102A30006D2A0008812A0008BD2A0008A92A00087A
:102A4000952A00084E4B1B7819460020FEF7DAFB4A
:102A50004A4B01221A703BE04A4B1B781946012071
:102A6000FEF7D0FB454B02221A7031E0464B1B7833
:102A700019460220FEF7C6FB404B03221A7027E0DE
:102A8000424B1B7819460320FEF7BCFB3B4B06224A
:102A90001A701DE03E4B1B7819460620FEF7B2FB6C
:102AA000364B05221A7013E03A4B1B781946052065
:102AB000FEF7A8FB314B04221A7009E0364B1B7855
:102AC00019460420FEF79EFB2C4B00221A7000BF13
:102AD00000F0BEF930E0294B1B78062B2CD801A260
:102AE00052F823F0012B0008092B0008112B0008D5
:102AF000192B0008312B0008292B0008212B000876
:102B00001E4B01221A7017E01C4B02221A7013E0B0
:102B10001A4B03221A700FE0184B06221A700BE0B2
:102B2000164B05221A7007E0144B04221A7003E0BA
:102B3000124B00221A7000BF0E4B01229A7015E052
:102B40000C20FEF7E5FA0346012B0FD100230FE01E
:102B50000C20FEF7DDFA0346002B03D1054B0022C3
:102B60009A7004E0002303E0002301E000BF01238A
:102B7000184680BD74020020A8000020A900002093
:102B800000000020010000200200002003000020BF
:102B900006000020050000200400002080B485B05D
:102BA00000AF7860564B1B78062B00F2A28001A282
:102BB00052F823F0D12B0008D12B0008ED2B000890
:102BC000092C00085D2C0008412C0008252C000869
:102BD0007B681B780133DAB27B681A707B681B78DC
:102BE0003B2B7DD97B6800221A7079E07B681B78CB
:102BF0000133DAB27B681A707B681B78172B71D9A6
:102C00007B6800221A706DE07B681B780133DAB2B2
:102C10007B681A707B681B78072B65D97B6801225B
:102C20001A7061E07B681B780133DAB27B681A7036
:102C30007B681B78632B59D97B6800221A7055E09A
:102C40007B681B780133DAB27B681A707B681B786B
:102C50000C2B4DD97B6801221A7049E07B681B78E8
:102C60000133DAB27B681A701E23FB73254B1B7885
:102C7000013B0B2B2AD801A252F823F0AD2C0008FF
:102C8000B32C0008AD2C0008CD2C0008AD2C00089A
:102C9000CD2C0008AD2C0008AD2C0008CD2C000870
:102CA000AD2C0008CD2C0008AD2C00081F23FB73B1
:102CB0000DE0154B1B7803F00303DBB2002B02D0B1
:102CC0001C23FB7303E01D23FB7300E000BF7B6844
:102CD0001B78FA7B9A420CD27B6801221A7008E0BA
:102CE00000BF06E000BF04E000BF02E000BF00E05C
:102CF00000BF00BF1437BD465DF8047B704700BFBE
:102D0000A9000020050000200600002080B582B048
:102D100000AF78602C4B5B78022B31D0022B49DC62
:102D2000002B02D0012B15D044E00320FEF7F0F970
:102D30000346012B06D17868FFF730FF224B0122B2
:102D40005A7039E00320FEF7E3F90346012B33D133
:102D5000002335E00320FEF7DBF90346002B03D107
:102D6000194B00225A702AE00320FEF7EDF90346C2
:102D7000012B03D1144B02225A7020E000231FE0E4
:102D8000124B00221A70022000F0F8FB0346002BC1
:102D900006D17868FFF702FFC821022000F090FBFF
:102DA0000320FEF7B5F90346002B07D1064B00229E
:102DB0005A7003E0002303E000BF00E000BF0123DE
:102DC00018460837BD4680BD7402002077020020F7
:102DD00080B400AF104B1A78104B1A70104B1A7851
:102DE000104B1A70104B1A78104B1A70104B1A783F
:102DF000104B1A70104B1A78104B1A70104B1A782F
:102E0000104B1A70104B1A78104B1A7000BFBD4649
:102E10005DF8047B704700BF8401002000000020A3
:102E2000860100200100002089010020020000200E
:102E300088010020030000208701002004000020FA
:102E40008A010020050000208501002006000020E6
:102E500080B500AF154B1B780121184600F082F9B0
:102E6000134B1B780121184600F022F9114B1B78F7
:102E70000121184600F0DEF80F4B1B78012118469F
:102E800000F09AF80D4B1B780121184600F0A8F9C4
:102E90000B4B1B780121184600F0E0F9094B1B7819
:102EA0000121184600F04AF800BF80BD0400002050
:102EB0000300002002000020010000200500002087
:102EC000060000200000002080B400AF1A4B4FF62F
:102ED000FF721A60184B00225A60174B96221A7222
:102EE000154B06225A72144B6E229A72124B06220E
:102EF000DA72114B46221A730F4B06225A730E4B8D
:102F000014229A730C4B3C22DA730B4B46221A7430
:102F1000094B3C225A74084B6E229A74064B3C2291
:102F2000DA74054B96221A75034B3C225A7500BF82
:102F3000BD465DF8047B704778020020B0B586B0CE
:102F400004AF03460A46FB711346BB71BB79002BE5
:102F500016D0184B1B7A98B2164B5B7A99B2FB7954
:102F60009CB2144B1B689BB2124A526892B218254D
:102F700002950192009302232246FEF7C9FD15E057
:102F80000C4B1B7A98B20B4B5B7A99B2FB799CB2D3
:102F9000084B5B689BB2074A526892B218250295AB
:102FA0000192009302232246FEF7B2FD00BF0837CC
:102FB000BD46B0BD78020020B0B586B004AF034670
:102FC0000A46FB711346BB71BB79002B16D0184B18
:102FD0009B7A98B2164BDB7A99B2FB799CB2144B70
:102FE0001B689BB2124A526892B218250295019250
:102FF000009302232246FEF78BFD15E00C4B9B7AD3
:1030000098B20B4BDB7A99B2FB799CB2084B5B68A8
:103010009BB2074A526892B218250295019200931A
:1030200002232246FEF774FD00BF0837BD46B0BD3F
:1030300078020020B0B586B004AF03460A46FB71A3
:103040001346BB71BB79002B16D0184B1B7B98B273
:10305000164B5B7B99B2FB799CB2144B1B689BB2FD
:10306000124A526892B218250295019200930223E7
:103070002246FEF74DFD15E00C4B1B7B98B20B4B27
:103080005B7B99B2FB799CB2084B5B689BB2074AA9
:10309000526892B2182502950192009302232246AB
:1030A000FEF736FD00BF0837BD46B0BD78020020F0
:1030B000B0B586B004AF03460A46FB711346BB7138
:1030C000BB79002B2FD0FB79012B16D0234B9B7B98
:1030D00098B2224BDB7B99B2FB799CB21F4B1B68E9
:1030E0009BB21E4A526892B2182502950192009333
:1030F00002232246FEF70CFD2BE0184B9B7B98B277
:10310000164BDB7B99B2154B1B689AB2134B5B686D
:103110009BB2002402941824019400931346104A91
:10312000FEF780FF15E00D4B9B7B98B20B4BDB7BD2
:1031300099B2FB799CB2094B5B689BB2074A526813
:1031400092B2182502950192009302232246FEF7BF
:10315000DFFC00BF0837BD46B0BD00BF78020020CD
:1031600050A30008B0B586B004AF03460A46FB7111
:103170001346BB71BB79002B16D0184B1B7C98B241
:10318000164B5B7C99B2FB799CB2144B1B689BB2CB
:10319000124A526892B218250295019200930223B6
:1031A0002246FEF7B5FC15E00C4B1B7C98B20B4B8E
:1031B0005B7C99B2FB799CB2084B5B689BB2074A77
:1031C000526892B21825029501920093022322467A
:1031D000FEF79EFC00BF0837BD46B0BD7802002058
:1031E000B0B586B004AF03460A46FB711346BB7107
:1031F000BB79002B16D0184B9B7C98B2164BDB7C0E
:1032000099B2FB799CB2144B1B689BB2124A52686C
:1032100092B2182502950192009302232246FEF7EE
:1032200077FC15E00C4B9B7C98B20B4BDB7C99B286
:10323000FB799CB2084B5B689BB2074A526892B21A
:10324000182502950192009302232246FEF760FCA6
:1032500000BF0837BD46B0BD78020020B0B586B0CB
:1032600004AF03460A46FB711346BB71BB79002BC2
:1032700016D0184B1B7D98B2164B5B7D99B2FB792B
:103280009CB2144B1B689BB2124A526892B218252A
:1032900002950192009302232246FEF739FC15E0C5
:1032A0000C4B1B7D98B20B4B5B7D99B2FB799CB2AA
:1032B000084B5B689BB2074A526892B21825029588
:1032C0000192009302232246FEF722FC00BF08373A
:1032D000BD46B0BD7802002080B500AF052203498D
:1032E000034800F06FFF00BF80BD00BF90020020C8
:1032F000BC00002080B500AF05220349034800F060
:1033000061FF00BF80BD00BF90020020BC00002014
:1033100080B400AF034B9B881846BD465DF8047B24
:10332000704700BF9002002080B400AF034BDB88E1
:103330001846BD465DF8047B704700BF9002002030
:1033400080B500AF1A4B1B8807EE903AF8EE677A0B
:1033500017EE900AFDF7F0F811A3D3E90023FDF76B
:1033600043F902460B46104619464FF00002114B36
:10337000FDF73AF902460B46104619460AA3D3E96F
:103380000023FDF75BFA02460B4610461946FDF78F
:103390005DFB034607EE903AB0EE670A80BD00BFC2
:1033A0006666666666660A40CDCCCCCCAC08B94091
:1033B000900200200000284080B500AF284B5B88B9
:1033C00007EE903AF8EE677A17EE900AFDF7B4F838
:1033D0001FA3D3E90023FDF707F902460B46104669
:1033E00019464FF000021F4BFDF7FEF802460B4650
:1033F0001046194618A3D3E90023FDF71FFA024629
:103400000B46104619464FF00002174BFCF734FFED
:1034100002460B46104619464FF00002134BFDF7CB
:10342000E3F802460B46104619464FF000020E4BD9
:10343000FDF704FA02460B4610461946FDF706FB57
:10344000034607EE903AB0EE670A80BDAFF3008006
:103450006666666666660A4048E17A14EEB2A44083
:103460009002002000408F40000004400000144003
:1034700080B400AF0A4B1B8907EE903AF8EE677AEA
:103480009FED087A67EE877A9FED077AC7EE876A25
:10349000F0EE667AB0EE670ABD465DF8047B7047D1
:1034A000900200200000A54300F07F4580B582B067
:1034B00000AF786000F030F800BF0837BD4680BD2F
:1034C00080B582B000AF786039603B684FF47A72A3
:1034D00002FB03F31846FDF70DF84FF000020C4B0A
:1034E000FDF7ACF902460B4610461946FDF78EFA79
:1034F000024608497B68DB000B445A60054A7B683A
:10350000012102F8331000BF0837BD4680BD00BF5F
:1035100000408F409C02002080B483B000AF0023A5
:103520007B601FE0144A7B6812F83330002B16D002
:10353000114A7B68DB0013445B685A1E0E497B68A6
:10354000DB000B445A600C4A7B68DB0013445B6869
:10355000002B04D1084A7B68002102F833107B68F5
:1035600001337B607B68042BDCD900BF00BF0C37C4
:10357000BD465DF8047B70479C02002080B483B098
:1035800000AF7860074A7B6812F83330012B0CBF1C
:1035900001230023DBB218460C37BD465DF8047BDF
:1035A000704700BF9C02002080B500AF174B184A3F
:1035B0001A60164B4FF482725A60144B00229A60C4
:1035C000124B0022DA60114B00221A610F4B0022CD
:1035D0005A610E4B4FF400729A610C4B0022DA6173
:1035E0000A4B00221A62094B00225A62074B002242
:1035F0009A62064B0A22DA62044803F0AFFC0346E3
:10360000002B01D0FEF72AFE00BF80BDC4020020BF
:103610000030014080B58AB000AF786007F1140334
:1036200000221A605A609A60DA601A617B681B682F
:10363000194A93422BD100233B61184B5B6C174A0C
:1036400043F480535364154B5B6C03F480533B612C
:103650003B690023FB60114B1B6B104A43F00203D4
:1036600013630E4B1B6B03F00203FB60FB683823F4
:103670007B610223BB610023FB6103233B620523C3
:103680007B6207F114031946054801F07DFE00BF77
:103690002837BD4680BD00BF0030014000380240E1
:1036A0000004024080B483B000AF00237B60104B65
:1036B0005B6C0F4A43F4804353640D4B5B6C03F423
:1036C00080437B607B6800233B60094B1B6C084A8E
:1036D00043F080531364064B1B6C03F080533B6034
:1036E0003B6800BF0C37BD465DF8047B704700BFE8
:1036F0000038024080B400AFFEE780B400AFFEE7C0
:1037000080B400AFFEE780B400AFFEE780B400AF46
:10371000FEE780B400AF00BFBD465DF8047B704794
:1037200080B400AF00BFBD465DF8047B704780B435
:1037300000AF00BFBD465DF8047B704780B500AFA9
:1037400000F0B8FC00BF80BD80B500AF024804F0B7
:1037500097FA00BF80BD00BF6403002080B500AFB2
:10376000024805F0F7F900BF80BD00BF100400203B
:1037700080B500AF024801F09DFB00BF80BD00BFD7
:103780000401002080B586B000AF7860144A154B64
:10379000D31A7B617B693B61134B1B68002B02D101
:1037A000114B124A1A60104B1A687B6813443A692D
:1037B0009A4207D206F056F903460C221A604FF0DF
:1037C000FF3309E0084B1B68FB60074B1A687B68F6
:1037D0001344054A1360FB6818461837BD4680BD80
:1037E0000000022000040000AC000020680400205B
:1037F00080B584B004AF0020FFF7C0FE0346002B65
:1038000040F08A800A210020FFF75AFEFDF71CFDD8
:10381000FDF712FCFFF76EFDFFF786FD03461A4623
:1038200040F632339A4234D9434B1B78012B1AD1DC
:10383000424B1B68DBB21846FDF7ACFC0420FFF7D7
:103840009DFE0346002B27D14FF47A710420FFF729
:1038500037FE394B00221A70394800F0BFFA394858
:1038600000F0BCFA18E0344B1B78002B14D1002078
:10387000FDF790FC0420FFF781FE0346002B0BD1DF
:103880004FF47A710420FFF71BFE2B4B01221A70B4
:1038900002E00020FDF77EFC2B4BDB8A012B1BD1C5
:1038A000264B1B680A33254A1360244B1B68632B85
:1038B00002DD224B00221A60204B1B689AB21023B3
:1038C0000293002301934FF6FF73009302234FF4FA
:1038D00096710A20FEF71CF91B4BDB8B012B1BD1C9
:1038E000164B1B680A3B154A1360144B1B68002BD0
:1038F00002DA124B63221A60104B1B689AB2102333
:103900000293002301934FF6FF73009302234FF4B9
:1039100096710A20FEF7FCF80320FFF72FFE0346FE
:10392000002B06D14FF4FA710320FFF7C9FD00F018
:103930000DF800BFBD4680BDB00000201000002083
:1039400074A300088CA300086401002080B52DED4D
:10395000028B84B004AF0023029310230193002351
:1039600000934FF6FF73774A64210A20FEF75AFB53
:10397000FFF7E6FCF0EE407A10230193002300935A
:103980004FF6FF730422B0EE670A64218220FEF72F
:103990003DF90023029310230193002300934FF677
:1039A000FF73694A78210A20FEF73CFBFFF704FD0C
:1039B000F0EE407A10230193002300934FF6FF733B
:1039C0000422B0EE670A78218220FEF71FF9002357
:1039D000029310230193002300934FF6FF735B4A79
:1039E0008C210A20FEF71EFBFFF7E6FCB0EE408AB2
:1039F000FFF7A6FCF0EE407A68EE277A10230193D9
:103A0000002300934FF6FF730422B0EE670A8C2167
:103A10008220FEF7FBF8002302931023019300237A
:103A200000934FF6FF734A4AA0210A20FEF7FAFAE4
:103A3000FFF76EFC0346B3F5406F0DD200230293EF
:103A400010230193002300934FF6FF73414AA021F6
:103A50003C20FEF7E7FA0CE00023029310230193C9
:103A6000002300934FF6FF733B4AA0213C20FEF752
:103A7000D9FAFFF74DFC03461A46102302930023A0
:103A800001934FF6FF7300930423A0218220FEF7D9
:103A90003FF80023029310230193002300934FF675
:103AA000FF732E4AB4210A20FEF7BCFAFFF73CFC54
:103AB00003461A46642303FB02F3294A82FB0312DE
:103AC0001A44D212DB17D31A9AB21023029300239E
:103AD00001934FF6FF7300930223B4218220FEF777
:103AE00017F80023029310230193002300934FF64D
:103AF000FF731C4AB421B420FEF794FA002302930A
:103B000010230193002300934FF6FF73164AC82138
:103B10000A20FEF787FAFFF7ABFCF0EE407A10239D
:103B20000193002300934FF6FF730422B0EE670A5F
:103B3000C8218220FEF76AF800BFBD46BDEC028BAB
:103B400080BD00BFB8A30008C4A30008D4A3000828
:103B5000E0A30008E8A30008F4A3000800A40008FC
:103B6000810008800CA4000810A4000880B500AFF4
:103B7000FFF73EFEFEF778FB00BF80BD80B400AFCC
:103B8000064BD3F88830054A43F47003C2F88830F6
:103B900000BFBD465DF8047B704700BF00ED00E04C
:103BA00080B586B000AF07F1080300221A605A60A2
:103BB0009A60DA603B4600221A605A601D4B4FF053
:103BC00080421A601B4B40F247325A60194B002268
:103BD0009A60184B6322DA60164B00221A61154B6B
:103BE00000229A61134803F069FE0346002B01D0BE
:103BF000FEF734FB4FF48053BB6007F1080319460E
:103C00000C4804F007FA0346002B01D0FEF726FB10
:103C100000233B6000237B603B461946054804F0C7
:103C2000F9FD0346002B01D0FEF718FB00BF183743
:103C3000BD4680BD6403002080B588B000AF3B1D49
:103C400000221A605A609A60DA601A615A619A61B9
:103C50001E4B1F4A1A601D4B40F247325A601B4BE5
:103C600000229A60194B6322DA60184B00221A6115
:103C7000164B00229A61154803F020FE0346002BE4
:103C800001D0FEF7EBFA114803F0D8FE0346002BF3
:103C900001D0FEF7E3FA60237B600023BB600023C2
:103CA000FB6000237B613B1D00221946074804F09E
:103CB000EFF80346002B01D0FEF7D0FA034800F0DE
:103CC00045F800BF2037BD4680BD00BF1C03002063
:103CD000001C004080B584B000AF78607B681B6832
:103CE000B3F1804F16D10023FB60164B1B6C154AB5
:103CF00043F001031364134B1B6C03F00103FB60DF
:103D0000FB68002200211C2000F005FF1C2000F0B1
:103D10001EFF12E07B681B680B4A93420DD1002303
:103D2000BB60084B1B6C074A43F080031364054BD0
:103D30001B6C03F08003BB60BB6800BF1037BD463F
:103D400080BD00BF00380240001C004080B588B034
:103D500000AF786007F10C0300221A605A609A6085
:103D6000DA601A617B681B68124A93421ED10023F5
:103D7000BB60114B1B6B104A43F0200313630E4BC7
:103D80001B6B03F02003BB60BB684FF48073FB60C8
:103D900002233B6100237B610023BB610923FB619C
:103DA00007F10C031946054801F0EEFA00BF203771
:103DB000BD4680BD001C0040003802400014024097
:103DC00080B500AF01220349034804F092FE00BF12
:103DD00080BD00BFB10000201004002080B582B07B
:103DE00000AF78607A680749074805F06DFE034622
:103DF0009AB20A230449054804F0E9FD00BF0837D8
:103E0000BD4680BD1CA40008AC03002010040020A7
:103E100080B582B000AF78607B681B68084A934227
:103E20000AD10A2301220749074804F0D0FD0122E4
:103E30000449054804F05DFE00BF0837BD4680BD5B
:103E400000100140B10000201004002080B500AF38
:103E5000114B124A1A60104B4FF4E1325A600E4B6C
:103E600000229A600C4B0022DA600B4B00221A6190
:103E7000094B0C225A61084B00229A61064B002222
:103E8000DA61054804F056FD0346002B01D0FEF729
:103E9000E5F900BF80BD00BF100400200010014004
:103EA00080B58AB000AF786007F1140300221A6071
:103EB0005A609A60DA601A617B681B681D4A9342F7
:103EC00034D100233B611C4B5B6C1B4A43F0100355
:103ED0005364194B5B6C03F010033B613B69002397
:103EE000FB60154B1B6B144A43F001031363124B29
:103EF0001B6B03F00103FB60FB684FF4C0637B6145
:103F00000223BB610023FB6103233B6207237B6227
:103F100007F114031946094801F036FA002200217E
:103F2000252000F0F8FD252000F011FE00BF283705
:103F3000BD4680BD00100140003802400000024034
:103F400080B483B000AF0346FB71FB791B09DBB281
:103F50001A46920013445B00DAB2FB7903F00F03B8
:103F6000DBB21344DBB218460C37BD465DF8047B68
:103F70007047000080B483B000AF0346FB71FB794B
:103F80000D4AA2FB0323DB08DBB21B0158B2FA790E
:103F9000094BA3FB0213D9080B469B000B445B00A3
:103FA000D31ADBB25BB203435BB2DBB218460C3709
:103FB000BD465DF8047B7047CDCCCCCCDFF834D067
:103FC0000D480E490E4A002302E0D458C450043371
:103FD000C4188C42F9D30B4A0B4C002301E0136048
:103FE0000432A242FBD3FFF7C9FD05F041FDFEF705
:103FF000A5F8704700000220000000208400002087
:1040000014D400088400002068040020FEE70000AB
:1040100080B500AF0E4B1B680D4A43F4007313606C
:104020000B4B1B680A4A43F480631360084B1B6800
:10403000074A43F480731360032000F061FD0F20F2
:1040400000F008F8FFF72EFB0023184680BD00BFE4
:10405000003C024080B582B000AF7860124B1A6815
:10406000124B1B7819464FF47A73B3FBF1F3B2FB92
:10407000F3F3184600F079FD0346002B01D001232D
:104080000EE07B680F2B0AD8002279684FF0FF30D2
:1040900000F041FD064A7B681360002300E0012325
:1040A00018460837BD4680BD140000201C000020C3
:1040B0001800002080B400AF064B1B781A46064B50
:1040C0001B681344044A136000BFBD465DF8047BBF
:1040D000704700BF1C0000205404002080B400AFD3
:1040E000034B1B681846BD465DF8047B704700BF54
:1040F0005404002080B584B000AF7860FFF7EEFF75
:10410000B8607B68FB60FB68B3F1FF3F05D00A4BEA
:104110001B781A46FB681344FB6000BFFFF7DEFF05
:104120000246BB68D31AFA689A42F7D800BF00BFAC
:104130001037BD4680BD00BF1C00002080B584B094
:1041400000AF78600023FB737B68002B01D1012353
:1041500033E07B681B6C002B09D17868FCF7CCFE40
:104160007B6800225A647B68002283F83C207B68CD
:104170001B6C03F01003002B18D17B681B6C23F41D
:10418000885323F0020343F002027B681A647868C4
:1041900000F068FA7B6800225A647B681B6C23F08D
:1041A000030343F001027B681A6401E00123FB73FF
:1041B0007B68002283F83C20FB7B18461037BD4605
:1041C00080BD000080B586B000AFF860B9607A604D
:1041D00000233B61FB6893F83C30012B01D10223A3
:1041E000E9E0FB68012283F83C20FB681B689B68C0
:1041F00003F00103012B18D0FB681B689A68FB6869
:104200001B6842F001029A606D4B1B686D4AA2FB6D
:1042100003239A0C13465B0013443B6102E03B69A5
:10422000013B3B613B69002BF9D1FB681B689B6834
:1042300003F48073B3F5807F07D1FB681B689A682D
:10424000FB681B6822F480729A60FB681B689B689D
:1042500003F00103012B40F0A180FB681B6C23F4E9
:10426000E06323F0010343F48072FB681A64FB6887
:104270001B685B6803F48063002B07D0FB681B6C32
:1042800023F4405343F48052FB681A64FB681B6CB0
:1042900003F48053B3F5805F06D1FB685B6C23F0B9
:1042A0000602FB685A6402E0FB6800225A64FB685D
:1042B000002283F83C20444B7B61FB689B6B434AA4
:1042C000DA63FB689B6B424A1A64FB689B6B414A4A
:1042D000DA64FB681B686FF022021A60FB681B68D7
:1042E0005A68FB681B6842F080625A60FB681B6872
:1042F0009A68FB681B6842F480729A60FB68986B4E
:10430000FB681B684C331946BA687B6800F0E8FC10
:104310007B695B6803F01F03002B2AD1FB681B68D5
:104320002D4A934215D0FB681B682C4A934205D155
:10433000254B5B6803F01F03002B0AD0FB681B684A
:10434000274A934236D1204B5B6803F01003002BC1
:1043500030D1FB681B689B6803F04053002B29D1C8
:10436000FB681B689A68FB681B6842F080429A6091
:1043700020E0FB681B68184A93421BD1FB681B684E
:104380009B6803F04053002B14D1FB681B689A68AC
:10439000FB681B6842F080429A600BE0FB681B6C74
:1043A00043F01002FB681A64FB685B6C43F0010287
:1043B000FB685A64002318461837BD4680BD00BF0D
:1043C0001400002083DE1B43002301405D480008E9
:1043D000174900083349000800200140002101402E
:1043E0000022014080B483B000AF786000BF0C377A
:1043F000BD465DF8047B704780B483B000AF786041
:1044000000BF0C37BD465DF8047B704780B483B0B5
:1044100000AF786000BF0C37BD465DF8047B704785
:1044200080B485B000AF786039600023BB607B68E2
:1044300093F83C30012B01D1022305E17B68012276
:1044400083F83C203B681B68092B25D97B681B68D7
:10445000D9683B681B689BB21A4613465B0013443D
:104460001E3B072202FA03F3DA437B681B680A400B
:10447000DA607B681B68D9683B689A683B681B6890
:104480009BB2184603465B0003441E3B9A407B6880
:104490001B680A43DA6022E07B681B6819693B6885
:1044A0001B689BB21A4613465B001344072202FAAC
:1044B00003F3DA437B681B680A401A617B681B6858
:1044C00019693B689A683B681B689BB218460346AB
:1044D0005B0003449A407B681B680A431A613B688F
:1044E0005B68062B24D87B681B68596B3B685A684D
:1044F00013469B001344053B1F2202FA03F3DA43E1
:104500007B681B680A405A637B681B68596B3B6871
:104510001B689BB218463B685A6813469B001344BD
:10452000053B00FA03F27B681B680A435A634CE0C0
:104530003B685B680C2B24D87B681B68196B3B6855
:104540005A6813469B001344233B1F2202FA03F3CD
:10455000DA437B681B680A401A637B681B68196B27
:104560003B681B689BB218463B685A6813469B0021
:104570001344233B00FA03F27B681B680A431A6367
:1045800023E07B681B68D96A3B685A6813469B0026
:104590001344413B1F2202FA03F3DA437B681B6892
:1045A0000A40DA627B681B68D96A3B681B689BB269
:1045B00018463B685A6813469B001344413B00FA77
:1045C00003F27B681B680A43DA62224BFB607B685C
:1045D0001B68214A934209D13B681B68122B05D105
:1045E000FB685B6843F48002FB685A607B681B6869
:1045F000194A934223D13B681B68102B03D03B68B8
:104600001B68112B1BD1FB685B6843F40002FB683D
:104610005A603B681B68102B11D1104B1B68104A65
:10462000A2FB03239A0C13469B0013445B00BB6060
:1046300002E0BB68013BBB60BB68002BF9D17B6823
:10464000002283F83C20002318461437BD465DF84D
:10465000047B70470023014000200140140000202B
:1046600083DE1B4380B485B000AF7860794BFB607C
:10467000FB685B6823F44032FB685A60FB685A6849
:104680007B685B681A43FB685A607B681B685A68E2
:104690007B681B6822F480725A607B681B685968CB
:1046A0007B681B691A027B681B680A435A607B6837
:1046B0001B685A687B681B6822F040725A607B68EE
:1046C0001B6859687B689A687B681B680A435A6054
:1046D0007B681B689A687B681B6822F400629A609A
:1046E0007B681B6899687B68DA687B681B680A438B
:1046F0009A607B689B6A584A934222D07B681B6809
:104700009A687B681B6822F070629A607B681B68FD
:1047100099687B689A6A7B681B680A439A607B6821
:104720001B689A687B681B6822F040529A607B681D
:104730001B6899687B68DA6A7B681B680A439A6021
:104740000FE07B681B689A687B681B6822F07062C8
:104750009A607B681B689A687B681B6822F04052ED
:104760009A607B681B689A687B681B6822F002026B
:104770009A607B681B6899687B681B7E5A007B681F
:104780001B680A439A607B6893F82030002B1BD08B
:104790007B681B685A687B681B6842F400625A6039
:1047A0007B681B685A687B681B6822F460425A6009
:1047B0007B681B6859687B685B6A013B5A037B68AE
:1047C0001B680A435A6007E07B681B685A687B686D
:1047D0001B6822F400625A607B681B68DA6A7B6897
:1047E0001B6822F47002DA627B681B68D96A7B68F6
:1047F000DB69013B1A057B681B680A43DA627B6848
:104800001B689A687B681B6822F400729A607B6858
:104810001B6899687B6893F830305A027B681B6884
:104820000A439A607B681B689A687B681B6822F45D
:1048300080629A607B681B6899687B685B699A02F2
:104840007B681B680A439A6000BF1437BD465DF859
:10485000047B7047002301400100000F80B584B045
:1048600000AF78607B689B6BFB60FB681B6C03F0A0
:104870005003002B3CD1FB681B6C43F40072FB68B7
:104880001A64FB681B689B6803F04053002B2BD114
:10489000FB681B7E002B27D1FB681B68DB6A03F4D7
:1048A0007003002B06D0FB681B689B6803F48063D1
:1048B000002B19D1FB681B685A68FB681B6822F043
:1048C00020025A60FB681B6C23F48072FB681A6438
:1048D000FB681B6C03F48053002B05D1FB681B6C39
:1048E00043F00102FB681A64F868FFF77BFD0EE0F5
:1048F000FB681B6C03F01003002B03D0F868FFF774
:1049000085FD04E0FB689B6BDB6C7868984700BF13
:104910001037BD4680BD80B584B000AF78607B683D
:104920009B6BFB60F868FFF767FD00BF1037BD4663
:1049300080BD80B584B000AF78607B689B6BFB6006
:10494000FB6840221A64FB685B6C43F00402FB685E
:104950005A64F868FFF75AFD00BF1037BD4680BDA6
:1049600080B485B000AF78607B6803F00703FB601C
:104970000C4BDB68BB60BA684FF6FF031340BB60AB
:10498000FB681A02BB68134343F0BF6343F4003370
:10499000BB60044ABB68D36000BF1437BD465DF8F6
:1049A000047B704700ED00E080B400AF044BDB688F
:1049B0001B0A03F007031846BD465DF8047B7047E9
:1049C00000ED00E080B483B000AF0346FB7197F9BF
:1049D0000730002B0BDBFB7903F01F02074997F927
:1049E00007305B09012000FA02F241F8232000BFE2
:1049F0000C37BD465DF8047B704700BF00E100E066
:104A000080B483B000AF03463960FB7197F907307B
:104A1000002B0ADB3B68DAB20C4997F90730120128
:104A2000D2B20B4483F800230AE03B68DAB20849AB
:104A3000FB7903F00F03043B1201D2B20B441A7648
:104A400000BF0C37BD465DF8047B704700E100E015
:104A500000ED00E080B489B000AFF860B9607A6022
:104A6000FB6803F00703FB61FB69C3F10703042B39
:104A700028BF0423BB61FB690433062B02D9FB6901
:104A8000033B00E000237B614FF0FF32BB6902FA79
:104A900003F3DA43BB681A407B699A404FF0FF3159
:104AA0007B6901FA03F3D9437B680B401343184633
:104AB0002437BD465DF8047B7047000080B582B0A6
:104AC00000AF78607B68013BB3F1807F01D30123A5
:104AD0000FE00A4A7B68013B53600F214FF0FF3023
:104AE000FFF78EFF054B00229A60044B07221A60E5
:104AF000002318460837BD4680BD00BF10E000E027
:104B000080B582B000AF78607868FFF729FF00BFFA
:104B10000837BD4680BD80B586B000AF0346B9609A
:104B20007A60FB7300237B61FFF73EFF78617A6850
:104B3000B9687869FFF78EFF024697F90F30114682
:104B40001846FFF75DFF00BF1837BD4680BD80B532
:104B500082B000AF0346FB7197F907301846FFF7A4
:104B600031FF00BF0837BD4680BD80B582B000AFC1
:104B700078607868FFF7A2FF034618460837BD46FD
:104B800080BD000080B586B000AF786000237B61F7
:104B9000FFF7A4FA38617B68002B01D1012399E06B
:104BA0007B68022283F835207B68002283F834205A
:104BB0007B681B681A687B681B6822F001021A6018
:104BC0000FE0FFF78BFA02463B69D31A052B08D991
:104BD0007B6820225A657B68032283F835200323F3
:104BE00078E07B681B681B6803F00103002BE8D1A9
:104BF0007B681B681B687B617A69384B13407B615B
:104C00007B685A687B689B681A437B68DB681A4339
:104C10007B681B691A437B685B691A437B689B69E5
:104C20001A437B68DB691A437B681B6A13437A6902
:104C300013437B617B685B6A042B07D17B68DA6A6C
:104C40007B681B6B13437A6913437B617B681B682A
:104C50007A691A607B681B685B697B617B6923F0FA
:104C600007037B617B685B6A7A6913437B617B68BE
:104C70005B6A042B17D17B689B6A7A6913437B615B
:104C80007B68DB6A002B0ED0786800F001FB0346DE
:104C9000002B08D07B6840225A657B68012283F88C
:104CA0003520012316E07B681B687A695A617868B1
:104CB00000F0B8FA0346FB607B68DB6D3F229A4048
:104CC000FB689A607B6800225A657B68012283F842
:104CD0003520002318461837BD4680BD3F8010F0B0
:104CE00080B586B000AFF860B9607A603B600023A1
:104CF000FB75FB689B6D3B61FB6893F83430012BBF
:104D000001D1022340E0FB68012283F83420FB68D4
:104D100093F83530DBB2012B2FD1FB68022283F8E8
:104D20003520FB6800225A653B687A68B968F868E4
:104D300000F04AFAFB68DB6D3F229A403B699A60BB
:104D4000FB681B681A68FB681B6842F016021A6051
:104D5000FB681B6C002B07D0FB681B681A68FB689C
:104D60001B6842F008021A60FB681B681A68FB683F
:104D70001B6842F001021A6005E0FB68002283F81C
:104D800034200223FB75FB7D18461837BD4680BDD5
:104D900080B584B000AF78607B689B6DFB60FFF7E7
:104DA0009DF9B8607B6893F83530DBB2022B08D0F0
:104DB0007B6880225A657B68002283F834200123B7
:104DC00052E07B681B681A687B681B6822F0160239
:104DD0001A607B681B685A697B681B6822F0800236
:104DE0005A617B681B6C002B03D17B689B6C002B8A
:104DF00007D07B681B681A687B681B6822F0080272
:104E00001A607B681B681A687B681B6822F00102C5
:104E10001A6013E0FFF762F90246BB68D31A052B4C
:104E20000CD97B6820225A657B68032283F83520E1
:104E30007B68002283F83420032315E07B681B681D
:104E40001B6803F00103002BE4D17B68DB6D3F227C
:104E50009A40FB689A607B68012283F835207B6862
:104E6000002283F83420002318461037BD4680BD49
:104E700080B483B000AF78607B6893F83530DBB2E4
:104E8000022B04D07B6880225A6501230CE07B68EA
:104E9000052283F835207B681B681A687B681B68CD
:104EA00022F001021A60002318460C37BD465DF857
:104EB000047B704780B586B000AF78600023BB608C
:104EC000924B1B68924AA2FB03239B0A7B617B687F
:104ED0009B6D3B613B691B68FB607B68DB6D082257
:104EE0009A40FB681340002B1AD07B681B681B6834
:104EF00003F00403002B13D07B681B681A687B68DF
:104F00001B6822F004021A607B68DB6D08229A405D
:104F10003B699A607B685B6D43F001027B685A6570
:104F20007B68DB6D01229A40FB681340002B12D096
:104F30007B681B685B6903F08003002B0BD07B68E8
:104F4000DB6D01229A403B699A607B685B6D43F0A0
:104F500002027B685A657B68DB6D04229A40FB681D
:104F60001340002B12D07B681B681B6803F0020300
:104F7000002B0BD07B68DB6D04229A403B699A6062
:104F80007B685B6D43F004027B685A657B68DB6D70
:104F900010229A40FB681340002B43D07B681B68AB
:104FA0001B6803F00803002B3CD07B68DB6D1022EC
:104FB0009A403B699A607B681B681B6803F48023F6
:104FC000002B18D07B681B681B6803F40023002BA0
:104FD00008D17B681B6C002B24D07B681B6C786825
:104FE00098471FE07B689B6C002B1BD07B689B6CF9
:104FF0007868984716E07B681B681B6803F4807329
:10500000002B07D17B681B681A687B681B6822F03D
:1050100008021A607B681B6C002B03D07B681B6C3A
:10502000786898477B68DB6D20229A40FB681340C4
:10503000002B00F08E807B681B681B6803F0100358
:10504000002B00F086807B68DB6D20229A403B6954
:105050009A607B6893F83530DBB2052B36D17B68DC
:105060001B681A687B681B6822F016021A607B684E
:105070001B685A697B681B6822F080025A617B6852
:105080001B6C002B03D17B689B6C002B07D07B68CB
:105090001B681A687B681B6822F008021A607B682C
:1050A000DB6D3F229A403B699A607B68012283F85E
:1050B00035207B68002283F834207B681B6D002B31
:1050C0007DD07B681B6D7868984778E07B681B68AB
:1050D0001B6803F48023002B1CD07B681B681B68B3
:1050E00003F40023002B08D17B685B6C002B30D0CD
:1050F0007B685B6C786898472BE07B68DB6B002BE8
:1051000027D07B68DB6B7868984722E0140000208A
:10511000B5814E1B7B681B681B6803F48073002BF2
:105120000FD17B681B681A687B681B6822F010022D
:105130001A607B68012283F835207B68002283F89F
:1051400034207B68DB6B002B03D07B68DB6B7868DB
:1051500098477B685B6D002B32D07B685B6D03F0FA
:105160000103002B22D07B68052283F835207B6861
:105170001B681A687B681B6822F001021A60BB6812
:105180000133BB607A699A4207D37B681B681B684E
:1051900003F00103002BF2D100E000BF7B68012285
:1051A00083F835207B68002283F834207B68DB6C31
:1051B000002B05D07B68DB6C7868984700E000BF67
:1051C0001837BD4680BD00BF80B485B000AFF86021
:1051D000B9607A603B60FB681B681A68FB681B68F3
:1051E00022F480221A60FB681B683A685A60FB68E8
:1051F0009B68402B08D1FB681B687A689A60FB6843
:105200001B68BA68DA6007E0FB681B68BA689A60D6
:10521000FB681B687A68DA6000BF1437BD465DF82A
:10522000047B704780B485B000AF78607B681B68F2
:10523000DBB2103B144AA2FB03231B09FB60134A99
:10524000FB6813441B781A467B68DA65FB68032BFE
:1052500009D97B681B6823F47F7323F003031A1DAD
:105260007B689A6507E07B681B6823F47F7323F0F3
:1052700003037A6893657B689B6D18461437BD46B7
:105280005DF8047B704700BFABAAAAAAC8D3000888
:1052900080B485B000AF78600023FB737B689B6AA5
:1052A000BB607B689B69002B1FD1BB68032B56D862
:1052B00001A252F823F000BFC9520008DB520008D7
:1052C000C95200085F5300087B68DB6A03F08073F3
:1052D000002B46D00123FB7343E07B68DB6AB3F10C
:1052E000C07F40D10123FB733DE07B689B69B3F530
:1052F000005F21D1BB68032B37D801A252F823F0FD
:1053000011530008175300081153000829530008CF
:105310000123FB7330E07B68DB6A03F08073002BB2
:1053200025D00123FB7322E07B68DB6AB3F1C07FE9
:105330001FD10123FB731CE0BB68022B03D9BB68A0
:10534000032B03D018E00123FB7315E07B68DB6AB5
:1053500003F08073002B0ED00123FB730BE000BF22
:105360000AE000BF08E000BF06E000BF04E000BFA5
:1053700002E000BF00E000BFFB7B18461437BD46CB
:105380005DF8047B704700BF80B489B000AF7860DF
:10539000396000237B6100233B610023BB61002354
:1053A000FB616BE10122FB6902FA03F37B613B685D
:1053B0001B687A6913403B613A697B699A4240F005
:1053C0005A813B685B6803F00303012B05D03B68FF
:1053D0005B6803F00303022B30D17B689B68BB61E1
:1053E000FB695B00032202FA03F3DB43BA69134053
:1053F000BB613B68DA68FB695B0002FA03F3BA69D8
:105400001343BB617B68BA699A607B685B68BB6168
:105410000122FB6902FA03F3DB43BA691340BB6163
:105420003B685B681B0903F00102FB6902FA03F3A6
:10543000BA691343BB617B68BA695A603B685B68B1
:1054400003F00303032B17D07B68DB68BB61FB69A8
:105450005B00032202FA03F3DB43BA691340BB612A
:105460003B689A68FB695B0002FA03F3BA6913436D
:10547000BB617B68BA69DA603B685B6803F0030371
:10548000022B23D1FB69DA087B68083253F82230FB
:10549000BB61FB6903F007039B000F2202FA03F3D1
:1054A000DB43BA691340BB613B681A69FB6903F0CF
:1054B00007039B0002FA03F3BA691343BB61FB695C
:1054C000DA087B680832B96943F822107B681B68E8
:1054D000BB61FB695B00032202FA03F3DB43BA6999
:1054E0001340BB613B685B6803F00302FB695B0030
:1054F00002FA03F3BA691343BB617B68BA691A60A5
:105500003B685B6803F44033002B00F0B480002359
:10551000FB60604B5B6C5F4A43F4804353645D4BBC
:105520005B6C03F48043FB60FB685B4AFB699B0890
:10553000023352F82330BB61FB6903F003039B0085
:105540000F2202FA03F3DB43BA691340BB617B68A5
:10555000524A93422BD07B68514A934225D07B68B4
:10556000504A93421FD07B684F4A934219D07B68C0
:105570004E4A934213D07B684D4A93420DD07B68CC
:105580004C4A934207D07B684B4A934201D1072390
:105590000EE008230CE006230AE0052308E00423BC
:1055A00006E0032304E0022302E0012300E00023DD
:1055B000FA6902F0030292009340BA691343BB6197
:1055C0003549FB699B080233BA6941F823203B4BFC
:1055D0001B68BB613B69DB43BA691340BB613B6835
:1055E0005B6803F48033002B03D0BA693B69134333
:1055F000BB61324ABB691360304B5B68BB613B697E
:10560000DB43BA691340BB613B685B6803F400335A
:10561000002B03D0BA693B691343BB61274ABB69BE
:105620005360264B9B68BB613B69DB43BA691340FF
:10563000BB613B685B6803F48013002B03D0BA693D
:105640003B691343BB611D4ABB6993601B4BDB681D
:10565000BB613B69DB43BA691340BB613B685B6874
:1056600003F40013002B03D0BA693B691343BB61F9
:10567000124ABB69D360FB690133FB61FB690F2BE5
:105680007FF690AE00BF00BF2437BD465DF8047BB7
:10569000704700BF0038024000380140000002405F
:1056A0000004024000080240000C024000100240CA
:1056B0000014024000180240001C0240003C01405F
:1056C00080B483B000AF78600B467B8013467B705C
:1056D0007B78002B03D07A887B689A6103E07B8813
:1056E0001A047B689A6100BF0C37BD465DF8047BE5
:1056F0007047000080B584B000AF78607B68002BF5
:1057000001D101232BE17B6893F83D30DBB2002B04
:1057100006D17B68002283F83C207868FBF7FCFF09
:105720007B68242283F83D207B681B681A687B68AD
:105730001B6822F001021A607B681B681A687B688C
:105740001B6842F400421A607B681B681A687B6819
:105750001B6822F400421A6001F0D8FBF8607B68F5
:105760005B68814A934207D8FB68804A934294BFA2
:1057700001230023DBB206E0FB687D4A934294BF1D
:1057800001230023DBB2002B01D00123E7E0FB68FB
:10579000784AA2FB03239B0CBB607B681B685B6899
:1057A00023F03F017B681B68BA680A435A607B6834
:1057B0001B681B6A23F03F017B685B686A4A93425F
:1057C00002D8BB68013309E0BB684FF4967202FB54
:1057D00003F3694AA2FB03239B0901337A68126829
:1057E0000B4313627B681B68DB6923F44F4222F092
:1057F000FF027B685B685C498B4219D8FB68591EC5
:105800007B685B685B00B1FBF3F3591C40F6FC73EB
:105810000B40002B0AD0FB68591E7B685B685B005D
:10582000B1FBF3F30133C3F30B0351E004234FE067
:105830007B689B68002B11D1FB68581E7B685968F8
:105840000B465B000B44B0FBF3F30133C3F30B03D4
:10585000002B0CBF01230023DBB212E0FB68581EB3
:105860007B6859680B469B000B4499000B44B0FBC6
:10587000F3F30133C3F30B03002B0CBF012300230D
:10588000DBB2002B01D0012322E07B689B68002B58
:105890000ED1FB68581E7B6859680B465B000B44B1
:1058A000B0FBF3F30133C3F30B0343F400430FE006
:1058B000FB68581E7B6859680B469B000B44990097
:1058C0000B44B0FBF3F30133C3F30B0343F4404346
:1058D000796809681343CB617B681B681B6823F0F8
:1058E000C0017B68DA697B681B6A1A437B681B68A6
:1058F0000A431A607B681B689B6823F4034323F008
:10590000FF037A6811697A68D26811437A6812686D
:105910000B4393607B681B68DB6823F0FF017B68A7
:105920005A697B689B691A437B681B680A43DA6083
:105930007B681B681A687B681B6842F001021A606A
:105940007B6800221A647B68202283F83D207B68F4
:1059500000221A637B68002283F83E200023184649
:105960001037BD4680BD00BFA08601007F841E00A9
:10597000FF083D0083DE1B43D34D621080B588B025
:1059800002AFF860084611461A4603467B810B4673
:105990003B811346FB80FEF7A1FB7861FB6893F81F
:1059A0003D30DBB2202B40F0D9807B690093192376
:1059B00001226D49F86800F07FFC0346002B01D0FE
:1059C0000223CCE0FB6893F83C30012B01D1022389
:1059D000C5E0FB68012283F83C20FB681B681B685C
:1059E00003F00103012B07D0FB681B681A68FB68F2
:1059F0001B6842F001021A60FB681B681A68FB68AA
:105A00001B6822F400621A60FB68212283F83D20A3
:105A1000FB68402283F83E20FB6800221A64FB6882
:105A20003A6A5A62FB68BA8C5A85FB685B8D9AB2F7
:105A3000FB681A85FB684D4ADA62F8883A897989E9
:105A40007B690193BB6A00930346F86800F0B6FADD
:105A50000346002B52D0012381E07A69B96AF868C5
:105A600000F000FD0346002B0DD0FB681B6C042BDF
:105A700007D1FB681B681A68FB681B6842F4007258
:105A80001A6001236BE0FB685B6A1A78FB681B688D
:105A90001A61FB685B6A5A1CFB685A62FB681B8DC3
:105AA000013B9AB2FB681A85FB685B8D9BB2013B98
:105AB0009AB2FB685A85FB681B685B6903F00403B4
:105AC000042B1BD1FB681B8D002B17D0FB685B6A76
:105AD0001A78FB681B681A61FB685B6A5A1CFB68D2
