:020000040800F2
:10000000000002204D340008DD320008E332000811
:10001000E9320008EF320008F53200080000000065
:10002000000000000000000000000000FB3200089B
:1000300009330008000000001733000825330008CA
:100040009D3400089D3400089D3400089D3400084C
:100050009D3400089D3400089D3400089D3400083C
:100060009D3400089D3400089D3400089D3400082C
:100070009D3400089D3400089D3400089D3400081C
:100080009D3400089D3400089D3400089D3400080C
:100090009D3400089D3400089D3400089D340008FC
:1000A0009D3400089D3400089D3400089D340008EC
:1000B000313300089D3400089D3400089D34000849
:1000C0009D3400089D3400089D3400089D340008CC
:1000D0009D3400089D3400089D3400089D340008BC
:1000E0009D3400089D3400089D3400089D340008AC
:1000F0009D3400089D3400089D3400089D3400089C
:100100009D3400089D3400089D3400089D3400088B
:100110009D3400089D3400089D3400089D3400087B
:100120009D3400089D3400089D3400089D3400086B
:100130009D3400089D3400089D3400089D3400085B
:100140009D3400089D3400089D3400089D3400084B
:100150009D3400089D3400089D3400089D3400083B
:100160009D3400089D3400089D3400089D3400082B
:100170009D3400089D3400089D34000800000000F4
:080180009D3400089D340008C5
:1001880010B5054C237833B9044B13B10448AFF3C9
:1001980000800123237010BD300000200000000003
:1001A800E057000808B5034B1BB103490348AFF3F8
:1001B800008008BD0000000034000020E05700085F
:1001C80081F0004102E000BF83F0004330B54FEA00
:1001D80041044FEA430594EA050F08BF90EA020F6D
:1001E8001FBF54EA000C55EA020C7FEA645C7FEA00
:1001F800655C00F0E2804FEA5454D4EB5555B8BF23
:100208006D420CDD2C4480EA020281EA030382EA93
:10021800000083EA010180EA020281EA0303362D25
:1002280088BF30BD11F0004F4FEA01314FF4801CF8
:100238004CEA113102D0404261EB410113F0004F0A
:100248004FEA03334CEA133302D0524263EB4303C1
:1002580094EA050F00F0A780A4F10104D5F1200E5F
:100268000DDB02FA0EFC22FA05F2801841F10001BA
:1002780003FA0EF2801843FA05F359410EE0A5F18E
:1002880020050EF1200E012A03FA0EFC28BF4CF0BF
:10029800020C43FA05F3C01851EBE37101F0004575
:1002A80007D54FF0000EDCF1000C7EEB00006EEB82
:1002B8000101B1F5801F1BD3B1F5001F0CD349080C
:1002C8005FEA30004FEA3C0C04F101044FEA445263
:1002D80012F5800F80F09A80BCF1004F08BF5FEAEA
:1002E800500C50F1000041EB045141EA050130BDCA
:1002F8005FEA4C0C404141EB0101013C28BFB1F5DC
:10030800801FE9D291F0000F04BF01460020B1FA26
:1003180081F308BF2033A3F10B03B3F120020CDAF9
:100328000C3208DD02F1140CC2F10C0201FA0CF0D7
:1003380021FA02F10CE002F11402D8BFC2F1200C3C
:1003480001FA02F120FA0CFCDCBF41EA0C019040F2
:10035800E41AA2BF01EB0451294330BD6FEA04043B
:100368001F3C1CDA0C340EDC04F11404C4F1200226
:1003780020FA04F001FA02F340EA030021FA04F338
:1003880045EA030130BDC4F10C04C4F1200220FA8F
:1003980002F001FA04F340EA0300294630BD21FACD
:1003A80004F0294630BD94F0000F83F4801306BF93
:1003B80081F480110134013D4EE77FEA645C18BF87
:1003C8007FEA655C29D094EA050F08BF90EA020F1E
:1003D80005D054EA000C04BF1946104630BD91EA16
:1003E800030F1EBF0021002030BD5FEA545C05D119
:1003F8004000494128BF41F0004130BD14F5800458
:100408003CBF01F5801130BD01F0004545F0FE41CB
:1004180041F470014FF0000030BD7FEA645C1ABF00
:10042800194610467FEA655C1CBF0B46024650EA37
:10043800013406BF52EA033591EA030F41F4002163
:1004480030BD00BF90F0000F04BF0021704730B5E9
:100458004FF4806404F132044FF000054FF00001BE
:1004680050E700BF90F0000F04BF0021704730B57F
:100478004FF4806404F1320410F0004548BF404254
:100488004FF000013EE700BF42004FEAE2014FEAA9
:1004980031014FEA02701FBF12F07F4393F07F4F84
:1004A80081F06051704732F07F4208BF704793F087
:1004B8007F4F04BF41F40021704730B54FF460749A
:1004C80001F0004521F000411CE700BF50EA01029D
:1004D80008BF704730B54FF000050AE050EA010246
:1004E80008BF704730B511F0004502D5404261EBB6
:1004F80041014FF4806404F132045FEA915C3FF4F7
:10050800D8AE4FF003025FEADC0C18BF03325FEA93
:10051800DC0C18BF033202EBDC02C2F1200300FA44
:1005280003FC20FA02F001FA03FE40EA0E0021FA69
:1005380002F11444BDE600BF70B54FF0FF0C4CF457
:10054800E06C1CEA11541DBF1CEA135594EA0C0F09
:1005580095EA0C0F00F0DEF82C4481EA030621EA44
:100568004C5123EA4C5350EA013518BF52EA03357F
:1005780041F4801143F4801338D0A0FB02CE4FF031
:100588000005E1FB02E506F00042E0FB03E54FF061
:100598000006E1FB03569CF0000F18BF4EF0010E59
:1005A800A4F1FF04B6F5007F64F5407404D25FEA55
:1005B8004E0E6D4146EB060642EAC62141EA555108
:1005C8004FEAC52040EA5E504FEACE2EB4F1FD0C4A
:1005D80088BFBCF5E06F1ED8BEF1004F08BF5FEAC8
:1005E800500E50F1000041EB045170BD06F000467A
:1005F80046EA010140EA020081EA0301B4EB5C0427
:10060800C2BFD4EB0C0541EA045170BD41F480111E
:100618004FF0000E013C00F3AB8014F1360FDEBF43
:10062800002001F0004170BDC4F10004203C35DA1F
:100638000C341BDC04F11404C4F1200500FA05F3A2
:1006480020FA04F001FA05F240EA020001F0004243
:1006580021F0004110EBD37021FA04F642EB0601B9
:100668005EEA430E08BF20EAD37070BDC4F10C04E3
:10067800C4F1200500FA04F320FA05F001FA04F2A7
:1006880040EA020001F0004110EBD37041F1000193
:100698005EEA430E08BF20EAD37070BDC4F120059E
:1006A80000FA05F24EEA020E20FA04F301FA05F206
:1006B80043EA020321FA04F001F0004121FA04F2AE
:1006C80020EA020000EBD3705EEA430E08BF20EA7E
:1006D800D37070BD94F0000F0FD101F000464000B8
:1006E80041EB010111F4801F08BF013CF7D041EA3A
:1006F800060195F0000F18BF704703F0004652003E
:1007080043EB030313F4801F08BF013DF7D043EA0E
:100718000603704794EA0C0F0CEA135518BF95EAC4
:100728000C0F0CD050EA410618BF52EA4306D1D14B
:1007380081EA030101F000414FF0000070BD50EA6A
:10074800410606BF1046194652EA430619D094EAF4
:100758000C0F02D150EA013613D195EA0C0F05D1DE
:1007680052EA03361CBF104619460AD181EA030132
:1007780001F0004141F0FE4141F470014FF00000EA
:1007880070BD41F0FE4141F4780170BD70B54FF085
:10079800FF0C4CF4E06C1CEA11541DBF1CEA135505
:1007A80094EA0C0F95EA0C0F00F0A7F8A4EB0504E7
:1007B80081EA030E52EA03354FEA013100F08880DE
:1007C8004FEA03334FF0805545EA131343EA1263A7
:1007D8004FEA022245EA111545EA10654FEA00265C
:1007E8000EF000419D4208BF964244F1FD0404F515
:1007F800407402D25B084FEA3202B61A65EB030571
:100808005B084FEA32024FF480104FF4002CB6EB2D
:10081800020E75EB030E22BFB61A754640EA0C00AD
:100828005B084FEA3202B6EB020E75EB030E22BFED
:10083800B61A754640EA5C005B084FEA3202B6EB2E
:10084800020E75EB030E22BFB61A754640EA9C00ED
:100858005B084FEA3202B6EB020E75EB030E22BFBD
:10086800B61A754640EADC0055EA060E18D04FEA7B
:10087800051545EA16754FEA06164FEAC30343EA1B
:1008880052734FEAC2025FEA1C1CC0D111F4801FE8
:100898000BD141EA00014FF000004FF0004CB6E7E1
:1008A80011F4801F04BF01430020B4F1FD0C88BF80
:1008B800BCF5E06F3FF6AFAEB5EB030C04BFB6EB8B
:1008C800020C5FEA500C50F1000041EB045170BD7E
:1008D8000EF0004E4EEA113114EB5C04C2BFD4EBAB
:1008E8000C0541EA045170BD41F480114FF0000E2F
:1008F800013C90E645EA060E8DE60CEA135594EAAB
:100908000C0F08BF95EA0C0F3FF43BAF94EA0C0FAD
:100918000AD150EA01347FF434AF95EA0C0F7FF422
:1009280025AF104619462CE795EA0C0F06D152EA76
:1009380003353FF4FDAE1046194622E750EA41065A
:1009480018BF52EA43067FF4C5AE50EA41047FF46B
:100958000DAF52EA43057FF4EBAE12E74A0011D21D
:1009680012F5001211D20DD56FF47873B3EB625201
:100978000ED44FEAC12343F0004343EA505323FA0D
:1009880002F070474FF00000704750EA013002D182
:100998004FF0FF3070474FF00000704753B94AB925
:1009A800002908BF00281CBF4FF0FF314FF0FF306F
:1009B80000F06EB9ADF1080C6DE904CE00F006F850
:1009C800DDF804E0DDE9022304B070472DE9F047C3
:1009D800089D04468C46002B40F083808A421746C7
:1009E80047D9B2FA82F242B1C2F1200024FA00F0EB
:1009F8009140974040EA010C94404FEA1748230C75
:100A0800BCFBF8F61FFA87FE08FB16C143EA014350
:100A180006FB0EF1994209D9FB1806F1FF3080F068
:100A28001981994240F21681023E3B445B1AA4B2F6
:100A3800B3FBF8F008FB103344EA034400FB0EFE56
:100A4800A64509D93C1900F1FF3380F00581A64578
:100A580040F2028102383C4440EA0640A4EB0E040E
:100A680000261DB1D4400023C5E900433146BDE846
:100A7800F08702B9FFDEB2FA82F2002A50D1CB1B0E
:100A88004FEA174E1FFA87F80126B3FBFEFC210C2C
:100A98000EFB1C3341EA034108FB0CF38B4207D9D8
:100AA80079180CF1FF3002D28B4200F2E9808446BB
:100AB800C91AA3B2B1FBFEF00EFB101143EA0144C0
:100AC80008FB00F8A04507D93C1900F1FF3302D212
:100AD800A04500F2D9801846A4EB080440EA0C406F
:100AE800BFE78B4209D9002D00F0B1800026C5E987
:100AF800000130463146BDE8F087B3FA83F6002E90
:100B08004AD18B4202D3824200F2B880841A61EB48
:100B1800030101208C46002DA8D0C5E9004CA5E7AB
:100B2800C2F1200320FA03F6974001FA02F04FEAD7
:100B3800174ED9403043030CB1FBFEF61FFA87F875
:100B48000EFB161143EA014306FB08F1994204FA29
:100B580002F409D9FB1806F1FF3C80F08D80994218
:100B680040F28A80023E3B445B1A81B2B3FBFEF03E
:100B78000EFB103341EA034100FB08F38B4207D90F
:100B8800791800F1FF3C73D28B4271D9023839448D
:100B9800CB1A40EA064678E7C6F1200C03FA06F4B9
:100BA80022FA0CF31C4320FA0CF701FA06F34FEA79
:100BB800144E21FA0CF11F433B0CB1FBFEF91FFA4E
:100BC80084F80EFB191143EA014109FB08FA8A452A
:100BD80002FA06F200FA06F308D9611809F1FF30A3
:100BE80048D28A4546D9A9F102092144A1EB0A0154
:100BF800BFB2B1FBFEF00EFB101147EA014700FB44
:100C080008F8B84507D9E71900F1FF312ED2B845E1
:100C18002CD90238274440EA0940A7EB0807A0FB73
:100C280002894F45C64649461AD317D05DB1B3EB82
:100C38000E0267EB010707FA0CFCF2404CEA0202CD
:100C4800F740C5E9002700263146BDE8F0872E4663
:100C580028460BE70646E9E61846FDE64345E5D291
:100C6800B8EB020E69EB04010138DFE70846D2E76A
:100C780060468DE78146B9E7664675E730464AE73C
:100C8800ACF1020C394413E702383C4424E700BFB6
:100C9800704700BF80B500AF01220821024802F06A
:100CA8003FFF00BF80BD00BF000C024080B584B08C
:100CB80000AF002208212F4802F032FF012208214C
:100CC8002C4802F02DFF0A2302222B492B4803F05F
:100CD800DEFB0023FB604FF400437B8100237B6035
:100CE8003FE07B68002B06DB7B68032B03DC7B681B
:100CF8000433FB6018E07B68032B07DD7B68072B58
:100D080004DC7B68C3F10703FB600DE07B68072BFD
:100D180006DD7B680B2B03DC7B680433FB6003E098
:100D28007B68C3F11703FB60134B1A887B89134058
:100D38009BB2002B05D0124AFB68002122F8131041
:100D480009E00F4AFB6832F81330013399B20C4AB4
:100D5800FB6822F813107B895B087B817B68013371
:100D68007B607B680F2BBCDD00BF00BF1037BD4622
:100D780080BD00BF000C02404C000020EC010020A8
:100D88005800002080B483B000AF0346FB71FB79A4
:100D9800102B01D9002308E0FB79074A32F81330F9
:100DA800012B0CBF01230023DBB218460C37BD46CC
:100DB8005DF8047B704700BF5800002080B483B002
:100DC80000AF0346FB71FB79102B01D900230AE021
:100DD800FB79084A32F81320074B1B889A4201D244
:100DE800002300E0012318460C37BD465DF8047B5C
:100DF800704700BF580000200000002080B500AFF9
:100E08002A4B1B78002B02D0012B35D04BE0284B06
:100E18001B78032B18D0032B1FDC012B02D0022BCD
:100E280009D01AE00121002001F0E6FE012101208D
:100E380001F0E2FE12E00221002001F0DDFE0221B5
:100E4800012001F0D9FE09E00421002001F0D4FEC0
:100E58000421012001F0D0FE00E000BF032002F0D1
:100E68007DF90346002B1DD1104B01221A70FA217F
:100E7800032002F015F915E00021002001F0BCFE66
:100E88000021012001F0B8FE032002F067F90346B3
:100E9800002B08D1054B00221A70FA21032002F01A
:100EA800FFF800E000BF00BF80BD00BF7800002051
:100EB8004E00002080B400AF1C4B1B78012B0DD1D5
:100EC8001B4B1B685A1C1B4BA3FB02135B096421B9
:100ED80001FB03F3D31A164A136022E0134B1B7865
:100EE800022B0DD1144B1B685A1C124BA3FB021387
:100EF8005B09642101FB03F3D31A0F4A136010E066
:100F08000A4B1B78032B0CD10C4B1B685A1C094B42
:100F1800A3FB02135B09642101FB03F3D31A074AFD
:100F2800136000BFBD465DF8047B70474F0000208A
:100F3800100000201F85EB5118000020140000202D
:100F480080B500AF274B1B78002B02D0012B36D081
:100F580041E00020FFF716FF0346012B27D1224B63
:100F68001A78224B1A70204B1B78032B1AD801A22F
:100F780052F823F08D0F0008950F00089D0F000808
:100F8800A50F0008184B01221A700CE0164B02221C
:100F98001A7008E0144B03221A7004E0124B002266
:100FA8001A7000E000BF0F4B01221A7015E00020F4
:100FB800FFF7E8FE0346FF2B0FD100230FE00020C8
:100FC800FFF7E0FE0346002B03D1064B00221A7000
:100FD80004E0002303E0002301E000BF01231846DA
:100FE80080BD00BF7C0000204E0000204F00002084
:100FF80080B500AF184B9B78002B02D0012B19D07D
:1010080024E00220FFF7BEFE0346012B0AD1134B52
:101018001A78134B1A70114B04221A700E4B0122C6
:101028009A7015E00220FFF7ADFE0346FF2B0FD1A3
:1010380000230FE00220FFF7A5FE0346002B03D193
:10104800054B00229A7004E0002303E0002301E02E
:1010580000BF0123184680BD7C0000204E00002000
:101068004F00002080B500AF2E4B5B78022B35D0A7
:10107800022B4FDC002B02D0012B19D04AE00120B3
:10108800FFF780FE0346012B0AD1274B1A78274B1E
:101098001A70254B05221A70224B01225A703BE028
:1010A8000120FFF76FFE0346FF2B35D1002337E001
:1010B8000120FFF767FE0346002B03D1194B0022DE
:1010C8005A702CE00120FFF779FE0346012B03D16B
:1010D800144B02225A7022E0002321E0124B1B78A5
:1010E800062B06D0104B1A78104B1A700E4B06229E
:1010F8001A700120FFF746FE0346002B0ED10B4B5A
:101108001A78094B1A70094B06221A70054B0022EF
:101118005A7003E0002303E000BF00E000BF012392
:10112800184680BD7C0000204E0000204F000020A3
:1011380080B500AF3D4B1B683D4A11680122184637
:1011480001F026FE3B4B1B78032B63D801A252F813
:1011580023F000BF6D11000895110008C5110008A3
:10116800ED1100080121002001F046FD04210120B5
:1011780001F042FD2E4B1B68002B4DD12E4B1B68F6
:101188002B4A13602B4B01221A7045E001210020E5
:1011980001F032FD0221012001F02EFD244B1B68D5
:1011A800002B3BD1254B1B68204A1360244B1B683E
:1011B8001F4A13601F4B02221A702FE004210020DF
:1011C80001F01AFD0121012001F016FD174B1B68E3
:1011D800002B25D1184B1B68144A1360154B0322AA
:1011E8001A701DE00221002001F006FD01210120F6
:1011F80001F002FD0D4B1B68002B13D1104B1B682F
:101208000A4A13600D4B1B68094A1360094B0022F8
:101218001A7007E000BF06E000BF04E000BF02E06C
:1012280000BF00E000BF00BF80BD00BF1C00002061
:1012380020000020500000200C00002008000020A2
:101248000400002080B584B004AFA64B1B78062BA1
:1012580000F2428101A252F823F000BF8112000877
:10126800591300089B130008DD1300081F14000819
:1012780063140008771400089B4B1A689B4B1B6883
:101288001A449B4B1B689A4224D00021002001F08D
:10129800B3FC0021012001F0AFFC012302932023BD
:1012A80001934FF6FF7300934FF47843914A8221DC
:1012B800282001F0C5F801230293202301934FF65B
:1012C800FF7300934FF478438B4AA221282001F042
:1012D800B7F83AE001230293202301934FF6FF73F6
:1012E80000934FF6FF73834A8221282001F0A8F863
:1012F80001230293202301934FF6FF7300934FF6C7
:10130800FF737D4AA221282001F09AF8012001F0FC
:1013180025FF0346002B16D1784B1B68002B04D001
:10132800764B1B68013B754A1360754B1B68002B95
:1013380004D0734B1B68013B714A13604FF47A71F8
:10134800012001F0ADFEFFF7F3FEFFF7F9FDC4E061
:101358006C4B1B78052B0BD06A4B1B78042B07D0E2
:10136800684B1B78062B03D0614B1B68664A1360D9
:10137800654B1B68644A11680222184601F008FD93
:10138800FFF73CFDFFF7DCFDFFF76CFEFFF730FED3
:10139800A3E05C4B1B78052B0BD05A4B1B78042B16
:1013A80007D0584B1B78062B03D0504B1B68574A65
:1013B8001360564B1B68554A11680322184601F002
:1013C800E7FCFFF71BFDFFF7BBFDFFF74BFEFFF741
:1013D8000FFE82E04B4B1B78052B0BD0494B1B783B
:1013E800042B07D0474B1B78062B03D03E4B1B68BA
:1013F800474A1360464B1B68454A11680422184641
:1014080001F0C6FCFFF7FAFCFFF79AFDFFF72AFE8A
:10141800FFF7EEFD61E03B4B1B78012B04D13A4B03
:101428001B68334A136010E0364B1B78022B04D13B
:10143800364B1B682D4A136007E0324B1B78032B91
:1014480003D1334B1B68284A13602E4B1A78254B5F
:101458001A702C4B04221A703FE0FFF72BFD294B22
:101468001A78204B1A70274B05221A7035E0254B45
:101478001B78012B08D1244B1B68234A11680222D0
:10148800184601F085FC18E01E4B1B78022B08D18A
:101498001E4B1B681D4A11680322184601F078FC90
:1014A8000BE0184B1B78032B07D1194B1B68184A04
:1014B80011680422184601F06BFC042001F04EFE6E
:1014C8000346002B05D1FFF7F5FCFA21042001F0B3
:1014D800E7FDFFF7C7FD00E000BF01F099FC00BF82
:1014E800BD4680BD4E000020080000200C000020F2
:1014F80004000020F8570008005800081C000020CD
:10150800200000204F0000201000002018000020BC
:101518001400002080B58EB000AF07F11C03002234
:101528001A605A609A60DA601A615A619A613B4699
:1015380000221A605A609A60DA601A615A619A61E8
:101548002F4B4FF020421A602D4B2E4A5A602C4BDD
:1015580000229A602A4B0022DA60294B00221A6185
:10156800274B10225A61264B00229A61244B0022F5
:10157800DA61234B00221A62214B00225A62204B67
:101588004FF480529A621E4B0022DA621C4B4FF4D1
:1015980080421A631A4B00225A63194B00229A633D
:1015A800174B00225A640F23FB610F233B623C2335
:1015B8007B620023BB621023FB6211233B63002381
:1015C8007B6308233B600F237B600923BB600023F8
:1015D800FB6010233B6111237B610023BB613A460A
:1015E80007F11C031946064803F034FB0346002B99
:1015F80001D001F045FD00BF3837BD4680BD00BFB2
:1016080080000020040100A080B586B000AF3B1D1B
:1016180000221A605A609A60DA601A611C4B1B68D3
:10162800002B31D11A4B01221A6000233B60194B61
:101638009B6B184A43F001039363164B9B6B03F0B3
:1016480001033B603B684FF688737B600223BB60F5
:101658000023FB6003233B610C237B613B1D194680
:101668000D4802F0C1F84CF2B3737B600223BB60F3
:101678000023FB6003233B610C237B613B1D194660
:10168800064802F0B1F800E000BF1837BD4680BD3B
:10169800540000200038024000100240000C0240B4
:1016A80080B582B000AF7860FFF7AEFF00BF0837A3
:1016B800BD4680BD80B58CB000AF07F11C03002289
:1016C8001A605A609A60DA601A610023BB615C4B49
:1016D8001B6B5B4A43F010031363594B1B6B03F0FE
:1016E8001003BB61BB6900237B61554B1B6B544ADC
:1016F80043F004031363524B1B6B03F004037B6139
:101708007B6900233B614E4B1B6B4D4A43F008033A
:1017180013634B4B1B6B03F008033B613B690023CE
:10172800FB60474B1B6B464A43F040031363444B33
:101738001B6B03F04003FB60FB680023BB60404B5E
:101748001B6B3F4A43F0010313633D4B1B6B03F0D4
:101758000103BB60BB6800237B60394B1B6B384AB5
:1017680043F002031363364B1B6B03F002037B60E9
:101778007B6800221021334802F0D2F900224FF48E
:101788000051314802F0CCF9002240212F4802F0E4
:10179800C7F900224FF480712D4802F0C1F90022E8
:1017A80008212C4802F0BCF91023FB6101233B629D
:1017B80000237B620023BB6207F11C031946214802
:1017C80002F012F84FF40053FB6101233B6200233F
:1017D8007B620023BB6207F11C0319461A4802F01A
:1017E80003F84023FB6101233B6200237B62002353
:1017F800BB6207F11C031946144801F0F5FF4FF4CA
:101808008073FB6101233B6200237B620023BB6280
:1018180007F11C0319460E4801F0E6FF0823FB6197
:1018280001233B6200237B620023BB6207F11C0398
:101838001946084801F0D8FF00BF3037BD4680BDC3
:101848000038024000100240000802400018024020
:1018580000000240000C024080B483B000AF034691
:10186800FB80044AFB88138000BF0C37BD465DF837
:10187800047B7047FEFF0F6080B483B000AF03465F
:10188800FB80044AFB88538000BF0C37BD465DF8D7
:10189800047B7047FEFF0F6080B483B000AF064B37
:1018A8005B889BB2FB80FB889BB218460C37BD4611
:1018B8005DF8047B704700BFFEFF0F6090B583B0F2
:1018C80000AF0446084611461A462346FB800346E5
:1018D800BB800B467B8013463B802A20FFF7BCFF6A
:1018E800FB881B0A9BB21846FFF7C6FFFB88DBB2D2
:1018F8009BB21846FFF7C0FF7B881B0A9BB21846AD
:10190800FFF7BAFF7B88DBB29BB21846FFF7B4FF3C
:101918002B20FFF7A1FFBB881B0A9BB21846FFF7D5
:10192800ABFFBB88DBB29BB21846FFF7A5FF3B882D
:101938001B0A9BB21846FFF79FFF3B88DBB29BB29E
:101948001846FFF799FF2C20FFF786FF00BF0C37DA
:10195800BD4690BD80B584B000AF0346FB80154BF3
:101968001B88013B9AB2134B5B88013B9BB2002159
:101978000020FFF7A3FF0023FB8111E00023BB81B8
:1019880006E0FB881846FFF777FFBB890133BB8168
:10199800084B5B88BA899A42F3D3FB890133FB81F0
:1019A800044B1B88FA899A42E8D300BF00BF10375E
:1019B800BD4680BDD000002090B585B000AF04467C
:1019C800084611461A462346FB800346BB800B4651
:1019D8007B8013463B807B88013B9AB23B88013B66
:1019E8009BB2B988F888FFF769FFBB88FB8110E0D4
:1019F800FB88BB8106E03B8C1846FFF73DFFBB899F
:101A08000133BB81BA897B889A42F4D3FB890133BD
:101A1800FB81FA893B889A42EAD300BF00BF14379A
:101A2800BD4690BD80B582B000AF0346FB800B4633
:101A3800BB8013467B80BB88FA88B988F888FFF793
:101A48003DFF7B881846FFF717FF00BF0837BD46E4
:101A580080BD90B58DB000AF0446084611461A46C1
:101A68002346FB800346BB800B467B8013463B80A6
:101A78000023BB6200237B627A88FB88D31A3B620F
:101A88003A88BB88D31AFB61FB88FB60BB88BB60C4
:101A98003B6A002B02DD01237B610BE03B6A002BD4
:101AA80002D100237B6105E04FF0FF337B613B6A85
:101AB8005B423B62FB69002B02DD01233B610BE0CB
:101AC800FB69002B02D100233B6105E04FF0FF3397
:101AD8003B61FB695B42FB613A6AFB699A4202DD42
:101AE8003B6ABB6101E0FB69BB610023FB852BE01E
:101AF800FB689BB2BA6891B2B7F840201846FFF766
:101B080091FFBA6A3B6A1344BB627A6AFB69134461
:101B18007B62BA6ABB699A4207DDBA6ABB69D31AA3
:101B2800BB62FA687B691344FB607A6ABB699A42B4
:101B380007DD7A6ABB69D31A7B62BA683B691344CA
:101B4800BB60FB8D0133FB85FB8DBA699A42CFDA06
:101B580000BF00BF3437BD4690BD90B585B002AF19
:101B68000446084611461A462346FB800346BB80B6
:101B78000B467B8013463B80BC887A88B988F888F6
:101B88003B8B00932346FFF764FF3C88FA88B988AB
:101B9800F8883B8B00932346FFF75BFF3C887A88E5
:101BA8003988F8883B8B00932346FFF752FF3C881F
:101BB8007A88B98878883B8B00932346FFF749FFDA
:101BC80000BF0C37BD4690BD90B587B000AF044646
:101BD800084611461A462346FB800346BB800B463F
:101BE800FB7013463B8000237B75FB883B8297F88C
:101BF8002C305B08FB73FB7BDB08DBB21A46FB7BF4
:101C080003F00703DBB2002B14BF01230023DBB270
:101C180013449AB297F82C309BB212FB03F3BB81A2
:101C2800FB78203BFB70FB7B9AB2FB8813449BB28A
:101C3800013B9CB297F82C309AB2BB8813449BB2F4
:101C4800013B9BB2B988F8882246FFF737FE00238C
:101C58007B827AE097F82C300C2B28D097F82C3020
:101C6800102B08D1FA787B8A3C4912010A441344A4
:101C78001B78FB751BE097F82C30182B0BD1FA78E2
:101C8800798A374813465B0013441B0103440B440D
:101C98001B78FB750BE097F82C30202B5AD1FA787B
:101CA8007B8A304992010A4413441B78FB75002350
:101CB800BB7544E097F83030002B20D1FA7DBB7D0E
:101CC80042FA03F303F00103002B04D03B881846C3
:101CD800FFF7D2FD03E03B8D1846FFF7CDFD7B7D76
:101CE80001337B757B7DFA7BB3FBF2F102FB01F2DA
:101CF8009B1ADBB2002B1FD100237B7522E0FA7DF3
:101D0800BB7D42FA03F303F00103002B05D03A88A8
:101D1800B988FB881846FFF785FEFB880133FB80EE
:101D2800FA883B8AD21AFB7B9A4205D13B8AFB8010
:101D3800BB880133BB8005E0BB7D0133BB75BB7D30
:101D4800072BB7D97B8A01337B827A8ABB899A426F
:101D580080D300E000BF1C37BD4690BD2458000862
:101D6800145E0008E46F000880B485B000AF034635
:101D78000A46FB711346BB710123FB6004E0FA7944
:101D8800FB6802FB03F3FB60BB795A1EBA71002B98
:101D9800F5D1FB6818461437BD465DF8047B7047DB
:101DA80090B589B004AF0446084611461A46234642
:101DB800FB800346BB800B467B8013467B70002369
:101DC800BB7397F828305B087B730023FB7359E0DB
:101DD8007C887A78FB7BD31ADBB2013BDBB21946ED
:101DE8000A20FFF7C1FF0346B4FBF3F12A4BA3FB1C
:101DF8000123DA0813469B0013445B00CA1A1346F2
:101E08003B73BB7B002B21D1FA7B7B78013B9A4249
:101E18001CDA3B7B002B17D1FB7B9AB27B7B9BB2F6
:101E280012FB03F39AB2FB88134498B23A8CB98830
:101E38000023029397F828300193BB8C0093134634
:101E48002022FFF7C1FE1AE00123BB73FB7B9AB285
:101E58007B7B9BB212FB03F39AB2FB88134498B2C4
:101E68003B7B3033DAB23C8CB9880023029397F875
:101E780028300193BB8C00932346FFF7A5FEFB7B1C
:101E88000133FB73FA7B7B789A42A1D300BF00BF72
:101E98001437BD4690BD00BFCDCCCCCC90B587B033
:101EA80000AF0446084611461A462346FB800346FF
:101EB800BB800B467B8013463B8000233B61FA883E
:101EC8007B8813449BB2013B9CB2BA883B8813447D
:101ED8009BB2013B9BB2B988F8882246FFF7EEFC1B
:101EE8000023FB8227E00023BB821DE03B695B00E7
:101EF800BA6A13441B78FB733B695B000133BA6A07
:101F080013441B78BB73FB7B1B021AB2BB7B1BB24F
:101F180013431BB29BB21846FFF7AEFC3B69013373
:101F28003B61BB8A0133BB82BA8A3B889A42DDD3C4
:101F3800FB8A0133FB82FA8A7B889A42D3D300BF9B
:101F480000BF1C37BD4690BD80B483B000AF0346C8
:101F5800FB71FB791B09DBB203F00303DBB2002B37
:101F680007D00A4B4FF4A0721A80084BF0225A800F
:101F780006E0064BF0221A80044B4FF4A0725A80F8
:101F880000BF0C37BD465DF8047B7047D0000020C9
:101F980080B500AF00224FF40051AA4801F0C0FDFF
:101FA8004FF4FA7001F0EAFA01224FF40051A54803
:101FB80001F0B6FD4FF4FA7001F0E0FA0020FFF7E7
:101FC800C3FFD320FFF748FCFFF766FC03461A4619
:101FD8009D4B9A80FFF760FC03461A469A4B9A80FD
:101FE800FFF75AFC03461A46974B9A80964B9B88F4
:101FF8001B029AB2944B9A80FFF74EFC03461A468E
:10200800914B9B8813439AB28F4B9A80CF20FFF74E
:1020180023FC0020FFF730FCC120FFF72DFC302007
:10202800FFF72AFCED20FFF717FC6420FFF724FCDC
:102038000320FFF721FC1220FFF71EFC8120FFF789
:102048001BFCE820FFF708FC8520FFF715FC102093
:10205800FFF712FC7A20FFF70FFCCB20FFF7FCFB01
:102068003920FFF709FC2C20FFF706FC0020FFF7BA
:1020780003FC3420FFF700FC0220FFF7FDFBF720EC
:10208800FFF7EAFB2020FFF7F7FBEA20FFF7E4FB66
:102098000020FFF7F1FB0020FFF7EEFBC020FFF761
:1020A800DBFB1B20FFF7E8FBC120FFF7D5FB012076
:1020B800FFF7E2FBC520FFF7CFFB3020FFF7DCFB83
:1020C8003020FFF7D9FBC720FFF7C6FBB720FFF783
:1020D800D3FB3620FFF7C0FB0820FFF7CDFB3A20E3
:1020E800FFF7BAFB5520FFF7C7FBB120FFF7B4FB9A
:1020F8000020FFF7C1FB1A20FFF7BEFBB620FFF751
:10210800ABFB0A20FFF7B8FBA220FFF7B5FBF220D4
:10211800FFF7A2FB0020FFF7AFFB2620FFF79CFB91
:102128000120FFF7A9FBE020FFF796FB0F20FFF740
:10213800A3FB2A20FFF7A0FB2820FFF79DFB082020
:10214800FFF79AFB0E20FFF797FB0820FFF794FB99
:102158005420FFF791FBA920FFF78EFB4320FFF7E0
:102168008BFB0A20FFF788FB0F20FFF785FB002079
:10217800FFF782FB0020FFF77FFB0020FFF77CFBC7
:102188000020FFF779FBE120FFF766FB0020FFF74F
:1021980073FB1520FFF770FB1720FFF76DFB072077
:1021A800FFF76AFB1120FFF767FB0620FFF764FBC8
:1021B8002B20FFF761FB5620FFF75EFB3C20FFF763
:1021C8005BFB0520FFF758FB1020FFF755FB0F209E
:1021D800FFF752FB3F20FFF74FFB3F20FFF74CFB79
:1021E8000F20FFF749FB2B20FFF736FB0020FFF7F6
:1021F80043FB0020FFF740FB0120FFF73DFB3F209A
:10220800FFF73AFB2A20FFF727FB0020FFF734FBF4
:102218000020FFF731FB0020FFF72EFBEF20FFF730
:102228002BFB1120FFF718FB782001F0A7F92920D4
:10223800FFF712FB01224FF48071044801F070FC93
:1022480000BF80BD00080240D0000020000002400E
:1022580080B584B000AFF860B9607A603B60FB6815
:102268009AB27B689BB2134498B2BB689AB23B6837
:102278009BB213449BB23A8B1946FFF7D3FBFB681A
:102288009AB27B689BB2D31A98B2BB689AB23B6881
:102298009BB213449BB23A8B1946FFF7C3FBFB680A
:1022A8009AB27B689BB2134498B2BB689AB23B68F7
:1022B8009BB2D31A9BB23A8B1946FFF7B3FBFB6864
:1022C8009AB27B689BB2D31A98B2BB689AB23B6841
:1022D8009BB2D31A9BB23A8B1946FFF7A3FBFB6854
:1022E8009AB23B689BB2134498B2BB689AB27B68B7
:1022F8009BB213449BB23A8B1946FFF793FBFB68DA
:102308009AB23B689BB2D31A98B2BB689AB27B6800
:102318009BB213449BB23A8B1946FFF783FBFB68C9
:102328009AB23B689BB2134498B2BB689AB27B6876
:102338009BB2D31A9BB23A8B1946FFF773FBFB6823
:102348009AB23B689BB2D31A98B2BB689AB27B68C0
:102358009BB2D31A9BB23A8B1946FFF763FB00BFB7
:102368001037BD4680BD80B58AB002AFF860B9604D
:102378003B601346FB800023FB613B68BB613B6805
:102388005B00C3F103033B61BB6A002B4FD029E01C
:10239800FB697B610AE0FB8800937B69FA69B9688D
:1023A800F868FFF755FF7B6901337B617A69BB6980
:1023B8009A42F0DD3B69002B06DAFB699A003B691B
:1023C800134406333B610AE0FA69BB69D31A9A00E1
:1023D8003B6913440A333B61BB69013BBB61FB6941
:1023E8000133FB61FA69BB699A42D1DD23E0FB88BE
:1023F8000093BB69FA69B968F868FFF729FF3B6978
:10240800002B06DAFB699A003B69134406333B61EB
:102418000AE0FA69BB69D31A9A003B6913440A3384
:102428003B61BB69013BBB61FB690133FB61FA6935
:10243800BB699A42DBDD00BF2037BD4680BD000086
:1024480090B58BB004AFBA601A460346FB810B46C1
:10245800BB811346FB80FB89BB820023FB7548E0E8
:10246800FB7D002B45D1FA89264B1B88194697F826
:102478002C305B08DBB2CB1A9A423FDCBA89214B7D
:102488005B88194697F82C30CB1A9A4236DCBB6821
:102498001B78802B02D90123FB752AE0BB681B78C7
:1024A8000D2B0BD197F82C309AB2BB891344BB8102
:1024B800BB8AFB81BB680133BB6017E0BB681A7835
:1024C800FC88B989F88997F83030029397F82C304E
:1024D80001933B8D00932346FFF776FB97F82C304A
:1024E8005B08DBB29AB2FB891344FB81BB680133FA
:1024F800BB60BB681B78002BB2D100E000BF1C3763
:10250800BD4690BDD0000020F0B585B002AF0446AE
:10251800084611461A462346FB710346BB800B4604
:102528007B8013463B80FA7970491346DB009B1A7F
:102538005B000B44BA881A80FA796C491346DB00B1
:102548009B1A5B000B4402337A881A80FA79674930
:102558001346DB009B1A5B000B4404333A8C1A8049
:10256800FA7962491346DB009B1A5B000B44063379
:102578003A881A80FA795D491346DB009B1A5B009A
:102588000B440833BA8C1A80FA7958491346DB0091
:102598009B1A5B000B440A333A8D1A80FA79534927
:1025A8001346DB009B1A5B000B440C3397F82C2076
:1025B8001A70FA794D491346DB009B1A5B000B44ED
:1025C8001888FA7949491346DB009B1A5B000B44CB
:1025D80002331C88FA7945491346DB009B1A5B00D5
:1025E8000B441988FA79414D1346DB009B1A5B00AE
:1025F8002B4406331B880B449DB2FA793B4913469A
:10260800DB009B1A5B000B4402331988FA79374EBA
:102618001346DB009B1A5B00334404331B880B44CE
:1026280099B2FA79314E1346DB009B1A5B003344AA
:1026380008331B8800930B462A462146FFF78DFA7C
:10264800FA792A491346DB009B1A5B000B440C33CA
:102658001B78002B46D0FA7924491346DB009B1AD5
:102668005B000B441888FA7920491346DB009B1A53
:102678005B000B4402331C88FA791C491346DB00C3
:102688009B1A5B000B441988FA79184D1346DB0036
:102698009B1A5B002B4406331B880B449DB2FA79C6
:1026A80012491346DB009B1A5B000B44023319885E
:1026B800FA790E4E1346DB009B1A5B003344043351
:1026C8001B880B4499B2FA79084E1346DB009B1A13
:1026D8005B0033440A331B8800930B462A46214685
:1026E800FFF76AF900BF0C37BD46F0BD4401002072
:1026F800F0B585B004AF5F4B28221A805D4B3C22B1
:102708005A805C4B7822DA805A4B28229A80594B9F
:1027180000221A81574B1888564B5988554B1A88EE
:10272800544BDB8813449CB2524B5A88514B9B88BC
:1027380013449AB24F4B1B89009313462246FFF766
:102748000CFA4C4B18884B4B59884A4B1A88494B02
:10275800DB8813449CB2474B5A88464B9B881344EA
:102768009AB2444B1B89009313462246FFF724F97B
:10277800404B1A883F4BDB883F49A1FB03139B085A
:102788009BB213449AB23B4B5A813A4B1A88394B45
:10279800DB88D90F0B445B109BB213449AB2354BBC
:1027A8009A82344B1A88334BDB8819460B469B00B8
:1027B8000B44324981FB0301DB17CB1A9BB213444C
:1027C8009AB22C4BDA832B4B5A882A4B9B885B088E
:1027D8009BB213449AB2274B9A81264B9A89254B70
:1027E800DA82244B9A89234B1A84224B9B885B08F4
:1027F8009BB21A465A2303FB02F3214A82FB0312B7
:102808005211DB17D31A9AB21A4B1A82194B1A8A29
:10281800184B5A83174B1A8A164B9A84154B012268
:102828009A74144B9B7C012B04D1124B4FF47842C1
:10283800DA8102E00F4B0022DA810E4B01221A776F
:102848000C4B1B7F012B04D10A4B4FF6E0721A8305
:1028580002E0084B00221A83064B012283F8262047
:10286800044B93F82630012B0CD1024B4FF4FC6239
:102878005A840AE08C010020ABAAAAAAABAAAA2A09
:102888001F85EB51944B00225A84934B5B89184661
:10289800914B9B891946904BDA898F4B1B8A1C46B2
:1028A8008D4B9B7C00932346FFF75DFD8A4B9B8AEB
:1028B8001846894BDB8A1946874B1A8B864B5B8BEC
:1028C8001C46854B1B7F00932346FFF74CFD824B2C
:1028D800DB8B1846804B1B8C19467F4B5A8C7E4BE2
:1028E8009B8C1C467C4B93F8263000932346FFF7BD
:1028F8003AFD794B022283F82E20774B4FF6FF7270
:102908001A86754B00225A86734B202283F834208E
:10291800714B1A88704B93F82E3019466E4B93F80A
:10292800343003FB01F3D90F0B445B105B429BB2BD
:1029380013449AB2684B1A85674B5A88664B5A8576
:10294800654B0A229A85644B188D634B5C8D624BEC
:102958009D8D614B93F82E605F4B1B8E5E4A528EA5
:102968005D4991F8341002910192009333462A464A
:102978002146FFF715FA594BB4221A80574B782293
:102988005A80554B9A88554BDA80534BDA88534B0B
:102998009A80524B00221A81504B18884F4B598805
:1029A8004E4B1A884D4BDB8813449CB24B4B5A88CC
:1029B8004A4B9B8813449AB2484B1B890093134691
:1029C8002246FFF7CAF8454B1888444B5988434BB1
:1029D8001A88424BDB8813449CB2404B5A883F4BC1
:1029E8009B8813449AB23D4B1B8900931346224699
:1029F800FEF7E2FF394B5A88384B9B883849A1FBD0
:102A080003139B089BB213449AB2344B9A81334BFD
:102A18005A88324B9B88D90F0B445B109BB21344E6
:102A28009AB22E4BDA822D4B5A882C4B9B8819462A
:102A38000B469B000B442B4981FB0301DB17CB1A88
:102A48009BB213449AB2254B1A84244B1A88234B01
:102A5800DB885B089BB213449AB2204B5A811F4B08
:102A68005A891E4B9A821D4B5A891C4BDA831B4B81
:102A7800DB885B089BB21A465A2303FB02F31A4A07
:102A880082FB03125211DB17D31A9AB2134B1A8224
:102A9800124B1A8A114B5A83104B1A8A0F4B9A847D
:102AA8000E4B01229A740D4B9B7C012B04D10B4BCE
:102AB8004FF47842DA8102E0084B0022DA81074BB2
:102AC80001221A77054B1B7F012B0FD1034B4FF6C1
:102AD800E0721A830DE000BF8C0100200C01002079
:102AE800ABAAAAAAABAAAA2A1F85EB51414B00227E
:102AF8001A83404B012283F826203E4B93F8263058
:102B0800012B04D13B4B4FF4FC625A8402E0394B51
:102B180000225A84374B5B891846364B9B891946E5
:102B2800344BDA89334B1B8A1C46324B9B7C00930F
:102B38002346FFF718FC2F4B9B8A18462D4BDB8A40
:102B480019462C4B1A8B2B4B5B8B1C46294B1B7F36
:102B580000932346FFF707FC264BDB8B1846254BD3
:102B68001B8C1946234B5A8C224B9B8C1C46214BA1
:102B780093F8263000932346FFF7F5FB1D4B0222FE
:102B880083F82E201B4B4FF6FF721A86194B002232
:102B98005A86184B202283F83420164B1A88154B76
:102BA8001A85144B5A88134B93F834309BB2D31AB6
:102BB8009AB2104B5A850F4B63229A850D4B188D8C
:102BC8000C4B5C8D0B4B9D8D0A4B93F82E60094B7B
:102BD8001B8E084A528E074991F8341002910192CF
:102BE800009333462A462146FFF7DAF800BF043738
:102BF800BD46F0BD0C01002090B585B002AF03467C
:102C08000A46FB711346BB71FB79002B57D1BB7980
:102C180003F00103002B04D05B4B4FF47842DA81B8
:102C280002E0594B0022DA81BB7903F00203002B42
:102C380004D0554B4FF6E0721A8302E0524B002243
:102C48001A83BB7903F00403002B04D04E4B4FF4D6
:102C5800FC625A8402E04C4B00225A844A4B5B893E
:102C68001846494B9B891946474BDA89464B1B8ABC
:102C78001C46012300932346FFF775FB424B9B8AB2
:102C88001846414BDB8A19463F4B1A8B3E4B5B8BF0
:102C98001C46012300932346FFF765FB3A4BDB8B69
:102CA8001846394B1B8C1946374B5A8C364B9B8C24
:102CB8001C46012300932346FFF755FB5FE0BB79D1
:102CC80003F00103002B04D0304B4FF47842DA8133
:102CD80005E02E4B00221A832C4B00225A84BB7924
:102CE80003F00203002B04D0284B4FF6E0721A833E
:102CF80005E0264B0022DA81244B00225A84BB7956
:102D080003F00403002B04D0204B4FF4FC625A84D8
:102D180005E01E4B00221A831C4B0022DA811B4B54
:102D28005B891846194B9B891946184BDA89174B4A
:102D38001B8A1C46012300932346FFF714FB134B01
:102D48009B8A1846114BDB8A1946104B1A8B0F4B7E
:102D58005B8B1C46012300932346FFF704FB0B4BB8
:102D6800DB8B1846094B1B8C1946084B5A8C074BB2
:102D78009B8C1C46012300932346FFF7F4FA00BFFF
:102D88000C37BD4690BD00BF8C0100200C0100200F
:102D980080B588B004AFF860B9607A607B68042BAE
:102DA80005D07B68032B02D07B68022B10D17B688F
:102DB8009AB22023029348F2304301934FF47843A8
:102DC800009301234FF48C718C20FEF7E9FF0FE08C
:102DD8007B689AB22023029348F2304301934FF460
:102DE8007843009301234FF48C718C20FEF7D8FFB1
:102DF800FB689AB2044B9A85BB689AB2034B9A85D2
:102E080000BF1037BD4680BD8C0100200C0100209A
:102E1800F0B585B004AF002302932023019348F254
:102E2800304300934FF478431C4A4FF48C713C2094
:102E3800FFF706FB1A4B188D194B5C8D184B9D8DAF
:102E4800174B93F82E60164B1B8E154A528E144959
:102E580091F8341002910192009333462A46214694
:102E6800FEF79EFF0F4B188D0E4B5C8D0D4B9D8D05
:102E78000C4B93F82E600B4B1B8E0A4A528E094955
:102E880091F8341002910192009333462A46214664
:102E9800FEF786FF00BF0437BD46F0BD0C5800089A
:102EA8008C0100200C01002080B500AF0B4801F018
:102EB80065FF0A21022000F0F3F84FF47A7101202F
:102EC80000F0EEF8FDF7E6FEFFF762F84FF6FF7048
:102ED800FEF740FDFFF70CFC00BF80BD4402002058
:102EE80080B584B004AF00F0D7FA00F05FF8FEF7C1
:102EF800E1FB00F049F900F033FAFEF70BFBFFF7AE
:102F0800D3FF00230393002302930023019332236A
:102F18000093F023002200210020FFF7F5FA002398
:102F280003934FF47843029300230193DC23009327
:102F3800F023322200210120FFF7E6FA0023039351
:102F48001F2302930023019332230093F0234FF4AD
:102F5800877200210220FFF7D7FA124B0093322321
:102F6800322200210A20FEF799FF01230293182339
:102F780001934FF6FF73009300230B4A14213C2062
:102F8800FFF75EFA022000F0E9F80346002B05D1AE
:102F98000A21022000F084F8FDF788FEFEF752F9B6
:102FA800F0E700BFA48700081458000880B594B063
:102FB80000AF07F1200330220021184602F004FC7C
:102FC80007F10C0300221A605A609A60DA601A61ED
:102FD8000023BB60284B1B6C274A43F080531364C3
:102FE800254B1B6C03F08053BB60BB6800237B60E0
:102FF800224B1B68214A43F4804313601F4B1B6814
:1030080003F480437B607B6802233B620123FB62FD
:1030180010233B630223BB630023FB6308233B6449
:10302800A8237B640223BB640423FB6407F1200309
:10303800184600F08FFD0346002B01D000F020F861
:103048000F23FB6002233B6100237B614FF4A053F5
:10305800BB614FF4A053FB6107F10C03052118462F
:1030680000F0F0FF0346002B01D000F009F800BF84
:103078005037BD4680BD00BF003802400070004098
:1030880080B400AF72B600BFFEE780B582B000AF73
:10309800786000F031F800BF0837BD4680BD0000F9
:1030A80080B582B000AF786039603B684FF47A72BF
:1030B80002FB03F31846FDF7C5F94FF000020C4B6D
:1030C800FDF764FB02460B4610461946FDF746FC21
:1030D800024608497B68DB000B445A60054A7B6856
:1030E800012102F8331000BF0837BD4680BD00BF7C
:1030F80000408F40C401002080B483B000AF00239B
:103108007B601FE0144A7B6812F83330002B16D01E
:10311800114A7B68DB0013445B685A1E0E497B68C2
:10312800DB000B445A600C4A7B68DB0013445B6885
:10313800002B04D1084A7B68002102F833107B6811
:1031480001337B607B68042BDCD900BF00BF0C37E0
:10315800BD465DF8047B7047C401002080B483B08D
:1031680000AF7860074A7B6812F83330012B0CBF38
:1031780001230023DBB218460C37BD465DF8047BFB
:10318800704700BFC401002080B500AF174B184A34
:103198001A60164B4FF482725A60144B00229A60E0
:1031A800124B0022DA60114B00221A610F4B0022E9
:1031B8005A610E4B4FF400729A610C4B0022DA618F
:1031C8000A4B00221A62094B00225A62074B00225E
:1031D8009A62064B0A22DA62044801F0CFF80346E5
:1031E800002B01D0FFF74CFF00BF80BDEC01002091
:1031F8000030014080B58AB000AF786007F1140351
:1032080000221A605A609A60DA601A617B681B684B
:10321800194A93422BD100233B61184B5B6C174A28
:1032280043F480535364154B5B6C03F480533B6148
:103238003B690023FB60114B1B6B104A43F00203F0
:1032480013630E4B1B6B03F00203FB60FB68382310
:103258007B610223BB610023FB6103233B620523DF
:103268007B6207F114031946054800F0BDFA00BF58
:103278002837BD4680BD00BF0030014000380240FD
:103288000004024080B483B000AF00237B60104B81
:103298005B6C0F4A43F4804353640D4B5B6C03F43F
:1032A80080437B607B6800233B60094B1B6C084AAA
:1032B80043F080531364064B1B6C03F080533B6050
:1032C8003B6800BF0C37BD465DF8047B704700BF04
:1032D8000038024080B400AFFEE780B400AFFEE7DC
:1032E80080B400AFFEE780B400AFFEE780B400AF63
:1032F800FEE780B400AF00BFBD465DF8047B7047B1
:1033080080B400AF00BFBD465DF8047B704780B451
:1033180000AF00BFBD465DF8047B704780B500AFC5
:1033280000F00CF900BF80BD80B500AF024801F085
:1033380095FD00BF80BD00BF4402002080B400AFEF
:10334800064BD3F88830054A43F47003C2F8883036
:1033580000BFBD465DF8047B704700BF00ED00E08C
:1033680080B586B000AF07F1080300221A605A60E2
:103378009A60DA603B4600221A605A601D4B4FF093
:1033880080421A601B4B53225A601A4B00229A60E3
:10339800184B40F2E732DA60164B00221A61154BDF
:1033A80000229A61134801F099FC0346002B01D0D2
:1033B800FFF766FE4FF48053BB6007F10803194618
:1033C8000C4801F053FE0346002B01D0FFF758FECE
:1033D80000233B6000237B603B461946054802F00A
:1033E8006FF80346002B01D0FFF74AFE00BF1837DD
:1033F800BD4680BD4402002080B584B000AF78602F
:103408007B681B68B3F1804F15D10023FB600C4B20
:103418001B6C0B4A43F001031364094B1B6C03F04C
:103428000103FB60FB68002200211C2000F0A5F9C5
:103438001C2000F0BEF900BF1037BD4680BD00BF9C
:1034480000380240DFF834D00D480E490E4A0023F8
:1034580002E0D458C4500433C4188C42F9D30B4A40
:103468000B4C002301E013600432A242FBD3FFF7A8
:1034780065FF02F085F9FFF733FD70470000022071
:1034880000000020300000204C9B00083000002085
:1034980090020020FEE7000080B500AF0E4B1B68CD
:1034A8000D4A43F4007313600B4B1B680A4A43F43C
:1034B80080631360084B1B68074A43F480731360EA
:1034C800032000F04FF90F2000F008F8FFF7DAFEAC
:1034D8000023184680BD00BF003C024080B582B082
:1034E80000AF7860124B1A68124B1B7819464FF4DC
:1034F8007A73B3FBF1F3B2FBF3F3184600F067F904
:103508000346002B01D001230EE07B680F2B0AD85D
:10351800002279684FF0FF3000F02FF9064A7B68E7
:103528001360002300E0012318460837BD4680BD1C
:10353800240000202C0000202800002080B400AFC8
:10354800064B1B781A46064B1B681344044A136043
:1035580000BFBD465DF8047B704700BF2C0000200B
:103568008C02002080B400AF034B1B681846BD4690
:103578005DF8047B704700BF8C02002080B584B0E2
:1035880000AF7860FFF7EEFFB8607B68FB60FB6810
:10359800B3F1FF3F05D00A4B1B781A46FB6813446A
:1035A800FB6000BFFFF7DEFF0246BB68D31AFA686C
:1035B8009A42F7D800BF00BF1037BD4680BD00BF94
:1035C8002C00002080B485B000AF78607B6803F0E1
:1035D8000703FB600C4BDB68BB60BA684FF6FF0360
:1035E8001340BB60FB681A02BB68134343F0BF6318
:1035F80043F40033BB60044ABB68D36000BF143790
:10360800BD465DF8047B704700ED00E080B400AF74
:10361800044BDB681B0A03F007031846BD465DF838
:10362800047B704700ED00E080B483B000AF034630
:10363800FB7197F90730002B0BDBFB7903F01F02B6
:10364800074997F907305B09012000FA02F241F8AF
:10365800232000BF0C37BD465DF8047B704700BFD0
:1036680000E100E080B483B000AF03463960FB712D
:1036780097F90730002B0ADB3B68DAB20C4997F957
:1036880007301201D2B20B4483F800230AE03B68EA
:10369800DAB20849FB7903F00F03043B1201D2B2F6
:1036A8000B441A7600BF0C37BD465DF8047B7047A3
:1036B80000E100E000ED00E080B489B000AFF86000
:1036C800B9607A60FB6803F00703FB61FB69C3F12B
:1036D8000703042B28BF0423BB61FB690433062BB3
:1036E80002D9FB69033B00E000237B614FF0FF3206
:1036F800BB6902FA03F3DA43BB681A407B699A4054
:103708004FF0FF317B6901FA03F3D9437B680B4023
:10371800134318462437BD465DF8047B7047000004
:1037280080B582B000AF78607B68013BB3F1807FE1
:1037380001D301230FE00A4A7B68013B53600F2144
:103748004FF0FF30FFF78EFF054B00229A60044BC5
:1037580007221A60002318460837BD4680BD00BFFF
:1037680010E000E080B582B000AF78607868FFF7BD
:1037780029FF00BF0837BD4680BD80B586B000AFC1
:103788000346B9607A60FB7300237B61FFF73EFF55
:1037980078617A68B9687869FFF78EFF024697F909
:1037A8000F3011461846FFF75DFF00BF1837BD46BA
:1037B80080BD80B582B000AF0346FB7197F9073032
:1037C8001846FFF731FF00BF0837BD4680BD80B5FA
:1037D80082B000AF78607868FFF7A2FF034618460A
:1037E8000837BD4680BD000080B489B000AF78605E
:1037F800396000237B6100233B610023BB61002308
:10380800FB616BE10122FB6902FA03F37B613B6810
:103818001B687A6913403B613A697B699A4240F0B8
:103828005A813B685B6803F00303012B05D03B68B2
:103838005B6803F00303022B30D17B689B68BB6194
:10384800FB695B00032202FA03F3DB43BA69134006
:10385800BB613B68DA68FB695B0002FA03F3BA698B
:103868001343BB617B68BA699A607B685B68BB611C
:103878000122FB6902FA03F3DB43BA691340BB6117
:103888003B685B681B0903F00102FB6902FA03F35A
:10389800BA691343BB617B68BA695A603B685B6865
:1038A80003F00303032B17D07B68DB68BB61FB695C
:1038B8005B00032202FA03F3DB43BA691340BB61DE
:1038C8003B689A68FB695B0002FA03F3BA69134321
:1038D800BB617B68BA69DA603B685B6803F0030325
:1038E800022B23D1FB69DA087B68083253F82230AF
:1038F800BB61FB6903F007039B000F2202FA03F385
:10390800DB43BA691340BB613B681A69FB6903F082
:1039180007039B0002FA03F3BA691343BB61FB690F
:10392800DA087B680832B96943F822107B681B689B
:10393800BB61FB695B00032202FA03F3DB43BA694C
:103948001340BB613B685B6803F00302FB695B00E3
:1039580002FA03F3BA691343BB617B68BA691A6058
:103968003B685B6803F44033002B00F0B48000230D
:10397800FB60604B5B6C5F4A43F4804353645D4B70
:103988005B6C03F48043FB60FB685B4AFB699B0844
:10399800023352F82330BB61FB6903F003039B0039
:1039A8000F2202FA03F3DB43BA691340BB617B6859
:1039B800524A93422BD07B68514A934225D07B6868
:1039C800504A93421FD07B684F4A934219D07B6874
:1039D8004E4A934213D07B684D4A93420DD07B6880
:1039E8004C4A934207D07B684B4A934201D1072344
:1039F8000EE008230CE006230AE0052308E0042370
:103A080006E0032304E0022302E0012300E0002390
:103A1800FA6902F0030292009340BA691343BB614A
:103A28003549FB699B080233BA6941F823203B4BAF
:103A38001B68BB613B69DB43BA691340BB613B68E8
:103A48005B6803F48033002B03D0BA693B691343E6
:103A5800BB61324ABB691360304B5B68BB613B6931
:103A6800DB43BA691340BB613B685B6803F400330E
:103A7800002B03D0BA693B691343BB61274ABB6972
:103A88005360264B9B68BB613B69DB43BA691340B3
:103A9800BB613B685B6803F48013002B03D0BA69F1
:103AA8003B691343BB611D4ABB6993601B4BDB68D1
:103AB800BB613B69DB43BA691340BB613B685B6828
:103AC80003F40013002B03D0BA693B691343BB61AD
:103AD800124ABB69D360FB690133FB61FB690F2B99
:103AE8007FF690AE00BF00BF2437BD465DF8047B6B
:103AF800704700BF00380240003801400000024013
:103B08000004024000080240000C0240001002407D
:103B18000014024000180240001C0240003C014012
:103B280080B483B000AF78600B467B8013467B700F
:103B38007B78002B03D07A887B689A6103E07B88C6
:103B48001A047B689A6100BF0C37BD465DF8047B98
:103B58007047000080B586B000AF78607B68002BA6
:103B680001D1012364E27B681B6803F00103002B89
:103B780075D0A34B9B6803F00C03042B0CD0A04B0F
:103B88009B6803F00C03082B12D19D4B5B6803F470
:103B98008003B3F5800F0BD1994B1B6803F40033F6
:103BA800002B5BD07B685B68002B57D101233FE279
:103BB8007B685B68B3F5803F06D1914B1B68904AE0
:103BC80043F4803313601DE07B685B68B3F5A02F76
:103BD8000CD18B4B1B688A4A43F480231360884BB3
:103BE8001B68874A43F4803313600BE0844B1B68DF
:103BF800834A23F480331360814B1B68804A23F483
:103C0800802313607B685B68002B13D0FFF7AAFC46
:103C1800386108E0FFF7A6FC02463B69D31A642B1B
:103C280001D9032304E2764B1B6803F40033002B0D
:103C3800F0D014E0FFF796FC386108E0FFF792FC3B
:103C480002463B69D31A642B01D90323F0E16C4B7C
:103C58001B6803F40033002BF0D100E000BF7B6841
:103C68001B6803F00203002B63D0654B9B6803F0CD
:103C78000C03002B0BD0624B9B6803F00C03082B42
:103C88001CD15F4B5B6803F48003002B16D15C4B9F
:103C98001B6803F00203002B05D07B68DB68012B4F
:103CA80001D00123C4E1564B1B6823F0F8027B685E
:103CB8001B69DB00524913430B603AE07B68DB6801
:103CC800002B20D04F4B01221A60FFF74BFC3861C4
:103CD80008E0FFF747FC02463B69D31A022B01D9DB
:103CE8000323A5E1464B1B6803F00203002BF0D029
:103CF800434B1B6823F0F8027B681B69DB004049D3
:103D080013430B6015E03F4B00221A60FFF72AFCB3
:103D1800386108E0FFF726FC02463B69D31A022BFC
:103D280001D9032384E1364B1B6803F00203002BFF
:103D3800F0D17B681B6803F00803002B30D07B6848
:103D48005B69002B16D0304B01221A60FFF70AFC82
:103D5800386108E0FFF706FC02463B69D31A022BDC
:103D680001D9032364E1264B5B6F03F00203002BA8
:103D7800F0D015E0244B00221A60FFF7F3FB3861FE
:103D880008E0FFF7EFFB02463B69D31A022B01D983
:103D980003234DE11A4B5B6F03F00203002BF0D1B4
:103DA8007B681B6803F00403002B00F0A08000234D
:103DB800FB75134B1B6C03F08053002B0FD10023B2
:103DC800BB600F4B1B6C0E4A43F0805313640C4BC3
:103DD8001B6C03F08053BB60BB680123FB750B4B66
:103DE8001B6803F48073002B21D1084B1B68074A1A
:103DF80043F480731360FFF7B5FB386111E000BF2F
:103E08000038024000004742800E474200700040E0
:103E1800FFF7A8FB02463B69D31A022B01D90323FB
:103E280006E1854B1B6803F48073002BF0D07B6898
:103E38009B68012B06D1814B1B6F804A43F001031D
:103E480013671CE07B689B68052B0CD17B4B1B6FB1
:103E58007A4A43F004031367784B1B6F774A43F0A1
:103E6800010313670BE0754B1B6F744A23F00103C2
:103E78001367724B1B6F714A23F0040313677B6847
:103E88009B68002B15D0FFF76DFB38610AE0FFF740
:103E980069FB02463B69D31A41F28832934201D941
:103EA8000323C5E0654B1B6F03F00203002BEED024
:103EB80014E0FFF757FB38610AE0FFF753FB0246AF
:103EC8003B69D31A41F28832934201D90323AFE008
:103ED8005A4B1B6F03F00203002BEED1FB7D012B25
:103EE80005D1564B1B6C554A23F0805313647B68ED
:103EF8009B69002B00F09B80504B9B6803F00C03E0
:103F0800082B5CD07B689B69022B41D14C4B00226B
:103F18001A60FFF727FB386108E0FFF723FB02462A
:103F28003B69D31A022B01D9032381E0434B1B6859
:103F380003F00073002BF0D17B68DA697B681B6A99
:103F48001A437B685B6A9B011A437B689B6A5B0820
:103F5800013B1B041A437B68DB6A1B063749134382
:103F68004B60374B01221A60FFF7FCFA386108E012
:103F7800FFF7F8FA02463B69D31A022B01D903234B
:103F880056E02E4B1B6803F00073002BF0D04EE078
:103F98002B4B00221A60FFF7E5FA386108E0FFF7BB
:103FA800E1FA02463B69D31A022B01D903233FE009
:103FB800224B1B6803F00073002BF0D137E07B68BD
:103FC8009B69012B01D1012332E01C4B5B68FB602C
:103FD8007B689B69012B28D0FB6803F480027B680F
:103FE800DB699A4221D1FB6803F03F027B681B6AB8
:103FF8009A421AD1FA6847F6C07313407A68526A2F
:104008009201934211D1FB6803F440327B689B6AAA
:104018005B08013B1B049A4207D1FB6803F07062FE
:104028007B68DB6A1B069A4201D0012300E000236B
:1040380018461837BD4680BD007000400038024061
:104048006000474280B584B000AF786039607B6813
:10405800002B01D10123CCE0684B1B6803F0070358
:104068003A689A420CD9654B3A68D2B21A70634BD7
:104078001B6803F007033A689A4201D00123B8E0AD
:104088007B681B6803F00203002B20D07B681B6849
:1040980003F00403002B05D0594B9B68584A43F49E
:1040A800E05393607B681B6803F00803002B05D07E
:1040B800534B9B68524A43F460439360504B9B6850
:1040C80023F0F0027B689B684D4913438B607B6843
:1040D8001B6803F00103002B44D07B685B68012B4D
:1040E80007D1474B1B6803F40033002B19D1012378
:1040F8007FE07B685B68022B03D07B685B68032BDF
:1041080007D13F4B1B6803F00073002B09D1012333
:104118006FE03B4B1B6803F00203002B01D1012326
:1041280067E0374B9B6823F003027B685B68344980
:1041380013438B60FFF716FAF8600AE0FFF712FAEC
:104148000246FB68D31A41F28832934201D903230D
:104158004FE02B4B9B6803F00C027B685B689B006D
:104168009A42EBD1254B1B6803F007033A689A4241
:104178000CD2224B3A68D2B21A70204B1B6803F05B
:1041880007033A689A4201D0012332E07B681B6832
:1041980003F00403002B08D0194B9B6823F4E0526A
:1041A8007B68DB68164913438B607B681B6803F0E8
:1041B8000803002B09D0124B9B6823F460427B68EC
:1041C8001B69DB000E4913438B6000F021F802469F
:1041D8000B4B9B681B0903F00F030A49CB5C22FABF
:1041E80003F3094A1360094B1B681846FFF776F971
:1041F800002318461037BD4680BD00BF003C024072
:10420800003802402C9B00082400002028000020D1
:10421800B0B584B000AF002179600021F9600021B9
:1042280039600021B9605249896801F00C010829F8
:104238000DD0082900F29480002902D0042903D067
:104248008EE04C4BBB608EE04B4BBB608BE048492B
:10425800496801F03F0179604549496801F48001E6
:10426800002924D042494968890908464FF00001CD
:1042780040F2FF144FF0000500EA040201EA0503CA
:104288003D4901FB03F0002101FB02F144183A49C2
:10429800A2FB0101631819467B681A464FF0000318
:1042A800FCF77CFB02460B461346FB604AE0304BAA
:1042B8005B689B091A464FF0000340F2FF104FF06D
:1042C800000102EA000403EA0105204629464FF0EE
:1042D80000024FF000034B0143EAD063420110464D
:1042E8001946001B61EB05014FF000024FF0000377
:1042F8008B0143EA90638201121A63EB01034FF0CA
:1043080000004FF00001D90041EA5271D000024686
:104318000B46121945EB03034FF000004FF0000164
:10432800990241EA9251900202460B4610461946FC
:104338007B681A464FF00003FCF730FB02460B4639
:104348001346FB600A4B5B681B0C03F00303013345
:104358005B003B60FA683B68B2FBF3F3BB6002E0CA
:10436800044BBB6000BFBB6818461037BD46B0BDE4
:10437800003802400024F40040787D0180B582B006
:1043880000AF78607B68002B01D101237BE07B685C
:104398005B6A002B08D17B685B68B3F5827F09D024
:1043A8007B680022DA6105E07B6800221A617B687D
:1043B80000225A617B6800229A627B6893F8513028
:1043C800DBB2002B06D17B68002283F85020786886
:1043D800FEF710FF7B68022283F851207B681B6878
:1043E8001A687B681B6822F040021A607B685B6869
:1043F80003F482727B689B6803F404431A437B6866
:10440800DB6803F400631A437B681B6903F002034B
:104418001A437B685B6903F001031A437B689B6955
:1044280003F400731A437B68DB6903F038031A430B
:104438007B681B6A03F0800342EA03017B689B6A7E
:1044480003F400527B681B680A431A607B689B6907
:104458001B0C03F004017B685B6A03F010027B68A5
:104468001B680A435A607B681B68DA697B681B68AB
:1044780022F40062DA617B6800225A657B680122B7
:1044880083F85120002318460837BD4680BD80B503
:1044980088B002AFF860B9603B601346FB80002328
:1044A800FB75FB685B68B3F5827F12D1FB689B687C
:1044B800002B0ED1FB68042283F85120FA883B6850
:1044C80000931346BA68B968F86800F0F1F8034633
:1044D800EAE0FB6893F85030012B01D10223E3E0B6
:1044E800FB68012283F85020FFF73CF83861FB682D
:1044F80093F85130DBB2012B02D00223FB75CAE0DE
:10450800BB68002B02D0FB88002B02D10123FB756E
:10451800C1E0FB68042283F85120FB6800225A6539
:10452800FB68BA689A63FB68FA889A87FB68FA8816
:10453800DA87FB6800221A63FB6800229A86FB6808
:104548000022DA86FB6800221A64FB6800225A649B
:10455800FB689B68B3F5004F0FD1FB681B681A68AE
:10456800FB681B6822F040021A60FB681B681A6827
:10457800FB681B6822F480421A60FB681B681B6892
:1045880003F04003402B07D0FB681B681A68FB68E0
:104598001B6842F040021A60FB68DB68002B62D19E
:1045A8002EE0FB681B689B6803F00103012B15D103
:1045B800FB681B6803F10C02FB689B6B1278D2B294
:1045C8001A70FB689B6B5A1CFB689A63FB68DB8F4D
:1045D8009BB2013B9AB2FB68DA8711E0FEF7C2FF93
:1045E80002463B69D31A3A689A4203D83B68B3F14A
:1045F800FF3F02D13B68002B02D10323FB754AE041
:10460800FB68DB8F9BB2002BCBD131E0FB681B68CA
:104618009B6803F00103012B13D1FB681B68DA6860
:10462800FB689B6B92B21A80FB689B6B9A1CFB68B9
:104638009A63FB68DB8F9BB2013B9AB2FB68DA870F
:1046480011E0FEF78FFF02463B69D31A3A689A4297
:1046580003D83B68B3F1FF3F02D13B68002B02D17E
:104668000323FB7517E0FB68DB8F9BB2002BCDD1D2
:104678003A693968F86800F045FA0346002B02D019
:10468800FB6820225A65FB685B6D002B02D0012372
:10469800FB7500E000BFFB68012283F85120FB682E
:1046A800002283F85020FB7D18461837BD4680BD90
:1046B80080B58CB000AFF860B9607A607B80012368
:1046C800FB62002387F82B30FB6893F85030012BEE
:1046D80001D102238AE1FB68012283F85020FEF70A
:1046E80041FF7862FB6893F8513087F82330FB6804
:1046F8005B68FB617B887B8397F82330012B0FD0A5
:10470800FB69B3F5827F07D1FB689B68002B03D157
:1047180097F82330042B03D0022387F82B305BE172
:10472800BB68002B05D07B68002B02D07B88002B50
:1047380003D1012387F82B304EE1FB6893F8513001
:10474800DBB2042B03D0FB68052283F85120FB68F9
:1047580000225A65FB687A689A63FB687A88DA8768
:10476800FB687A889A87FB68BA681A63FB687A8854
:10477800DA86FB687A889A86FB6800221A64FB68E6
:1047880000225A64FB681B681B6803F04003402B37
:1047980007D0FB681B681A68FB681B6842F0400278
:1047A8001A60FB68DB68B3F5006F78D1FB685B685B
:1047B800002B02D07B8B012B66D1FB681B6B1A8800
:1047C800FB681B68DA60FB681B6B9A1CFB681A6342
:1047D800FB68DB8E9BB2013B9AB2FB68DA8653E03A
:1047E800FB681B689B6803F00203022B1BD1FB6864
:1047F800DB8E9BB2002B16D0FB6A012B13D1FB6812
:104808001B6B1A88FB681B68DA60FB681B6B9A1CB9
:10481800FB681A63FB68DB8E9BB2013B9AB2FB68AC
:10482800DA860023FB62FB681B689B6803F00103C0
:10483800012B19D1FB68DB8F9BB2002B14D0FB68CE
:104848001B68DA68FB689B6B92B21A80FB689B6BEB
:104858009A1CFB689A63FB68DB8F9BB2013B9AB298
:10486800FB68DA870123FB62FEF77CFE02467B6A5F
:10487800D31ABA6B9A4207D8BB6BB3F1FF3F03D088
:10488800032387F82B30A7E0FB68DB8E9BB2002B55
:10489800A6D1FB68DB8F9BB2002BA1D17CE0FB6823
:1048A8005B68002B02D07B8B012B6BD1FB681A6BEA
:1048B800FB681B680C3312781A70FB681B6B5A1C58
:1048C800FB681A63FB68DB8E9BB2013B9AB2FB68FC
:1048D800DA8657E0FB681B689B6803F00203022B2B
:1048E8001CD1FB68DB8E9BB2002B17D0FB6A012B17
:1048F80014D1FB681A6BFB681B680C3312781A70AA
:10490800FB681B6B5A1CFB681A63FB68DB8E9BB247
:10491800013B9AB2FB68DA860023FB62FB681B68DE
:104928009B6803F00103012B19D1FB68DB8F9BB255
:10493800002B14D0FB681B68DA68FB689B6BD2B24B
:104948001A70FB689B6B5A1CFB689A63FB68DB8FC9
:104958009BB2013B9AB2FB68DA870123FB62FEF740
:1049680001FE02467B6AD31ABA6B9A4203D8BB6B24
:10497800B3F1FF3F02D1BB6B002B03D1032387F8B0
:104988002B3029E0FB68DB8E9BB2002BA2D1FB68A1
:10499800DB8F9BB2002B9DD17A6AB96BF86800F067
:1049A80017F90346002B06D0012387F82B30FB6844
:1049B80020225A6510E0FB689B68002B0BD100236E
:1049C8007B61FB681B68DB687B61FB681B689B6815
:1049D8007B617B6900E000BFFB68012283F85120FE
:1049E800FB68002283F8502097F82B3018463037A0
:1049F800BD4680BD80B588B000AFF860B9603B6047
:104A08001346FB71FEF7AEFD0246BB6A9B1A3A6875
:104A18001344FB61FEF7A6FDB861394B1B685B01C7
:104A28001B0DFA6902FB03F37B6154E03B68B3F1A9
:104A3800FF3F50D0FEF796FD0246BB69D31AFA69CC
:104A48009A4202D9FB69002B3DD1FB681B685A6862
:104A5800FB681B6822F0E0025A60FB685B68B3F5EC
:104A6800827F11D1FB689B68B3F5004F04D0FB68C7
:104A78009B68B3F5806F07D1FB681B681A68FB68F1
:104A88001B6822F040021A60FB689B6AB3F5005F5E
:104A98000FD1FB681B681A68FB681B6822F4005278
:104AA8001A60FB681B681A68FB681B6842F40052AE
:104AB8001A60FB68012283F85120FB68002283F802
:104AC8005020032317E07B69002B01D10023FB61F1
:104AD8007B69013B7B61FB681B689A68BB68134074
:104AE800BA689A420CBF01230023DBB21A46FB794D
:104AF8009A429BD1002318462037BD4680BD00BF8F
:104B08002400002080B586B002AFF860B9607A60F2
:104B1800FB685B68B3F5827F11D1FB689B68B3F5CE
:104B2800004F04D0FB689B68B3F5806F07D1FB6822
:104B38001B681A68FB681B6822F040021A60FB6851
:104B48005B68B3F5827F2AD1FB689B68B3F5806FF9
:104B580012D07B680093BB6800228021F868FFF7B9
:104B680049FF0346002B2DD0FB685B6D43F0200204
:104B7800FB685A65032326E07B680093BB68002224
:104B88000121F868FFF736FF0346002B1AD0FB68AF
:104B98005B6D43F02002FB685A65032313E07B68D2
:104BA8000093BB6800220121F868FFF723FF034642
:104BB800002B07D0FB685B6D43F02002FB685A6549
:104BC800032300E0002318461037BD4680BD0000CF
:104BD80080B588B002AFF860B9607A601B4B1B687B
:104BE8001B4AA2FB03235B0D4FF47A7202FB03F30B
:104BF8007B61FB685B68B3F5827F12D17B680093A9
:104C0800BB6800228021F868FFF7F4FE0346002BFA
:104C180016D0FB685B6D43F02002FB685A650323DE
:104C28000FE07B69002B0AD07B69013B7B61FB6845
:104C38001B689B6803F08003802BF2D000E000BF64
:104C4800002318461837BD4680BD00BF2400002049
:104C5800819F5E1680B584B000AFF860B9607A6055
:104C6800FB68002B01D1012334E0FB6893F849303D
:104C7800DBB2002B06D1FB68002283F84820F868D5
:104C8800FCF70EFDFB681A68FB68083319461046E6
:104C980000F0A6FCFB681868FB689B681A46B968B0
:104CA80000F0F0FCFB685868FB689A68FB681B6BAF
:104CB800796800F025FDFB681B68FA68926853F86C
:104CC8002210FB681B68FA68926841F0010143F8FA
:104CD8002210002318461037BD4680BD80B582B02B
:104CE80000AF78607B68002B01D1012341E07B682D
:104CF80093F83D30DBB2002B06D17B68002283F8A5
:104D08003C207868FEF778FB7B68022283F83D2018
:104D18007B681A687B6804331946104600F096FAD7
:104D28007B68012283F846207B68012283F83E20B5
:104D38007B68012283F83F207B68012283F84020AA
:104D48007B68012283F841207B68012283F8422096
:104D58007B68012283F843207B68012283F8442082
:104D68007B68012283F845207B68012283F83D2077
:104D7800002318460837BD4680BD000080B485B0C2
:104D880000AF78607B6893F83D30DBB2012B01D02F
:104D980001234EE07B68022283F83D207B681B6874
:104DA800DA687B681B6842F00102DA607B681B687E
:104DB800234A934222D07B681B68B3F1804F1DD0F1
:104DC8007B681B681F4A934218D07B681B681E4A81
:104DD800934213D07B681B681C4A93420ED07B68B1
:104DE8001B681B4A934209D07B681B68194A934287
:104DF80004D07B681B68184A934211D17B681B68F2
:104E08009B6803F00703FB60FB68062B10D07B68E8
:104E18001B681A687B681B6842F001021A6007E089
:104E28007B681B681A687B681B6842F001021A607D
:104E3800002318461437BD465DF8047B704700BF51
:104E4800000001400004004000080040000C004041
:104E580000040140004001400018004080B582B0C5
:104E680000AF78607B681B681B6903F00203022BA4
:104E780022D17B681B68DB6803F00203022B1BD17D
:104E88007B681B686FF002021A617B6801221A773F
:104E98007B681B689B6903F00303002B03D07868C9
:104EA80000F0B5F905E0786800F0A7F9786800F037
:104EB800B8F97B6800221A777B681B681B6903F0C6
:104EC8000403042B22D17B681B68DB6803F004030E
:104ED800042B1BD17B681B686FF004021A617B6886
:104EE80002221A777B681B689B6903F44073002BC6
:104EF80003D0786800F08BF905E0786800F07DF958
:104F0800786800F08EF97B6800221A777B681B6846
:104F18001B6903F00803082B22D17B681B68DB6838
:104F280003F00803082B1BD17B681B686FF008028D
:104F38001A617B6804221A777B681B68DB6903F0B7
:104F48000303002B03D0786800F061F905E0786866
:104F580000F053F9786800F064F97B6800221A774A
:104F68007B681B681B6903F01003102B22D17B6838
:104F78001B68DB6803F01003102B1BD17B681B68D0
:104F88006FF010021A617B6808221A777B681B6829
:104F9800DB6903F44073002B03D0786800F037F91D
:104FA80005E0786800F029F9786800F03AF97B683C
:104FB80000221A777B681B681B6903F00103012B29
:104FC8000ED17B681B68DB6803F00103012B07D156
:104FD8007B681B686FF001021A617868FEF755F864
:104FE8007B681B681B6903F08003802B0ED17B68EC
:104FF8001B68DB6803F08003802B07D17B681B6884
:105008006FF080021A61786800F0E0FA7B681B682C
:105018001B6903F04003402B0ED17B681B68DB68DB
:1050280003F04003402B07D17B681B686FF04002F8
:105038001A61786800F0FFF87B681B681B6903F049
:105048002003202B0ED17B681B68DB6803F020034C
:10505800202B07D17B681B686FF020021A617868E3
:1050680000F0AAFA00BF0837BD4680BD80B584B0FD
:1050780000AF786039600023FB737B6893F83C309D
:10508800012B01D10223B4E07B68012283F83C2084
:105098007B68022283F83D207B681B689B68BB60A5
:1050A800BB6823F07703BB60BB6823F47F43BB6016
:1050B8007B681B68BA689A603B681B68B3F5005F39
:1050C8003ED0B3F5005F00F28780B3F5805F00F053
:1050D8008680B3F5805F7FD8702B1AD0702B7BD871
:1050E800602B50D0602B77D8502B3CD0502B73D8E6
:1050F800402B58D0402B6FD8302B64D0302B6BD836
:10510800202B60D0202B67D8002B5CD0102B5AD0D6
:1051180062E07B6818683B6899683B685A683B6836
:10512800DB6800F0ADF97B681B689B68BB60BB68F7
:1051380043F07703BB607B681B68BA689A604FE0EE
:105148007B6818683B6899683B685A683B68DB6805
:1051580000F096F97B681B689A687B681B6842F4C4
:1051680080429A603CE07B6818683B6859683B68F5
:10517800DB681A4600F00AF97B681B68502118465C
:1051880000F063F92CE07B6818683B6859683B6855
:10519800DB681A4600F029F97B681B68602118460D
:1051A80000F053F91CE07B6818683B6859683B6855
:1051B800DB681A4600F0EAF87B681B68402118464D
:1051C80000F043F90CE07B681A683B681B681946D5
:1051D800104600F03AF903E00123FB7300E000BF3A
:1051E8007B68012283F83D207B68002283F83C20FD
:1051F800FB7B18461037BD4680BD80B483B000AF36
:10520800786000BF0C37BD465DF8047B704780B4FA
:1052180083B000AF786000BF0C37BD465DF8047BF3
:10522800704780B483B000AF786000BF0C37BD46CC
:105238005DF8047B704780B483B000AF786000BF2E
:105248000C37BD465DF8047B7047000080B485B01C
:1052580000AF786039607B681B68FB607B68404AF8
:10526800934213D07B68B3F1804F0FD07B683D4ADF
:1052780093420BD07B683C4A934207D07B683B4AF9
:10528800934203D07B683A4A934208D1FB6823F0E3
:105298007003FB603B685B68FA681343FB607B68DC
:1052A8002F4A93422BD07B68B3F1804F27D07B687D
:1052B8002C4A934223D07B682B4A93421FD07B68A9
:1052C8002A4A93421BD07B68294A934217D07B68AD
:1052D800284A934213D07B68274A93420FD07B68B1
:1052E800264A93420BD07B68254A934207D07B68B5
:1052F800244A934203D07B68234A934208D1FB682F
:1053080023F44073FB603B68DB68FA681343FB6077
:10531800FB6823F080023B685B691343FB607B6892
:10532800FA681A603B689A687B68DA623B681A68B0
:105338007B689A627B680A4A934203D07B680C4A6E
:10534800934203D13B681A697B681A637B68012220
:105358005A6100BF1437BD465DF8047B704700BF33
:10536800000001400004004000080040000C00401C
:105378000004014000400140004401400048014051
:1053880000180040001C00400020004080B487B096
:1053980000AFF860B9607A60FB681B6A7B61FB68E4
:1053A8001B6A23F00102FB681A62FB689B693B6178
:1053B8003B6923F0F0033B617B681B013A691343A7
:1053C8003B617B6923F00A037B617A69BB681343FD
:1053D8007B61FB683A699A61FB687A691A6200BF67
:1053E8001C37BD465DF8047B704780B487B000AFBA
:1053F800F860B9607A60FB681B6A23F01002FB68EA
:105408001A62FB689B697B61FB681B6A3B617B696D
:1054180023F470437B617B681B037A6913437B61C8
:105428003B6923F0A0033B61BB681B013A69134346
:105438003B61FB687A699A61FB683A691A6200BF46
:105448001C37BD465DF8047B704780B485B000AF5B
:10545800786039607B689B68FB60FB6823F07003A9
:10546800FB603A68FB68134343F00703FB607B6803
:10547800FA689A6000BF1437BD465DF8047B704730
:1054880080B487B000AFF860B9607A603B60FB68B1
:105498009B687B617B6923F47F437B613B681A02CD
:1054A8007B681A43BB6813437A6913437B61FB68C3
:1054B8007A699A6000BF1C37BD465DF8047B704767
:1054C80080B485B000AF786039607B6893F83C3071
:1054D800012B01D102235AE07B68012283F83C208A
:1054E8007B68022283F83D207B681B685B68FB6051
:1054F8007B681B689B68BB60FB6823F07003FB60DC
:105508003B681B68FA681343FB607B681B68FA6892
:105518005A607B681B68214A934222D07B681B68CB
:10552800B3F1804F1DD07B681B681D4A934218D089
:105538007B681B681B4A934213D07B681B681A4A16
:1055480093420ED07B681B68184A934209D07B6847
:105558001B68174A934204D07B681B68154A93421C
:105568000CD1BB6823F08003BB603B685B68BA68FA
:105578001343BB607B681B68BA689A607B6801222A
:1055880083F83D207B68002283F83C2000231846DE
:105598001437BD465DF8047B704700BF000001402A
:1055A8000004004000080040000C004000040140D6
:1055B800004001400018004080B483B000AF78601C
:1055C80000BF0C37BD465DF8047B704780B483B0DC
:1055D80000AF786000BF0C37BD465DF8047B7047AC
:1055E80080B485B000AF786039600023FB603B6809
:1055F8001A687B6853F82230FB60FA68204B134026
:10560800FB603B685A683B689B681A433B68DB68E9
:105618001A433B681B691A433B685B691A433B683A
:105628009B691A433B68DB691A433B681B6A1A4348
:105638003B685B6A1A433B689B6A1A433B68DB6AB0
:105648001A433B68DB6B1A433B681B6B1343FA68CE
:105658001343FB603B689B68082B03D1FB6843F04E
:105668004003FB603B681A687B68F96843F82210BE
:10567800002318461437BD465DF8047B704700BF09
:105688008000F0FF80B487B000AFF860B9607A603E
:1056980000237B617B685A1CFB6853F822307B61CE
:1056A8007B6903F040437B61BB681A68BB685B6831
:1056B8001B011A43BB689B681B021A43BB68DB6863
:1056C8001B041A43BB681B69013B1B051A43BB68D3
:1056D8005B69023B1B061A43BB689B6913437A69E3
:1056E80013437B617B685A1CFB68796943F8221075
:1056F800002318461C37BD465DF8047B7047000040
:1057080080B487B000AFF860B9607A603B6000236E
:105718007B613B68B3F5804F22D1FB687A6853F808
:1057280022307B617A69154B13407B61BB681A682C
:10573800BB685B681B011A43BB689B681B021A4362
:10574800BB68DB681B041A43BB689B6913437A690F
:1057580013437B61FB687A68796943F8221005E096
:10576800FB687A686FF0704143F8221000231846EE
:105778001C37BD465DF8047B704700BF0000F0CFC2
:1057880070B50D4D0D4C641BA4100026A64209D11E
:105798000B4D0C4C00F020F8641BA4100026A64208
:1057A80005D170BD55F8043B98470136EEE755F82A
:1057B800043B98470136F2E7449B0008449B0008E5
:1057C800449B0008489B000802440346934200D1CA
:1057D800704703F8011BF9E7F8B500BFF8BC08BC2F
:1057E8009E467047F8B500BFF8BC08BC9E46704797
:1057F80053595354454D00004552524F52212121CF
:10580800000000004D4F44453A0000005452414604
:10581800464943204C494748540000000000000016
:105828000000000000000000000000000000000868
:1058380008080808080800001818000000486C2428
:10584800120000000000000000000000000000241A
:1058580024247F1212127F12121200000000081C6A
:105868002A2A0A0C1828282A2A1C080800000022BC
:10587800251515152A585454542200000000000C10
:105888001212120A76252911916E000000060604EC
:10589800030000000000000000000000004020108D
:1058A8001008080808080810102040000002040822
:1058B8000810101010101008080402000000000062
:1058C80008086B1C1C6B08080000000000000000A2
:1058D800080808087F080808080000000000000001
:1058E800000000000000000006060403000000009D
:1058F80000000000FE0000000000000000000000A2
:1059080000000000000000000606000000008040C3
:1059180040202010100808040402020000000018AB
:105928002442424242424242241800000000000839
:105938000E08080808080808083E00000000003C97
:105948004242422020100804427E00000000003C31
:105958004242201820404042221C00000000002043
:105968003028242422227E20207800000000007E97
:105978000202021A26404042221C000000000038A1
:105988002402021A26424242241800000000007E27
:105998002222101008080808080800000000003C2F
:1059A8004242422418244242423C000000000018AF
:1059B8002442424264584040241C00000000000079
:1059C800000018180000000018180000000000006F
:1059D8000000000800000000000808040000004063
:1059E80020100804020408102040000000000000F5
:1059F80000007F0000007F0000000000000000029F
:105A08000408102040201008040200000000003C98
:105A18004242464020101000181800000000001CE8
:105A2800225A555555552D42221C000000000008E9
:105A380008181414243C224242E700000000001F0A
:105A48002222221E22424242221F00000000007C25
:105A58004242010101010142221C00000000001F16
:105A68002242424242424242221F00000000003FBE
:105A78004212121E12120242423F00000000003F72
:105A88004212121E12120202020700000000003C1D
:105A98002222010101712122221C0000000000E7DE
:105AA800424242427E42424242E700000000003E3B
:105AB8000808080808080808083E00000000007CDC
:105AC80010101010101010101010110F0000007797
