:020000040800F2
:1000000000000220913F0008B1380008B73800080E
:10001000BD380008C3380008C938000800000000D7
:10002000000000000000000000000000CF380008C1
:10003000DD38000800000000EB380008F93800083F
:10004000E13F0008E13F0008E13F0008E13F000810
:10005000E13F0008E13F0008E13F0008E13F000800
:10006000E13F0008E13F0008E13F0008E13F0008F0
:10007000E13F0008E13F0008E13F0008E13F0008E0
:10008000E13F0008E13F0008E13F0008E13F0008D0
:10009000E13F0008E13F0008E13F0008E13F0008C0
:1000A000E13F0008E13F0008E13F0008E13F0008B0
:1000B00005390008E13F0008E13F0008E13F000882
:1000C000E13F0008E13F0008E13F0008E13F000890
:1000D000E13F000819390008E13F0008E13F00084E
:1000E000E13F0008E13F0008E13F0008E13F000870
:1000F000E13F0008E13F0008E13F0008E13F000860
:10010000E13F0008E13F0008E13F0008E13F00084F
:10011000E13F0008E13F0008E13F0008E13F00083F
:10012000E13F0008E13F0008E13F0008E13F00082F
:10013000E13F0008E13F0008E13F0008E13F00081F
:10014000E13F0008E13F0008E13F0008E13F00080F
:10015000E13F0008E13F0008E13F0008E13F0008FF
:10016000E13F0008E13F0008E13F0008E13F0008EF
:10017000E13F0008E13F0008E13F00080000000007
:08018000E13F0008E13F000827
:1001900010B5054C237833B9044B13B10448AFF3C1
:1001A00000800123237010BD8000002000000000AB
:1001B000848E000808B5034B1BB103490348AFF315
:1001C000008008BD0000000084000020848E00082C
:1001D00001F0FF01102A2BDB10F0070F08D010F8F8
:1001E000013B013A8B422DD010F0070F42B3F6D1FC
:1001F000F0B441EA012141EA014122F007047FF015
:1002000000070023F0E80256083C85EA010586EA6B
:10021000010685FA47F5A3FA87F586FA47F6A5FAA7
:1002200087F68EB9EED1F0BC01F0FF0102F00702B3
:1002300032B110F8013B013A83EA010313B1F8D15E
:100240000020704701387047002D06BF354603383F
:10025000073815F0010F07D1013015F4807F02BF78
:10026000013015F4C03F0130F0BC0138704700BFC9
:1002700081F0004102E000BF83F0004330B54FEA57
:1002800041044FEA430594EA050F08BF90EA020FC4
:100290001FBF54EA000C55EA020C7FEA645C7FEA57
:1002A000655C00F0E2804FEA5454D4EB5555B8BF7A
:1002B0006D420CDD2C4480EA020281EA030382EAEB
:1002C000000083EA010180EA020281EA0303362D7D
:1002D00088BF30BD11F0004F4FEA01314FF4801C50
:1002E0004CEA113102D0404261EB410113F0004F62
:1002F0004FEA03334CEA133302D0524263EB430319
:1003000094EA050F00F0A780A4F10104D5F1200EB6
:100310000DDB02FA0EFC22FA05F2801841F1000111
:1003200003FA0EF2801843FA05F359410EE0A5F1E5
:1003300020050EF1200E012A03FA0EFC28BF4CF016
:10034000020C43FA05F3C01851EBE37101F00045CC
:1003500007D54FF0000EDCF1000C7EEB00006EEBD9
:100360000101B1F5801F1BD3B1F5001F0CD3490863
:100370005FEA30004FEA3C0C04F101044FEA4452BA
:1003800012F5800F80F09A80BCF1004F08BF5FEA41
:10039000500C50F1000041EB045141EA050130BD21
:1003A0005FEA4C0C404141EB0101013C28BFB1F533
:1003B000801FE9D291F0000F04BF01460020B1FA7E
:1003C00081F308BF2033A3F10B03B3F120020CDA51
:1003D0000C3208DD02F1140CC2F10C0201FA0CF02F
:1003E00021FA02F10CE002F11402D8BFC2F1200C94
:1003F00001FA02F120FA0CFCDCBF41EA0C0190404A
:10040000E41AA2BF01EB0451294330BD6FEA040492
:100410001F3C1CDA0C340EDC04F11404C4F120027D
:1004200020FA04F001FA02F340EA030021FA04F38F
:1004300045EA030130BDC4F10C04C4F1200220FAE6
:1004400002F001FA04F340EA0300294630BD21FA24
:1004500004F0294630BD94F0000F83F4801306BFEA
:1004600081F480110134013D4EE77FEA645C18BFDE
:100470007FEA655C29D094EA050F08BF90EA020F75
:1004800005D054EA000C04BF1946104630BD91EA6D
:10049000030F1EBF0021002030BD5FEA545C05D170
:1004A0004000494128BF41F0004130BD14F58004AF
:1004B0003CBF01F5801130BD01F0004545F0FE4123
:1004C00041F470014FF0000030BD7FEA645C1ABF58
:1004D000194610467FEA655C1CBF0B46024650EA8F
:1004E000013406BF52EA033591EA030F41F40021BB
:1004F00030BD00BF90F0000F04BF0021704730B541
:100500004FF4806404F132044FF000054FF0000115
:1005100050E700BF90F0000F04BF0021704730B5D6
:100520004FF4806404F1320410F0004548BF4042AB
:100530004FF000013EE700BF42004FEAE2014FEA00
:1005400031014FEA02701FBF12F07F4393F07F4FDB
:1005500081F06051704732F07F4208BF704793F0DE
:100560007F4F04BF41F40021704730B54FF46074F1
:1005700001F0004521F000411CE700BF50EA0102F4
:1005800008BF704730B54FF000050AE050EA01029D
:1005900008BF704730B511F0004502D5404261EB0D
:1005A00041014FF4806404F132045FEA915C3FF44E
:1005B000D8AE4FF003025FEADC0C18BF03325FEAEB
:1005C000DC0C18BF033202EBDC02C2F1200300FA9C
:1005D00003FC20FA02F001FA03FE40EA0E0021FAC1
:1005E00002F11444BDE600BF70B54FF0FF0C4CF4AF
:1005F000E06C1CEA11541DBF1CEA135594EA0C0F61
:1006000095EA0C0F00F0DEF82C4481EA030621EA9B
:100610004C5123EA4C5350EA013518BF52EA0335D6
:1006200041F4801143F4801338D0A0FB02CE4FF088
:100630000005E1FB02E506F00042E0FB03E54FF0B8
:100640000006E1FB03569CF0000F18BF4EF0010EB0
:10065000A4F1FF04B6F5007F64F5407404D25FEAAC
:100660004E0E6D4146EB060642EAC62141EA55515F
:100670004FEAC52040EA5E504FEACE2EB4F1FD0CA1
:1006800088BFBCF5E06F1ED8BEF1004F08BF5FEA1F
:10069000500E50F1000041EB045170BD06F00046D1
:1006A00046EA010140EA020081EA0301B4EB5C047E
:1006B000C2BFD4EB0C0541EA045170BD41F4801176
:1006C0004FF0000E013C00F3AB8014F1360FDEBF9B
:1006D000002001F0004170BDC4F10004203C35DA77
:1006E0000C341BDC04F11404C4F1200500FA05F3FA
:1006F00020FA04F001FA05F240EA020001F000429B
:1007000021F0004110EBD37021FA04F642EB060110
:100710005EEA430E08BF20EAD37070BDC4F10C043A
:10072000C4F1200500FA04F320FA05F001FA04F2FE
:1007300040EA020001F0004110EBD37041F10001EA
:100740005EEA430E08BF20EAD37070BDC4F12005F5
:1007500000FA05F24EEA020E20FA04F301FA05F25D
:1007600043EA020321FA04F001F0004121FA04F205
:1007700020EA020000EBD3705EEA430E08BF20EAD5
:10078000D37070BD94F0000F0FD101F0004640000F
:1007900041EB010111F4801F08BF013CF7D041EA91
:1007A000060195F0000F18BF704703F00046520095
:1007B00043EB030313F4801F08BF013DF7D043EA66
:1007C0000603704794EA0C0F0CEA135518BF95EA1C
:1007D0000C0F0CD050EA410618BF52EA4306D1D1A3
:1007E00081EA030101F000414FF0000070BD50EAC2
:1007F000410606BF1046194652EA430619D094EA4C
:100800000C0F02D150EA013613D195EA0C0F05D135
:1008100052EA03361CBF104619460AD181EA030189
:1008200001F0004141F0FE4141F470014FF0000041
:1008300070BD41F0FE4141F4780170BD70B54FF0DC
:10084000FF0C4CF4E06C1CEA11541DBF1CEA13555C
:1008500094EA0C0F95EA0C0F00F0A7F8A4EB05043E
:1008600081EA030E52EA03354FEA013100F0888035
:100870004FEA03334FF0805545EA131343EA1263FE
:100880004FEA022245EA111545EA10654FEA0026B3
:100890000EF000419D4208BF964244F1FD0404F56C
:1008A000407402D25B084FEA3202B61A65EB0305C8
:1008B0005B084FEA32024FF480104FF4002CB6EB85
:1008C000020E75EB030E22BFB61A754640EA0C0005
:1008D0005B084FEA3202B6EB020E75EB030E22BF45
:1008E000B61A754640EA5C005B084FEA3202B6EB86
:1008F000020E75EB030E22BFB61A754640EA9C0045
:100900005B084FEA3202B6EB020E75EB030E22BF14
:10091000B61A754640EADC0055EA060E18D04FEAD2
:10092000051545EA16754FEA06164FEAC30343EA72
:1009300052734FEAC2025FEA1C1CC0D111F4801F3F
:100940000BD141EA00014FF000004FF0004CB6E738
:1009500011F4801F04BF01430020B4F1FD0C88BFD7
:10096000BCF5E06F3FF6AFAEB5EB030C04BFB6EBE2
:10097000020C5FEA500C50F1000041EB045170BDD5
:100980000EF0004E4EEA113114EB5C04C2BFD4EB02
:100990000C0541EA045170BD41F480114FF0000E86
:1009A000013C90E645EA060E8DE60CEA135594EA02
:1009B0000C0F08BF95EA0C0F3FF43BAF94EA0C0F05
:1009C0000AD150EA01347FF434AF95EA0C0F7FF47A
:1009D00025AF104619462CE795EA0C0F06D152EACE
:1009E00003353FF4FDAE1046194622E750EA4106B2
:1009F00018BF52EA43067FF4C5AE50EA41047FF4C3
:100A00000DAF52EA43057FF4EBAE12E74A0011D274
:100A100012F5001211D20DD56FF47873B3EB625258
:100A20000ED44FEAC12343F0004343EA505323FA64
:100A300002F070474FF00000704750EA013002D1D9
:100A40004FF0FF3070474FF00000704753B94AB97C
:100A5000002908BF00281CBF4FF0FF314FF0FF30C6
:100A600000F06EB9ADF1080C6DE904CE00F006F8A7
:100A7000DDF804E0DDE9022304B070472DE9F0471A
:100A8000089D04468C46002B40F083808A4217461E
:100A900047D9B2FA82F242B1C2F1200024FA00F042
:100AA0009140974040EA010C94404FEA1748230CCC
:100AB000BCFBF8F61FFA87FE08FB16C143EA0143A8
:100AC00006FB0EF1994209D9FB1806F1FF3080F0C0
:100AD0001981994240F21681023E3B445B1AA4B24E
:100AE000B3FBF8F008FB103344EA034400FB0EFEAE
:100AF000A64509D93C1900F1FF3380F00581A645D0
:100B000040F2028102383C4440EA0640A4EB0E0465
:100B100000261DB1D4400023C5E900433146BDE89D
:100B2000F08702B9FFDEB2FA82F2002A50D1CB1B65
:100B30004FEA174E1FFA87F80126B3FBFEFC210C83
:100B40000EFB1C3341EA034108FB0CF38B4207D92F
:100B500079180CF1FF3002D28B4200F2E980844612
:100B6000C91AA3B2B1FBFEF00EFB101143EA014417
:100B700008FB00F8A04507D93C1900F1FF3302D269
:100B8000A04500F2D9801846A4EB080440EA0C40C6
:100B9000BFE78B4209D9002D00F0B1800026C5E9DE
:100BA000000130463146BDE8F087B3FA83F6002EE7
:100BB0004AD18B4202D3824200F2B880841A61EBA0
:100BC000030101208C46002DA8D0C5E9004CA5E703
:100BD000C2F1200320FA03F6974001FA02F04FEA2F
:100BE000174ED9403043030CB1FBFEF61FFA87F8CD
:100BF0000EFB161143EA014306FB08F1994204FA81
:100C000002F409D9FB1806F1FF3C80F08D8099426F
:100C100040F28A80023E3B445B1A81B2B3FBFEF095
:100C20000EFB103341EA034100FB08F38B4207D966
:100C3000791800F1FF3C73D28B4271D902383944E4
:100C4000CB1A40EA064678E7C6F1200C03FA06F410
:100C500022FA0CF31C4320FA0CF701FA06F34FEAD0
:100C6000144E21FA0CF11F433B0CB1FBFEF91FFAA5
:100C700084F80EFB191143EA014109FB08FA8A4581
:100C800002FA06F200FA06F308D9611809F1FF30FA
:100C900048D28A4546D9A9F102092144A1EB0A01AB
:100CA000BFB2B1FBFEF00EFB101147EA014700FB9B
:100CB00008F8B84507D9E71900F1FF312ED2B84539
:100CC0002CD90238274440EA0940A7EB0807A0FBCB
:100CD00002894F45C64649461AD317D05DB1B3EBDA
:100CE0000E0267EB010707FA0CFCF2404CEA020225
:100CF000F740C5E9002700263146BDE8F0872E46BB
:100D000028460BE70646E9E61846FDE64345E5D2E8
:100D1000B8EB020E69EB04010138DFE70846D2E7C1
:100D200060468DE78146B9E7664675E730464AE793
:100D3000ACF1020C394413E702383C4424E700BF0D
:100D4000704700BF80B500AF01220821024803F0C0
:100D50001FFD00BF80BD00BF000C024080B584B005
:100D600000AF002208212F4803F012FD01220821C4
:100D70002C4803F00DFD0A2302222B492B4805F0D5
:100D8000E0FA0023FB604FF400437B8100237B608B
:100D90003FE07B68002B06DB7B68032B03DC7B6872
:100DA0000433FB6018E07B68032B07DD7B68072BAF
:100DB00004DC7B68C3F10703FB600DE07B68072B55
:100DC00006DD7B680B2B03DC7B680433FB6003E0F0
:100DD0007B68C3F11703FB60134B1A887B891340B0
:100DE0009BB2002B05D0124AFB68002122F8131099
:100DF00009E00F4AFB6832F81330013399B20C4A0C
:100E0000FB6822F813107B895B087B817B680133C8
:100E10007B607B680F2BBCDD00BF00BF1037BD4679
:100E200080BD00BF000C02409C0000207402002026
:100E30002C01002080B483B000AF0346FB71FB7926
:100E4000102B01D9002308E0FB79074A32F8133050
:100E5000002B14BF01230023DBB218460C37BD461C
:100E60005DF8047B704700BF2C01002080B483B084
:100E700000AF0346FB71FB79102B01D9002308E07A
:100E8000FB79074A32F81330C72B01D8002300E062
:100E9000012318460C37BD465DF8047B704700BF40
:100EA0002C01002080B500AF1E2003F04DF8034652
:100EB0001A461C4B1A70162003F046F803461A46D1
:100EC000184B5A70152003F03FF803461A46154B8D
:100ED0009A70062003F038F803461A46114BDA7070
:100EE0000F2003F031F803461A460E4B1A71092001
:100EF00003F02AF803461A460A4B5A71172003F0EA
:100F000023F803461A46074B9A7132230322D02155
:100F1000054804F0BBF80346002B00D0FEE700BFF5
:100F200080BD00BF54010020AC01002080B588B016
:100F300004AF03460A46FB711346BB71BB791846E2
:100F400003F002F80346FB73FB799AB20A2302937B
:100F50000123019307F10F0300930123D0210348DC
:100F600003F074FD00BF1037BD4680BDAC0100200A
:100F700080B584B004AF0A23029307230193254B65
:100F8000009301230022D021234803F059FE214B76
:100F90001B78184602F0BEFF03461A461F4B1A7014
:100FA0001C4B5B78184602F0B5FF03461A461C4BF3
:100FB0001A70184B9B78184602F0ACFF03461A468D
:100FC000184B1A70134BDB78184602F0A3FF034648
:100FD0001A46154B1A700F4B1B79184602F09AFFF0
:100FE00003461A46114B1A700A4B5B79184602F0F9
:100FF00091FF03461A460E4B1A70064B9B79184612
:1010000002F088FF03461A460A4B1A7000BFBD461D
:1010100080BD00BF54010020AC0100204C01002025
:101020004E01002051010020500100204F010020FE
:10103000520100204D01002080B58EB000AF07F1B5
:101040001C0300221A605A609A60DA601A615A61C1
:101050009A613B4600221A605A609A60DA601A610F
:101060005A619A612F4B4FF020421A602D4B2E4A45
:101070005A602C4B00229A602A4B0022DA60294BDE
:1010800000221A61274B10225A61264B00229A61D6
:10109000244B0022DA61234B00221A62214B0022EA
:1010A0005A62204B4FF480529A621E4B0022DA6241
:1010B0001C4B4FF480421A631A4B00225A63194B9F
:1010C00000229A63174B00225A640F23FB610F23FF
:1010D0003B623C237B620023BB621023FB62112333
:1010E0003B6300237B6308233B600F237B60092362
:1010F000BB600023FB6010233B6111237B61002355
:10110000BB613A4607F11C031946064805F0FCFC92
:101110000346002B01D000F03DFE00BF3837BD462E
:1011200080BD00BF5C010020040100A080B586B036
:1011300000AF3B1D00221A605A609A60DA601A61A3
:101140001C4B1B68002B31D11A4B01221A60002363
:101150003B60194B9B6B184A43F001039363164B9A
:101160009B6B03F001033B603B684FF688737B6029
:101170000223BB600023FB6003233B610C237B61E4
:101180003B1D19460D4803F067F94CF2B3737B60C1
:101190000223BB600023FB6003233B610C237B61C4
:1011A0003B1D1946064803F057F900E000BF183709
:1011B000BD4680BDA0000020003802400010024063
:1011C000000C024080B582B000AF7860FFF7AEFF40
:1011D00000BF0837BD4680BD80B58CB000AF07F1B9
:1011E0001C0300221A605A609A60DA601A610023B8
:1011F000BB615A4B1B6B594A43F010031363574BA7
:101200001B6B03F01003BB61BB6900237B61534B75
:101210001B6B524A43F004031363504B1B6B03F0E8
:1012200004037B617B6900233B614C4B1B6B4B4A86
:1012300043F080031363494B1B6B03F080033B6156
:101240003B690023FB60454B1B6B444A43F008039A
:101250001363424B1B6B03F00803FB60FB68002326
:10126000BB603E4B1B6B3D4A43F0400313633B4B5B
:101270001B6B03F04003BB60BB6800237B60374BF4
:101280001B6B364A43F001031363344B1B6B03F0B3
:1012900001037B607B6800233B60304B1B6B2F4A54
:1012A00043F0020313632D4B1B6B03F002033B60FF
:1012B0003B6800224FF40051294803F069FA0022EC
:1012C0004021284803F064FA00224FF48071264838
:1012D00003F05EFA00220821244803F059FA4FF483
:1012E0000053FB6101233B6200237B620023BB624E
:1012F00007F11C0319461A4803F0AEF84023FB61BE
:1013000001233B6200237B620023BB6207F11C03C5
:101310001946144803F0A0F84FF48073FB610123D1
:101320003B6200237B620023BB6207F11C0319466A
:101330000D4803F091F80823FB6101233B62002371
:101340007B620023BB6207F11C031946074803F0C8
:1013500083F800BF3037BD4680BD00BF0038024073
:10136000000802400018024000000240000C024049
:1013700080B500AF124B134A1A60114B124A5A60E3
:101380000F4B00229A600E4B0022DA600C4B4FF498
:1013900080421A610A4B00225A61094B00229A616D
:1013A000074B0022DA61064B00221A62044803F060
:1013B00009FA0346002B01D000F0ECFC00BF80BD11
:1013C000AC01002000540040A086010080B58AB026
:1013D00000AF786007F1140300221A605A609A6027
:1013E000DA601A617B681B68194A93422BD100238B
:1013F0003B61184B1B6B174A43F002031363154BF9
:101400001B6B03F002033B613B69C0237B6112232A
:10141000BB610023FB6103233B6204237B6207F172
:10142000140319460C4803F017F80023FB60094B1E
:101430001B6C084A43F400131364064B1B6C03F443
:101440000013FB60FB6800BF2837BD4680BD00BFAE
:1014500000540040003802400004024080B483B0D1
:1014600000AF0346FB80044AFB88138000BF0C37A3
:10147000BD465DF8047B7047FEFF0F6080B483B00B
:1014800000AF0346FB80044AFB88538000BF0C3743
:10149000BD465DF8047B7047FEFF0F6080B483B0EB
:1014A00000AF064B5B889BB2FB80FB889BB2184663
:1014B0000C37BD465DF8047B704700BFFEFF0F6030
:1014C00090B583B000AF0446084611461A4623463D
:1014D000FB800346BB800B467B8013463B802A2063
:1014E000FFF7BCFFFB881B0A9BB21846FFF7C6FF3D
:1014F000FB88DBB29BB21846FFF7C0FF7B881B0A54
:101500009BB21846FFF7BAFF7B88DBB29BB2184646
:10151000FFF7B4FF2B20FFF7A1FFBB881B0A9BB28C
:101520001846FFF7ABFFBB88DBB29BB21846FFF74C
:10153000A5FF3B881B0A9BB21846FFF79FFF3B881D
:10154000DBB29BB21846FFF799FF2C20FFF786FF0E
:1015500000BF0C37BD4690BD80B584B000AF0346D8
:10156000FB80154B1B88013B9AB2134B5B88013BF8
:101570009BB200210020FFF7A3FF0023FB8111E0B5
:101580000023BB8106E0FB881846FFF777FFBB8985
:101590000133BB81084B5B88BA899A42F3D3FB893C
:1015A0000133FB81044B1B88FA899A42E8D300BFC0
:1015B00000BF1037BD4680BD0002002080B582B05C
:1015C00000AF0346FB800B46BB8013467B80BB8885
:1015D000FA88B988F888FFF773FF7B881846FFF709
:1015E0004DFF00BF0837BD4680BD000090B587B0F5
:1015F00000AF0446084611461A462346FB800346C0
:10160000BB800B46FB7013463B8000237B75FB8839
:101610003B8297F82C305B08FB73FB7BDB08DBB26B
:101620001A46FB7B03F00703DBB2002B14BF012338
:101630000023DBB213449AB297F82C309BB212FB12
:1016400003F3BB81FB78203BFB70FB7B9AB2FB88EA
:1016500013449BB2013B9CB297F82C309AB2BB88E2
:1016600013449BB2013B9BB2B988F8882246FFF72E
:1016700027FF00237B827AE097F82C300C2B28D0B0
:1016800097F82C30102B08D1FA787B8A3C4912014C
:101690000A4413441B78FB751BE097F82C30182B79
:1016A0000BD1FA78798A374813465B0013441B0143
:1016B00003440B441B78FB750BE097F82C30202B70
:1016C0005AD1FA787B8A304992010A4413441B7834
:1016D000FB750023BB7544E097F83030002B20D118
:1016E000FA7DBB7D42FA03F303F00103002B04D023
:1016F0003B881846FFF7C2FE03E03B8D1846FFF714
:10170000BDFE7B7D01337B757B7DFA7BB3FBF2F104
:1017100002FB01F29B1ADBB2002B1FD100237B7569
:1017200022E0FA7DBB7D42FA03F303F00103002BB4
:1017300005D03A88B988FB881846FFF73FFFFB8839
:101740000133FB80FA883B8AD21AFB7B9A4205D18F
:101750003B8AFB80BB880133BB8005E0BB7D013346
:10176000BB75BB7D072BB7D97B8A01337B827A8A15
:10177000BB899A4280D300E000BF1C37BD4690BDB4
:1017800000900008F0950008C0A7000880B485B05C
:1017900000AF03460A46FB711346BB710123FB6091
:1017A00004E0FA79FB6802FB03F3FB60BB795A1E85
:1017B000BA71002BF5D1FB6818461437BD465DF8A9
:1017C000047B704790B589B004AF044608461146C3
:1017D0001A462346FB800346BB800B467B8013469C
:1017E0007B700023BB7397F828305B087B73002362
:1017F000FB7359E07C887A78FB7BD31ADBB2013B20
:10180000DBB219460A20FFF7C1FF0346B4FBF3F130
:101810002A4BA3FB0123DA0813469B0013445B0009
:10182000CA1A13463B73BB7B002B21D1FA7B7B7812
:10183000013B9A421CDA3B7B002B17D1FB7B9AB20F
:101840007B7B9BB212FB03F39AB2FB88134498B2E2
:101850003A8CB9880023029397F828300193BB8C07
:10186000009313462022FFF7C1FE1AE00123BB7349
:10187000FB7B9AB27B7B9BB212FB03F39AB2FB8891
:10188000134498B23B7B3033DAB23C8CB9880023E6
:10189000029397F828300193BB8C00932346FFF7FF
:1018A000A5FEFB7B0133FB73FA7B7B789A42A1D3C5
:1018B00000BF00BF1437BD4690BD00BFCDCCCCCC1F
:1018C00080B483B000AF0346FB71FB791B09DBB228
:1018D00003F00303DBB2002B07D00A4B4FF4A072D6
:1018E0001A80084BF0225A8006E0064BF0221A803C
:1018F000044B4FF4A0725A8000BF0C37BD465DF810
:10190000047B70470002002080B500AF00224FF436
:101910000051AA4802F03CFF4FF4FA7002F0D4FBE9
:1019200001224FF40051A54802F032FF4FF4FA7043
:1019300002F0CAFB0020FFF7C3FFD320FFF78EFDA4
:10194000FFF7ACFD03461A469D4B9A80FFF7A6FDB4
:1019500003461A469A4B9A80FFF7A0FD03461A46A3
:10196000974B9A80964B9B881B029AB2944B9A8015
:10197000FFF794FD03461A46914B9B8813439AB296
:101980008F4B9A80CF20FFF769FD0020FFF776FD8F
:10199000C120FFF773FD3020FFF770FDED20FFF74A
:1019A0005DFD6420FFF76AFD0320FFF767FD12204D
:1019B000FFF764FD8120FFF761FDE820FFF74EFD92
:1019C0008520FFF75BFD1020FFF758FD7A20FFF719
:1019D00055FDCB20FFF742FD3920FFF74FFD2C20AE
:1019E000FFF74CFD0020FFF749FD3420FFF746FDCF
:1019F0000220FFF743FDF720FFF730FD2020FFF71F
:101A00003DFDEA20FFF72AFD0020FFF737FD00200B
:101A1000FFF734FDC020FFF721FD1B20FFF72EFD4F
:101A2000C120FFF71BFD0120FFF728FDC520FFF7B0
:101A300015FD3020FFF722FD3020FFF71FFDC720E6
:101A4000FFF70CFDB720FFF719FD3620FFF706FD65
:101A50000820FFF713FD3A20FFF700FD5520FFF7A0
:101A60000DFDB120FFF7FAFC0020FFF707FD1A205B
:101A7000FFF704FDB620FFF7F1FC0A20FFF7FEFC9C
:101A8000A220FFF7FBFCF220FFF7E8FC0020FFF7A5
:101A9000F5FC2620FFF7E2FC0120FFF7EFFCE02039
:101AA000FFF7DCFC0F20FFF7E9FC2A20FFF7E6FC3C
:101AB0002820FFF7E3FC0820FFF7E0FC0E20FFF7EB
:101AC000DDFC0820FFF7DAFC5420FFF7D7FCA92043
:101AD000FFF7D4FC4320FFF7D1FC0A20FFF7CEFC30
:101AE0000F20FFF7CBFC0020FFF7C8FC0020FFF71A
:101AF000C5FC0020FFF7C2FC0020FFF7BFFCE1207F
:101B0000FFF7ACFC0020FFF7B9FC1520FFF7B6FC8F
:101B10001720FFF7B3FC0720FFF7B0FC1120FFF7F9
:101B2000ADFC0620FFF7AAFC2B20FFF7A7FC5620F0
:101B3000FFF7A4FC3C20FFF7A1FC0520FFF79EFC6B
:101B40001020FFF79BFC0F20FFF798FC3F20FFF7CA
:101B500095FC3F20FFF792FC0F20FFF78FFC2B2016
:101B6000FFF77CFC0020FFF789FC0020FFF786FCD4
:101B70000120FFF783FC3F20FFF780FC2A20FFF7BE
:101B80006DFC0020FFF77AFC0020FFF777FC0020B7
:101B9000FFF774FCEF20FFF771FC1120FFF75EFCEC
:101BA000782002F091FA2920FFF758FC01224FF427
:101BB0008071044802F0ECFD00BF80BD00080240C7
:101BC000000200200000024090B58BB004AFBA6064
:101BD0001A460346FB810B46BB811346FB80FB89FB
:101BE000BB820023FB7548E0FB7D002B45D1FA89C1
:101BF000264B1B88194697F82C305B08DBB2CB1AB2
:101C00009A423FDCBA89214B5B88194697F82C3001
:101C1000CB1A9A4236DCBB681B78802B02D9012391
:101C2000FB752AE0BB681B780D2B0BD197F82C3085
:101C30009AB2BB891344BB81BB8AFB81BB68013369
:101C4000BB6017E0BB681A78FC88B989F88997F8F7
:101C50003030029397F82C3001933B8D009323464C
:101C6000FFF7C4FC97F82C305B08DBB29AB2FB8913
:101C70001344FB81BB680133BB60BB681B78002B3E
:101C8000B2D100E000BF1C37BD4690BD000200206D
:101C900080B500AF02F0A6F900F012F8FFF79CFA49
:101CA000FFF7CAF9FFF764FB02F0BAF801F05AFD3A
:101CB00001F0B6FE01F070FE01F08AFEFCE70000C4
:101CC00080B594B000AF07F1200330220021184600
:101CD00006F0A2FC07F10C0300221A605A609A6019
:101CE000DA601A610023BB60284B1B6C274A43F063
:101CF00080531364254B1B6C03F08053BB60BB689F
:101D000000237B60224B1B68214A43F4804313600D
:101D10001F4B1B6803F480437B607B6802233B629C
:101D20000123FB6210233B630223BB630023FB639D
:101D300008233B64A8237B640223BB640423FB6465
:101D400007F12003184603F02BFE0346002B01D0B9
:101D500000F020F80F23FB6002233B6100237B612E
:101D60004FF4A053BB614FF4A053FB6107F10C0388
:101D70000521184604F08CF80346002B01D000F032
:101D800009F800BF5037BD4680BD00BF0038024093
:101D90000070004080B400AF72B600BFFEE70000E4
:101DA00080B584B004AF214B1A78214B1B789A423E
:101DB0002CD1204B1A78204B1B789A4226D11F4BEE
:101DC0001A781F4B1B789A4220D11E4B1A781E4B53
:101DD0001B789A421AD11D4B1A781D4B1B789A42D8
:101DE00014D11C4B1A781C4B1B789A420ED100233D
:101DF0000293182301934FF4784300934FF6FF7337
:101E0000164AC8210A20FFF7DFFE0CE000230293E8
:101E100018230193002300930023104AC8210A20AD
:101E2000FFF7D2FE00BF00BFBD4680BD0C00002002
:101E3000060000200B000020050000200A00002002
:101E400004000020090000200300002008000020FA
:101E50000200002007000020010000209C8E0008E6
:101E600080B500AF154B1B78032B23D801A252F885
:101E700023F000BF851E0008971E0008A11E000861
:101E8000AB1E000801F012F801F050F8FFF788FFD0
:101E900000F0B0FD0EE000F0E1FB00F0ABFD09E06A
:101EA00000F05AFA00F0A6FD04E000F009F800F096
:101EB000BFF900BF01F076F800BF80BDA40000208C
:101EC00080B584B004AF524B1B78022B50D0022B4C
:101ED00000F39B80002B02D0012B28D095E001203D
:101EE00001F02AFC0346002B40F08E80494B1B7802
:101EF0000133DAB2474B1A7042F21071012001F03F
:101F0000BDFB444B1B78032B7ED100230293182387
:101F100001934FF4784300934FF6FF733E4A1E211E
:101F20001420FFF751FE3D4B00221A706CE03C4834
:101F300001F090FE0346002B0CD0394B1B88DBB21E
:101F4000184600F0F1F80346002B03D0304B022274
:101F50001A705AE02F4B00221A7042F210710120C1
:101F600001F08CFB01F006FE294B00221A704CE0B8
:101F700000F05AF82B4B1B78062B39D801A252F8E7
:101F800023F000BFA11F0008AD1F0008B91F000803
:101F9000C51F0008E91F0008DD1F0008D11F000849
:101FA00001F004FE1F4B01221A7021E001F00CFE2B
:101FB0001C4B02221A701BE001F014FE194B032285
:101FC0001A7015E001F02AFE164B06221A700FE077
:101FD00001F032FE134B05221A7009E001F010FEE9
:101FE000104B04221A7003E00C4B00221A7000BF41
:101FF000084B00221A7042F21071012001F03EFBE2
:10200000034B00221A7000E000BF00BFBD4680BD38
:102010003F020020A8000020A48E0008A400002099
:10202000A6000020A500002080B500AF354B1B782E
:10203000062B65D801A252F823F000BF59200008F2
:102040007120000889200008A1200008E92000086C
:10205000D1200008B92000082B4B1B88DAB22B4B8B
:102060001A702A4B1B7819460020FEF75FFF47E0E5
:10207000254B1B88DAB2264B1A70254B1B78194664
:102080000120FEF753FF3BE01F4B1B88DAB2214BC8
:102090001A70204B1B7819460220FEF747FF2FE0ED
:1020A000194B1B88DAB21C4B1A701B4B1B78194654
:1020B0000320FEF73BFF23E0134B1B88DAB2174BDC
:1020C0001A70164B1B7819460620FEF72FFF17E0F3
:1020D0000D4B1B88DAB2124B1A70114B1B78194644
:1020E0000520FEF723FF0BE0074B1B88DAB20D4BF0
:1020F0001A700C4B1B7819460420FEF717FF00BF1F
:1021000000BF80BDA5000020A60000200000002028
:102110000100002002000020030000200600002033
:10212000050000200400002080B485B000AF034605
:10213000FB711E23FB733B4B1B78062B6AD801A255
:1021400052F823F061210008612100086B2100088A
:102150007521000893210008892100087F210008CB
:10216000FB793B2B4DD9002355E0FB79172B4AD93E
:10217000002350E0FB79072B47D900234BE0FB7984
:10218000632B44D9002346E0FB790C2B41D9002373
:1021900041E0254B1B78013B0B2B2BD801A252F8B9
:1021A00023F000BFD5210008DB210008D52100085D
:1021B000F5210008D5210008F5210008D5210008E7
:1021C000D5210008F5210008D5210008F5210008D7
:1021D000D52100081F23FB730DE0144B1B7803F07F
:1021E0000303DBB2002B02D01C23FB7303E01D238F
:1021F000FB7300E000BFFA79FB7B9A420AD9002307
:1022000009E000BF06E000BF04E000BF02E000BF3D
:1022100000E000BF012318461437BD465DF8047B7B
:10222000704700BFA5000020050000200600002028
:1022300080B584B004AF404B1B78062B79D801A23F
:1022400052F823F0612200087F2200089D22000836
:10225000BB220008D9220008F72200081523000835
:1022600000230293182301934FF4784300934FF611
:10227000FF73324A1E211420FFF7A6FC59E0002309
:102280000293182301934FF4784300934FF6FF73A2
:102290002B4A1E211420FFF797FC4AE000230293EB
:1022A000182301934FF4784300934FF6FF73254AA8
:1022B0001E211420FFF788FC3BE000230293182323
:1022C00001934FF4784300934FF6FF731E4A1E218B
:1022D0001420FFF779FC2CE00023029318230193CC
:1022E0004FF4784300934FF6FF73184A1E211420D1
:1022F000FFF76AFC1DE000230293182301934FF4BB
:10230000784300934FF6FF73114A1E211420FFF704
:102310005BFC0EE000230293182301934FF47843F3
:1023200000934FF6FF730B4A1E211420FFF74CFC5D
:1023300000BF00BFBD4680BDA5000020B88E0008CC
:10234000CC8E0008E08E0008F48E0008048F000890
:10235000188F00082C8F000880B500AFB74B1B7892
:10236000062B00F2698101A252F823F089230008AC
:10237000992300080924000879240008E9240008AA
:1023800059250008C92500080021012000F0E0FEC1
:10239000AA4B01221A704FE1A94B1B78002B02D0E7
:1023A000012B15D02AE0A74B1B780121184600F01D
:1023B0000DFF012001F0C0F90346002B1DD1A04BF9
:1023C00001221A704FF47A71012001F057F914E0DC
:1023D0009C4B1B780021184600F0F8FE012001F00C
:1023E000ABF90346002B09D1954B00221A704FF42C
:1023F0007A71012001F042F900E000BF914800F03D
:10240000F3FC00F061FB17E18D4B1B78002B02D031
:10241000012B15D02AE08C4B1B780121184600F0C7
:1024200013FF012001F088F90346002B1DD1844BD6
:1024300001221A704FF47A71012001F01FF914E0A3
:10244000814B1B780021184600F0FEFE012001F0B0
:1024500073F90346002B09D1794B00221A704FF40F
:102460007A71012001F00AF900E000BF764800F01F
:10247000BBFC00F029FBDFE0714B1B78002B02D086
:10248000012B15D02AE0714B1B780121184600F072
:1024900019FF012001F050F90346002B1DD1684BB4
:1024A00001221A704FF47A71012001F0E7F814E06C
:1024B000664B1B780021184600F004FF012001F054
:1024C0003BF90346002B09D15D4B00221A704FF4F3
:1024D0007A71012001F0D2F800E000BF5B4800F003
:1024E00083FC00F0F1FAA7E0554B1B78002B02D0DB
:1024F000012B15D02AE0564B1B780121184600F01D
:102500003BFF012001F018F90346002B1DD14C4B75
:1025100001221A704FF47A71012001F0AFF814E033
:102520004B4B1B780021184600F026FF012001F0DC
:1025300003F90346002B09D1414B00221A704FF4D6
:102540007A71012001F09AF800E000BF404800F0E5
:102550004BFC00F0B9FA6FE0394B1B78002B02D02E
:10256000012B15D02AE03B4B1B780121184600F0C7
:1025700041FF012001F0E0F80346002B1DD1304B54
:1025800001221A704FF47A71012001F077F814E0FB
:10259000304B1B780021184600F02CFF012001F081
:1025A000CBF80346002B09D1254B00221A704FF4BB
:1025B0007A71012001F062F800E000BF254800F0C8
:1025C00013FC00F081FA37E01D4B1B78002B02D082
:1025D000012B15D02AE0204B1B780121184600F072
:1025E00047FF012001F0A8F80346002B1DD1144B32
:1025F00001221A704FF47A71012001F03FF814E0C3
:10260000154B1B780021184600F032FF012001F025
:1026100093F80346002B09D1094B00221A704FF49E
:102620007A71012001F02AF800E000BF0A4800F0AA
:10263000DBFB00F049FAFFE700BF80BDA5000020EA
:1026400040020020070000200800002009000020B0
:102650000A0000200B0000200C00002080B500AF15
:10266000C04B1B78062B00F2AB8101A252F823F07D
:102670008D260008FD2600086D270008DD270008CC
:102680004D280008BD2800082D290008B64B1B78EE
:10269000002B02D0012B15D02AE0B44B1B7801216E
:1026A000184600F055FD012001F046F80346002BC6
:1026B0001DD1AD4B01221A704FF47A71012000F048
:1026C000DDFF14E0A94B1B780021184600F040FD07
:1026D000012001F031F80346002B09D1A24B002262
:1026E0001A704FF47A71012000F0C8FF00E000BFBB
:1026F0009E4800F079FB00F0E7F961E19A4B1B7806
:10270000002B02D0012B15D02AE0994B1B78012118
:10271000184600F05BFD012001F00EF80346002B87
:102720001DD1914B01221A704FF47A71012000F0F3
:10273000A5FF14E08E4B1B780021184600F046FDE3
:10274000012000F0F9FF0346002B09D1864B00223F
:102750001A704FF47A71012000F090FF00E000BF82
:10276000834800F041FB00F0AFF929E17E4B1B7874
:10277000002B02D0012B15D02AE07E4B1B780121C3
:10278000184600F061FD012000F0D6FF0346002B43
:102790001DD1754B01221A704FF47A71012000F09F
:1027A0006DFF14E0734B1B780021184600F04CFDC0
:1027B000012000F0C1FF0346002B09D16A4B002223
:1027C0001A704FF47A71012000F058FF00E000BF4A
:1027D000684800F009FB00F077F9F1E0624B1B78E4
:1027E000002B02D0012B15D02AE0634B1B7801216E
:1027F000184600F067FD012000F09EFF0346002B05
:102800001DD1594B01221A704FF47A71012000F04A
:1028100035FF14E0584B1B780021184600F052FD9C
:10282000012000F089FF0346002B09D14E4B002206
:102830001A704FF47A71012000F020FF00E000BF11
:102840004D4800F0D1FA00F03FF9B9E0464B1B7853
:10285000002B02D0012B15D02AE0484B1B78012118
:10286000184600F089FD012000F066FF0346002BAA
:102870001DD13D4B01221A704FF47A71012000F0F6
:10288000FDFE14E03D4B1B780021184600F074FD5E
:10289000012000F051FF0346002B09D1324B0022EA
:1028A0001A704FF47A71012000F0E8FE00E000BFDA
:1028B000324800F099FA00F007F981E02A4B1B78C2
:1028C000002B02D0012B15D02AE02D4B1B780121C3
:1028D000184600F08FFD012000F02EFF0346002B6C
:1028E0001DD1214B01221A704FF47A71012000F0A2
:1028F000C5FE14E0224B1B780021184600F07AFD3B
:10290000012000F019FF0346002B09D1164B0022CD
:102910001A704FF47A71012000F0B0FE00E000BFA1
:10292000174800F061FA00F0CFF849E00E4B1B7831
:10293000002B02D0012B27D03CE0124B1B78012149
:10294000184600F095FD012000F0F6FE0346002B2E
:102950002FD1054B01221A704FF47A71012000F03B
:102960008DFE26E0A500002040020020000000208F
:1029700001000020020000200300002004000020CD
:1029800005000020060000200E4B1B780021184691
:1029900000F06EFD012000F0CFFE0346002B09D1B0
:1029A000094B00221A704FF47A71012000F066FE84
:1029B00000E000BF034800F017FA00F085F8FFE7D9
:1029C00000BF80BD060000204002002080B584B01A
:1029D00004AF0023029318230193002300930023E4
:1029E000034A1E211420FFF7EFF800BFBD4680BD4B
:1029F000408F000880B500AF304B1B78002B02D011
:102A0000012B49D054E00020FEF714FA0346012BB5
:102A10003AD12B4B1B78032B30D801A252F823F06C
:102A2000312A0008432A0008552A0008752A0008A0
:102A300000F07CFA224B01221A70224B00221A70FD
:102A40001CE000F00BFB1F4B00221A701C4B0222F3
:102A50001A7013E000F06AFA01F09AF8194B00229C
:102A60001A70174B03221A7042F21071012000F005
:102A700005FE03E0124B00221A7000BFFFF7A6FF0D
:102A80000E4B01221A7015E00020FEF7D3F9034621
:102A9000012B0FD100230FE00020FEF7CBF90346F6
:102AA000002B03D1054B00221A7004E0002303E041
:102AB000002301E000BF0123184680BD3C02002036
:102AC000A4000020A500002080B500AF604B9B78DB
:102AD000002B03D0012B00F0A980B3E00C20FEF7FF
:102AE000A9F90346012B40F099805A4B1B78012B22
:102AF0005DD1594B1B78062B56D801A252F823F012
:102B00001D2B0008312B0008452B0008592B00080D
:102B1000952B0008812B00086D2B00084F4B1B786C
:102B200019460020FEF702FA4B4B01221A703BE0D7
:102B30004B4B1B7819460120FEF7F8F9464B022251
:102B40001A7031E0474B1B7819460220FEF7EEF968
:102B5000414B03221A7027E0434B1B781946032090
:102B6000FEF7E4F93C4B06221A701DE03F4B1B7840
:102B700019460620FEF7DAF9374B05221A7013E0E2
:102B80003B4B1B7819460520FEF7D0F9324B042247
:102B90001A7009E0374B1B7819460420FEF7C6F976
:102BA0002D4B00221A7000BF00F0C0F932E02A4B12
:102BB0001B78062B2CD801A252F823F0D92B000841
:102BC000E12B0008E92B0008F12B0008092C000874
:102BD000012C0008F92B00081F4B01221A7017E086
:102BE0001D4B02221A7013E01B4B03221A700FE0D8
:102BF000194B06221A700BE0174B05221A7007E0DA
:102C0000154B04221A7003E0134B00221A7000BF08
:102C100000F024FA0E4B01229A7015E00C20FEF70A
:102C200009F90346012B0FD100230FE00C20FEF71A
:102C300001F90346002B03D1054B00229A7004E0F2
:102C4000002303E0002301E000BF0123184680BDFC
:102C50003C020020A4000020A5000020000000206D
:102C600001000020020000200300002006000020D8
:102C7000050000200400002080B485B000AF78601B
:102C8000564B1B78062B00F2A28001A252F823F0CB
:102C9000AD2C0008AD2C0008C92C0008E52C00085C
:102CA000392D00081D2D0008012D00087B681B78B8
:102CB0000133DAB27B681A707B681B783B2B7DD9B5
:102CC0007B6800221A7079E07B681B780133DAB2E6
:102CD0007B681A707B681B78172B71D97B68002280
:102CE0001A706DE07B681B780133DAB27B681A706A
:102CF0007B681B78072B65D97B6801221A7061E01D
:102D00007B681B780133DAB27B681A707B681B78AA
:102D1000632B59D97B6800221A7055E07B681B78B9
:102D20000133DAB27B681A707B681B780C2B4DD9A3
:102D30007B6801221A7049E07B681B780133DAB2A4
:102D40007B681A701E23FB73254B1B78013B0B2BF2
:102D50002AD801A252F823F0892D00088F2D0008EF
:102D6000892D0008A92D0008892D0008A92D00082B
:102D7000892D0008892D0008A92D0008892D00083B
:102D8000A92D0008892D00081F23FB730DE0154BAA
:102D90001B7803F00303DBB2002B02D01C23FB7370
:102DA00003E01D23FB7300E000BF7B681B78FA7B08
:102DB0009A420CD27B6801221A7008E000BF06E03C
:102DC00000BF04E000BF02E000BF00E000BF00BFA2
:102DD0001437BD465DF8047B704700BFA500002096
:102DE000050000200600002080B582B000AF7860AA
:102DF0002C4B5B78022B31D0022B49DC002B02D00C
:102E0000012B15D044E00320FEF714F80346012BF4
:102E100006D17868FFF730FF224B01225A7039E063
:102E20000320FEF707F80346012B33D1002335E0DA
:102E30000320FDF7FFFF0346002B03D1194B0022AF
:102E40005A702AE00320FEF711F80346012B03D144
:102E5000144B02225A7020E000231FE0124B002284
:102E60001A70022000F068FC0346002B06D1786837
:102E7000FFF702FFC821022000F000FC0320FDF74D
:102E8000D9FF0346002B07D1064B00225A7003E0FE
:102E9000002303E000BF00E000BF0123184608370D
:102EA000BD4680BD3C0200204002002080B400AF3F
:102EB000104B1A78104B1A70104B1A78104B1A706E
:102EC000104B1A78104B1A70104B1A78104B1A705E
:102ED000104B1A78104B1A70104B1A78104B1A704E
:102EE000104B1A78104B1A7000BFBD465DF8047B7A
:102EF000704700BF4C010020000000204E01002060
:102F0000010000205101002002000020500100209B
:102F1000030000204F010020040000205201002087
:102F2000050000204D0100200600002080B500AF04
:102F3000154B1B780121184600F01EFA134B1B7825
:102F40000121184600F0BEF9114B1B7801211846EB
:102F500000F07AF90F4B1B780121184600F036F982
:102F60000D4B1B780121184600F044FA0B4B1B78DF
:102F70000121184600F07CFA094B1B780121184604
:102F800000F0E6F800BF80BD040000200300002030
:102F900002000020010000200500002006000020A3
:102FA0000000002080B584B004AF274B1B78032BB2
:102FB00046D801A252F823F0C92F0008E72F0008D5
:102FC00005300008233000080023029318230193E2
:102FD0004FF4784300934FF6FF731C4A1E211420D0
:102FE000FEF7F2FD2CE000230293182301934FF427
:102FF000784300934FF6FF73154A1E211420FEF705
:10300000E3FD1DE000230293182301934FF478435E
:1030100000934FF6FF730F4A1E211420FEF7D4FDD4
:103020000EE000230293182301934FF4784300939A
:103030004FF6FF73084A1E211420FEF7C5FD00BF9E
:1030400000BFBD4680BD00BFA4000020548F000813
:10305000408F0008648F0008708F000880B500AFB3
:10306000124B1B780121184600F086F9104B1B7893
:103070000121184600F026F90E4B1B780121184655
:1030800000F0E2F80C4B1B780121184600F09EF886
:103090000A4B1B780121184600F0ACF9084B1B784D
:1030A0000121184600F0E4F900BF80BD0A000020AD
:1030B0000900002008000020070000200B0000206D
:1030C0000C00002080B400AF034B01221A7000BF37
:1030D000BD465DF8047B70473F02002080B400AF1E
:1030E0001A4B4FF4FC621A60184B00225A60174BBF
:1030F00096221A72154B64225A72144B6E229A72DF
:10310000124B6422DA72114B46221A730F4B64225F
:103110005A730E4B14229A730C4B9A22DA730B4B90
:1031200046221A74094B9A225A74084B6E229A74DA
:10313000064B9A22DA74054B96221A75034B9A2293
:103140005A7500BFBD465DF8047B704744020020FD
:10315000B0B586B004AF03460A46FB711346BB7197
:10316000BB79002B16D0184B1B7A98B2164B5B7AA2
:1031700099B2FB799CB2144B1B689BB2124A5268FD
:1031800092B2182502950192009302232246FEF77F
:1031900019FB15E00C4B1B7A98B20B4B5B7A99B27A
:1031A000FB799CB2084B5B689BB2074A526892B2AB
:1031B000182502950192009302232246FEF702FB96
:1031C00000BF0837BD46B0BD44020020B0B586B090
:1031D00004AF03460A46FB711346BB71BB79002B53
:1031E00016D0184B9B7A98B2164BDB7A99B2FB79C2
:1031F0009CB2144B1B689BB2124A526892B21825BB
:1032000002950192009302232246FEF7DBFA15E0B5
:103210000C4B9B7A98B20B4BDB7A99B2FB799CB240
:10322000084B5B689BB2074A526892B21825029518
:103230000192009302232246FEF7C4FA00BF08372A
:10324000BD46B0BD44020020B0B586B004AF034611
:103250000A46FB711346BB71BB79002B16D0184B85
:103260001B7B98B2164B5B7B99B2FB799CB2144BDB
:103270001B689BB2124A526892B2182502950192BD
:10328000009302232246FEF79DFA15E00C4B1B7BB0
:1032900098B20B4B5B7B99B2FB799CB2084B5B6895
:1032A0009BB2074A526892B2182502950192009388
:1032B00002232246FEF786FA00BF0837BD46B0BD9E
:1032C00044020020B0B586B004AF03460A46FB7145
:1032D0001346BB71BB79002B2FD0FB79012B16D085
:1032E000234B9B7B98B2224BDB7B99B2FB799CB240
:1032F0001F4B1B689BB21E4A526892B2182502955A
:103300000192009302232246FEF75CFA2BE0184B51
:103310009B7B98B2164BDB7B99B2154B1B689AB21C
:10332000134B5B689BB20024029418240194009311
:103330001346104AFEF748FC15E00D4B9B7B98B2F4
:103340000B4BDB7B99B2FB799CB2094B5B689BB260
:10335000074A526892B218250295019200930223FF
:103360002246FEF72FFA00BF0837BD46B0BD00BFAA
:10337000440200207C8F0008B0B586B004AF03463D
:103380000A46FB711346BB71BB79002B16D0184B54
:103390001B7C98B2164B5B7C99B2FB799CB2144BA8
:1033A0001B689BB2124A526892B21825029501928C
:1033B000009302232246FEF705FA15E00C4B1B7C16
:1033C00098B20B4B5B7C99B2FB799CB2084B5B6863
:1033D0009BB2074A526892B2182502950192009357
:1033E00002232246FEF7EEF900BF0837BD46B0BD06
:1033F00044020020B0B586B004AF03460A46FB7114
:103400001346BB71BB79002B16D0184B9B7C98B22E
:10341000164BDB7C99B2FB799CB2144B1B689BB2B8
:10342000124A526892B21825029501920093022323
:103430002246FEF7C7F915E00C4B9B7C98B20B4B6C
:10344000DB7C99B2FB799CB2084B5B689BB2074A64
:10345000526892B2182502950192009302232246E7
:10346000FEF7B0F900BF0837BD46B0BD44020020EA
:10347000B0B586B004AF03460A46FB711346BB7174
:10348000BB79002B16D0184B1B7D98B2164B5B7D79
:1034900099B2FB799CB2144B1B689BB2124A5268DA
:1034A00092B2182502950192009302232246FEF75C
:1034B00089F915E00C4B1B7D98B20B4B5B7D99B2E3
:1034C000FB799CB2084B5B689BB2074A526892B288
:1034D000182502950192009302232246FEF772F905
:1034E00000BF0837BD46B0BD4402002090B585B08E
:1034F00004AF0020FEF730F8534B9B7B98B2524B41
:10350000DB7B9BB2183B99B24F4B1B689AB24E4B78
:103510005B689BB200240294182401940093134624
:103520004A4AFEF751FB484B1B7A98B2464B5B7AEE
:103530009BB2183B99B2444B1B689AB2424B5B68F2
:103540009BB2002402941824019400931346404A2D
:10355000FEF73AFB3C4B9B7A98B23B4BDB7A9BB233
:10356000183B99B2384B1B689AB2374B5B689BB2D9
:10357000002402941824019400931346354AFEF760
:1035800023FB314B1B7B9BB2183B98B22E4B5B7BD2
:103590009BB2183B99B22C4B1B689AB22A4B5B68C2
:1035A0009BB20024029418240194009313462A4AE3
:1035B000FEF70AFB244B1B7C98B2234B5B7C9BB22F
:1035C000183B99B2204B1B689AB21F4B5B689BB2A9
:1035D0000024029418240194009313461F4AFEF716
:1035E000F3FA194B9B7C98B2174BDB7C9BB2183BD0
:1035F00099B2154B1B689AB2134B5B689BB20024BF
:1036000002941824019400931346154AFEF7DCFA3D
:103610000D4B1B7D98B20C4B5B7D9BB2183B99B256
:10362000094B1B689AB2084B5B689BB2002402945A
:1036300018240194009313460A4AFEF7C5FA00BF06
:103640000437BD4690BD00BF44020020808F0008B3
:10365000848F0008888F00088C8F0008948F0008E2
:10366000988F00089C8F000880B582B000AF78600A
:1036700000F030F800BF0837BD4680BD80B582B08D
:1036800000AF786039603B684FF47A7202FB03F355
:103690001846FCF72FFF4FF000020C4BFDF7CEF859
:1036A00002460B4610461946FDF7B0F90246084996
:1036B0007B68DB000B445A60054A7B68012102F8F5
:1036C000331000BF0837BD4680BD00BF00408F40AB
:1036D0005C02002080B483B000AF00237B601FE059
:1036E000144A7B6812F83330002B16D0114A7B68DD
:1036F000DB0013445B685A1E0E497B68DB000B44F9
:103700005A600C4A7B68DB0013445B68002B04D1D1
:10371000084A7B68002102F833107B6801337B6024
:103720007B68022BDCD900BF00BF0C37BD465DF8BB
:10373000047B70475C02002080B483B000AF7860E7
:10374000074A7B6812F83330012B0CBF012300239A
:10375000DBB218460C37BD465DF8047B704700BFEE
:103760005C02002080B500AF174B184A1A60164B58
:103770004FF482725A60144B00229A60124B00225E
:10378000DA60114B00221A610F4B00225A610E4B76
:103790004FF400729A610C4B0022DA610A4B00224E
:1037A0001A62094B00225A62074B00229A62064BAA
:1037B0000A22DA62044802F03BFD0346002B01D0E6
:1037C000FEF7E8FA00BF80BD74020020003001401F
:1037D00080B58AB000AF786007F1140300221A6048
:1037E0005A609A60DA601A617B681B68194A9342D2
:1037F0002BD100233B61184B5B6C174A43F4805379
:103800005364154B5B6C03F480533B613B690023AD
:10381000FB60114B1B6B104A43F0020313630E4B0A
:103820001B6B03F00203FB60FB6838237B61022300
:10383000BB610023FB6103233B6205237B6207F12D
:1038400014031946054800F007FE00BF2837BD469F
:1038500080BD00BF0030014000380240000402403B
:1038600080B483B000AF00237B60104B5B6C0F4AC9
:1038700043F4804353640D4B5B6C03F480437B60E3
:103880007B6800233B60094B1B6C084A43F0805364
:103890001364064B1B6C03F080533B603B6800BF16
:1038A0000C37BD465DF8047B704700BF003802400E
:1038B00080B400AFFEE780B400AFFEE780B400AF95
:1038C000FEE780B400AFFEE780B400AFFEE780B44F
:1038D00000AF00BFBD465DF8047B704780B400AF09
:1038E00000BFBD465DF8047B704780B400AF00BFE9
:1038F000BD465DF8047B704780B500AF00F0C4FBA7
:1039000000BF80BD80B500AF024803F001FA00BFE0
:1039100080BD00BFCC02002080B500AF024803F09C
:10392000C9FE00BF80BD00BF7C03002080B586B00B
:1039300000AF7860144A154BD31A7B617B693B61F9
:10394000134B1B68002B02D1114B124A1A60104B0B
:103950001A687B6813443A699A4207D204F032FE2F
:1039600003460C221A604FF0FF3309E0084B1B6836
:10397000FB60074B1A687B681344054A1360FB68B9
:1039800018461837BD4680BD000002200004000024
:10399000AC000020D803002080B500AF0B4803F036
:1039A00047F90A210020FFF769FEFDF7CBF9FDF783
:1039B000ABFF0020FDF7D0FDFDF774FAFFF78EFB9B
:1039C000FFF794FD00F0DAF900BF80BDCC020020C3
:1039D00080B500AF0020FFF7AFFE0346002B07D1F4
:1039E000FDF7C6FAFDF7BAF90A210020FFF746FEF7
:1039F00000F088F8FEF734FA00BF80BD80B400AF55
:103A0000064BD3F88830054A43F47003C2F8883077
:103A100000BFBD465DF8047B704700BF00ED00E0CD
:103A200080B586B000AF07F1080300221A605A6023
:103A30009A60DA603B4600221A605A601D4B4FF0D4
:103A400080421A601B4B40F247325A60194B0022E9
:103A50009A60184B6322DA60164B00221A61154BEC
:103A600000229A61134803F093F80346002B01D01B
:103A7000FEF790F94FF48053BB6007F10803194635
:103A80000C4803F04DFA0346002B01D0FEF782F9F3
:103A900000233B6000237B603B461946054803F04A
:103AA00069FC0346002B01D0FEF774F900BF1837FC
:103AB000BD4680BDCC02002080B584B000AF7860E8
:103AC0007B681B68B3F1804F15D10023FB600C4B62
:103AD0001B6C0B4A43F001031364094B1B6C03F08E
:103AE0000103FB60FB68002200211C2000F0EBFBBF
:103AF0001C2000F004FC00BF1037BD4680BD00BF95
:103B00000038024080B582B000AF184B93F86D309A
:103B1000002B27D0164B1B78002B02D0012B16D080
:103B20001CE0124B9B6E002B04D1104B93F86330BA
:103B3000FB7105E00D4B9B6E013B0C4AD35CFB71A6
:103B4000FB79252B09D10A4B01221A7005E0FFF7FA
:103B5000B9FA074B00221A7000E000BF034B0022A5
:103B600083F86D2000BF0837BD4680BDB00000203F
:103B70007803002080B582B000AF044B7B6078688A
:103B800000F00AF900BF0837BD4680BDA08F0008CD
:103B900080B582B000AF044B7B60786800F0FCF821
:103BA00000BF0837BD4680BDB08F000880B582B029
:103BB00000AF044B7B60786800F0EEF800BF083778
:103BC000BD4680BDB88F000880B582B000AF044B01
:103BD0007B60786800F0E0F800BF0837BD4680BD24
:103BE000C48F000880B582B000AF044B7B6078685A
:103BF00000F0D2F800BF0837BD4680BDCC8F00086A
:103C000080B582B000AF044B7B60786800F0C4F8E8
:103C100000BF0837BD4680BDD48F000880B582B094
:103C200000AF044B7B60786800F0B6F800BF08373F
:103C3000BD4680BDDC8F000880B582B000AF044B6C
:103C40007B60786800F0A8F800BF0837BD4680BDEB
:103C5000E48F000880B584B000AF78601C4B5B6EC9
:103C60001B4AD35C252B15D107F10E03184600F033
:103C700059F8002328E07B681B881A4692001344F9
:103C80005B009AB2FB7B9BB213449BB2303B9AB26F
:103C90007B681A800E4B5B6E0D4AD35C252B07D0D8
:103CA00007F10F03184600F03DF80346002BE2D160
:103CB000074B5B6E064AD35C252B04D107F10D033D
:103CC000184600F02FF8012318461037BD4680BD76
:103CD000B000002080B485B000AF0346FB71104BEC
:103CE0009B6E0133FB60FB68632B01D90023FB60F3
:103CF0000B4B5B6EFA689A4203D1094B012283F8A1
:103D00006C20074B9B6E0649FA79CA54044AFB683B
:103D1000936600BF1437BD465DF8047B704700BF53
:103D2000B000002080B485B000AF7860124B5A6EAE
:103D3000114B9B6E9A4201D1002316E00E4B5B6E35
:103D40000133FB60FB68632B01D90023FB600A4B46
:103D50005B6E094AD25C7B681A70074AFB6853663F
:103D6000054B002283F86C20012318461437BD460A
:103D70005DF8047B704700BFB000002080B500AF45
:103D800001220349034803F064FC00BF80BD00BF6B
:103D9000200100207C03002080B582B000AF786055
:103DA0007A680749074804F03FFC03469AB20A23A1
:103DB0000449054803F0BBFB00BF0837BD4680BD82
:103DC000EC8F0008140300207C03002080B582B033
:103DD00000AF78607B681B680C4A934211D10C4B92
:103DE0001B78032B08D10B4B1B781846FFF772FF8B
:103DF000094B012283F86D2001220649074803F090
:103E000028FC00BF0837BD4680BD00BF0010014040
:103E1000A400002020010020B00000207C0300202E
:103E200080B500AF114B124A1A60104B4FF4E132CB
:103E30005A600E4B00229A600C4B0022DA600B4B4A
:103E400000221A61094B0C225A61084B00229A6128
:103E5000064B0022DA61054803F01CFB0346002BE9
:103E600001D0FDF797FF00BF80BD00BF7C0300209D
:103E70000010014080B58AB000AF786007F11403EC
:103E800000221A605A609A60DA601A617B681B68C7
:103E90001D4A934234D100233B611C4B5B6C1B4A8F
:103EA00043F010035364194B5B6C03F010033B6148
:103EB0003B690023FB60154B1B6B144A43F0010365
:103EC0001363124B1B6B03F00103FB60FB684FF4A1
:103ED000C0637B610223BB610023FB6103233B6260
:103EE00007237B6207F114031946094800F0B4FA6E
:103EF00000220021252000F0E6F9252000F0FFF93E
:103F000000BF2837BD4680BD001001400038024088
:103F10000000024080B483B000AF0346FB71FB7920
:103F20001B09DBB21A46920013445B00DAB2FB793C
:103F300003F00F03DBB21344DBB218460C37BD4667
:103F40005DF8047B7047000080B483B000AF034687
:103F5000FB71FB790D4AA2FB0323DB08DBB21B01DB
:103F600058B2FA79094BA3FB0213D9080B469B0000
:103F70000B445B00D31ADBB25BB203435BB2DBB230
:103F800018460C37BD465DF8047B7047CDCCCCCCD1
:103F9000DFF834D00D480E490E4A002302E0D45811
:103FA000C4500433C4188C42F9D30B4A0B4C002381
:103FB00001E013600432A242FBD3FFF71FFD04F0BF
:103FC00007FBFDF765FE704700000220000000209F
:103FD00080000020DCBF000880000020D403002007
:103FE000FEE7000080B500AF0E4B1B680D4A43F49E
:103FF000007313600B4B1B680A4A43F48063136021
:10400000084B1B68074A43F480731360032000F0D9
:104010004FF90F2000F008F8FFF722FC00231846A4
:1040200080BD00BF003C024080B582B000AF786028
:10403000124B1A68124B1B7819464FF47A73B3FB74
:10404000F1F3B2FBF3F3184600F067F90346002BD7
:1040500001D001230EE07B680F2B0AD8002279687B
:104060004FF0FF3000F02FF9064A7B681360002301
:1040700000E0012318460837BD4680BD100000202F
:10408000180000201400002080B400AF064B1B78FD
:104090001A46064B1B681344044A136000BFBD4612
:1040A0005DF8047B704700BF18000020C0030020AB
:1040B00080B400AF034B1B681846BD465DF8047B17
:1040C000704700BFC003002080B584B000AF7860A7
:1040D000FFF7EEFFB8607B68FB60FB68B3F1FF3F62
:1040E00005D00A4B1B781A46FB681344FB6000BFDF
:1040F000FFF7DEFF0246BB68D31AFA689A42F7D888
:1041000000BF00BF1037BD4680BD00BF18000020B3
:1041100080B485B000AF78607B6803F00703FB6074
:104120000C4BDB68BB60BA684FF6FF031340BB6003
:10413000FB681A02BB68134343F0BF6343F40033C8
:10414000BB60044ABB68D36000BF1437BD465DF84E
:10415000047B704700ED00E080B400AF044BDB68E7
:104160001B0A03F007031846BD465DF8047B704741
:1041700000ED00E080B483B000AF0346FB7197F917
:104180000730002B0BDBFB7903F01F02074997F97F
:1041900007305B09012000FA02F241F8232000BF3A
:1041A0000C37BD465DF8047B704700BF00E100E0BE
:1041B00080B483B000AF03463960FB7197F90730D4
:1041C000002B0ADB3B68DAB20C4997F90730120181
:1041D000D2B20B4483F800230AE03B68DAB2084904
:1041E000FB7903F00F03043B1201D2B20B441A76A1
:1041F00000BF0C37BD465DF8047B704700E100E06E
:1042000000ED00E080B489B000AFF860B9607A607A
:10421000FB6803F00703FB61FB69C3F10703042B91
:1042200028BF0423BB61FB690433062B02D9FB6959
:10423000033B00E000237B614FF0FF32BB6902FAD1
:1042400003F3DA43BB681A407B699A404FF0FF31B1
:104250007B6901FA03F3D9437B680B40134318468B
:104260002437BD465DF8047B7047000080B582B0FE
:1042700000AF78607B68013BB3F1807F01D30123FD
:104280000FE00A4A7B68013B53600F214FF0FF307B
:10429000FFF78EFF054B00229A60044B07221A603D
:1042A000002318460837BD4680BD00BF10E000E07F
:1042B00080B582B000AF78607868FFF729FF00BF53
:1042C0000837BD4680BD80B586B000AF0346B960F3
:1042D0007A60FB7300237B61FFF73EFF78617A68A9
:1042E000B9687869FFF78EFF024697F90F301146DB
:1042F0001846FFF75DFF00BF1837BD4680BD80B58B
:1043000082B000AF0346FB7197F907301846FFF7FC
:1043100031FF00BF0837BD4680BD80B582B000AF19
:1043200078607868FFF7A2FF034618460837BD4655
:1043300080BD80B584B000AF78607B689B6DFB600A
:10434000FFF7B6FEB8607B6893F83530DBB2022B1E
:1043500008D07B6880225A657B68002283F834206D
:10436000012352E07B681B681A687B681B6822F097
:1043700016021A607B681B685A697B681B6822F00A
:1043800080025A617B681B6C002B03D17B689B6C9D
:10439000002B07D07B681B681A687B681B6822F0BB
:1043A00008021A607B681B681A687B681B6822F029
:1043B00001021A6013E0FFF77BFE0246BB68D31AC6
:1043C000052B0CD97B6820225A657B68032283F871
:1043D00035207B68002283F83420032315E07B68B6
:1043E0001B681B6803F00103002BE4D17B68DB6DC5
:1043F0003F229A40FB689A607B68012283F835204F
:104400007B68002283F83420002318461037BD460D
:1044100080BD80B483B000AF78607B6893F835309E
:10442000DBB2022B04D07B6880225A6501230CE0AA
:104430007B68052283F835207B681B681A687B68D7
:104440001B6822F001021A60002318460C37BD4693
:104450005DF8047B7047000080B489B000AF7860DD
:10446000396000237B6100233B610023BB61002393
:10447000FB616BE10122FB6902FA03F37B613B689C
:104480001B687A6913403B613A697B699A4240F044
:104490005A813B685B6803F00303012B05D03B683E
:1044A0005B6803F00303022B30D17B689B68BB6120
:1044B000FB695B00032202FA03F3DB43BA69134092
:1044C000BB613B68DA68FB695B0002FA03F3BA6917
:1044D0001343BB617B68BA699A607B685B68BB61A8
:1044E0000122FB6902FA03F3DB43BA691340BB61A3
:1044F0003B685B681B0903F00102FB6902FA03F3E6
:10450000BA691343BB617B68BA695A603B685B68F0
:1045100003F00303032B17D07B68DB68BB61FB69E7
:104520005B00032202FA03F3DB43BA691340BB6169
:104530003B689A68FB695B0002FA03F3BA691343AC
:10454000BB617B68BA69DA603B685B6803F00303B0
:10455000022B23D1FB69DA087B68083253F822303A
:10456000BB61FB6903F007039B000F2202FA03F310
:10457000DB43BA691340BB613B681A69FB6903F00E
:1045800007039B0002FA03F3BA691343BB61FB699B
:10459000DA087B680832B96943F822107B681B6827
:1045A000BB61FB695B00032202FA03F3DB43BA69D8
:1045B0001340BB613B685B6803F00302FB695B006F
:1045C00002FA03F3BA691343BB617B68BA691A60E4
:1045D0003B685B6803F44033002B00F0B480002399
:1045E000FB60604B5B6C5F4A43F4804353645D4BFC
:1045F0005B6C03F48043FB60FB685B4AFB699B08D0
:10460000023352F82330BB61FB6903F003039B00C4
:104610000F2202FA03F3DB43BA691340BB617B68E4
:10462000524A93422BD07B68514A934225D07B68F3
:10463000504A93421FD07B684F4A934219D07B68FF
:104640004E4A934213D07B684D4A93420DD07B680B
:104650004C4A934207D07B684B4A934201D10723CF
:104660000EE008230CE006230AE0052308E00423FB
:1046700006E0032304E0022302E0012300E000231C
:10468000FA6902F0030292009340BA691343BB61D6
:104690003549FB699B080233BA6941F823203B4B3B
:1046A0001B68BB613B69DB43BA691340BB613B6874
:1046B0005B6803F48033002B03D0BA693B69134372
:1046C000BB61324ABB691360304B5B68BB613B69BD
:1046D000DB43BA691340BB613B685B6803F400339A
:1046E000002B03D0BA693B691343BB61274ABB69FE
:1046F0005360264B9B68BB613B69DB43BA6913403F
:10470000BB613B685B6803F48013002B03D0BA697C
:104710003B691343BB611D4ABB6993601B4BDB685C
:10472000BB613B69DB43BA691340BB613B685B68B3
:1047300003F40013002B03D0BA693B691343BB6138
:10474000124ABB69D360FB690133FB61FB690F2B24
:104750007FF690AE00BF00BF2437BD465DF8047BF6
:10476000704700BF0038024000380140000002409E
:104770000004024000080240000C02400010024009
:104780000014024000180240001C0240003C01409E
:1047900080B483B000AF78600B467B8013467B709B
:1047A0007B78002B03D07A887B689A6103E07B8852
:1047B0001A047B689A6100BF0C37BD465DF8047B24
:1047C0007047000080B584B000AF78607B68002B34
:1047D00001D101232BE17B6893F83D30DBB2002B44
:1047E00006D17B68002283F83C207868FCF7EEFD58
:1047F0007B68242283F83D207B681B681A687B68ED
:104800001B6822F001021A607B681B681A687B68CB
:104810001B6842F400421A607B681B681A687B6858
:104820001B6822F400421A6001F0DAFCF8607B6831
:104830005B68814A934207D8FB68804A934294BFE1
:1048400001230023DBB206E0FB687D4A934294BF5C
:1048500001230023DBB2002B01D00123E7E0FB683A
:10486000784AA2FB03239B0CBB607B681B685B68D8
:1048700023F03F017B681B68BA680A435A607B6873
:104880001B681B6A23F03F017B685B686A4A93429E
:1048900002D8BB68013309E0BB684FF4967202FB93
:1048A00003F3694AA2FB03239B0901337A68126868
:1048B0000B4313627B681B68DB6923F44F4222F0D1
:1048C000FF027B685B685C498B4219D8FB68591E04
:1048D0007B685B685B00B1FBF3F3591C40F6FC732B
:1048E0000B40002B0AD0FB68591E7B685B685B009D
:1048F000B1FBF3F30133C3F30B0351E004234FE0A7
:104900007B689B68002B11D1FB68581E7B68596837
:104910000B465B000B44B0FBF3F30133C3F30B0313
:10492000002B0CBF01230023DBB212E0FB68581EF2
:104930007B6859680B469B000B4499000B44B0FB05
:10494000F3F30133C3F30B03002B0CBF012300234C
:10495000DBB2002B01D0012322E07B689B68002B97
:104960000ED1FB68581E7B6859680B465B000B44F0
:10497000B0FBF3F30133C3F30B0343F400430FE045
:10498000FB68581E7B6859680B469B000B449900D6
:104990000B44B0FBF3F30133C3F30B0343F4404385
:1049A000796809681343CB617B681B681B6823F037
:1049B000C0017B68DA697B681B6A1A437B681B68E5
:1049C0000A431A607B681B689B6823F4034323F047
:1049D000FF037A6811697A68D26811437A681268AD
:1049E0000B4393607B681B68DB6823F0FF017B68E7
:1049F0005A697B689B691A437B681B680A43DA60C3
:104A00007B681B681A687B681B6842F001021A60A9
:104A10007B6800221A647B68202283F83D207B6833
:104A200000221A637B68002283F83E200023184688
:104A30001037BD4680BD00BFA08601007F841E00E8
:104A4000FF083D0083DE1B43D34D621080B588B064
:104A500002AFF860084611461A4603467B810B46B2
:104A60003B811346FB80FFF723FB7861FB6893F8DB
:104A70003D30DBB2202B40F0D9807B6900931923B5
:104A800001226D49F86800F0ADFD0346002B01D00E
:104A90000223CCE0FB6893F83C30012B01D10223C8
:104AA000C5E0FB68012283F83C20FB681B681B689B
:104AB00003F00103012B07D0FB681B681A68FB6831
:104AC0001B6842F001021A60FB681B681A68FB68E9
:104AD0001B6822F400621A60FB68212283F83D20E3
:104AE000FB68402283F83E20FB6800221A64FB68C2
:104AF0003A6A5A62FB68BA8C5A85FB685B8D9AB237
:104B0000FB681A85FB684D4ADA62F8883A89798928
:104B10007B690193BB6A00930346F86800F0E4FBED
:104B20000346002B52D0012381E07A69B96AF86804
:104B300000F02EFE0346002B0DD0FB681B6C042BEF
:104B400007D1FB681B681A68FB681B6842F4007297
:104B50001A6001236BE0FB685B6A1A78FB681B68CC
:104B60001A61FB685B6A5A1CFB685A62FB681B8D02
:104B7000013B9AB2FB681A85FB685B8D9BB2013BD7
:104B80009AB2FB685A85FB681B685B6903F00403F3
:104B9000042B1BD1FB681B8D002B17D0FB685B6AB5
:104BA0001A78FB681B681A61FB685B6A5A1CFB6811
:104BB0005A62FB681B8D013B9AB2FB681A85FB6841
:104BC0005B8D9BB2013B9AB2FB685A85FB681B8DDB
:104BD000002BAAD17A69B96AF86800F01AFE034678
:104BE000002B0DD0FB681B6C042B07D1FB681B68E6
:104BF0001A68FB681B6842F400721A60012316E011
:104C0000FB681B681A68FB681B6842F400721A6034
:104C1000FB68202283F83D20FB68002283F83E20B9
:104C2000FB68002283F83C20002300E002231846A2
:104C30001837BD4680BD00BF020010000000FFFF16
:104C400080B58CB002AFF860084611461A4603469C
:104C50007B810B463B811346FB80FFF729FA786284
:104C6000FB6893F83D30DBB2202B40F008827B6A72
:104C70000093192301227B49F86800F0B3FC034636
:104C8000002B01D00223FBE1FB6893F83C30012BA1
:104C900001D10223F4E1FB68012283F83C20FB6888
:104CA0001B681B6803F00103012B07D0FB681B681E
:104CB0001A68FB681B6842F001021A60FB681B68F7
:104CC0001A68FB681B6822F400621A60FB682222E3
:104CD00083F83D20FB68402283F83E20FB680022D9
:104CE0001A64FB683A6B5A62FB68BA8E5A85FB6895
:104CF0005B8D9AB2FB681A85FB685B4ADA62F888BA
:104D00003A8979897B6A0193BB6B00930346F86803
:104D100000F080FB0346002B01D00123B0E1FB68CB
:104D20001B8D002B13D100233B62FB681B685B6962
:104D30003B62FB681B689B693B623B6AFB681B68C4
:104D40001A68FB681B6842F400721A6084E1FB6811
:104D50001B8D012B1BD1FB681B681A68FB681B6845
:104D600022F480621A600023FB61FB681B685B69A8
:104D7000FB61FB681B689B69FB61FB69FB681B6847
:104D80001A68FB681B6842F400721A6064E1FB68F1
:104D90001B8D022B1BD1FB681B681A68FB681B6804
:104DA00022F480621A60FB681B681A68FB681B6843
:104DB00042F400621A600023BB61FB681B685B69F8
:104DC000BB61FB681B689B69BB61BB6944E1002355
:104DD0007B61FB681B685B697B61FB681B689B6987
:104DE0007B617B6938E1FB681B8D032B00F2F1804E
:104DF000FB681B8D012B23D17A6AB96BF86800F030
:104E000049FD0346002B01D0012339E1FB681B68F3
:104E10001A69FB685B6AD2B21A70FB685B6A5A1C3B
:104E2000FB685A62FB681B8D013B9AB2FB681A85CE
:104E3000FB685B8D9BB2013B9AB2FB685A850BE124
:104E4000FB681B8D022B4ED17B6A0093BB6B00224B
:104E50000649F86800F0C6FB0346002B08D0012382
:104E60000EE100BF020010000000FFFF040001007F
:104E7000FB681B681A68FB681B6842F400721A60C2
:104E8000FB681B681A69FB685B6AD2B21A70FB6820
:104E90005B6A5A1CFB685A62FB681B8D013B9AB225
:104EA000FB681A85FB685B8D9BB2013B9AB2FB687D
:104EB0005A85FB681B681A69FB685B6AD2B21A7074
:104EC000FB685B6A5A1CFB685A62FB681B8D013BDE
:104ED0009AB2FB681A85FB685B8D9BB2013B9AB264
:104EE000FB685A85B8E07B6A0093BB6B0022664979
:104EF000F86800F077FB0346002B01D00123BFE0E8
:104F0000FB681B681A68FB681B6822F480621A60E1
:104F1000FB681B681A69FB685B6AD2B21A70FB688F
:104F20005B6A5A1CFB685A62FB681B8D013B9AB294
:104F3000FB681A85FB685B8D9BB2013B9AB2FB68EC
:104F40005A857B6A0093BB6B00224F49F86800F0DA
:104F500049FB0346002B01D0012391E0FB681B684D
:104F60001A68FB681B6842F400721A60FB681B68D1
:104F70001A69FB685B6AD2B21A70FB685B6A5A1CDA
:104F8000FB685A62FB681B8D013B9AB2FB681A856D
:104F9000FB685B8D9BB2013B9AB2FB685A85FB684C
:104FA0001B681A69FB685B6AD2B21A70FB685B6A9D
:104FB0005A1CFB685A62FB681B8D013B9AB2FB6866
:104FC0001A85FB685B8D9BB2013B9AB2FB685A85E0
:104FD00042E07A6AB96BF86800F05CFC0346002B8B
:104FE00001D001234CE0FB681B681A69FB685B6A0F
:104FF000D2B21A70FB685B6A5A1CFB685A62FB6883
:105000001B8D013B9AB2FB681A85FB685B8D9BB2D6
:10501000013B9AB2FB685A85FB681B685B6903F029
:105020000403042B18D1FB681B681A69FB685B6AD0
:10503000D2B21A70FB685B6A5A1CFB685A62FB6842
:105040001B8D013B9AB2FB681A85FB685B8D9BB296
:10505000013B9AB2FB685A85FB681B8D002B7FF4DD
:10506000C2AEFB68202283F83D20FB68002283F853
:105070003E20FB68002283F83C20002300E002234E
:1050800018462837BD4680BD0400010080B58AB0AF
:1050900002AFF8607A603B600B467B81FFF708F84F
:1050A000F8610123BB61FB6893F83D30DBB2202B34
:1050B00040F01181FB690093192301228849F868A7
:1050C00000F090FA0346002B01D0022304E1FB68B4
:1050D00093F83C30012B01D10223FDE0FB68012253
:1050E00083F83C20FB681B681B6803F00103012B5D
:1050F00007D0FB681B681A68FB681B6842F0010256
:105100001A60FB681B681A68FB681B6822F400625F
:105110001A60FB68242283F83D20FB6800221A6491
:10512000FB68704ADA62FB681B681A68FB681B68D8
:1051300042F480721A60FB6900933B6800224FF0D2
:105140000111F86800F04EFA0346002B0DD0FB6801
:105150001B681B6803F48073B3F5807F03D1FB6881
:105160004FF400721A640323B6E07B89DBB21A465F
:10517000FB681B6802F0FE021A61FEF799FFF861F6
:10518000FB681B685B6903F00203022B0CBF012361
:105190000023DBB2FB75FB681B685B6903F480636B
:1051A000B3F5806F0CBF01230023DBB2BB7525E094
:1051B000FEF77EFF0246FB69D31A3A689A4202D391
:1051C0003B68002B03D1FB68A02283F83D20FB68DD
:1051D0001B685B6903F00203022B0CBF0123002351
:1051E000DBB2FB75FB681B685B6903F48063B3F596
:1051F000806F0CBF01230023DBB2BB75FB6893F803
:105200003D30DBB2A02B05D0FB7D002B02D1BB7D56
:10521000002BCDD0FB68202283F83D20FB681B6863
:105220005B6903F00203022B29D1FB681B681A6833
:10523000FB681B6842F400721A6000233B61FB6844
:105240001B685B693B61FB681B689B693B613B6951
:10525000FB690093192301222149F86800F0C2F983
:105260000346002B01D0012336E0FB68202283F89F
:105270003D20FB68002283F83C2000232CE0FB68E3
:105280001B681A68FB681B6842F400721A60FB68AE
:105290001B686FF480625A61FB6900931923012235
:1052A0000F49F86800F09EF90346002B01D0012356
:1052B00012E0BB690133BB61BA697B689A42FFF4B3
:1052C00032AFFB68202283F83D20FB68002283F880
:1052D0003C20012300E0022318462037BD4680BD54
:1052E000020010000000FFFF80B588B002AFF86038
:1052F000084611461A4603467B810B463B811346FE
:10530000FB80FB681B681A68FB681B6842F48072AC
:105310001A607B6A00933B6A00224FF00111F86823
:1053200000F060F90346002B0DD0FB681B681B687A
:1053300003F48073B3F5807F03D1FB684FF40072F0
:105340001A6403235FE07B89DBB21A46FB681B68A3
:1053500002F0FE021A617B6A3A6A2D49F86800F091
:1053600098F90346002B01D001234CE000237B6118
:10537000FB681B685B697B61FB681B689B697B61E1
:105380007B697A6A396AF86800F002FA0346002BF2
:105390000DD0FB681B6C042B07D1FB681B681A68D7
:1053A000FB681B6842F400721A6001232BE0FB8843
:1053B000012B05D13B89DAB2FB681B681A6121E039
:1053C0003B891B0A9BB2DAB2FB681B681A617A6AD6
:1053D000396AF86800F0DCF90346002B0DD0FB6851
:1053E0001B6C042B07D1FB681B681A68FB681B68E1
:1053F00042F400721A60012305E03B89DAB2FB68CF
:105400001B681A61002318461837BD4680BD00BFCF
:105410000200010080B588B002AFF860084611466E
:105420001A4603467B810B463B811346FB80FB6893
:105430001B681A68FB681B6842F480621A60FB688C
:105440001B681A68FB681B6842F480721A607B6AEA
:1054500000933B6A00224FF00111F86800F0C2F897
:105460000346002B0DD0FB681B681B6803F4807398
:10547000B3F5807F03D1FB684FF400721A640323F5
:10548000AAE07B89DBB21A46FB681B6802F0FE02C9
:105490001A617B6A3A6A5249F86800F0FAF80346E2
:1054A000002B01D0012397E000237B61FB681B6880
:1054B0005B697B61FB681B689B697B617B697A6ABE
:1054C000396AF86800F064F90346002B0DD0FB68D8
:1054D0001B6C042B07D1FB681B681A68FB681B68F0
:1054E00042F400721A60012376E0FB88012B05D19B
:1054F0003B89DAB2FB681B681A6121E03B891B0A11
:105500009BB2DAB2FB681B681A617A6A396AF8687A
:1055100000F03EF90346002B0DD0FB681B6C042BFA
:1055200007D1FB681B681A68FB681B6842F40072AD
:105530001A60012350E03B89DAB2FB681B681A61EC
:105540007A6A396AF86800F023F90346002B0DD017
:10555000FB681B6C042B07D1FB681B681A68FB688F
:105560001B6842F400721A60012335E0FB681B6877
:105570001A68FB681B6842F480721A607B6A0093A9
:105580003B6A00224FF00111F86800F02BF8034647
:10559000002B0DD0FB681B681B6803F48073B3F508
:1055A000807F03D1FB684FF400721A64032313E079
:1055B0007B89DBB243F00103DAB2FB681B681A6136
:1055C0007B6A3A6A0649F86800F063F80346002BE4
:1055D00001D0012300E0002318461837BD4680BDE6
:1055E0000200010080B584B000AFF860B9603B6094
:1055F0001346FB7125E03B68B3F1FF3F21D0FEF776
:1056000057FD0246BB69D31A3A689A4202D33B68F7
:10561000002B16D1FB6800221A63FB68202283F856
:105620003D20FB68002283F83E20FB681B6C43F0A2
:105630002002FB681A64FB68002283F83C200123E7
:1056400023E0BB681B0CDBB2012B0DD1FB681B6890
:105650005B69DA43BB6813409BB2002B0CBF01238C
:105660000023DBB21A460CE0FB681B689B69DA4337
:10567000BB6813409BB2002B0CBF01230023DBB29D
:105680001A46FB799A42B6D0002318461037BD4619
:1056900080BD80B584B000AFF860B9607A603B60CF
:1056A00051E0FB681B685B6903F48063B3F5806FAE
:1056B00023D1FB681B681A68FB681B6842F4007200
:1056C0001A60FB681B686FF480625A61FB680022F5
:1056D0001A63FB68202283F83D20FB68002283F8D0
:1056E0003E20FB681B6C43F00402FB681A64FB68F5
:1056F000002283F83C20012346E07B68B3F1FF3FA2
:1057000021D0FEF7D5FC02463B68D31A7A689A424C
:1057100002D37B68002B16D1FB6800221A63FB685A
:10572000202283F83D20FB68002283F83E20FB689E
:105730001B6C43F02002FB681A64FB68002283F8AC
:105740003C20012320E0BB681B0CDBB2012B0CD1F9
:10575000FB681B685B69DA43BB6813409BB2002B94
:1057600014BF01230023DBB20BE0FB681B689B69BD
:10577000DA43BB6813409BB2002B14BF0123002304
:10578000DBB2002B8DD1002318461037BD4680BDFB
:1057900080B584B000AFF860B9607A602DE0F86839
:1057A00000F0CEF80346002B01D001232DE0BB68AA
:1057B000B3F1FF3F21D0FEF77BFC02467B68D31A92
:1057C000BA689A4202D3BB68002B16D1FB6800224C
:1057D0001A63FB68202283F83D20FB68002283F8CF
:1057E0003E20FB681B6C43F02002FB681A64FB68D8
:1057F000002283F83C20012307E0FB681B685B69FB
:1058000003F08003802BCAD1002318461037BD4611
:1058100080BD80B584B000AFF860B9607A602DE0DB
:10582000F86800F08DF80346002B01D001232DE02D
:10583000BB68B3F1FF3F21D0FEF73AFC02467B681C
:10584000D31ABA689A4202D3BB68002B16D1FB6800
:1058500000221A63FB68202283F83D20FB680022A7
:1058600083F83E20FB681B6C43F02002FB681A643F
:10587000FB68002283F83C20012307E0FB681B68DB
:105880005B6903F00403042BCAD1002318461037C8
:10589000BD4680BD80B584B000AFF860B9607A6065
:1058A00042E0FB681B685B6903F01003102B19D101
:1058B000FB681B686FF010025A61FB6800221A63D4
:1058C000FB68202283F83D20FB68002283F83E20FD
:1058D000FB681A6CFB681A64FB68002283F83C20A2
:1058E000012329E0FEF7E4FB02467B68D31ABA687D
:1058F0009A4202D3BB68002B16D1FB6800221A63C0
:10590000FB68202283F83D20FB68002283F83E20BC
:10591000FB681B6C43F02002FB681A64FB680022E2
:1059200083F83C20012307E0FB681B685B6903F0F8
:105930004003402BB5D1002318461037BD4680BD2B
:1059400080B483B000AF78607B681B685B6903F448
:105950008063B3F5806F1BD17B681B686FF4806236
:105960005A617B6800221A637B68202283F83D20FD
:105970007B68002283F83E207B681B6C43F00402A6
:105980007B681A647B68002283F83C20012300E0D6
:10599000002318460C37BD465DF8047B70470000B5
:1059A00080B586B000AF78607B68002B01D1012301
:1059B00064E27B681B6803F00103002B75D0A34BE6
:1059C0009B6803F00C03042B0CD0A04B9B6803F0E6
:1059D0000C03082B12D19D4B5B6803F48003B3F5D5
:1059E000800F0BD1994B1B6803F40033002B5BD065
:1059F0007B685B68002B57D101233FE27B685B68C3
:105A0000B3F5803F06D1914B1B68904A43F4803335
:105A100013601DE07B685B68B3F5A02F0CD18B4B46
:105A20001B688A4A43F480231360884B1B68874AAB
:105A300043F4803313600BE0844B1B68834A23F4E8
:105A400080331360814B1B68804A23F480231360EA
:105A50007B685B68002B13D0FEF72AFB386108E0F7
:105A6000FEF726FB02463B69D31A642B01D90323B8
:105A700004E2764B1B6803F40033002BF0D014E0F3
:105A8000FEF716FB386108E0FEF712FB02463B69A1
:105A9000D31A642B01D90323F0E16C4B1B6803F488
:105AA0000033002BF0D100E000BF7B681B6803F0DF
:105AB0000203002B63D0654B9B6803F00C03002BA3
:105AC0000BD0624B9B6803F00C03082B1CD15F4B7F
:105AD0005B6803F48003002B16D15C4B1B6803F05A
