:020000040800F2
:100000000000022021180008C9140008CF140008BD
:10001000D5140008DB140008E114000800000000FB
:10002000000000000000000000000000E7140008CD
:10003000F514000800000000031500081115000861
:10004000711800087118000871180008711800086C
:10005000711800087118000871180008711800085C
:10006000711800087118000871180008711800084C
:10007000711800087118000871180008711800083C
:10008000711800087118000871180008711800082C
:10009000711800087118000871180008711800081C
:1000A000711800087118000871180008711800080C
:1000B0001D15000871180008711800087118000853
:1000C000711800087118000871180008311500082F
:1000D000711800084515000871180008711800080B
:1000E00071180008711800087118000871180008CC
:1000F00071180008711800087118000871180008BC
:1001000071180008711800087118000871180008AB
:10011000711800087118000871180008711800089B
:10012000711800087118000871180008711800088B
:10013000711800087118000871180008711800087B
:10014000711800087118000871180008711800086B
:10015000711800087118000871180008711800085B
:10016000711800087118000871180008711800084B
:1001700071180008711800087118000800000000CC
:08018000711800087118000855
:1001880010B5054C237833B9044B13B10448AFF3C9
:1001980000800123237010BD0C0000200000000027
:1001A8006C48000808B5034B1BB103490348AFF37B
:1001B800008008BD00000000100000206C48000806
:1001C80053B94AB9002908BF00281CBF4FF0FF31B6
:1001D8004FF0FF3000F070B9ADF1080C6DE904CEB6
:1001E80000F006F8DDF804E0DDE9022304B070470A
:1001F8002DE9F047089E0D4604460F46002B4AD1CC
:100208008A42944665D9B2FA82F343B102FA03FCF2
:10021800C3F120029F4020FA02F217439C404FEAA4
:100228001C4E1FFA8CF5B7FBFEF1220C0EFB117762
:1002380042EA074201FB05F090420AD91CEB020290
:1002480001F1FF3780F01C81904240F21981023998
:100258006244121AA4B2B2FBFEF00EFB102244EA6A
:10026800024400FB05F5A5420AD91CEB040400F181
:10027800FF3280F00781A54240F2048164440238CD
:1002880040EA0140641B00211EB1DC400023C6E99E
:100298000043BDE8F0878B4208D9002E00F0ED80BE
:1002A8000021C6E900050846BDE8F087B3FA83F1E6
:1002B800002949D1AB4202D3824200F2F880841A65
:1002C80065EB030201201746002EE2D0C6E900477D
:1002D800DFE702B9FFDEB2FA82F3002B40F090802C
:1002E8008A1A4FEA1C471FFA8CFE0121B2FBF7F568
:1002F80007FB1520220C42EA00420EFB05F0904253
:1003080008D91CEB020205F1FF3802D2904200F234
:10031800CB804546121AA4B2B2FBF7F007FB1022B5
:1003280044EA02440EFB00FEA64508D91CEB04046F
:1003380000F1FF3202D2A64500F2BB801046A4EBC2
:100348000E0440EA05409FE7C1F120078B4022FADE
:1003580007FC4CEA030C05FA01F420FA07F3FD4008
:100368004FEA1C492343B5FBF9F81FFA8CFE09FB39
:1003780018551C0C44EA054408FB0EF5A54202FA80
:1003880001F200FA01F00BD91CEB040408F1FF3A62
:1003980080F08880A54240F28580A8F10208644474
:1003A800641B9DB2B4FBF9F309FB134445EA04440A
:1003B80003FB0EFEA64508D91CEB040403F1FF3528
:1003C8006CD2A6456AD9023B644443EA0843A3FBBE
:1003D8000295A4EB0E04AC42C846AE4656D353D0A1
:1003E80056B1B0EB080264EB0E0404FA07F7CA40F2
:1003F800CC401743C6E9007418460021BDE8F087D1
:10040800C3F1200102FA03FC20FA01F225FA01F1F6
:100418009D402A434FEA1C471FFA8CFEB1FBF7F0B8
:1004280007FB1015110C41EA054100FB0EF58D4242
:1004380004FA03F408D91CEB010100F1FF382FD2AC
:100448008D422DD902386144491B92B2B1FBF7F5B0
:1004580007FB151142EA014205FB0EF1914208D94A
:100468001CEB020205F1FF3816D2914214D9023D65
:100478006244521A45EA004138E73146304608E7F7
:100488003946E6E61046FBE64845A9D2B9EB02082C
:1004980065EB0C0E013BA3E74546EAE72B4694E7DC
:1004A8004046D1E7D0467BE7023D624432E7084642
:1004B8000AE76444023842E7704700BF80B58EB04F
:1004C80000AF07F11C0300221A605A609A60DA60D4
:1004D8001A615A619A613B4600221A605A609A6012
:1004E800DA601A615A619A612F4B4FF020421A6004
:1004F8002D4B2E4A5A602C4B00229A602A4B002220
:10050800DA60294B00221A61274B10225A61264BC8
:1005180000229A61244B0022DA61234B00221A62DE
:10052800214B00225A62204B4FF480529A621E4B94
:100538000022DA621C4B4FF480421A631A4B0022E5
:100548005A63194B00229A63174B00225A640F23EF
:10055800FB610F233B623C237B620023BB621023B9
:10056800FB6211233B6300237B6308233B600F235B
:100578007B600923BB600023FB6010233B611123D0
:100588007B610023BB613A4607F11C031946064804
:1005980002F094FC0346002B01D000F0A9FD00BF37
:1005A8003837BD4680BD00BF28000020040100A0E8
:1005B80080B586B000AF3B1D00221A605A609A6071
:1005C800DA601A611C4B1B68002B31D11A4B0122CF
:1005D8001A6000233B60194B9B6B184A43F00103D8
:1005E8009363164B9B6B03F001033B603B684FF62C
:1005F80088737B600223BB600023FB6003233B619D
:100608000C237B613B1D19460D4801F069FB4CF238
:10061800B3737B600223BB600023FB6003233B6151
:100628000C237B613B1D1946064801F059FB00E08D
:1006380000BF1837BD4680BD780000200038024052
:1006480000100240000C024080B582B000AF786014
:10065800FFF7AEFF00BF0837BD4680BD80B58CB040
:1006680000AF07F11C0300221A605A609A60DA6032
:100678001A610023BB615C4B1B6B5B4A43F01003A0
:100688001363594B1B6B03F01003BB61BB69002359
:100698007B61554B1B6B544A43F004031363524B65
:1006A8001B6B03F004037B617B6900233B614E4BAA
:1006B8001B6B4D4A43F0080313634B4B1B6B03F052
:1006C80008033B613B690023FB60474B1B6B464AB1
:1006D80043F040031363444B1B6B03F04003FB6080
:1006E800FB680023BB60404B1B6B3F4A43F0010390
:1006F80013633D4B1B6B03F00103BB60BB68002316
:100708007B60394B1B6B384A43F002031363364B4B
:100718001B6B03F002037B607B68002210213348C7
:1007280001F07AFC00224FF40051314801F074FCCA
:10073800002240212F4801F06FFC00224FF4807105
:100748002D4801F069FC002208212C4801F064FCC6
:100758001023FB6101233B6200237B620023BB6201
:1007680007F11C031946214801F0BAFA4FF4005367
:10077800FB6101233B6200237B620023BB6207F11C
:100788001C0319461A4801F0ABFA4023FB61012308
:100798003B6200237B620023BB6207F11C031946FE
:1007A800144801F09DFA4FF48073FB6101233B620A
:1007B80000237B620023BB6207F11C0319460E4825
:1007C80001F08EFA0823FB6101233B6200237B6260
:1007D8000023BB6207F11C031946084801F080FAA0
:1007E80000BF3037BD4680BD0038024000100240CF
:1007F800000802400018024000000240000C0240BD
:1008080080B500AF124B134A1A60114B124A5A6056
:100818000F4B00229A600E4B0022DA600C4B4FF40B
:1008280080421A610A4B00225A61094B00229A61E0
:10083800074B0022DA61064B00221A62044801F0D5
:1008480005FC0346002B01D000F052FC00BF80BD20
:100858007C00002000540040A086010080B58AB0CA
:1008680000AF786007F1140300221A605A609A609A
:10087800DA601A617B681B68194A93422BD10023FE
:100888003B61184B1B6B174A43F002031363154B6C
:100898001B6B03F002033B613B69C0237B6112239E
:1008A800BB610023FB6103233B6204237B6207F1E6
:1008B800140319460C4801F013FA0023FB60094B96
:1008C8001B6C084A43F400131364064B1B6C03F4B7
:1008D8000013FB60FB6800BF2837BD4680BD00BF22
:1008E80000540040003802400004024080B483B045
:1008F80000AF0346FB80044AFB88138000BF0C3717
:10090800BD465DF8047B7047FEFF0F6080B483B07E
:1009180000AF0346FB80044AFB88538000BF0C37B6
:10092800BD465DF8047B7047FEFF0F6080B483B05E
:1009380000AF064B5B889BB2FB80FB889BB21846D6
:100948000C37BD465DF8047B704700BFFEFF0F60A3
:1009580090B583B000AF0446084611461A462346B0
:10096800FB800346BB800B467B8013463B802A20D6
:10097800FFF7BCFFFB881B0A9BB21846FFF7C6FFB0
:10098800FB88DBB29BB21846FFF7C0FF7B881B0AC7
:100998009BB21846FFF7BAFF7B88DBB29BB21846BA
:1009A800FFF7B4FF2B20FFF7A1FFBB881B0A9BB200
:1009B8001846FFF7ABFFBB88DBB29BB21846FFF7C0
:1009C800A5FF3B881B0A9BB21846FFF79FFF3B8891
:1009D800DBB29BB21846FFF799FF2C20FFF786FF82
:1009E80000BF0C37BD4690BD80B584B000AF03464C
:1009F800FB80154B1B88013B9AB2134B5B88013B6C
:100A08009BB200210020FFF7A3FF0023FB8111E028
:100A18000023BB8106E0FB881846FFF777FFBB89F8
:100A28000133BB81084B5B88BA899A42F3D3FB89AF
:100A38000133FB81044B1B88FA899A42E8D300BF33
:100A480000BF1037BD4680BDD000002080B582B001
:100A580000AF0346FB800B46BB8013467B80BB88F8
:100A6800FA88B988F888FFF773FF7B881846FFF77C
:100A78004DFF00BF0837BD4680BD000090B587B068
:100A880000AF0446084611461A462346FB80034633
:100A9800BB800B46FB7013463B8000237B75FB88AD
:100AA8003B8297F82C305B08FB73FB7BDB08DBB2DF
:100AB8001A46FB7B03F00703DBB2002B14BF0123AC
:100AC8000023DBB213449AB297F82C309BB212FB86
:100AD80003F3BB81FB78203BFB70FB7B9AB2FB885E
:100AE80013449BB2013B9CB297F82C309AB2BB8856
:100AF80013449BB2013B9BB2B988F8882246FFF7A2
:100B080027FF00237B827AE097F82C300C2B28D023
:100B180097F82C30102B08D1FA787B8A3C491201BF
:100B28000A4413441B78FB751BE097F82C30182BEC
:100B38000BD1FA78798A374813465B0013441B01B6
:100B480003440B441B78FB750BE097F82C30202BE3
:100B58005AD1FA787B8A304992010A4413441B78A7
:100B6800FB750023BB7544E097F83030002B20D18B
:100B7800FA7DBB7D42FA03F303F00103002B04D096
:100B88003B881846FFF7C2FE03E03B8D1846FFF787
:100B9800BDFE7B7D01337B757B7DFA7BB3FBF2F178
:100BA80001FB02F29B1ADBB2002B1FD100237B75DD
:100BB80022E0FA7DBB7D42FA03F303F00103002B28
:100BC80005D03A88B988FB881846FFF73FFFFB88AD
:100BD8000133FB80FA883B8AD21AFB7B9A4205D103
:100BE8003B8AFB80BB880133BB8005E0BB7D0133BA
:100BF800BB75BB7D072BB7D97B8A01337B827A8A89
:100C0800BB899A4280D300E000BF1C37BD4690BD27
:100C1800A8480008984E00086860000880B483B0AF
:100C280000AF0346FB71FB791B09DBB203F003033A
:100C3800DBB2002B07D00A4B4FF4A0721A80084B86
:100C4800F0225A8006E0064BF0221A80044B4FF43B
:100C5800A0725A8000BF0C37BD465DF8047B704710
:100C6800D000002080B500AF00224FF40051AA4800
:100C780001F0D2F94FF4FA7000F06AFE01224FF445
:100C88000051A54801F0C8F94FF4FA7000F060FE71
:100C98000020FFF7C3FFD320FFF728FEFFF746FE2B
:100CA80003461A469D4B9A80FFF740FE03461A46B4
:100CB8009A4B9A80FFF73AFE03461A46974B9A805A
:100CC800964B9B881B029AB2944B9A80FFF72EFE94
:100CD80003461A46914B9B8813439AB28F4B9A80CE
:100CE800CF20FFF703FE0020FFF710FEC120FFF71B
:100CF8000DFE3020FFF70AFEED20FFF7F7FD642018
:100D0800FFF704FE0320FFF701FE1220FFF7FEFDA8
:100D18008120FFF7FBFDE820FFF7E8FD8520FFF7BE
:100D2800F5FD1020FFF7F2FD7A20FFF7EFFDCB204D
:100D3800FFF7DCFD3920FFF7E9FD2C20FFF7E6FD82
:100D48000020FFF7E3FD3420FFF7E0FD0220FFF766
:100D5800DDFDF720FFF7CAFD2020FFF7D7FDEA20C9
:100D6800FFF7C4FD0020FFF7D1FD0020FFF7CEFDFF
:100D7800C020FFF7BBFD1B20FFF7C8FDC120FFF710
:100D8800B5FD0120FFF7C2FDC520FFF7AFFD3020FC
:100D9800FFF7BCFD3020FFF7B9FDC720FFF7A6FD20
:100DA800B720FFF7B3FD3620FFF7A0FD0820FFF7B7
:100DB800ADFD3A20FFF79AFD5520FFF7A7FDB120BA
:100DC800FFF794FD0020FFF7A1FD1A20FFF79EFD15
:100DD800B620FFF78BFD0A20FFF798FDA220FFF74A
:100DE80095FDF220FFF782FD0020FFF78FFD2620FA
:100DF800FFF77CFD0120FFF789FDE020FFF776FD76
:100E08000F20FFF783FD2A20FFF780FD2820FFF73A
:100E18007DFD0820FFF77AFD0E20FFF777FD0820FB
:100E2800FFF774FD5420FFF771FDA920FFF76EFD51
:100E38004320FFF76BFD0A20FFF768FD0F20FFF73F
:100E480065FD0020FFF762FD0020FFF75FFD002031
:100E5800FFF75CFD0020FFF759FDE120FFF746FD95
:100E68000020FFF753FD1520FFF750FD1720FFF76F
:100E78004DFD0720FFF74AFD1120FFF747FD06202B
:100E8800FFF744FD2B20FFF741FD5620FFF73EFDFD
:100E98003C20FFF73BFD0520FFF738FD1020FFF74A
:100EA80035FD0F20FFF732FD3F20FFF72FFD3F20D4
:100EB800FFF72CFD0F20FFF729FD2B20FFF716FD6C
:100EC8000020FFF723FD0020FFF720FD0120FFF79A
:100ED8001DFD3F20FFF71AFD2A20FFF707FD002020
:100EE800FFF714FD0020FFF711FD0020FFF70EFDAE
:100EF800EF20FFF70BFD1120FFF7F8FC782000F03A
:100F080027FD2920FFF7F2FC01224FF480710448E5
:100F180001F082F800BF80BD00080240D000002028
:100F28000000024090B58BB004AFBA601A46034681
:100F3800FB810B46BB811346FB80FB89BB820023E8
:100F4800FB7548E0FB7D002B45D1FA89264B1B88B1
:100F5800194697F82C305B08DBB2CB1A9A423FDC73
:100F6800BA89214B5B88194697F82C30CB1A9A42DC
:100F780036DCBB681B78802B02D90123FB752AE07D
:100F8800BB681B780D2B0BD197F82C309AB2BB8914
:100F98001344BB81BB8AFB81BB680133BB6017E08C
:100FA800BB681A78FC88B989F88997F830300293B9
:100FB80097F82C3001933B8D00932346FFF75EFD95
:100FC80097F82C305B08DBB29AB2FB891344FB819B
:100FD800BB680133BB60BB681B78002BB2D100E053
:100FE80000BF1C37BD4690BDD000002080B500AFC3
:100FF80000F03CFC00F012F8FFF730FB00F0CEFAEE
:10100800FFF75CFA00F0AEF9FFF7FAFB00F08AFB95
:1010180000F09EFA00F0A9FAFCE7000080B594B051
:1010280000AF07F1200330220021184603F0EEFB41
:1010380007F10C0300221A605A609A60DA601A619C
:101048000023BB60284B1B6C274A43F08053136472
:10105800254B1B6C03F08053BB60BB6800237B608F
:10106800224B1B68214A43F4804313601F4B1B68C3
:1010780003F480437B607B6802233B620123FB62AD
:1010880010233B630223BB630023FB6308233B64F9
:10109800A8237B640223BB640423FB6407F12003B9
:1010A800184601F017F90346002B01D000F020F88C
:1010B8000F23FB6002233B6100237B614FF4A053A5
:1010C800BB614FF4A053FB6107F10C0305211846DF
:1010D80001F078FB0346002B01D000F009F800BFAF
:1010E8005037BD4680BD00BF003802400070004048
:1010F80080B400AF72B600BFFEE7000080B400AF56
:101108001A4B4FF4FC621A60184B00225A60174BB6
:1011180096221A72154B64225A72144B6E229A72D6
:10112800124B6422DA72114B46221A730F4B642257
:101138005A730E4B14229A730C4B9A22DA730B4B88
:1011480046221A74094B9A225A74084B6E229A74D2
:10115800064B9A22DA74054B96221A75034B9A228B
:101168005A7500BFBD465DF8047B7047D800002063
:1011780090B585B004AF0020FFF736FC534B9B7B3E
:1011880098B2524BDB7B9BB2183B99B24F4B1B6812
:101198009AB24E4B5B689BB20024029418240194C7
:1011A800009313464A4AFFF7BDFE484B1B7A98B294
:1011B800464B5B7A9BB2183B99B2444B1B689AB278
:1011C800424B5B689BB2002402941824019400935C
:1011D8001346404AFFF7A6FE3C4B9B7A98B23B4B1E
:1011E800DB7A9BB2183B99B2384B1B689AB2374BE3
:1011F8005B689BB200240294182401940093134660
:10120800354AFFF78FFE314B1B7B9BB2183B98B2D8
:101218002E4B5B7B9BB2183B99B22C4B1B689AB246
:101228002A4B5B689BB20024029418240194009313
:1012380013462A4AFFF776FE244B1B7C98B2234BB1
:101248005B7C9BB2183B99B2204B1B689AB21F4B30
:101258005B689BB2002402941824019400931346FF
:101268001F4AFFF75FFE194B9B7C98B2174BDB7C3C
:101278009BB2183B99B2154B1B689AB2134B5B682B
:101288009BB2002402941824019400931346154A33
:10129800FFF748FE0D4B1B7D98B20C4B5B7D9BB254
:1012A800183B99B2094B1B689AB2084B5B689BB212
:1012B8000024029418240194009313460A4AFFF765
:1012C80031FE00BF0437BD4690BD00BFD8000020E6
:1012D800884800088C48000890480008944800088E
:1012E8009C480008A0480008A448000880B582B0BF
:1012F80000AF786000F004F800BF0837BD4680BD35
:1013080080B483B000AF00237B601FE0144A7B6881
:1013180012F83330002B16D0114A7B68DB001344D7
:101328005B685A1E0E497B68DB000B445A600C4A06
:101338007B68DB0013445B68002B04D1084A7B6898
:10134800002102F833107B6801337B607B68022B35
:10135800DCD900BF00BF0C37BD465DF8047B704781
:10136800F000002080B500AF174B184A1A60164BE2
:101378004FF482725A60144B00229A60124B00227A
:10138800DA60114B00221A610F4B00225A610E4B92
:101398004FF400729A610C4B0022DA610A4B00226A
:1013A8001A62094B00225A62074B00229A62064BC6
:1013B8000A22DA62044801F0E5FB0346002B01D05B
:1013C800FFF796FE00BF80BD0801002000300140F5
:1013D80080B58AB000AF786007F1140300221A6064
:1013E8005A609A60DA601A617B681B681D4A9342EA
:1013F80033D100233B611C4B5B6C1B4A43F4805385
:101408005364194B5B6C03F480533B613B690023C5
:10141800FB60154B1B6B144A43F002031363124B1A
:101428001B6B03F00203FB60FB6838237B6102231C
:10143800BB610023FB6103233B6205237B6207F149
:1014480014031946094800F04BFC00220021232010
:1014580000F07DFB232000F096FB00BF2837BD4637
:1014680080BD00BF00300140003802400004024047
:1014780080B483B000AF00237B60104B5B6C0F4AD5
:1014880043F4804353640D4B5B6C03F480437B60EF
:101498007B6800233B60094B1B6C084A43F0805370
:1014A8001364064B1B6C03F080533B603B6800BF22
:1014B8000C37BD465DF8047B704700BF003802401A
:1014C80080B400AFFEE780B400AFFEE780B400AFA1
:1014D800FEE780B400AFFEE780B400AFFEE780B45B
:1014E80000AF00BFBD465DF8047B704780B400AF15
:1014F80000BFBD465DF8047B704780B400AF00BFF5
:10150800BD465DF8047B704780B500AF00F000FA77
:1015180000BF80BD80B500AF024801F066FD00BF86
:1015280080BD00BF6001002080B500AF024801F017
:10153800B3FB00BF80BD00BF0801002080B500AF2D
:10154800024802F091F900BF80BD00BF1C020020D4
:1015580080B500AFFFF786FB0020FFF745FAFFF7DD
:10156800CDFDFFF705FE00BF80BD80B400AF00BF12
:10157800BD465DF8047B704780B400AF064BD3F8D6
:101588008830054A43F47003C2F8883000BFBD466E
:101598005DF8047B704700BF00ED00E080B586B0C1
:1015A80000AF07F1080300221A605A609A60DA60F7
:1015B8003B4600221A605A601D4B4FF080421A6069
:1015C8001B4B53225A601A4B00229A60184B4FF457
:1015D8007A72DA60164B00221A61154B00229A6162
:1015E800134801F0B3FC0346002B01D0FFF780FD40
:1015F8004FF48053BB6007F1080319460C4801F00B
:10160800FCFD0346002B01D0FFF772FD00233B6071
:1016180000237B603B461946054802F017F803464D
:10162800002B01D0FFF764FD00BF1837BD4680BD11
:101638006001002080B584B000AF78607B681B68CB
:10164800B3F1804F15D10023FB600C4B1B6C0B4A88
:1016580043F001031364094B1B6C03F00103FB60A7
:10166800FB68002200211C2000F071FA1C2000F009
:101678008AFA00BF1037BD4680BD00BF003802405F
:1016880080B485B000AF0346FB71104B9B6E0133ED
:10169800FB60FB68632B01D90023FB600B4B5B6E7F
:1016A800FA689A4203D1094B012283F86C20074B50
:1016B8009B6E0649FA79CA54044AFB68936600BFD0
:1016C8001437BD465DF8047B704700BFA8010020B1
:1016D80080B582B000AF78607B681B680C4A934283
:1016E80011D10C4B1B78032B08D10B4B1B781846D8
:1016F800FFF7C6FF094B012283F86D200122064936
:10170800074802F080F800BF0837BD4680BD00BF1B
:1017180000100140D600002018020020A801002077
:101728001C02002080B500AF114B124A1A60104B02
:101738004FF4E1325A600E4B00229A600C4B0022A3
:10174800DA600B4B00221A61094B0C225A61084BD4
:1017580000229A61064B0022DA61054802F006F879
:101768000346002B01D0FFF7C3FC00BF80BD00BFBC
:101778001C0200200010014080B58AB000AF7860DC
:1017880007F1140300221A605A609A60DA601A613D
:101798007B681B681D4A934234D100233B611C4B74
:1017A8005B6C1B4A43F010035364194B5B6C03F0EA
:1017B80010033B613B690023FB60154B1B6B144A0C
:1017C80043F001031363124B1B6B03F00103FB602F
:1017D800FB684FF4C0637B610223BB610023FB619C
:1017E80003233B6207237B6207F114031946094868
:1017F80000F076FA00220021252000F0A8F9252023
:1018080000F0C1F900BF2837BD4680BD0010014077
:101818000038024000000240DFF834D00D480E497D
:101828000E4A002302E0D458C4500433C4188C4232
:10183800F9D30B4A0B4C002301E013600432A24297
:10184800FBD3FFF799FE02F0E9FFFFF7CFFB7047E4
:1018580000000220000000200C0000205078000842
:101868000C00002064020020FEE7000080B500AFF5
:101878000E4B1B680D4A43F4007313600B4B1B6837
:101888000A4A43F480631360084B1B68074A43F411
:1018980080731360032000F04FF90F2000F008F860
:1018A800FFF7E6FD0023184680BD00BF003C02405C
:1018B80080B582B000AF7860124B1A68124B1B7863
:1018C80019464FF47A73B3FBF1F3B2FBF3F31846FE
:1018D80000F067F90346002B01D001230EE07B6876
:1018E8000F2B0AD8002279684FF0FF3000F02FF94B
:1018F800064A7B681360002300E001231846083776
:10190800BD4680BD00000020080000200400002023
:1019180080B400AF064B1B781A46064B1B6813446D
:10192800044A136000BFBD465DF8047B704700BFE2
:10193800080000206002002080B400AF034B1B6841
:101948001846BD465DF8047B704700BF6002002062
:1019580080B584B000AF7860FFF7EEFFB8607B68B1
:10196800FB60FB68B3F1FF3F05D00A4B1B781A46B2
:10197800FB681344FB6000BFFFF7DEFF0246BB684D
:10198800D31AFA689A42F7D800BF00BF1037BD468D
:1019980080BD00BF0800002080B485B000AF78602B
:1019A8007B6803F00703FB600C4BDB68BB60BA681D
:1019B8004FF6FF031340BB60FB681A02BB68134372
:1019C80043F0BF6343F40033BB60044ABB68D36091
:1019D80000BF1437BD465DF8047B704700ED00E09A
:1019E80080B400AF044BDB681B0A03F007031846FA
:1019F800BD465DF8047B704700ED00E080B483B01D
:101A080000AF0346FB7197F90730002B0BDBFB791E
:101A180003F01F02074997F907305B09012000FA14
:101A280002F241F8232000BF0C37BD465DF8047B65
:101A3800704700BF00E100E080B483B000AF034608
:101A48003960FB7197F90730002B0ADB3B68DAB283
:101A58000C4997F907301201D2B20B4483F80023DE
:101A68000AE03B68DAB20849FB7903F00F03043B4C
:101A78001201D2B20B441A7600BF0C37BD465DF88E
:101A8800047B704700E100E000ED00E080B489B01D
:101A980000AFF860B9607A60FB6803F00703FB6188
:101AA800FB69C3F10703042B28BF0423BB61FB694F
:101AB8000433062B02D9FB69033B00E000237B615A
:101AC8004FF0FF32BB6902FA03F3DA43BB681A40EE
:101AD8007B699A404FF0FF317B6901FA03F3D943E0
:101AE8007B680B40134318462437BD465DF8047BDA
:101AF8007047000080B582B000AF78607B68013B1A
:101B0800B3F1807F01D301230FE00A4A7B68013BD0
:101B180053600F214FF0FF30FFF78EFF054B002277
:101B28009A60044B07221A60002318460837BD46FE
:101B380080BD00BF10E000E080B582B000AF7860E3
:101B48007868FFF729FF00BF0837BD4680BD80B51C
:101B580086B000AF0346B9607A60FB7300237B61EF
:101B6800FFF73EFF78617A68B9687869FFF78EFFFA
:101B7800024697F90F3011461846FFF75DFF00BF80
:101B88001837BD4680BD80B582B000AF0346FB71F3
:101B980097F907301846FFF731FF00BF0837BD46F1
:101BA80080BD80B582B000AF78607868FFF7A2FF8B
:101BB800034618460837BD4680BD80B584B000AFDF
:101BC80078607B689B6DFB60FFF7B6FEB8607B684A
:101BD80093F83530DBB2022B08D07B6880225A6537
:101BE8007B68002283F83420012352E07B681B685D
:101BF8001A687B681B6822F016021A607B681B68EB
:101C08005A697B681B6822F080025A617B681B6CEA
:101C1800002B03D17B689B6C002B07D07B681B686B
:101C28001A687B681B6822F008021A607B681B68C8
:101C38001A687B681B6822F001021A6013E0FFF73C
:101C48007BFE0246BB68D31A052B0CD97B68202281
:101C58005A657B68032283F835207B68002283F865
:101C68003420032315E07B681B681B6803F001031D
:101C7800002BE4D17B68DB6D3F229A40FB689A60B9
:101C88007B68012283F835207B68002283F83420A2
:101C9800002318461037BD4680BD80B483B000AF1E
:101CA80078607B6893F83530DBB2022B04D07B6810
:101CB80080225A6501230CE07B68052283F83520D1
:101CC8007B681B681A687B681B6822F001021A602F
:101CD800002318460C37BD465DF8047B70470000AA
:101CE80080B489B000AF7860396000237B6100233D
:101CF8003B610023BB610023FB616BE10122FB69AF
:101D080002FA03F37B613B681B687A6913403B6105
:101D18003A697B699A4240F05A813B685B6803F0F4
:101D28000303012B05D03B685B6803F00303022B18
:101D380030D17B689B68BB61FB695B00032202FAB8
:101D480003F3DB43BA691340BB613B68DA68FB699C
:101D58005B0002FA03F3BA691343BB617B68BA6993
:101D68009A607B685B68BB610122FB6902FA03F336
:101D7800DB43BA691340BB613B685B681B0903F02E
:101D88000102FB6902FA03F3BA691343BB617B687A
:101D9800BA695A603B685B6803F00303032B17D0EA
:101DA8007B68DB68BB61FB695B00032202FA03F313
:101DB800DB43BA691340BB613B689A68FB695B0007
:101DC80002FA03F3BA691343BB617B68BA69DA6044
:101DD8003B685B6803F00303022B23D1FB69DA0835
:101DE8007B68083253F82230BB61FB6903F00703B4
:101DF8009B000F2202FA03F3DB43BA691340BB616D
:101E08003B681A69FB6903F007039B0002FA03F3B6
:101E1800BA691343BB61FB69DA087B680832B969A0
:101E280043F822107B681B68BB61FB695B000322D7
:101E380002FA03F3DB43BA691340BB613B685B6892
:101E480003F00302FB695B0002FA03F3BA69134368
:101E5800BB617B68BA691A603B685B6803F440330E
:101E6800002B00F0B4800023FB60604B5B6C5F4A82
:101E780043F4804353645D4B5B6C03F48043FB6025
:101E8800FB685B4AFB699B08023352F82330BB614D
:101E9800FB6903F003039B000F2202FA03F3DB4301
:101EA800BA691340BB617B68524A93422BD07B6866
:101EB800514A934225D07B68504A93421FD07B6891
:101EC8004F4A934219D07B684E4A934213D07B689D
:101ED8004D4A93420DD07B684C4A934207D07B68A9
:101EE8004B4A934201D107230EE008230CE0062356
:101EF8000AE0052308E0042306E0032304E00223A4
:101F080002E0012300E00023FA6902F003029200D4
:101F18009340BA691343BB613549FB699B08023397
:101F2800BA6941F823203B4B9B68BB613B69DB43A3
:101F3800BA691340BB613B685B6803F48013002BEC
:101F480003D0BA693B691343BB61324ABB699360EA
:101F5800304BDB68BB613B69DB43BA691340BB614B
:101F68003B685B6803F40013002B03D0BA693B6934
:101F78001343BB61274ABB69D360264B5B68BB61CF
:101F88003B69DB43BA691340BB613B685B6803F498
:101F98000033002B03D0BA693B691343BB611D4A68
:101FA800BB6953601B4B1B68BB613B69DB43BA6968
:101FB8001340BB613B685B6803F48033002B03D09C
:101FC800BA693B691343BB61124ABB691360FB6979
:101FD8000133FB61FB690F2B7FF690AE00BF00BF9A
:101FE8002437BD465DF8047B704700BF00380240C7
:101FF800003801400000024000040240000802408E
:10200800000C024000100240001402400018024078
:10201800001C0240003C014080B483B000AF7860EF
:102028000B467B8013467B707B78002B03D07A8825
:102038007B689A6103E07B881A047B689A6100BF19
:102048000C37BD465DF8047B7047000080B584B04E
:1020580000AF78607B68002B01D101232BE17B68FE
:1020680093F83D30DBB2002B06D17B68002283F861
:102078003C207868FEF7F2FB7B68242283F83D2039
:102088007B681B681A687B681B6822F001021A606B
:102098007B681B681A687B681B6842F400421A60F8
:1020A8007B681B681A687B681B6822F400421A6008
:1020B80000F040FDF8607B685B68814A934207D86E
:1020C800FB68804A934294BF01230023DBB206E0F9
:1020D800FB687D4A934294BF01230023DBB2002BA7
:1020E80001D00123E7E0FB68784AA2FB03239B0C9D
:1020F800BB607B681B685B6823F03F017B681B68DB
:10210800BA680A435A607B681B681B6A23F03F0160
:102118007B685B686A4A934202D8BB68013309E06E
:10212800BB684FF4967202FB03F3694AA2FB0323D0
:102138009B0901337A6812680B4313627B681B683A
:10214800DB6923F44F4222F0FF027B685B685C493D
:102158008B4219D8FB68591E7B685B685B00B1FB32
:10216800F3F3591C40F6FC730B40002B0AD0FB68B4
:10217800591E7B685B685B00B1FBF3F30133C3F363
:102188000B0351E004234FE07B689B68002B11D1BF
:10219800FB68581E7B6859680B465B000B44B0FB14
:1021A800F3F30133C3F30B03002B0CBF012300230C
:1021B800DBB212E0FB68581E7B6859680B469B002F
:1021C8000B4499000B44B0FBF3F30133C3F30B0347
:1021D800002B0CBF01230023DBB2002B01D001230D
:1021E80022E07B689B68002B0ED1FB68581E7B6839
:1021F80059680B465B000B44B0FBF3F30133C3F3A0
:102208000B0343F400430FE0FB68581E7B685968D2
:102218000B469B000B4499000B44B0FBF3F30133CE
:10222800C3F30B0343F44043796809681343CB6154
:102238007B681B681B6823F0C0017B68DA697B68D0
:102248001B6A1A437B681B680A431A607B681B6811
:102258009B6823F4034323F0FF037A6811697A68C3
:10226800D26811437A6812680B4393607B681B68D5
:10227800DB6823F0FF017B685A697B689B691A4316
:102288007B681B680A43DA607B681B681A687B688E
:102298001B6842F001021A607B6800221A647B689E
:1022A800202283F83D207B6800221A637B68002285
:1022B80083F83E20002318461037BD4680BD00BF76
:1022C800A08601007F841E00FF083D0083DE1B43BB
:1022D800D34D621080B586B000AF78607B68002B64
:1022E80001D1012367E27B681B6803F00103002B1F
:1022F80075D0884B9B6803F00C03042B0CD0854BDE
:102308009B6803F00C03082B12D1824B5B6803F423
:102318008003B3F5800F0BD17E4B1B6803F40033A9
:10232800002B5BD07B685B68002B57D1012342E20E
:102338007B685B68B3F5803F06D1764B1B68754AAE
:1023480043F4803313601DE07B685B68B3F5A02F0E
:102358000CD1704B1B686F4A43F4802313606D4B9C
:102368001B686C4A43F4803313600BE0694B1B68AD
:10237800684A23F480331360664B1B68654A23F46C
:10238800802313607B685B68002B13D0FFF7D4FAB7
:10239800386108E0FFF7D0FA02463B69D31A642B8C
:1023A80001D9032307E25B4B1B6803F40033002BBE
:1023B800F0D014E0FFF7C0FA386108E0FFF7BCFA84
:1023C80002463B69D31A642B01D90323F3E1514B2D
:1023D8001B6803F40033002BF0D100E000BF7B68DA
:1023E8001B6803F00203002B63D04A4B9B6803F081
:1023F8000C03002B0BD0474B9B6803F00C03082BF6
:102408001CD1444B5B6803F48003002B16D1414B6D
:102418001B6803F00203002B05D07B68DB68012BE7
:1024280001D00123C7E13B4B1B6823F0F8027B680E
:102438001B69DB00374913430B603AE07B68DB68B4
:10244800002B20D0344B01221A60FFF775FA38614F
:1024580008E0FFF771FA02463B69D31A022B01D94B
:102468000323A8E12B4B1B6803F00203002BF0D0D9
:10247800284B1B6823F0F8027B681B69DB002549A1
:1024880013430B6015E0244B00221A60FFF754FA3F
:10249800386108E0FFF750FA02463B69D31A022B6D
:1024A80001D9032387E11B4B1B6803F00203002BB0
:1024B800F0D17B681B6803F00803002B36D07B68DB
:1024C8005B69002B16D0154B01221A60FFF734FA0E
:1024D800386108E0FFF730FA02463B69D31A022B4D
:1024E80001D9032367E10B4B5B6F03F00203002B59
:1024F800F0D01BE0094B00221A60FFF71DFA386183
:102508000EE0FFF719FA02463B69D31A022B07D9E6
:10251800032350E10038024000004742800E474242
:10252800884B5B6F03F00203002BEAD17B681B68C2
:1025380003F00403002B00F097800023FB75814B08
:102548001B6C03F08053002B0FD10023BB607D4B25
:102558001B6C7C4A43F0805313647A4B1B6C03F06A
:102568008053BB60BB680123FB75774B1B6803F482
:102578008073002B18D1744B1B68734A43F4807323
:102588001360FFF7D9F9386108E0FFF7D5F902467B
:102598003B69D31A022B01D903230CE16A4B1B6850
:1025A80003F48073002BF0D07B689B68012B06D165
:1025B800644B1B6F634A43F0010313671CE07B689D
:1025C8009B68052B0CD15F4B1B6F5E4A43F00403DD
:1025D80013675C4B1B6F5B4A43F0010313670BE007
:1025E800584B1B6F574A23F001031367554B1B6F5A
:1025F800544A23F0040313677B689B68002B15D0AB
:10260800FFF79AF938610AE0FFF796F902463B6945
:10261800D31A41F28832934201D90323CBE0494BC4
:102628001B6F03F00203002BEED014E0FFF784F9D0
:1026380038610AE0FFF780F902463B69D31A41F294
:102648008832934201D90323B5E03E4B1B6F03F058
:102658000203002BEED1FB7D012B05D1394B1B6CFE
:10266800384A23F0805313647B689B69002B00F081
:10267800A180344B9B6803F00C03082B5CD07B686B
:102688009B69022B41D1314B00221A60FFF754F9A4
:10269800386108E0FFF750F902463B69D31A022B6C
:1026A80001D9032387E0274B1B6803F00073002B35
:1026B800F0D17B68DA697B681B6A1A437B685B6ABE
:1026C8009B011A437B689B6A5B08013B1B041A4306
:1026D8007B68DB6A1B061B4913434B601B4B0122BB
:1026E8001A60FFF729F9386108E0FFF725F9024673
:1026F8003B69D31A022B01D903235CE0114B1B68F9
:1027080003F00073002BF0D054E0104B00221A6045
:10271800FFF712F9386108E0FFF70EF902463B6946
:10272800D31A022B01D9032345E0064B1B6803F09B
:102738000073002BF0D13DE07B689B69012B07D12A
:10274800012338E000380240007000406000474232
:102758001B4B5B68FB607B689B69012B28D0FB687F
:1027680003F480027B68DB699A4221D1FB6803F09D
:102778003F027B681B6A9A421AD1FA6847F6C0730F
:1027880013407A68526A9201934211D1FB6803F4AC
:1027980040327B689B6A5B08013B1B049A4207D165
:1027A800FB6803F070627B68DB6A1B069A4201D003
:1027B800012300E0002318461837BD4680BD00BF3E
:1027C8000038024080B584B000AF786039607B681B
:1027D800002B01D10123CCE0684B1B6803F00703F1
:1027E8003A689A420CD9654B3A68D2B21A70634B70
:1027F8001B6803F007033A689A4201D00123B8E046
:102808007B681B6803F00203002B20D07B681B68E1
:1028180003F00403002B05D0594B9B68584A43F436
:10282800E05393607B681B6803F00803002B05D016
:10283800534B9B68524A43F460439360504B9B68E8
:1028480023F0F0027B689B684D4913438B607B68DB
:102858001B6803F00103002B44D07B685B68012BE5
:1028680007D1474B1B6803F40033002B19D1012310
:102878007FE07B685B68022B03D07B685B68032B77
:1028880007D13F4B1B6803F00073002B09D10123CC
:102898006FE03B4B1B6803F00203002B01D10123BF
:1028A80067E0374B9B6823F003027B685B68344919
:1028B80013438B60FFF740F8F8600AE0FFF73CF835
:1028C8000246FB68D31A41F28832934201D90323A6
:1028D8004FE02B4B9B6803F00C027B685B689B0006
:1028E8009A42EBD1254B1B6803F007033A689A42DA
:1028F8000CD2224B3A68D2B21A70204B1B6803F0F4
:1029080007033A689A4201D0012332E07B681B68CA
:1029180003F00403002B08D0194B9B6823F4E05202
:102928007B68DB68164913438B607B681B6803F080
:102938000803002B09D0124B9B6823F460427B6884
:102948001B69DB000E4913438B6000F021F8024637
:102958000B4B9B681B0903F00F030A49CB5C22FA57
:1029680003F3094A1360094B1B681846FEF7A0FFDA
:10297800002318461037BD4680BD00BF003C02400A
:1029880000380240287800080000002004000020D9
:102998002DE9B04F90B000AF00237B630023FB63A9
:1029A80000233B630023BB63594B9B6803F00C0374
:1029B800082B0DD0082B00F2A180002B02D0042B8D
:1029C80003D09BE0534BBB639BE0534BBB6398E046
:1029D8004F4B5B6803F03F037B634D4B5B6803F42D
:1029E8008003002B28D04A4B5B689B0900223B627E
:1029F8007A623B6AC3F308000021474B03FB01F2EC
:102A0800002300FB03F31344434AA0FB0212FA62BB
:102A18000A46BA62FA6A1344FB627B6B0022BB6106
:102A2800FA61D7E90623D7E90A01FDF7C9FB02468F
:102A38000B461346FB6353E0354B5B689B0900224A
:102A48003B617A613B69C3F3080A4FF0000B5246B9
:102A58005B464FF000004FF00001590141EAD26196
:102A6800500102460B46B2EB0A0863EB0B094FF024
:102A780000024FF000034FEA891343EA98634FEAD4
:102A88008812B2EB080463EB09054FF000024FF01F
:102A98000003EB0043EA5473E20014461D4614EBAE
:102AA8000A033B6045EB0B037B604FF000024FF0DD
:102AB8000003D7E9004529468B02214643EA915392
:102AC80021468A02104619467B6B0022BB60FA60D9
:102AD800D7E90223FDF774FB02460B461346FB6356
:102AE8000B4B5B681B0C03F0030301335B003B6378
:102AF800FA6B3B6BB2FBF3F3BB6302E0054BBB63C2
:102B080000BFBB6B18464037BD46BDE8B08F00BF5D
:102B1800003802400024F40040787D0180B400AF02
:102B2800034B1B681846BD465DF8047B704700BF21
:102B38000000002080B500AFFFF7F0FF0246054B0C
:102B48009B689B0A03F007030349CB5C22FA03F353
:102B5800184680BD003802403878000880B500AFBC
:102B6800FFF7DCFF0246054B9B685B0B03F007038E
:102B78000349CB5C22FA03F3184680BD00380240B3
:102B88003878000880B582B000AF78607B68002B89
:102B980001D101237BE07B685B6A002B08D17B684D
:102BA8005B68B3F5827F09D07B680022DA6105E0B3
:102BB8007B6800221A617B6800225A617B680022C8
:102BC8009A627B6893F85130DBB2002B06D17B68A0
:102BD800002283F850207868FEF7FAFB7B6802220F
:102BE80083F851207B681B681A687B681B6822F091
:102BF80040021A607B685B6803F482727B689B689A
:102C080003F404431A437B68DB6803F400631A4344
:102C18007B681B6903F002031A437B685B6903F056
:102C280001031A437B689B6903F400731A437B68AA
:102C3800DB6903F038031A437B681B6A03F08003DF
:102C480042EA03017B689B6A03F400527B681B68B5
:102C58000A431A607B689B691B0C03F004017B68BC
:102C68005B6A03F010027B681B680A435A607B6842
:102C78001B68DA697B681B6822F40062DA617B688A
:102C880000225A657B68012283F8512000231846E8
:102C98000837BD4680BD000080B588B000AF7860B9
:102CA8007B681B685B68FB617B681B689B68BB6112
:102CB800BB6903F04003002B0ED1BB6903F001038D
:102CC800002B09D0FB6903F04003002B04D07B687C
:102CD8001B6C78689847CEE0BB6903F00203002BB1
:102CE80009D0FB6903F08003002B04D07B685B6C80
:102CF80078689847BFE0BB6903F02003002B0AD12E
:102D0800BB6903F04003002B05D1BB6903F4807352
:102D1800002B00F0B080FB6903F02003002B00F0CB
:102D2800AA80BB6903F04003002B23D07B6893F88B
:102D38005130DBB2032B11D07B685B6D43F004028A
:102D48007B685A6500237B617B681B68DB687B6155
:102D58007B681B689B687B617B690BE000233B6198
:102D68007B681B68DB683B617B681B689B683B6111
:102D78003B6980E0BB6903F02003002B14D07B681B
:102D88005B6D43F001027B685A650023FB607B683A
:102D98001B689B68FB607B681B681A687B681B68FC
:102DA80022F040021A60FB68BB6903F48073002BB1
:102DB8000CD07B685B6D43F008027B685A65002382
:102DC800BB607B681B689B68BB60BB687B685B6D8E
:102DD800002B4FD07B681B685A687B681B6822F001
:102DE800E0025A607B68012283F85120FB6903F0F6
:102DF8000203002B04D1FB6903F00103002B34D03C
:102E08007B681B685A687B681B6822F003025A605B
:102E18007B68DB6C002B11D07B68DB6C174A1A656A
:102E28007B68DB6C1846FEF738FF0346002B05D09D
:102E38007B685B6D43F040027B685A657B689B6CDE
:102E4800002B16D07B689B6C0C4A1A657B689B6CC0
:102E58001846FEF722FF0346002B0AD07B685B6DFD
:102E680043F040027B685A6503E0786800F008F890
:102E780000E000BF00BF2037BD4680BD9D2E000882
:102E880080B483B000AF786000BF0C37BD465DF8F2
:102E9800047B704780B584B000AF78607B689B6B1B
:102EA800FB60FB680022DA87FB680022DA86F86894
:102EB800FFF7E6FF00BF1037BD4680BD80B584B080
:102EC80000AFF860B9607A60FB68002B01D101237C
:102ED80038E0FB6893F84930DBB2002B06D1FB6879
:102EE800002283F84820F868FDF7AEFBFB681A68F3
:102EF800FB6808331946104601F0B0FBFB681868F8
:102F0800FB689B681A46B96801F012FCFB685868B0
:102F1800FB689A68FB681B6B796801F03FFCFB68EB
:102F28001B68FA68926853F82210FB681B68FA68F5
:102F3800926841F0010143F82210FB68012283F8EE
:102F48004920002318461037BD4680BD80B582B0A1
:102F580000AF78607B68002B01D1012341E07B68DA
:102F680093F83D30DBB2002B06D17B68002283F852
:102F78003C207868FEF75EFB7B68022283F83D20E0
:102F88007B681A687B6804331946104600F024FAF7
:102F98007B68012283F846207B68012283F83E2063
:102FA8007B68012283F83F207B68012283F8402058
:102FB8007B68012283F841207B68012283F8422044
:102FC8007B68012283F843207B68012283F8442030
:102FD8007B68012283F845207B68012283F83D2025
:102FE800002318460837BD4680BD80B582B000AFC3
:102FF80078607B681B681B6903F00203022B22D1EF
:103008007B681B68DB6803F00203022B1BD17B681B
:103018001B686FF002021A617B6801221A777B68CD
:103028001B689B6903F00303002B03D0786800F04A
:10303800B5F905E0786800F0A7F9786800F0B8F904
:103048007B6800221A777B681B681B6903F00403FE
:10305800042B22D17B681B68DB6803F00403042B74
:103068001BD17B681B686FF004021A617B6802221F
:103078001A777B681B689B6903F44073002B03D0A5
:10308800786800F08BF905E0786800F07DF97868D9
:1030980000F08EF97B6800221A777B681B681B6931
:1030A80003F00803082B22D17B681B68DB6803F058
:1030B8000803082B1BD17B681B686FF008021A6194
:1030C8007B6804221A777B681B68DB6903F00303BB
:1030D800002B03D0786800F061F905E0786800F00B
:1030E80053F9786800F064F97B6800221A777B68E6
:1030F8001B681B6903F01003102B22D17B681B6827
:10310800DB6803F01003102B1BD17B681B686FF082
:1031180010021A617B6808221A777B681B68DB69D2
:1031280003F44073002B03D0786800F037F905E00A
:10313800786800F029F9786800F03AF97B6800228D
:103148001A777B681B681B6903F00103012B0ED1FA
:103158007B681B68DB6803F00103012B07D17B68E0
:103168001B686FF001021A617868FEF7BFF87B6888
:103178001B681B6903F08003802B0ED17B681B68DA
:10318800DB6803F08003802B07D17B681B686FF036
:1031980080021A61786800F0DFFA7B681B681B6997
:1031A80003F04003402B0ED17B681B68DB6803F0FB
:1031B8004003402B07D17B681B686FF040021A61FF
:1031C800786800F0FFF87B681B681B6903F0200330
:1031D800202B0ED17B681B68DB6803F02003202BB3
:1031E80007D17B681B686FF020021A61786800F0CD
:1031F800A9FA00BF0837BD4680BD80B584B000AFCE
:10320800786039600023FB737B6893F83C30012BAE
:1032180001D10223B4E07B68012283F83C207B685B
:10322800022283F83D207B681B689B68BB60BB68F3
:1032380023F07703BB60BB6823F47F43BB607B68E4
:103248001B68BA689A603B681B68B3F5005F3ED09C
:10325800B3F5005F00F28780B3F5805F00F08680E9
:10326800B3F5805F7FD8702B1AD0702B7BD8602B7A
:1032780050D0602B77D8502B3CD0502B73D8402B94
:1032880058D0402B6FD8302B64D0302B6BD8202BE4
:1032980060D0202B67D8002B5CD0102B5AD062E06E
:1032A8007B6818683B6899683B685A683B68DB68C4
:1032B80000F0ACF97B681B689B68BB60BB6843F097
:1032C8007703BB607B681B68BA689A604FE07B68CD
:1032D80018683B6899683B685A683B68DB6800F087
:1032E80095F97B681B689A687B681B6842F4804282
:1032F8009A603CE07B6818683B6859683B68DB6803
:103308001A4600F009F97B681B685021184600F03E
:1033180062F92CE07B6818683B6859683B68DB6891
:103328001A4600F028F97B681B686021184600F0EF
:1033380052F91CE07B6818683B6859683B68DB6891
:103348001A4600F0E9F87B681B684021184600F02F
:1033580042F90CE07B681A683B681B6819461046FE
:1033680000F039F903E00123FB7300E000BF7B683C
:10337800012283F83D207B68002283F83C20FB7BF8
:1033880018461037BD4680BD80B483B000AF786062
:1033980000BF0C37BD465DF8047B704780B483B02E
:1033A80000AF786000BF0C37BD465DF8047B7047FE
:1033B80080B483B000AF786000BF0C37BD465DF8BD
:1033C800047B704780B483B000AF786000BF0C37CF
:1033D800BD465DF8047B704780B485B000AF786067
:1033E80039607B681B68FB607B68404A934213D056
:1033F8007B68B3F1804F0FD07B683D4A93420BD076
:103408007B683C4A934207D07B683B4A934203D08F
:103418007B683A4A934208D1FB6823F07003FB604B
:103428003B685B68FA681343FB607B682F4A9342EA
:103438002BD07B68B3F1804F27D07B682C4A93420E
:1034480023D07B682B4A93421FD07B682A4A934239
:103458001BD07B68294A934217D07B68284A93423D
:1034680013D07B68274A93420FD07B68264A934241
:103478000BD07B68254A934207D07B68244A934245
:1034880003D07B68234A934208D1FB6823F4407336
:10349800FB603B68DB68FA681343FB60FB6823F05A
:1034A80080023B685B691343FB607B68FA681A60BB
:1034B8003B689A687B68DA623B681A687B689A623C
:1034C8007B680A4A934203D07B680C4A934203D133
:1034D8003B681A697B681A637B6801225A6100BFDE
:1034E8001437BD465DF8047B704700BF00000140FB
:1034F8000004004000080040000C004000040140A7
:1035080000400140004401400048014000180040CC
:10351800001C00400020004080B487B000AFF86075
:10352800B9607A60FB681B6A7B61FB681B6A23F0E1
:103538000102FB681A62FB689B693B613B6923F0E7
:10354800F0033B617B681B013A6913433B617B696C
:1035580023F00A037B617A69BB6813437B61FB68CC
:103568003A699A61FB687A691A6200BF1C37BD46DE
:103578005DF8047B704780B487B000AFF860B9602D
:103588007A60FB681B6A23F01002FB681A62FB680A
:103598009B697B61FB681B6A3B617B6923F4704311
:1035A8007B617B681B037A6913437B613B6923F06A
:1035B800A0033B61BB681B013A6913433B61FB688D
:1035C8007A699A61FB683A691A6200BF1C37BD467E
:1035D8005DF8047B704780B485B000AF78603960CF
:1035E8007B689B68FB60FB6823F07003FB603A68AC
:1035F800FB68134343F00703FB607B68FA689A6033
:1036080000BF1437BD465DF8047B704780B487B0AF
:1036180000AFF860B9607A603B60FB689B687B61CB
:103628007B6923F47F437B613B681A027B681A43FA
:10363800BB6813437A6913437B61FB687A699A60B4
:1036480000BF1C37BD465DF8047B704780B485B069
:1036580000AF786039607B6893F83C30012B01D16A
:1036680002235AE07B68012283F83C207B6802220F
:1036780083F83D207B681B685B68FB607B681B6880
:103688009B68BB60FB6823F07003FB603B681B68AA
:10369800FA681343FB607B681B68FA685A607B68AA
:1036A8001B68214A934222D07B681B68B3F1804F84
:1036B8001DD07B681B681D4A934218D07B681B6825
:1036C8001B4A934213D07B681B681A4A93420ED058
:1036D8007B681B68184A934209D07B681B68174AA5
:1036E800934204D07B681B68154A93420CD1BB688F
:1036F80023F08003BB603B685B68BA681343BB6018
:103708007B681B68BA689A607B68012283F83D2051
:103718007B68002283F83C20002318461437BD46F6
:103728005DF8047B704700BF0000014000040040C2
:1037380000080040000C0040000401400040014027
:103748000018004080B483B000AF786000BF0C3729
:10375800BD465DF8047B704780B483B000AF7860E5
:1037680000BF0C37BD465DF8047B704780B582B05A
:1037780000AF78607B68002B01D101233FE07B68B4
:1037880093F83D30DBB2002B06D17B68002283F82A
:103798003C207868FDF7F0FF7B68242283F83D2001
:1037A8007B681B68DA687B681B6822F40052DA6061
:1037B800786800F0DFFC7B681B681A697B681B6807
:1037C80022F490421A617B681B685A697B681B68FF
:1037D80022F02A025A617B681B68DA687B681B68DA
:1037E80042F40052DA607B6800221A647B68202267
:1037F80083F83D207B68202283F83E20002318466A
:103808000837BD4680BD80B584B000AFF860B960A8
:103818001346FB80FB6893F83E30DBB2202B1DD1AA
:10382800BB68002B02D0FB88002B01D1012316E0D6
:10383800FB6893F83C30012B01D102230FE0FB68B1
:10384800012283F83C20FB6800221A63FB881A4691
:10385800B968F86800F0B6FA034600E00223184693
:103868001037BD4680BD000080B5BAB000AF7860A3
:103878007B681B681B68C7F8E4307B681B68DB68DB
:10388800C7F8E0307B681B685B69C7F8DC30002349
:10389800C7F8D8300023C7F8D430D7F8E43003F09D
:1038A8000F03C7F8D830D7F8D830002B0FD1D7F886
:1038B800E43003F02003002B09D0D7F8E03003F000
:1038C8002003002B03D0786800F099FB56E2D7F864
:1038D800D830002B00F0DE80D7F8DC3003F001038D
:1038E800002B06D1D7F8E03003F49073002B00F0DA
:1038F800D180D7F8E43003F00103002B0BD0D7F8C0
:10390800E03003F48073002B05D07B681B6C43F018
:1039180001027B681A64D7F8E43003F00403002B33
:103928000BD0D7F8DC3003F00103002B05D07B68FF
:103938001B6C43F002027B681A64D7F8E43003F08A
:103948000203002B0BD0D7F8DC3003F00103002B67
:1039580005D07B681B6C43F004027B681A64D7F8B7
:10396800E43003F00803002B11D0D7F8E03003F05F
:103978002003002B05D1D7F8DC3003F00103002B1E
:1039880005D07B681B6C43F008027B681A647B686F
:103998001B6C002B00F0ED81D7F8E43003F0200316
:1039A800002B08D0D7F8E03003F02003002B02D01A
:1039B800786800F024FB7B681B685B6903F04003B0
:1039C800402B0CBF01230023DBB2C7F8D4307B683F
:1039D8001B6C03F00803002B03D1D7F8D430002B5D
:1039E8004FD0786800F02CFA7B681B685B6903F09D
:1039F8004003402B41D17B681B681433C7F89C30C7
:103A0800D7F89C3053E8003FC7F89830D7F898307B
:103A180023F04003C7F8D0307B681B681433D7F80D
:103A2800D020C7F8A820C7F8A430D7F8A410D7F832
:103A3800A82041E80023C7F8A030D7F8A030002B11
:103A4800D9D17B689B6B002B13D07B689B6B7D4A1D
:103A58001A657B689B6B1846FEF71FF90346002B17
:103A680016D07B689B6B1B6D7A68926B10469847E3
:103A78000EE0786800F090F90AE0786800F08CF9B8
:103A880006E0786800F088F97B6800221A6470E123
:103A980000BF6EE17B681B6B012B40F04A81D7F8B1
:103AA800E43003F01003002B00F04381D7F8E03036
:103AB80003F01003002B00F03C810023BB607B68FF
:103AC8001B681B68BB607B681B685B68BB60BB6866
:103AD8007B681B685B6903F04003402B40F0B480AF
:103AE8007B689B6B1B685B68A7F8BE30B7F8BE3075
:103AF800002B00F040817B689B8DB7F8BE209A426E
:103B080080F039817B68B7F8BE20DA857B689B6BCB
:103B1800DB69B3F5807F00F088807B681B680C3315
:103B2800C7F88830D7F8883053E8003FC7F88430A2
:103B3800D7F8843023F48073C7F8B8307B681B68E3
:103B48000C33D7F8B820C7F89420C7F89030D7F8C6
:103B58009010D7F8942041E80023C7F88C30D7F8A4
:103B68008C30002BD9D17B681B6814337B677B6F43
:103B780053E8003F3B673B6F23F00103C7F8B430BD
:103B88007B681B681433D7F8B420C7F88020FB671C
:103B9800F96FD7F8802041E80023BB67BB6F002B83
:103BA800E1D17B681B6814333B663B6E53E8003FEA
:103BB800FB65FB6D23F04003C7F8B0307B681B68DA
:103BC8001433D7F8B020FA66BB66B96EFA6E41E8CE
:103BD80000237B667B6E002BE3D17B68202283F871
:103BE8003E207B6800221A637B681B680C33FB64E9
:103BF800FB6C53E8003FBB64BB6C23F01003C7F8B1
:103C0800AC307B681B680C33D7F8AC20BA657B6591
:103C1800796DBA6D41E800233B653B6D002BE3D11C
:103C28007B689B6B1846FDF7C8FF7B689A8D7B689D
:103C3800DB8D9BB2D31A9BB21946786800F0B6F8B0
:103C480099E000BF0F3F00087B689A8D7B68DB8D89
:103C58009BB2D31AA7F8CE307B68DB8D9BB2002BC2
:103C680000F08B80B7F8CE30002B00F086807B68A0
:103C78001B680C33BB63BB6B53E8003F7B637B6BF8
:103C880023F49073C7F8C8307B681B680C33D7F8E7
:103C9800C8207A643B64396C7A6C41E80023FB6382
:103CA800FB6B002BE3D17B681B6814337B627B6A58
:103CB80053E8003F3B623B6A23F00103C7F8C43076
:103CC8007B681B681433D7F8C4203A63FB62F96A2F
:103CD8003A6B41E80023BB62BB6A002BE3D17B68E7
:103CE800202283F83E207B6800221A637B681B68C9
:103CF8000C333B613B6953E8003FFB60FB6823F0F2
:103D08001003C7F8C0307B681B680C33D7F8C02095
:103D1800FA61BB61B969FA6941E800237B617B6993
:103D2800002BE3D1B7F8CE301946786800F03EF89A
:103D380023E0D7F8E43003F08003002B09D0D7F84C
:103D4800E03003F08003002B03D0786800F0EFF830
:103D580014E0D7F8E43003F04003002B0ED0D7F876
:103D6800E03003F04003002B08D0786800F02FF90A
:103D780004E000BF02E000BF00E000BFE837BD4636
:103D880080BD00BF80B483B000AF786000BF0C373F
:103D9800BD465DF8047B704780B483B000AF78609F
:103DA80000BF0C37BD465DF8047B704780B483B014
:103DB80000AF78600B467B8000BF0C37BD465DF8CE
:103DC800047B704780B485B000AFF860B9601346D3
:103DD800FB80FB68BA689A62FB68FA889A85FB6878
:103DE800FA88DA85FB6800221A64FB68222283F8C5
:103DF8003E20FB68002283F83C20FB681B69002BEF
:103E080007D0FB681B68DA68FB681B6842F480729D
:103E1800DA60FB681B685A69FB681B6842F001029C
:103E28005A61FB681B68DA68FB681B6842F020026D
:103E3800DA60002318461437BD465DF8047B7047E6
:103E480080B495B000AF78607B681B680C337B63E7
:103E58007B6B53E8003F3B633B6B23F49073FB643D
:103E68007B681B680C33FA6C3A64FB63F96B3A6C39
:103E780041E80023BB63BB6B002BE5D17B681B6863
:103E880014333B623B6A53E8003FFB61FB6923F054
:103E98000103BB647B681B681433BA6CFA62BB62AB
:103EA800B96AFA6A41E800237B627B6A002BE5D194
:103EB8007B681B6B012B19D17B681B680C33FB607B
:103EC800FB6853E8003FBB60BB6823F010037B64CA
:103ED8007B681B680C337A6CBA617B617969BA6953
:103EE80041E800233B613B69002BE5D17B68202238
:103EF80083F83E207B6800221A6300BF5437BD4612
:103F08005DF8047B704780B584B000AF78607B684B
:103F18009B6BFB60FB680022DA85FB680022DA8471
:103F2800F868FFF739FF00BF1037BD4680BD80B481
:103F380085B000AF78607B6893F83D30DBB2212B09
:103F48003ED17B689B68B3F5805F14D17B681B69A1
:103F5800002B10D17B681B6AFB60FB681B881A4624
:103F68007B681B68C2F308025A607B681B6A9A1C4C
:103F78007B681A6208E07B681B6A591C7A681162C0
:103F88001A787B681B685A607B68DB8C9BB2013BA4
:103F98009BB27A681946D184002B0FD17B681B68C5
:103FA800DA687B681B6822F08002DA607B681B682D
:103FB800DA687B681B6842F04002DA60002300E0A0
:103FC800022318461437BD465DF8047B704780B558
:103FD80082B000AF78607B681B68DA687B681B6812
:103FE80022F04002DA607B68202283F83D2078685E
:103FF800FFF7C8FE002318460837BD4680BD80B5C8
:104008008CB000AF78607B6893F83E30DBB2222B2F
:1040180040F0AB807B689B68B3F5805F17D17B6805
:104028001B69002B13D10023FB627B689B6ABB6270
:104038007B681B685B689BB2C3F308039AB2BB6AD0
:104048001A807B689B6A9A1C7B689A6226E07B6868
:104058009B6AFB620023BB627B689B68B3F5805F49
:1040680007D07B689B68002B0AD17B681B69002BF3
:1040780006D17B681B685B68DAB2FB6A1A7008E0D5
:104088007B681B685B68DBB203F07F03DAB2FB6A0C
:104098001A707B689B6A5A1C7B689A627B68DB8D06
:1040A8009BB2013B9BB27A681946D185002B5AD145
:1040B8007B681B68DA687B681B6822F02002DA607C
:1040C8007B681B68DA687B681B6822F48072DA6098
:1040D8007B681B685A697B681B6822F001025A6179
:1040E8007B68202283F83E207B681B6B012B35D12F
:1040F8007B6800221A637B681B680C337B617B69D1
:1041080053E8003F3B613B6923F010037B627B6807
:104118001B680C337A6A3A62FB61F9693A6A41E8CA
:104128000023BB61BB69002BE5D17B681B681B685A
:1041380003F01003102B0AD10023FB607B681B6877
:104148001B68FB607B681B685B68FB60FB687B68BF
:104158009B8D19467868FFF729FE02E07868FDF71D
:10416800B7FA002302E0002300E0022318463037A4
:10417800BD4680BD2DE9B04FC0B000AFC7F8F40010
:10418800D7F8F4301B681B6923F44050D7F8F43093
:10419800D968D7F8F4301A6840EA01031361D7F8F0
:1041A800F4309A68D7F8F4301B691A43D7F8F4301A
:1041B8005B691A43D7F8F430DB691343C7F8F83062
:1041C800D7F8F4301B68DB6823F4164121F00C01A2
:1041D800D7F8F4301A68D7F8F8300B43D360D7F81B
:1041E800F4301B685B6923F44070D7F8F4309969A0
:1041F800D7F8F4301A6840EA01035361D7F8F4306D
:104208001A688F4B9A4205D0D7F8F4301A688D4B4C
:104218009A4204D1FEF7A2FCC7F8FC0003E0FEF7BF
:1042280089FCC7F8FC00D7F8F430DB69B3F5004F18
:1042380040F00C81D7F8FC300022C7F8E830C7F806
:10424800EC20D7E93A4522462B469118B9655B41DF
:10425800FB65D7E91623214612EB0108294643EBF3
:1042680001094FF000024FF000034FEAC90343EA87
:1042780058734FEAC80290469946234618EB030341
:10428800C7F8E0302B4649EB0303C7F8E430D7F80A
:10429800F4305B680022C7F8D830C7F8DC20D7E9CB
:1042A80036120B46DB183B65134642EB03037B656E
:1042B800D7E91423D7E93801FBF782FF02460B46FA
:1042C800614BA3FB02235B091C01D7F8FC300022D9
:1042D800C7F8D030C7F8D420D7E9348942464B46CE
:1042E8009118B9645B41FB64D7E91223414612EB8C
:1042F800010A494643EB010B4FF000024FF000035F
:104308004FEACB0343EA5A734FEACA0292469B46E6
:1043180043461AEB0303C7F8C8304B464BEB03037D
:10432800C7F8CC30D7F8F4305B680022C7F8C03043
:10433800C7F8C420D7E930120B46DB183B64134694
:1043480042EB03037B64D7E91023D7E93201FBF77B
:1043580037FF02460B4611463B4BA3FB01235B0983
:10436800642202FB03F3CB1ADB0003F13202364B63
:10437800A3FB02235B095B0003F4F8731C44D7F822
:10438800FC300022C7F8B830C7F8BC20D7E92E891E
:1043980042464B469118B9635B41FB63D7E90E234C
:1043A80041465118396349464B417B634FF000023F
:1043B8004FF00003D7E90CAB5946CB00514643EA0E
:1043C80051735146CA0010461946034642469B1887
:1043D800C7F8B0304B460A4642EB0303C7F8B4307F
:1043E800D7F8F4305B680022C7F8A830C7F8AC20CB
:1043F800D7E92A120B46DB18BB62134642EB0303CC
:10440800FB62D7E90A23D7E92C01FBF7D9FE02465C
:104418000B460D4BA3FB02135B09642101FB03F35D
:10442800D31ADB003233084AA2FB03235B0903F0EB
:104438000702D7F8F4301B6822449A6006E100BFEF
:1044480000100140001401401F85EB51D7F8FC30E3
:104458000022C7F8A030C7F8A420D7E92889424627
:104468004B46911839625B417B62D7E90823414684
:104478005418494643EB01054FF000024FF0000382
:10448800EB0043EA5473E20014461D464346E31822
:10449800C7F898304B4645EB0303C7F89C30D7F86C
:1044A800F4305B680022C7F89030C7F894204FF0CA
:1044B80000024FF00003D7E9244529468B00214626
:1044C80043EA917321468A00D7E92601FBF778FE73
:1044D80002460B46604BA3FB02235B091C01D7F87D
:1044E800FC300022C7F88830C7F88C20D7E9228929
:1044F80042464B469118B9615B41FB61D7E90623F7
:1045080041465118396149464B417B614FF00002E1
:104518004FF00003D7E904AB5946CB00514643EAB4
:1045280051735146CA0010461946034642469B1825
:10453800C7F880304B460A4642EB0303C7F884307D
:10454800D7F8F4305B680022BB67FA674FF00002C7
:104558004FF00003D7E91E8949468B00414643EADC
:10456800917341468A00D7E92001FBF729FE0246EC
:104578000B461146384BA3FB01235B09642202FB5F
:1045880003F3CB1A1B013233334AA2FB03235B0923
:1045980003F0F0031C44D7F8FC3000223B677A672D
:1045A800D7E91C8942464B469118B9605B41FB60CC
:1045B800D7E9022341465118396049464B417B608F
:1045C8004FF000024FF00003D7E900AB5946CB008B
:1045D800514643EA51735146CA00104619460346EC
:1045E80042469B18BB664B460A4642EB0303FB66F2
:1045F800D7F8F4305B6800223B667A664FF0000219
:104608004FF00003D7E9188949468B00414643EA31
:10461800917341468A00D7E91A01FBF7D1FD02469A
:104628000B460D4BA3FB02135B09642101FB03F34B
:10463800D31A1B013233084AA2FB03235B0903F098
:104648000F02D7F8F4301B6822449A6000BF07F5C0
:104658008077BD46BDE8B08F1F85EB5180B487B029
:1046680000AF786039603B681A687B6853F822307D
:104678003A68126823F001017B6843F822103B680E
:104688009B68082B02D140237B6101E000237B61FA
:104698003B685A687B691A433B689B681A433B68C6
:1046A800DB681A433B681B691A433B685B691A431A
:1046B8003B68DB691A433B681B6A1A433B685B6AC1
:1046C8001A433B689B6A1A433B68DB6A1A433B6898
:1046D8001B6B13433B613B689B693A6913433B611E
:1046E8003B68DB6B3A6913433B61104BFB60FB682B
:1046F80043F48063FB60FB6843F4E023FB603B68A2
:104708001A687B6853F82220FB68DB4302EA03013E
:104718003B681A683B6919437B6843F822100023F9
:1047280018461C37BD465DF8047B70477FFB0800C0
:1047380080B485B000AFF860B9607A607B685A1CB5
:10474800FB6853F8223003F04041BB681A68BB6825
:104758005B681B011A43BB689B681B021A43BB6852
:10476800DB681B041A43BB681B69013B1B051A4322
:10477800BB685B69023B1B061A43BB689B69134312
:104788007A6801321943FB6843F82210002318465F
:104798001437BD465DF8047B7047000080B485B0CF
:1047A80000AFF860B9607A603B603B68B3F5804F52
:1047B8001DD1FB687A6853F82220134B1340BA685E
:1047C8001168BA68526812011143BA6892681202F5
:1047D8001143BA6892691143BA68D26812040A434D
:1047E80043EA0201FB687A6843F8221005E0FB6897
:1047F8007A686FF0704143F8221000231846143786
:10480800BD465DF8047B70470000F0CF02440346C4
:10481800934200D1704703F8011BF9E770B50D4DBD
:104828000D4C641BA4100026A64209D10B4D0C4C5C
:1048380000F018F8641BA4100026A64205D170BD2C
:1048480055F8043B98470136EEE755F8043B98477E
:104858000136F2E7487800084878000848780008E8
:104868004C780008F8B500BFF8BC08BC9E467047F5
:0C487800F8B500BFF8BC08BC9E467047B5
:10488400434E000044617900736563006D696E00F6
:10489400686F757200000000444400004D4D000034
:1048A4005959000000000000000000000000000052
:1048B40000000000000000080808080808080000BC
:1048C4001818000000486C241200000000000000CA
:1048D400000000000000002424247F1212127F1222
:1048E400121200000000081C2A2A0A0C1828282A80
:1048F4002A1C080800000022251515152A585454AE
:10490400542200000000000C1212120A762529110C
:10491400916E000000060604030000000000000081
:1049240000000000004020101008080808080810C3
:104934001020400000020408081010101010100885
:10494400080402000000000008086B1C1C6B080827
:104954000000000000000000080808087F0808089C
:10496400080000000000000000000000000000003B
:10497400060604030000000000000000FE00000022
:104984000000000000000000000000000000000023
:104994000606000000008040402020101008080493
:1049A40004020200000000182442424242424242F1
:1049B40024180000000000080E0808080808080869
:1049C400083E00000000003C42424220201008043F
:1049D400427E00000000003C424220182040404239
:1049E400221C0000000000203028242422227E20E3
:1049F400207800000000007E0202021A2640404295
:104A0400221C0000000000382402021A26424242FE
:104A1400241800000000007E222210100808080854
:104A2400080800000000003C42424224182442428C
:104A3400423C0000000000182442424264584040B6
:104A4400241C0000000000000000181800000000F2
:104A5400181800000000000000000008000000001A
:104A64000008080400000040201008040204081094
:104A7400204000000000000000007F0000007F00D4
:104A8400000000000000000204081020402010086C
:104A9400040200000000003C424246402010100086
:104AA400181800000000001C225A555555552D4277
:104AB400221C00000000000808181414243C2242A0
:104AC40042E700000000001F2222221E224242422E
:104AD400221F00000000007C42420101010101424A
:104AE400221C00000000001F224242424242424275
:104AF400221F00000000003F4212121E1212024246
:104B0400423F00000000003F4212121E1212020235
:104B1400020700000000003C222201010171212251
:104B2400221C0000000000E7424242427E42424210
:104B340042E700000000003E0808080808080808CA
:104B4400083E00000000007C10101010101010101F
:104B54001010110F0000007722120A0E0A121222FE
:104B64002277000000000007020202020202020291
:104B7400427F000000000077363636362A2A2A2A79
:104B84002A6B0000000000E346464A4A5252526231
:104B9400624700000000001C224141414141414163
:104BA400221C00000000003F424242423E02020238
:104BB400020700000000001C2241414141414D53C5
:104BC400321C60000000003F4242423E1212222288
:104BD40042C700000000007C424202041820404208
:104BE400423E00000000007F490808080808080841
:104BF400081C0000000000E7424242424242424296
:104C0400423C0000000000E742422224241414180D
:104C1400080800000000006B4949494955553622EF
:104C240022220000000000E742242418181824243B
:104C340042E7000000000077222214140808080844
:104C4400081C00000000007E21201010080404420B
:104C5400423F000000780808080808080808080807
:104C64000808780000000202040408080810102054
:104C740020204040001E10101010101010101010B2
:104C840010101E0000384400000000000000000066
:104C94000000000000000000000000000000000010
:104CA400000000FF000608000000000000000000F3
:104CB40000000000000000000000003C4278444274
:104CC40042FC0000000000030202021A2642424293
:104CD400261A00000000000000000038440202020E
:104CE40044380000000000604040407844424242A2
:104CF40064D80000000000000000003C427E020274
:104D0400423C0000000000F08808087E08080808FB
:104D1400083E0000000000000000007C22221C026B
:104D24003C42423C000000030202023A4642424234
:104D340042E700000000000C0C00000E0808080800
:104D4400083E000000000030300000382020202001
:104D54002020221E0000000302020272120A161210
:104D6400227700000000000E080808080808080858
:104D7400083E0000000000000000007F9292929222
:104D840092B70000000000000000003B464242428F
:104D940042E70000000000000000003C42424242A2
:104DA400423C0000000000000000001B264242427A
:104DB400221E020700000000000000784442424224
:104DC400447840E000000000000000774C04040434
:104DD400041F0000000000000000007C42023C4070
:104DE400423E0000000000000008083E08080808D1
:104DF400083000000000000000000063424242420C
:104E040062DC000000000000000000E742242414DB
:104E14000808000000000000000000EB4949555557
:104E24002222000000000000000000762418181858
:104E3400246E000000000000000000E74224241457
:104E440018080807000000000000007E221008086F
:104E5400447E000000C0202020202010202020209C
:104E64002020C0001010101010101010101010107E
:104E74001010101000060808080808100808080890
:104E8400080806000C32C200000000000000000008
:104E9400000000000000000000000000000000000E
:104EA40000000000000000000000000000000000FE
:104EB40000000000000000000000000000000000EE
:104EC400000000000000000000000000E000E0001E
:104ED400E000E000E00040004000400040004000EE
:104EE4004000000000000000E000E000E0000000DE
:104EF4000000000000000000600660063003980116
:104F040088004400000000000000000000000000D1
:104F1400000000000000000000000000000000008D
:104F24000000000000000000000000000000080273
:104F3400080208020802FE07FE070802080204012C
:104F44000401FE07FE07040104010401040100003A
:104F54000000000000000000000040004000F001DC
:104F640058034C034C034C0058007000E000C0018F
:104F7400C00140034C034C034C034801F0004000C3
:104F840040000000000000000000000000000E03CC
:104F94000A01110191009100D1005100FA03AE02FF
:104FA4006004500450045804480488028403000038
:104FB40000000000000000000000000000003800B5
:104FC4006400640064006400A4031C010C011A0161
:104FD4009200B300E3006300C300A6041C030000B6
:104FE40000000000000000000C001C001000100075
:104FF400080006000000000000000000000000009F
:10500400000000000000000000000000000000009C
:105014000000000000000000000400020001800104
:105024008000C000C000600060006000600060009C
:1050340060006000C000C000800080010001000228
:105044000004000000000000020004000800180032
:1050540010003000300060006000600060006000FC
:1050640060006000300030001000180008000400E8
:10507400020000000000000000000000000000002A
:105084004000400040004E0E5C07F001F0015C0758
:105094004E0E4000400040000000000000000000F0
:1050A40000000000000000000000000000000000FC
:1050B400000040004000400040004000FE0F40005F
:1050C40040004000400040000000000000000000DC
:1050D40000000000000000000000000000000000CC
:1050E40000000000000000000000000000000000BC
:1050F40000000000000000000C001C001000100064
:10510400080006000000000000000000000000008D
:10511400000000000000000000000000FE07000086
:10512400000000000000000000000000000000007B
:10513400000000000000000000000000000000006B
:10514400000000000000000000000000000000005B
:1051540000000000000000001C001C001C000000F7
:10516400000000000000000000040006000200032C
:105174000001000180008000400040006000200029
:10518400200010001000080008000C0004000600B5
:105194000200000000000000000000000000F00019
:1051A40098010C030C030606060606060606060608
:1051B4000606060606060C030C039801F000000020
:1051C400000000000000000000000000000040009B
:1051D40060007C00600060006000600060006000AF
:1051E400600060006000600060006000FC0300007C
:1051F4000000000000000000000000000000F800B3
:105204008401020306030603000380018001C00039
:1052140020001000080204020202FE03FE03000044
:105224000000000000000000000000000000780002
:10523400C4008601860186018001C00070008001DF
:10524400000100030603060306038401F8000000BE
:1052540000000000000000000000000000018001C8
:10526400C001C001A0019001900188018401840162
:105274008201FE078001800180018001E0070000B7
:105284000000000000000000000000000000FC031B
:10529400FC030400040004000400F4008C01040373
:1052A400000300030603060382018401F8000000E2
:1052B4000000000000000000000000000000E00109
:1052C40018030C030C0004000600E60116030E0686
:1052D40006060606060604060C021803F000000083
:1052E4000000000000000000000000000000F807BB
:1052F400FC070C020401040100018000800040004E
:105304004000400060006000600060006000000039
:105314000000000000000000000000000000F80190
:105324000C030606060606060E023C03F000CC013A
:10533400040306060606060606060C03F001000032
:105344000000000000000000000000000000F00069
:105354000C010C03060206060606060606078C0662
:1053640078060006000300030C018C01780000009D
:105374000000000000000000000000000000000029
:10538400000000000000E000E000E0000000000079
:105394000000000000000000E000E000E000000069
:1053A40000000000000000000000000000000000F9
:1053B4000000000000000000600060000000000029
:1053C40000000000000000000000600060004000D9
:1053D40020000000000000000000000000040002A3
:1053E40000018000400020001000080004000800B4
:1053F40010002000400080000001000200040000B2
:105404000000000000000000000000000000000098
:105414000000000000000000FE0700000000000083
:105424000000FE0700000000000000000000000073
:10543400000000000000000000000000040008005C
:10544400100020004000800000010002000400025F
:10545400000180004000200010000800040000004B
:10546400000000000000000000000000F0010C0338
:1054740002060206060606060003800160002000FC
:105484002000200000000000700070007000000088
:105494000000000000000000000000000000E00127
:1054A40038060804CC0A640B2609260916091609CD
:1054B4009609960566030C080C041802E001000026
:1054C4000000000000000000000000000000600078
:1054D40060007000D000D000C800880188018801F5
:1054E400F801040304030403040606060F0F000076
:1054F4000000000000000000000000000000FF00A9
:10550400860106030603060306038601FE0006035E
:10551400060206060606060606060603FF01000046
:105524000000000000000000000000000000E00790
:1055340018060C040C04040006000600060006000D
:105544000600060006040C040C021801F00000001A
:1055540000000000000000000000000000007F00C8
:105564008601060306030606060606060606060662
:1055740006060606060606030603C6017F000000AB
:105584000000000000000000000000000000FF0315
:10559400060206040600060086008600FE00860059
:1055A400860006000600060406040602FF03000047
:1055B4000000000000000000000000000000FF03E5
:1055C400060306040604060086008600FE00860024
:1055D4008600060006000600060006000F00000014
:1055E4000000000000000000000000000000F002C5
:1055F40018030C020C020400060006000600060054
:10560400C60F060306030C030C031803F000000086
:1056140000000000000000000000000000000F0F68
:10562400060606060606060606060606FE0706061D
:105634000606060606060606060606060F0F000000
:105644000000000000000000000000000000FC0357
:105654006000600060006000600060006000600046
:10566400600060006000600060006000FC030000F7
:105674000000000000000000000000000000F00F27
:10568400800180018001800180018001800180010E
:1056940080018001800180018001800180018601F8
:1056A400C6007C0000000000000000000000CF07DE
:1056B4000601860046004600260036003E006E00C5
:1056C400E600C600C6018601060306078F0F000028
:1056D40000000000000000000000000000000F00B7
:1056E4000600060006000600060006000600060086
:1056F400060006000600060406040602FF03000076
:1057040000000000000000000000000000000F0F77
:105714000E070E070E079A069A069A069A065A0666
:10572400720672067206720622062206270F00000F
:105734000000000000000000000000000000070E50
:105744000E040E041A041A04320462046204C2042D
:10575400C2048205020702070206020607040000CB
:105764000000000000000000000000000000F00045
:1057740098010C030C020606060606060606060633
:105784000606060606060C020C039801F00000004B
:105794000000000000000000000000000000FF0105
:1057A4000603060606060606060606060603FE01A8
:1057B4000600060006000600060006000F000000B2
:1057C4000000000000000000000000000000F000E5
:1057D40098010C030C0206060606060606060606D3
:1057E4000606060676064C028C038801F001800743
:1057F4000003000000000000000000000000FF01A2
:10580400060306060606060606060603FE006600EE
:10581400C600C60086018601060306030F0E0000BB
:105824000000000000000000000000000000F80478
:105834000C070604060406000E003C00F000C0033A
:10584400000300060206020606060E03F20100002B
:105854000000000000000000000000000000FE073F
:10586400620461086108600060006000600060001C
:10587400600060006000600060006000F0000000F4
:1058840000000000000000000000000000000F0EF7
:1058940006040604060406040604060406040604B4
:1058A400060406040604060406040C02F8010000BB
:1058B40000000000000000000000000000001F0FB6
:1058C4000E060C020C020C020C011801180118013E
:1058D4001801B000B000B000F000600060000000EB
:1058E4000000000000000000000000000000EF0EB7
:1058F4006604660466026602E602EC02EC02DC015F
:10590400DC01DC01DC019C018800880088000000C7
:1059140000000000000000000000000000009E07DE
:105924000C03180118019800B000700060006000BA
:10593400E000D000D001980188010C039E0700000C
:1059440000000000000000000000000000001F0F25
:105954000E060C020C0118011801B000B000700012
:10596400600060006000600060006000F8010000FA
:105974000000000000000000000000000000FC0720
:10598400040382038001C001C000C0006000600005
:1059940030003000180018041C040C02FE03000040
:1059A4000000000000000000E007200020002000AC
:1059B40020002000200020002000200020002000E3
:1059C40020002000200020002000200020002000D3
:1059D400E0070000000000000000000004000800D0
:1059E40008000800100010002000200020004000E3
:1059F40040008000800080000001000100020002DD
:105A04000002000400000000FC0080008000800010
:105A14008000800080008000800080008000800082
:105A24008000800080008000800080008000800072
:105A3400FC00000000000000E000B00108020000CB
:105A44000000000000000000000000000000000052
:105A54000000000000000000000000000000000042
:105A64000000000000000000000000000000000032
:105A74000000000000000000000000000000000022
:105A84000000000000000000000000000000000012
:105A94000000FF0F0000000018006000000000007C
:105AA40000000000000000000000000000000000F2
:105AB40000000000000000000000000000000000E2
:105AC40000000000000000000000000000000000D2
