:020000040800F2
:10000000000002204D340008F9310008FF310008DB
:10001000053200080B320008113200080000000011
:10002000000000000000000000000000173200087F
:100030002532000800000000333200084132000879
:100040009D3400089D3400089D3400089D3400084C
:100050009D3400089D3400089D3400089D3400083C
:100060009D3400089D3400089D3400089D3400082C
:100070009D3400089D3400089D3400089D3400081C
:100080009D3400089D3400089D3400089D3400080C
:100090009D3400089D3400089D3400089D340008FC
:1000A0009D3400089D3400089D3400089D340008EC
:1000B0004D3200089D3400089D3400089D3400082E
:1000C0009D3400089D3400089D3400089D340008CC
:1000D0009D3400089D3400089D3400089D340008BC
:1000E0009D3400089D3400089D3400089D340008AC
:1000F0009D3400089D3400089D3400089D3400089C
:100100009D3400089D3400089D3400089D3400088B
:100110009D3400089D3400089D3400089D3400087B
:100120009D3400089D3400089D3400089D3400086B
:100130009D3400089D3400089D3400089D3400085B
:100140009D3400089D3400089D3400089D3400084B
:100150009D3400089D3400089D3400089D3400083B
:100160009D3400089D3400089D3400089D3400082B
:100170009D3400089D3400089D34000800000000F4
:080180009D3400089D340008C5
:1001880010B5054C237833B9044B13B10448AFF3C9
:1001980000800123237010BD1C0000200000000017
:1001A800346A000808B5034B1BB103490348AFF391
:1001B800008008BD0000000020000020346A00080C
:1001C80081F0004102E000BF83F0004330B54FEA00
:1001D80041044FEA430594EA050F08BF90EA020F6D
:1001E8001FBF54EA000C55EA020C7FEA645C7FEA00
:1001F800655C00F0E2804FEA5454D4EB5555B8BF23
:100208006D420CDD2C4480EA020281EA030382EA93
:10021800000083EA010180EA020281EA0303362D25
:1002280088BF30BD11F0004F4FEA01314FF4801CF8
:100238004CEA113102D0404261EB410113F0004F0A
:100248004FEA03334CEA133302D0524263EB4303C1
:1002580094EA050F00F0A780A4F10104D5F1200E5F
:100268000DDB02FA0EFC22FA05F2801841F10001BA
:1002780003FA0EF2801843FA05F359410EE0A5F18E
:1002880020050EF1200E012A03FA0EFC28BF4CF0BF
:10029800020C43FA05F3C01851EBE37101F0004575
:1002A80007D54FF0000EDCF1000C7EEB00006EEB82
:1002B8000101B1F5801F1BD3B1F5001F0CD349080C
:1002C8005FEA30004FEA3C0C04F101044FEA445263
:1002D80012F5800F80F09A80BCF1004F08BF5FEAEA
:1002E800500C50F1000041EB045141EA050130BDCA
:1002F8005FEA4C0C404141EB0101013C28BFB1F5DC
:10030800801FE9D291F0000F04BF01460020B1FA26
:1003180081F308BF2033A3F10B03B3F120020CDAF9
:100328000C3208DD02F1140CC2F10C0201FA0CF0D7
:1003380021FA02F10CE002F11402D8BFC2F1200C3C
:1003480001FA02F120FA0CFCDCBF41EA0C019040F2
:10035800E41AA2BF01EB0451294330BD6FEA04043B
:100368001F3C1CDA0C340EDC04F11404C4F1200226
:1003780020FA04F001FA02F340EA030021FA04F338
:1003880045EA030130BDC4F10C04C4F1200220FA8F
:1003980002F001FA04F340EA0300294630BD21FACD
:1003A80004F0294630BD94F0000F83F4801306BF93
:1003B80081F480110134013D4EE77FEA645C18BF87
:1003C8007FEA655C29D094EA050F08BF90EA020F1E
:1003D80005D054EA000C04BF1946104630BD91EA16
:1003E800030F1EBF0021002030BD5FEA545C05D119
:1003F8004000494128BF41F0004130BD14F5800458
:100408003CBF01F5801130BD01F0004545F0FE41CB
:1004180041F470014FF0000030BD7FEA645C1ABF00
:10042800194610467FEA655C1CBF0B46024650EA37
:10043800013406BF52EA033591EA030F41F4002163
:1004480030BD00BF90F0000F04BF0021704730B5E9
:100458004FF4806404F132044FF000054FF00001BE
:1004680050E700BF90F0000F04BF0021704730B57F
:100478004FF4806404F1320410F0004548BF404254
:100488004FF000013EE700BF42004FEAE2014FEAA9
:1004980031014FEA02701FBF12F07F4393F07F4F84
:1004A80081F06051704732F07F4208BF704793F087
:1004B8007F4F04BF41F40021704730B54FF460749A
:1004C80001F0004521F000411CE700BF50EA01029D
:1004D80008BF704730B54FF000050AE050EA010246
:1004E80008BF704730B511F0004502D5404261EBB6
:1004F80041014FF4806404F132045FEA915C3FF4F7
:10050800D8AE4FF003025FEADC0C18BF03325FEA93
:10051800DC0C18BF033202EBDC02C2F1200300FA44
:1005280003FC20FA02F001FA03FE40EA0E0021FA69
:1005380002F11444BDE600BF70B54FF0FF0C4CF457
:10054800E06C1CEA11541DBF1CEA135594EA0C0F09
:1005580095EA0C0F00F0DEF82C4481EA030621EA44
:100568004C5123EA4C5350EA013518BF52EA03357F
:1005780041F4801143F4801338D0A0FB02CE4FF031
:100588000005E1FB02E506F00042E0FB03E54FF061
:100598000006E1FB03569CF0000F18BF4EF0010E59
:1005A800A4F1FF04B6F5007F64F5407404D25FEA55
:1005B8004E0E6D4146EB060642EAC62141EA555108
:1005C8004FEAC52040EA5E504FEACE2EB4F1FD0C4A
:1005D80088BFBCF5E06F1ED8BEF1004F08BF5FEAC8
:1005E800500E50F1000041EB045170BD06F000467A
:1005F80046EA010140EA020081EA0301B4EB5C0427
:10060800C2BFD4EB0C0541EA045170BD41F480111E
:100618004FF0000E013C00F3AB8014F1360FDEBF43
:10062800002001F0004170BDC4F10004203C35DA1F
:100638000C341BDC04F11404C4F1200500FA05F3A2
:1006480020FA04F001FA05F240EA020001F0004243
:1006580021F0004110EBD37021FA04F642EB0601B9
:100668005EEA430E08BF20EAD37070BDC4F10C04E3
:10067800C4F1200500FA04F320FA05F001FA04F2A7
:1006880040EA020001F0004110EBD37041F1000193
:100698005EEA430E08BF20EAD37070BDC4F120059E
:1006A80000FA05F24EEA020E20FA04F301FA05F206
:1006B80043EA020321FA04F001F0004121FA04F2AE
:1006C80020EA020000EBD3705EEA430E08BF20EA7E
:1006D800D37070BD94F0000F0FD101F000464000B8
:1006E80041EB010111F4801F08BF013CF7D041EA3A
:1006F800060195F0000F18BF704703F0004652003E
:1007080043EB030313F4801F08BF013DF7D043EA0E
:100718000603704794EA0C0F0CEA135518BF95EAC4
:100728000C0F0CD050EA410618BF52EA4306D1D14B
:1007380081EA030101F000414FF0000070BD50EA6A
:10074800410606BF1046194652EA430619D094EAF4
:100758000C0F02D150EA013613D195EA0C0F05D1DE
:1007680052EA03361CBF104619460AD181EA030132
:1007780001F0004141F0FE4141F470014FF00000EA
:1007880070BD41F0FE4141F4780170BD70B54FF085
:10079800FF0C4CF4E06C1CEA11541DBF1CEA135505
:1007A80094EA0C0F95EA0C0F00F0A7F8A4EB0504E7
:1007B80081EA030E52EA03354FEA013100F08880DE
:1007C8004FEA03334FF0805545EA131343EA1263A7
:1007D8004FEA022245EA111545EA10654FEA00265C
:1007E8000EF000419D4208BF964244F1FD0404F515
:1007F800407402D25B084FEA3202B61A65EB030571
:100808005B084FEA32024FF480104FF4002CB6EB2D
:10081800020E75EB030E22BFB61A754640EA0C00AD
:100828005B084FEA3202B6EB020E75EB030E22BFED
:10083800B61A754640EA5C005B084FEA3202B6EB2E
:10084800020E75EB030E22BFB61A754640EA9C00ED
:100858005B084FEA3202B6EB020E75EB030E22BFBD
:10086800B61A754640EADC0055EA060E18D04FEA7B
:10087800051545EA16754FEA06164FEAC30343EA1B
:1008880052734FEAC2025FEA1C1CC0D111F4801FE8
:100898000BD141EA00014FF000004FF0004CB6E7E1
:1008A80011F4801F04BF01430020B4F1FD0C88BF80
:1008B800BCF5E06F3FF6AFAEB5EB030C04BFB6EB8B
:1008C800020C5FEA500C50F1000041EB045170BD7E
:1008D8000EF0004E4EEA113114EB5C04C2BFD4EBAB
:1008E8000C0541EA045170BD41F480114FF0000E2F
:1008F800013C90E645EA060E8DE60CEA135594EAAB
:100908000C0F08BF95EA0C0F3FF43BAF94EA0C0FAD
:100918000AD150EA01347FF434AF95EA0C0F7FF422
:1009280025AF104619462CE795EA0C0F06D152EA76
:1009380003353FF4FDAE1046194622E750EA41065A
:1009480018BF52EA43067FF4C5AE50EA41047FF46B
:100958000DAF52EA43057FF4EBAE12E74A0011D21D
:1009680012F5001211D20DD56FF47873B3EB625201
:100978000ED44FEAC12343F0004343EA505323FA0D
:1009880002F070474FF00000704750EA013002D182
:100998004FF0FF3070474FF00000704753B94AB925
:1009A800002908BF00281CBF4FF0FF314FF0FF306F
:1009B80000F070B9ADF1080C6DE904CE00F006F84E
:1009C800DDF804E0DDE9022304B070472DE9F047C3
:1009D800089E0D4604460F46002B4AD18A4294468B
:1009E80065D9B2FA82F343B102FA03FCC3F12002DB
:1009F8009F4020FA02F217439C404FEA1C4E1FFA10
:100A08008CF5B7FBFEF1220C0EFB117742EA074288
:100A180001FB05F090420AD91CEB020201F1FF37F5
:100A280080F01C81904240F2198102396244121A06
:100A3800A4B2B2FBFEF00EFB102244EA024400FB13
:100A480005F5A5420AD91CEB040400F1FF3280F039
:100A58000781A54240F204816444023840EA01401B
:100A6800641B00211EB1DC400023C6E90043BDE839
:100A7800F0878B4208D9002E00F0ED800021C6E9EE
:100A880000050846BDE8F087B3FA83F1002949D18B
:100A9800AB4202D3824200F2F880841A65EB03026B
:100AA80001201746002EE2D0C6E90047DFE702B969
:100AB800FFDEB2FA82F3002B40F090808A1A4FEAE8
:100AC8001C471FFA8CFE0121B2FBF7F507FB152026
:100AD800220C42EA00420EFB05F0904208D91CEBBA
:100AE800020205F1FF3802D2904200F2CB8045465F
:100AF800121AA4B2B2FBF7F007FB102244EA024430
:100B08000EFB00FEA64508D91CEB040400F1FF32D9
:100B180002D2A64500F2BB801046A4EB0E0440EAC0
:100B280005409FE7C1F120078B4022FA07FC4CEAF9
:100B3800030C05FA01F420FA07F3FD404FEA1C49BB
:100B48002343B5FBF9F81FFA8CFE09FB18551C0C5A
:100B580044EA054408FB0EF5A54202FA01F200FA40
:100B680001F00BD91CEB040408F1FF3A80F08880EF
:100B7800A54240F28580A8F102086444641B9DB236
:100B8800B4FBF9F309FB134445EA044403FB0EFEE6
:100B9800A64508D91CEB040403F1FF356CD2A64521
:100BA8006AD9023B644443EA0843A3FB0295A4EBD9
:100BB8000E04AC42C846AE4656D353D056B1B0EB3D
:100BC800080264EB0E0404FA07F7CA40CC40174346
:100BD800C6E9007418460021BDE8F087C3F120017A
:100BE80002FA03FC20FA01F225FA01F19D402A439A
:100BF8004FEA1C471FFA8CFEB1FBF7F007FB1015F4
:100C0800110C41EA054100FB0EF58D4204FA03F48C
:100C180008D91CEB010100F1FF382FD28D422DD9E4
:100C280002386144491B92B2B1FBF7F507FB151175
:100C380042EA014205FB0EF1914208D91CEB02027F
:100C480005F1FF3816D2914214D9023D6244521A76
:100C580045EA004138E73146304608E73946E6E6D6
:100C68001046FBE64845A9D2B9EB020865EB0C0E25
:100C7800013BA3E74546EAE72B4694E74046D1E720
:100C8800D0467BE7023D624432E708460AE76444FF
:100C9800023842E7704700BF80B500AF0122082143
:100CA800024802F03DFF00BF80BD00BF000C0240BB
:100CB80080B584B000AF002208212F4802F030FF31
:100CC800012208212C4802F02BFF0A2302222B497B
:100CD8002B4804F0FAFC0023FB604FF400437B81AF
:100CE80000237B603FE07B68002B06DB7B68032BDF
:100CF80003DC7B680433FB6018E07B68032B07DDAB
:100D08007B68072B04DC7B68C3F10703FB600DE0FD
:100D18007B68072B06DD7B680B2B03DC7B680433C1
:100D2800FB6003E07B68C3F11703FB60134B1A8871
:100D38007B8913409BB2002B05D0124AFB68002127
:100D480022F8131009E00F4AFB6832F81330013318
:100D580099B20C4AFB6822F813107B895B087B81E7
:100D68007B6801337B607B680F2BBCDD00BF00BF55
:100D78001037BD4680BD00BF000C0240580000205F
:100D8800540100203800002080B483B000AF03462F
:100D9800FB71FB79102B01D9002308E0FB79074A86
:100DA80032F81330002B14BF01230023DBB218469E
:100DB8000C37BD465DF8047B704700BF3800002043
:100DC80080B483B000AF0346FB71FB79102B01D9C7
:100DD800002308E0FB79074A32F81330C72B01D803
:100DE800002300E0012318460C37BD465DF8047B5C
:100DF800704700BF3800002080B500AF1E2002F009
:100E0800FDFA03461A461C4B1A70162002F0F6FA31
:100E180003461A46184B5A70152002F0EFFA03469B
:100E28001A46154B9A70062002F0E8FA03461A464D
:100E3800114BDA700F2002F0E1FA03461A460E4B06
:100E48001A71092002F0DAFA03461A460A4B5A7157
:100E5800172002F0D3FA03461A46074B9A71322339
:100E68000322D021054803F0D9FA0346002B00D00D
:100E7800FEE700BF80BD00BF5C000020C00000206E
:100E880080B588B004AF03460A46FB711346BB71B0
:100E9800BB79184602F0B2FA0346FB73FB799AB2A3
:100EA8000A2302930123019307F10F0300930123FF
:100EB800D021034802F092FF00BF1037BD4680BD25
:100EC800C000002080B584B004AF0A230293072332
:100ED8000193254B009301230022D021234803F0DE
:100EE80077F8214B1B78184602F06EFA03461A462B
:100EF8001F4B1A701C4B5B78184602F065FA0346C4
:100F08001A461C4B1A70184B9B78184602F05CFA6C
:100F180003461A46184B1A70134BDB78184602F032
:100F280053FA03461A46154B1A700F4B1B7918468D
:100F380002F04AFA03461A46114B1A700A4B5B79BB
:100F4800184602F041FA03461A460E4B1A70064B31
:100F58009B79184602F038FA03461A460A4B1A706B
:100F680000BFBD4680BD00BF5C000020C00000205F
:100F78006500002064000020630000206700002056
:100F880066000020680000206900002080B58EB04F
:100F980000AF07F11C0300221A605A609A60DA60F9
:100FA8001A615A619A613B4600221A605A609A6037
:100FB800DA601A615A619A612F4B4FF020421A6029
:100FC8002D4B2E4A5A602C4B00229A602A4B002245
:100FD800DA60294B00221A61274B10225A61264BEE
:100FE80000229A61244B0022DA61234B00221A6204
:100FF800214B00225A62204B4FF480529A621E4BBA
:101008000022DA621C4B4FF480421A631A4B00220A
:101018005A63194B00229A63174B00225A640F2314
:10102800FB610F233B623C237B620023BB621023DE
:10103800FB6211233B6300237B6308233B600F2380
:101048007B600923BB600023FB6010233B611123F5
:101058007B610023BB613A4607F11C031946064829
:1010680004F016FF0346002B01D000F041FE00BF3C
:101078003837BD4680BD00BF6C000020040100A0C9
:1010880080B586B000AF3B1D00221A605A609A6096
:10109800DA601A611C4B1B68002B31D11A4B0122F4
:1010A8001A6000233B60194B9B6B184A43F00103FD
:1010B8009363164B9B6B03F001033B603B684FF651
:1010C80088737B600223BB600023FB6003233B61C2
:1010D8000C237B613B1D19460D4802F085FB4CF241
:1010E800B3737B600223BB600023FB6003233B6177
:1010F8000C237B613B1D1946064802F075FB00E096
:1011080000BF1837BD4680BDBC0000200038024033
:1011180000100240000C024080B582B000AF786039
:10112800FFF7AEFF00BF0837BD4680BD80B58CB065
:1011380000AF07F11C0300221A605A609A60DA6057
:101148001A610023BB615C4B1B6B5B4A43F01003C5
:101158001363594B1B6B03F01003BB61BB6900237E
:101168007B61554B1B6B544A43F004031363524B8A
:101178001B6B03F004037B617B6900233B614E4BCF
:101188001B6B4D4A43F0080313634B4B1B6B03F077
:1011980008033B613B690023FB60474B1B6B464AD6
:1011A80043F040031363444B1B6B03F04003FB60A5
:1011B800FB680023BB60404B1B6B3F4A43F00103B5
:1011C80013633D4B1B6B03F00103BB60BB6800233B
:1011D8007B60394B1B6B384A43F002031363364B71
:1011E8001B6B03F002037B607B68002210213348ED
:1011F80002F096FC00224FF40051314802F090FCB6
:10120800002240212F4802F08BFC00224FF480710D
:101218002D4802F085FC002208212C4802F080FCB1
:101228001023FB6101233B6200237B620023BB6226
:1012380007F11C031946214802F0D6FA4FF400536F
:10124800FB6101233B6200237B620023BB6207F141
:101258001C0319461A4802F0C7FA4023FB61012310
:101268003B6200237B620023BB6207F11C03194623
:10127800144802F0B9FA4FF48073FB6101233B6212
:1012880000237B620023BB6207F11C0319460E484A
:1012980002F0AAFA0823FB6101233B6200237B6268
:1012A8000023BB6207F11C031946084802F09CFAA8
:1012B80000BF3037BD4680BD0038024000100240F4
:1012C800000802400018024000000240000C0240E2
:1012D80080B500AF124B134A1A60114B124A5A607C
:1012E8000F4B00229A600E4B0022DA600C4B4FF431
:1012F80080421A610A4B00225A61094B00229A6106
:10130800074B0022DA61064B00221A62044802F0F9
:1013180021FC0346002B01D000F0EAFC00BF80BD91
:10132800C000002000540040A086010080B58AB0AB
:1013380000AF786007F1140300221A605A609A60BF
:10134800DA601A617B681B68194A93422BD1002323
:101358003B61184B1B6B174A43F002031363154B91
:101368001B6B03F002033B613B69C0237B611223C3
:10137800BB610023FB6103233B6204237B6207F10B
:10138800140319460C4802F02FFA0023FB60094B9E
:101398001B6C084A43F400131364064B1B6C03F4DC
:1013A8000013FB60FB6800BF2837BD4680BD00BF47
:1013B80000540040003802400004024080B483B06A
:1013C80000AF0346FB80044AFB88138000BF0C373C
:1013D800BD465DF8047B7047FEFF0F6080B483B0A4
:1013E80000AF0346FB80044AFB88538000BF0C37DC
:1013F800BD465DF8047B7047FEFF0F6080B483B084
:1014080000AF064B5B889BB2FB80FB889BB21846FB
:101418000C37BD465DF8047B704700BFFEFF0F60C8
:1014280090B583B000AF0446084611461A462346D5
:10143800FB800346BB800B467B8013463B802A20FB
:10144800FFF7BCFFFB881B0A9BB21846FFF7C6FFD5
:10145800FB88DBB29BB21846FFF7C0FF7B881B0AEC
:101468009BB21846FFF7BAFF7B88DBB29BB21846DF
:10147800FFF7B4FF2B20FFF7A1FFBB881B0A9BB225
:101488001846FFF7ABFFBB88DBB29BB21846FFF7E5
:10149800A5FF3B881B0A9BB21846FFF79FFF3B88B6
:1014A800DBB29BB21846FFF799FF2C20FFF786FFA7
:1014B80000BF0C37BD4690BD80B584B000AF034671
:1014C800FB80154B1B88013B9AB2134B5B88013B91
:1014D8009BB200210020FFF7A3FF0023FB8111E04E
:1014E8000023BB8106E0FB881846FFF777FFBB891E
:1014F8000133BB81084B5B88BA899A42F3D3FB89D5
:101508000133FB81044B1B88FA899A42E8D300BF58
:1015180000BF1037BD4680BD1401002080B582B0E1
:1015280000AF0346FB800B46BB8013467B80BB881D
:10153800FA88B988F888FFF773FF7B881846FFF7A1
:101548004DFF00BF0837BD4680BD000090B587B08D
:1015580000AF0446084611461A462346FB80034658
:10156800BB800B46FB7013463B8000237B75FB88D2
:101578003B8297F82C305B08FB73FB7BDB08DBB204
:101588001A46FB7B03F00703DBB2002B14BF0123D1
:101598000023DBB213449AB297F82C309BB212FBAB
:1015A80003F3BB81FB78203BFB70FB7B9AB2FB8883
:1015B80013449BB2013B9CB297F82C309AB2BB887B
:1015C80013449BB2013B9BB2B988F8882246FFF7C7
:1015D80027FF00237B827AE097F82C300C2B28D049
:1015E80097F82C30102B08D1FA787B8A3C491201E5
:1015F8000A4413441B78FB751BE097F82C30182B12
:101608000BD1FA78798A374813465B0013441B01DB
:1016180003440B441B78FB750BE097F82C30202B08
:101628005AD1FA787B8A304992010A4413441B78CC
:10163800FB750023BB7544E097F83030002B20D1B0
:10164800FA7DBB7D42FA03F303F00103002B04D0BB
:101658003B881846FFF7C2FE03E03B8D1846FFF7AC
:10166800BDFE7B7D01337B757B7DFA7BB3FBF2F19D
:1016780001FB02F29B1ADBB2002B1FD100237B7502
:1016880022E0FA7DBB7D42FA03F303F00103002B4D
:1016980005D03A88B988FB881846FFF73FFFFB88D2
:1016A8000133FB80FA883B8AD21AFB7B9A4205D128
:1016B8003B8AFB80BB880133BB8005E0BB7D0133DF
:1016C800BB75BB7D072BB7D97B8A01337B827A8AAE
:1016D800BB899A4280D300E000BF1C37BD4690BD4D
:1016E800886A0008787000084882000880B485B0CD
:1016F80000AF03460A46FB711346BB710123FB602A
:1017080004E0FA79FB6802FB03F3FB60BB795A1E1D
:10171800BA71002BF5D1FB6818461437BD465DF841
:10172800047B704790B589B004AF0446084611465B
:101738001A462346FB800346BB800B467B80134634
:101748007B700023BB7397F828305B087B730023FA
:10175800FB7359E07C887A78FB7BD31ADBB2013BB8
:10176800DBB219460A20FFF7C1FF0346B4FBF3F1C9
:101778002A4BA3FB0123DA0813469B0013445B00A2
:10178800CA1A13463B73BB7B002B21D1FA7B7B78AB
:10179800013B9A421CDA3B7B002B17D1FB7B9AB2A8
:1017A8007B7B9BB212FB03F39AB2FB88134498B27B
:1017B8003A8CB9880023029397F828300193BB8CA0
:1017C800009313462022FFF7C1FE1AE00123BB73E2
:1017D800FB7B9AB27B7B9BB212FB03F39AB2FB882A
:1017E800134498B23B7B3033DAB23C8CB98800237F
:1017F800029397F828300193BB8C00932346FFF798
:10180800A5FEFB7B0133FB73FA7B7B789A42A1D35D
:1018180000BF00BF1437BD4690BD00BFCDCCCCCCB7
:1018280080B483B000AF0346FB71FB791B09DBB2C0
:1018380003F00303DBB2002B07D00A4B4FF4A0726E
:101848001A80084BF0225A8006E0064BF0221A80D4
:10185800044B4FF4A0725A8000BF0C37BD465DF8A8
:10186800047B70471401002080B500AF00224FF4BC
:101878000051AA4802F054F94FF4FA7001F07EFEC4
:1018880001224FF40051A54802F04AF94FF4FA70CA
:1018980001F074FE0020FFF7C3FFD320FFF78EFD91
:1018A800FFF7ACFD03461A469D4B9A80FFF7A6FD4D
:1018B80003461A469A4B9A80FFF7A0FD03461A463C
:1018C800974B9A80964B9B881B029AB2944B9A80AE
:1018D800FFF794FD03461A46914B9B8813439AB22F
:1018E8008F4B9A80CF20FFF769FD0020FFF776FD28
:1018F800C120FFF773FD3020FFF770FDED20FFF7E3
:101908005DFD6420FFF76AFD0320FFF767FD1220E5
:10191800FFF764FD8120FFF761FDE820FFF74EFD2A
:101928008520FFF75BFD1020FFF758FD7A20FFF7B1
:1019380055FDCB20FFF742FD3920FFF74FFD2C2046
:10194800FFF74CFD0020FFF749FD3420FFF746FD67
:101958000220FFF743FDF720FFF730FD2020FFF7B7
:101968003DFDEA20FFF72AFD0020FFF737FD0020A4
:10197800FFF734FDC020FFF721FD1B20FFF72EFDE8
:10198800C120FFF71BFD0120FFF728FDC520FFF749
:1019980015FD3020FFF722FD3020FFF71FFDC7207F
:1019A800FFF70CFDB720FFF719FD3620FFF706FDFE
:1019B8000820FFF713FD3A20FFF700FD5520FFF739
:1019C8000DFDB120FFF7FAFC0020FFF707FD1A20F4
:1019D800FFF704FDB620FFF7F1FC0A20FFF7FEFC35
:1019E800A220FFF7FBFCF220FFF7E8FC0020FFF73E
:1019F800F5FC2620FFF7E2FC0120FFF7EFFCE020D2
:101A0800FFF7DCFC0F20FFF7E9FC2A20FFF7E6FCD4
:101A18002820FFF7E3FC0820FFF7E0FC0E20FFF783
:101A2800DDFC0820FFF7DAFC5420FFF7D7FCA920DB
:101A3800FFF7D4FC4320FFF7D1FC0A20FFF7CEFCC8
:101A48000F20FFF7CBFC0020FFF7C8FC0020FFF7B2
:101A5800C5FC0020FFF7C2FC0020FFF7BFFCE12017
:101A6800FFF7ACFC0020FFF7B9FC1520FFF7B6FC28
:101A78001720FFF7B3FC0720FFF7B0FC1120FFF792
:101A8800ADFC0620FFF7AAFC2B20FFF7A7FC562089
:101A9800FFF7A4FC3C20FFF7A1FC0520FFF79EFC04
:101AA8001020FFF79BFC0F20FFF798FC3F20FFF763
:101AB80095FC3F20FFF792FC0F20FFF78FFC2B20AF
:101AC800FFF77CFC0020FFF789FC0020FFF786FC6D
:101AD8000120FFF783FC3F20FFF780FC2A20FFF757
:101AE8006DFC0020FFF77AFC0020FFF777FC002050
:101AF800FFF774FCEF20FFF771FC1120FFF75EFC85
:101B0800782001F03BFD2920FFF758FC01224FF413
:101B18008071044802F004F800BF80BD000802404C
:101B2800140100200000024090B58BB004AFBA60E9
:101B38001A460346FB810B46BB811346FB80FB8993
:101B4800BB820023FB7548E0FB7D002B45D1FA8959
:101B5800264B1B88194697F82C305B08DBB2CB1A4A
:101B68009A423FDCBA89214B5B88194697F82C309A
:101B7800CB1A9A4236DCBB681B78802B02D901232A
:101B8800FB752AE0BB681B780D2B0BD197F82C301E
:101B98009AB2BB891344BB81BB8AFB81BB68013302
:101BA800BB6017E0BB681A78FC88B989F88997F890
:101BB8003030029397F82C3001933B8D00932346E5
:101BC800FFF7C4FC97F82C305B08DBB29AB2FB89AC
:101BD8001344FB81BB680133BB60BB681B78002BD7
:101BE800B2D100E000BF1C37BD4690BD14010020F3
:101BF80080B500AF01F050FC00F010F8FFF796FA3E
:101C080001F050FA01F06EFBFFF7C0F9FFF760FB37
:101C180001F022FB01F040FBFCE7000080B594B026
:101C280000AF07F1200330220021184604F0D2FE4D
:101C380007F10C0300221A605A609A60DA601A6190
:101C48000023BB60284B1B6C274A43F08053136466
:101C5800254B1B6C03F08053BB60BB6800237B6083
:101C6800224B1B68214A43F4804313601F4B1B68B7
:101C780003F480437B607B6802233B620123FB62A1
:101C880010233B630223BB630023FB6308233B64ED
:101C9800A8237B640223BB640423FB6407F12003AD
:101CA800184603F045F80346002B01D000F020F851
:101CB8000F23FB6002233B6100237B614FF4A05399
:101CC800BB614FF4A053FB6107F10C0305211846D3
:101CD80003F0A6FA0346002B01D000F009F800BF74
:101CE8005037BD4680BD00BF00380240007000403C
:101CF80080B400AF72B600BFFEE7000080B584B0C4
:101D080004AF214B1A78214B1B789A422CD1204BD7
:101D18001A78204B1B789A4226D11F4B1A781F4BF2
:101D28001B789A4220D11E4B1A781E4B1B789A4278
:101D38001AD11D4B1A781D4B1B789A4214D11C4B93
:101D48001A781C4B1B789A420ED100230293182351
:101D580001934FF4784300934FF6FF73164AC82156
:101D68000A20FFF7E1FE0CE00023029318230193F9
:101D7800002300930023104AC8210A20FFF7D4FE4D
:101D880000BF00BFBD4680BD0C000020060000203B
:101D98000B000020050000200A000020040000209D
:101DA8000900002003000020080000200200002095
:101DB80007000020010000204C6A000880B500AF31
:101DC800124B1B78022B18D0022B1DDC002B02D0E3
:101DD800012B0BD018E000F0E9FD00F027FE00F021
:101DE80061FEFFF78BFF00F061FB0DE000F092F958
:101DF80000F058FE00F05AFB06E000F009F800F089
:101E080051FE00F053FBFFE700BF80BD1A01002020
:101E180080B500AFB74B1B78062B00F2698101A291
:101E280052F823F0491E0008591E0008C91E000870
:101E3800391F0008A91F0008192000088920000878
:101E48000021012000F0E2FEAA4B01221A704FE1A6
:101E5800A94B1B78002B02D0012B15D02AE0A74BE9
:101E68001B780121184600F00FFF012001F004F94A
:101E78000346002B1DD1A04B01221A704FF47A7132
:101E8800012001F09BF814E09C4B1B7800211846B8
:101E980000F0FAFE012001F0EFF80346002B09D10B
:101EA800954B00221A704FF47A71012001F086F8E0
:101EB80000E000BF914800F0DBFC00F04DFB17E1AB
:101EC8008D4B1B78002B02D0012B15D02AE08C4BB0
:101ED8001B780121184600F015FF012001F0CCF80D
:101EE8000346002B1DD1844B01221A704FF47A71DE
:101EF800012001F063F814E0814B1B78002118469B
:101F080000F000FF012001F0B7F80346002B09D1CB
:101F1800794B00221A704FF47A71012001F04EF8C3
:101F280000E000BF764800F0A3FC00F015FBDFE0FE
:101F3800714B1B78002B02D0012B15D02AE0714B76
:101F48001B780121184600F01BFF012001F094F8CE
:101F58000346002B1DD1684B01221A704FF47A7189
:101F6800012001F02BF814E0664B1B78002118467D
:101F780000F006FF012001F07FF80346002B09D18D
:101F88005D4B00221A704FF47A71012001F016F8A7
:101F980000E000BF5B4800F06BFC00F0DDFAA7E052
:101FA800554B1B78002B02D0012B15D02AE0564B3D
:101FB8001B780121184600F03DFF012001F05CF874
:101FC8000346002B1DD14C4B01221A704FF47A7135
:101FD800012000F0F3FF14E04B4B1B78002118465A
:101FE80000F028FF012001F047F80346002B09D133
:101FF800414B00221A704FF47A71012000F0DEFF85
:1020080000E000BF404800F033FC00F0A5FA6FE0A4
:10201800394B1B78002B02D0012B15D02AE03B4B03
:102028001B780121184600F043FF012001F024F835
:102038000346002B1DD1304B01221A704FF47A71E0
:10204800012000F0BBFF14E0304B1B78002118463C
:1020580000F02EFF012001F00FF80346002B09D1F4
:10206800254B00221A704FF47A71012000F0A6FF68
:1020780000E000BF254800F0FBFB00F06DFA37E0F8
:102088001D4B1B78002B02D0012B15D02AE0204BCA
:102098001B780121184600F049FF012000F0ECFFF1
:1020A8000346002B1DD1144B01221A704FF47A718C
:1020B800012000F083FF14E0154B1B78002118461F
:1020C80000F034FF012000F0D7FF0346002B09D1B0
:1020D800094B00221A704FF47A71012000F06EFF4C
:1020E80000E000BF0A4800F0C3FB00F035FAFFE744
:1020F80000BF80BD1F010020200100200700002034
:1021080008000020090000200A0000200B00002021
:102118000C00002080B500AFB64B1B78062B00F2F0
:10212800AA8101A252F823F04D210008BD21000820
:102138002D2200089D2200080D2300087D23000899
:10214800ED230008AC4B1B78002B02D0012B15D0D7
:102158002AE0AA4B1B780121184600F057FD012000
:1021680000F08AFF0346002B1DD1A34B01221A70F1
:102178004FF47A71012000F021FF14E09F4B1B7887
:102188000021184600F042FD012000F075FF0346CB
:10219800002B09D1984B00221A704FF47A71012054
:1021A80000F00CFF00E000BF944800F061FB00F075
:1021B800D3F960E1904B1B78002B02D0012B15D08E
:1021C8002AE08F4B1B780121184600F05DFD0120A5
:1021D80000F052FF0346002B1DD1874B01221A70D5
:1021E8004FF47A71012000F0E9FE14E0844B1B786B
:1021F8000021184600F048FD012000F03DFF03468D
:10220800002B09D17C4B00221A704FF47A710120FF
:1022180000F0D4FE00E000BF794800F029FB00F090
:102228009BF928E1744B1B78002B02D0012B15D0A9
:102238002AE0744B1B780121184600F063FD012049
:1022480000F01AFF0346002B1DD16B4B01221A70B8
:102258004FF47A71012000F0B1FE14E0694B1B784D
:102268000021184600F04EFD012000F005FF03464E
:10227800002B09D1604B00221A704FF47A710120AB
:1022880000F09CFE00E000BF5E4800F0F1FA00F0AC
:1022980063F9F0E0584B1B78002B02D0012B15D0C6
:1022A8002AE0594B1B780121184600F069FD0120EE
:1022B80000F0E2FE0346002B1DD14F4B01221A709D
:1022C8004FF47A71012000F079FE14E04E4B1B7830
:1022D8000021184600F054FD012000F0CDFE034611
:1022E800002B09D1444B00221A704FF47A71012057
:1022F80000F064FE00E000BF434800F0B9FA00F0C7
:102308002BF9B8E03C4B1B78002B02D0012B15D0E1
:102318002AE03E4B1B780121184600F08BFD012076
:1023280000F0AAFE0346002B1DD1334B01221A7080
:102338004FF47A71012000F041FE14E0334B1B7812
:102348000021184600F076FD012000F095FE0346B6
:10235800002B09D1284B00221A704FF47A71012002
:1023680000F02CFE00E000BF284800F081FA00F0E1
:10237800F3F880E0204B1B78002B02D0012B15D0FE
:102388002AE0234B1B780121184600F091FD01201B
:1023980000F072FE0346002B1DD1174B01221A7064
:1023A8004FF47A71012000F009FE14E0184B1B78F5
:1023B8000021184600F07CFD012000F05DFE034678
:1023C800002B09D10C4B00221A704FF47A710120AE
:1023D80000F0F4FD00E000BF0D4800F049FA00F0FD
:1023E800BBF848E0044B1B78002B13D0012B26D0F8
:1023F8003BE000BF1F01002020010020000000205A
:10240800010000200200002003000020040000203A
:1024180005000020194B1B780121184600F086FDA5
:10242800012000F029FE0346002B1DD1144B012288
:102438001A704FF47A71012000F0C0FD14E00F4BC0
:102448001B780021184600F071FD012000F014FEF1
:102458000346002B09D10A4B00221A704FF47A71F7
:10246800012000F0ABFD00E000BF044800F000FAD6
:1024780000F072F8FFE700BF80BD00BF0600002033
:102488002001002080B584B004AF002302931823F4
:102498000193002300930023034A1E211420FFF711
:1024A80043FB00BFBD4680BD546A000880B500AF3D
:1024B800264B1B78002B02D0012B34D03FE00020A4
:1024C800FEF762FC0346012B25D1214B1B78022B1A
:1024D80018D0022B19DC002B02D0012B09D014E0F4
:1024E80000F0A4FA1A4B01221A701A4B00221A7033
:1024F8000BE000F01DFB174B00221A70144B022250
:102508001A7002E0124B00221A70FFF7BBFF0F4B44
:1025180001221A7015E00020FEF736FC0346012B55
:102528000FD100230FE00020FEF72EFC0346002BFE
:1025380003D1064B00221A7004E0002303E00023B5
:1025480001E000BF0123184680BD00BF1C01002028
:102558001A0100201F01002080B500AF5F4B9B7857
:10256800002B03D0012B00F0A780B1E00C20FEF770
:102578000BFC0346012B40F09780594B1B78012B2D
:102588005DD1584B1B78062B56D801A252F823F080
:10259800B5250008C9250008DD250008F125000833
:1025A8002D26000819260008052600084E4B1B7822
:1025B80019460020FEF764FC4A4B01221A703BE0E2
:1025C8004A4B1B7819460120FEF75AFC454B02225C
:1025D8001A7031E0464B1B7819460220FEF750FC72
:1025E800404B03221A7027E0424B1B781946032000
:1025F800FEF746FC3B4B06221A701DE03E4B1B784B
:1026080019460620FEF73CFC364B05221A7013E0EB
:102618003A4B1B7819460520FEF732FC314B042251
:102628001A7009E0364B1B7819460420FEF728FC7F
:102638002C4B00221A7000BF00F0F8F930E0294B4B
:102648001B78062B2CD801A252F823F0712600081B
:10265800792600088126000889260008A126000896
:1026680099260008912600081E4B01221A7017E0CF
:102678001C4B02221A7013E01A4B03221A700FE047
:10268800184B06221A700BE0164B05221A7007E049
:10269800144B04221A7003E0124B00221A7000BF78
:1026A8000E4B01229A7015E00C20FEF76DFB0346D5
:1026B800012B0FD100230FE00C20FEF765FB03462A
:1026C800002B03D1054B00229A7004E0002303E09D
:1026D800002301E000BF0123184680BD1C01002033
:1026E8001A0100201F010020000000200100002026
:1026F8000200002003000020060000200500002042
:102708000400002080B485B000AF7860554B1B787A
:10271800062B00F2A18001A252F823F041270008FD
:10272800412700085D27000879270008CD27000801
:10273800B1270008952700087B681B780133DAB2B7
:102748007B681A707B681B783B2B7CD97B680022DE
:102758001A7078E07B681B780133DAB27B681A70EC
:102768007B681B78172B70D97B6800221A706CE085
:102778007B681B780133DAB27B681A707B681B7838
:10278800072B64D97B6801221A7060E07B681B788C
:102798000133DAB27B681A707B681B78632B58D9CF
:1027A8007B6800221A7054E07B681B780133DAB228
:1027B8007B681A707B681B780C2B4CD97B680122CC
:1027C8001A7048E07B681B780133DAB27B681A70AC
:1027D8001E23FB73244B1B780C2B8CBF0122002279
:1027E800D2B2002A25D101229A4041F2AA531340BD
:1027F800002B14BF01230023DBB2002B09D102F008
:102808000403002B14BF01230023DBB2002B03D1E8
:102818000FE01F23FB730DE0144B1B7803F0030339
:10282800DBB2002B02D01C23FB7303E01D23FB73D8
:1028380000E000BF7B681B78FA7B9A420CD27B6869
:1028480001221A7008E000BF06E000BF04E000BFE4
:1028580002E000BF00E000BF00BF1437BD465DF8CE
:10286800047B70471F01002005000020060000209F
:1028780080B582B000AF78602C4B5B78022B31D0EA
:10288800022B49DC002B02D0012B15D044E0032099
:10289800FEF77AFA0346012B06D17868FFF732FF74
:1028A800224B01225A7039E00320FEF76DFA0346E5
:1028B800012B33D1002335E00320FEF765FA0346E8
:1028C800002B03D1194B00225A702AE00320FEF78F
:1028D80077FA0346012B03D1144B02225A7020E0E9
:1028E80000231FE0124B00221A70022000F0C4FBE4
:1028F8000346002B06D17868FFF704FFC8210220A1
:1029080000F05CFB0320FEF73FFA0346002B07D1DB
:10291800064B00225A7003E0002303E000BF00E0EA
:1029280000BF012318460837BD4680BD1C010020A2
:102938002001002080B500AF154B1B7819460020F8
:10294800FEF79EFA134B1B7819460620FEF798FAF5
:10295800114B1B7819460520FEF792FA0F4B1B788E
:1029680019460420FEF78CFA0D4B1B7819460320F4
:10297800FEF786FA0B4B1B7819460220FEF780FA01
:10298800094B1B7819460120FEF77AFA00BF80BD73
:1029980000000020060000200500002004000020A0
:1029A80003000020020000200100002080B400AFD6
:1029B800104B1A78104B1A70104B1A78104B1A706B
:1029C800104B1A78104B1A70104B1A78104B1A705B
:1029D800104B1A78104B1A70104B1A78104B1A704B
:1029E800104B1A78104B1A7000BFBD465DF8047B77
:1029F800704700BF65000020000000206400002030
:102A08000100002063000020020000206700002071
:102A18000300002066000020040000206800002059
:102A280005000020690000200600002080B500AFE6
:102A3800154B1B780121184600F0FCF9134B1B7845
:102A48000121184600F09CF9114B1B78012118460A
:102A580000F058F90F4B1B780121184600F014F9C3
:102A68000D4B1B780121184600F022FA0B4B1B78FE
:102A78000121184600F05AFA094B1B780121184623
:102A880000F0C4F800BF80BD04000020030000204F
:102A980002000020010000200500002006000020A0
:102AA8000000002080B584B004AF1D4B1B78022BBA
:102AB80024D0022B31DC002B02D0012B0FD02CE0CC
:102AC80000230293182301934FF4784300934FF6A1
:102AD800FF73144A1E211420FFF726F81DE0002377
:102AE8000293182301934FF4784300934FF6FF7332
:102AF8000D4A1E211420FFF717F80EE00023029359
:102B0800182301934FF4784300934FF6FF73074A55
:102B18001E211420FFF708F800BF00BFBD4680BD86
:102B28001A010020686A0008546A0008786A0008D8
:102B380080B500AF124B1B780121184600F07AF9D6
:102B4800104B1B780121184600F01AF90E4B1B7820
:102B58000121184600F0D6F80C4B1B7801211846C5
:102B680000F092F80A4B1B780121184600F0A0F9F2
:102B7800084B1B780121184600F0D8F900BF80BD2A
:102B88000A0000200900002008000020070000209B
:102B98000B0000200C00002080B400AF1A4B4FF44B
:102BA800FC621A60184B00225A60174B96221A7260
:102BB800154B64225A72144B6E229A72124B64227D
:102BC800DA72114B46221A730F4B64225A730E4B5A
:102BD80014229A730C4B8222DA730B4B46221A7416
:102BE800094B82225A74084B6E229A74064B822231
:102BF800DA74054B96221A75034B82225A7500BF68
:102C0800BD465DF8047B704724010020B0B586B04E
:102C180004AF03460A46FB711346BB71BB79002B10
:102C280016D0184B1B7A98B2164B5B7A99B2FB797F
:102C38009CB2144B1B689BB2124A526892B2182578
:102C480002950192009302232246FEF76BFD15E0E0
:102C58000C4B1B7A98B20B4B5B7A99B2FB799CB2FE
:102C6800084B5B689BB2074A526892B218250295D6
:102C78000192009302232246FEF754FD00BF083755
:102C8800BD46B0BD24010020B0B586B004AF0346F0
:102C98000A46FB711346BB71BB79002B16D0184B43
:102CA8009B7A98B2164BDB7A99B2FB799CB2144B9B
:102CB8001B689BB2124A526892B21825029501927B
:102CC800009302232246FEF72DFD15E00C4B9B7A5C
:102CD80098B20B4BDB7A99B2FB799CB2084B5B68D4
:102CE8009BB2074A526892B2182502950192009346
:102CF80002232246FEF716FD00BF0837BD46B0BDC9
:102D080024010020B0B586B004AF03460A46FB7123
:102D18001346BB71BB79002B16D0184B1B7B98B29E
:102D2800164B5B7B99B2FB799CB2144B1B689BB228
:102D3800124A526892B21825029501920093022312
:102D48002246FEF7EFFC15E00C4B1B7B98B20B4BB1
:102D58005B7B99B2FB799CB2084B5B689BB2074AD4
:102D6800526892B2182502950192009302232246D6
:102D7800FEF7D8FC00BF0837BD46B0BD24010020CF
:102D8800B0B586B004AF03460A46FB711346BB7163
:102D9800BB79002B2FD0FB79012B16D0234B9B7BC3
:102DA80098B2224BDB7B99B2FB799CB21F4B1B6814
:102DB8009BB21E4A526892B218250295019200935E
:102DC80002232246FEF7AEFC2BE0184B9B7B98B201
:102DD800164BDB7B99B2154B1B689AB2134B5B6899
:102DE8009BB2002402941824019400931346104ABD
:102DF800FEF79AFE15E00D4B9B7B98B20B4BDB7BE5
:102E080099B2FB799CB2094B5B689BB2074A52683E
:102E180092B2182502950192009302232246FEF7EA
:102E280081FC00BF0837BD46B0BD00BF24010020AB
:102E3800846A0008B0B586B004AF03460A46FB7141
:102E48001346BB71BB79002B16D0184B1B7C98B26C
:102E5800164B5B7C99B2FB799CB2144B1B689BB2F6
:102E6800124A526892B218250295019200930223E1
:102E78002246FEF757FC15E00C4B1B7C98B20B4B17
:102E88005B7C99B2FB799CB2084B5B689BB2074AA2
:102E9800526892B2182502950192009302232246A5
:102EA800FEF740FC00BF0837BD46B0BD2401002036
:102EB800B0B586B004AF03460A46FB711346BB7132
:102EC800BB79002B16D0184B9B7C98B2164BDB7C39
:102ED80099B2FB799CB2144B1B689BB2124A526898
:102EE80092B2182502950192009302232246FEF71A
:102EF80019FC15E00C4B9B7C98B20B4BDB7C99B210
:102F0800FB799CB2084B5B689BB2074A526892B245
:102F1800182502950192009302232246FEF702FC2F
:102F280000BF0837BD46B0BD24010020B0B586B04B
:102F380004AF03460A46FB711346BB71BB79002BED
:102F480016D0184B1B7D98B2164B5B7D99B2FB7956
:102F58009CB2144B1B689BB2124A526892B2182555
:102F680002950192009302232246FEF7DBFB15E04F
:102F78000C4B1B7D98B20B4B5B7D99B2FB799CB2D5
:102F8800084B5B689BB2074A526892B218250295B3
:102F98000192009302232246FEF7C4FB00BF0837C4
:102FA800BD46B0BD2401002080B582B000AF786076
:102FB80000F030F800BF0837BD4680BD80B582B04C
:102FC80000AF786039603B684FF47A7202FB03F314
:102FD8001846FDF737FA4FF000020C4BFDF7D6FB09
:102FE80002460B4610461946FDF7B8FC024608494A
:102FF8007B68DB000B445A60054A7B68012102F8B4
:10300800331000BF0837BD4680BD00BF00408F4069
:103018003C01002080B483B000AF00237B601FE038
:10302800144A7B6812F83330002B16D0114A7B689B
:10303800DB0013445B685A1E0E497B68DB000B44B7
:103048005A600C4A7B68DB0013445B68002B04D190
:10305800084A7B68002102F833107B6801337B60E3
:103068007B68022BDCD900BF00BF0C37BD465DF87A
:10307800047B70473C01002080B483B000AF7860C7
:10308800074A7B6812F83330012B0CBF0123002359
:10309800DBB218460C37BD465DF8047B704700BFAD
:1030A8003C01002080B500AF174B184A1A60164B38
:1030B8004FF482725A60144B00229A60124B00221D
:1030C800DA60114B00221A610F4B00225A610E4B35
:1030D8004FF400729A610C4B0022DA610A4B00220D
:1030E8001A62094B00225A62074B00229A62064B69
:1030F8000A22DA62044802F05FFA0346002B01D084
:10310800FEF7F6FD00BF80BD5401002000300140ED
:1031180080B58AB000AF786007F1140300221A6006
:103128005A609A60DA601A617B681B68194A934290
:103138002BD100233B61184B5B6C174A43F4805337
:103148005364154B5B6C03F480533B613B6900236C
:10315800FB60114B1B6B104A43F0020313630E4BC9
:103168001B6B03F00203FB60FB6838237B610223BF
:10317800BB610023FB6103233B6205237B6207F1EC
:1031880014031946054800F02FFB00BF2837BD4639
:1031980080BD00BF003001400038024000040240FA
:1031A80080B483B000AF00237B60104B5B6C0F4A88
:1031B80043F4804353640D4B5B6C03F480437B60A2
:1031C8007B6800233B60094B1B6C084A43F0805323
:1031D8001364064B1B6C03F080533B603B6800BFD5
:1031E8000C37BD465DF8047B704700BF00380240CD
:1031F80080B400AFFEE780B400AFFEE780B400AF54
:10320800FEE780B400AFFEE780B400AFFEE780B40D
:1032180000AF00BFBD465DF8047B704780B400AFC7
:1032280000BFBD465DF8047B704780B400AF00BFA7
:10323800BD465DF8047B704780B500AF00F07EF9AD
:1032480000BF80BD80B500AF024802F029FF00BF73
:1032580080BD00BFAC01002080B500AF0D4802F072
:10326800AFFE0A210020FFF7A9FE4FF47A71012072
:10327800FFF7A4FEFDF710FDFEF7F6FA0020FEF7B3
:103288001BF9FDF7B9FDFFF787FCFFF753FB00BFFC
:1032980080BD00BFAC01002080B500AF0020FFF763
:1032A800EBFE0346002B07D1FDF70CFEFDF700FDF2
:1032B8000A210020FFF782FEFEF780FD00BF80BDD7
:1032C80080B400AF064BD3F88830054A43F4700346
:1032D800C2F8883000BFBD465DF8047B704700BF68
:1032E80000ED00E080B586B000AF07F108030022CA
:1032F8001A605A609A60DA603B4600221A605A6087
:103308001D4B4FF080421A601B4B53225A601A4BD8
:1033180000229A60184B40F2E732DA60164B00221E
:103328001A61154B00229A61134802F0F9FD034611
:10333800002B01D0FEF7DCFC4FF48053BB6007F193
:10334800080319460C4802F0B3FF0346002B01D0CE
:10335800FEF7CEFC00233B6000237B603B4619460A
:10336800054803F0CFF90346002B01D0FEF7C0FC57
:1033780000BF1837BD4680BDAC01002080B584B0C1
:1033880000AF78607B681B68B3F1804F15D10023CC
:10339800FB600C4B1B6C0B4A43F001031364094B95
:1033A8001B6C03F00103FB60FB68002200211C205A
:1033B80000F0E3F91C2000F0FCF900BF1037BD460F
:1033C80080BD00BF0038024080B483B000AF034620
:1033D800FB71FB791B09DBB21A46920013445B00B0
:1033E800DAB2FB7903F00F03DBB21344DBB2184601
:1033F8000C37BD465DF8047B7047000080B483B08D
:1034080000AF0346FB71FB790D4AA2FB0323DB08DF
:10341800DBB21B0158B2FA79094BA3FB0213D90896
:103428000B469B000B445B00D31ADBB25BB2034331
:103438005BB2DBB218460C37BD465DF8047B7047BB
:10344800CDCCCCCCDFF834D00D480E490E4A002341
:1034580002E0D458C4500433C4188C42F9D30B4A40
:103468000B4C002301E013600432A242FBD3FFF7A8
:1034780027FF03F0B7FAFEF7BBFB704700000220F6
:10348800000000201C000020309A00081C000020CA
:10349800F8010020FEE7000080B500AF0E4B1B6866
:1034A8000D4A43F4007313600B4B1B680A4A43F43C
:1034B80080631360084B1B68074A43F480731360EA
:1034C800032000F04FF90F2000F008F8FFF768FE1E
:1034D8000023184680BD00BF003C024080B582B082
:1034E80000AF7860124B1A68124B1B7819464FF4DC
:1034F8007A73B3FBF1F3B2FBF3F3184600F067F904
:103508000346002B01D001230EE07B680F2B0AD85D
:10351800002279684FF0FF3000F02FF9064A7B68E7
:103528001360002300E0012318460837BD4680BD1C
:1035380010000020180000201400002080B400AF04
:10354800064B1B781A46064B1B681344044A136043
:1035580000BFBD465DF8047B704700BF180000201F
:10356800F401002080B400AF034B1B681846BD4629
:103578005DF8047B704700BFF401002080B584B07B
:1035880000AF7860FFF7EEFFB8607B68FB60FB6810
:10359800B3F1FF3F05D00A4B1B781A46FB6813446A
:1035A800FB6000BFFFF7DEFF0246BB68D31AFA686C
:1035B8009A42F7D800BF00BF1037BD4680BD00BF94
:1035C8001800002080B485B000AF78607B6803F0F5
:1035D8000703FB600C4BDB68BB60BA684FF6FF0360
:1035E8001340BB60FB681A02BB68134343F0BF6318
:1035F80043F40033BB60044ABB68D36000BF143790
:10360800BD465DF8047B704700ED00E080B400AF74
:10361800044BDB681B0A03F007031846BD465DF838
:10362800047B704700ED00E080B483B000AF034630
:10363800FB7197F90730002B0BDBFB7903F01F02B6
:10364800074997F907305B09012000FA02F241F8AF
:10365800232000BF0C37BD465DF8047B704700BFD0
:1036680000E100E080B483B000AF03463960FB712D
:1036780097F90730002B0ADB3B68DAB20C4997F957
:1036880007301201D2B20B4483F800230AE03B68EA
:10369800DAB20849FB7903F00F03043B1201D2B2F6
:1036A8000B441A7600BF0C37BD465DF8047B7047A3
:1036B80000E100E000ED00E080B489B000AFF86000
:1036C800B9607A60FB6803F00703FB61FB69C3F12B
:1036D8000703042B28BF0423BB61FB690433062BB3
:1036E80002D9FB69033B00E000237B614FF0FF3206
:1036F800BB6902FA03F3DA43BB681A407B699A4054
:103708004FF0FF317B6901FA03F3D9437B680B4023
:10371800134318462437BD465DF8047B7047000004
:1037280080B582B000AF78607B68013BB3F1807FE1
:1037380001D301230FE00A4A7B68013B53600F2144
:103748004FF0FF30FFF78EFF054B00229A60044BC5
:1037580007221A60002318460837BD4680BD00BFFF
:1037680010E000E080B582B000AF78607868FFF7BD
:1037780029FF00BF0837BD4680BD80B586B000AFC1
:103788000346B9607A60FB7300237B61FFF73EFF55
:1037980078617A68B9687869FFF78EFF024697F909
:1037A8000F3011461846FFF75DFF00BF1837BD46BA
:1037B80080BD80B582B000AF0346FB7197F9073032
:1037C8001846FFF731FF00BF0837BD4680BD80B5FA
:1037D80082B000AF78607868FFF7A2FF034618460A
:1037E8000837BD4680BD000080B489B000AF78605E
:1037F800396000237B6100233B610023BB61002308
:10380800FB616BE10122FB6902FA03F37B613B6810
:103818001B687A6913403B613A697B699A4240F0B8
:103828005A813B685B6803F00303012B05D03B68B2
:103838005B6803F00303022B30D17B689B68BB6194
:10384800FB695B00032202FA03F3DB43BA69134006
:10385800BB613B68DA68FB695B0002FA03F3BA698B
:103868001343BB617B68BA699A607B685B68BB611C
:103878000122FB6902FA03F3DB43BA691340BB6117
:103888003B685B681B0903F00102FB6902FA03F35A
:10389800BA691343BB617B68BA695A603B685B6865
:1038A80003F00303032B17D07B68DB68BB61FB695C
:1038B8005B00032202FA03F3DB43BA691340BB61DE
:1038C8003B689A68FB695B0002FA03F3BA69134321
:1038D800BB617B68BA69DA603B685B6803F0030325
:1038E800022B23D1FB69DA087B68083253F82230AF
:1038F800BB61FB6903F007039B000F2202FA03F385
:10390800DB43BA691340BB613B681A69FB6903F082
:1039180007039B0002FA03F3BA691343BB61FB690F
:10392800DA087B680832B96943F822107B681B689B
:10393800BB61FB695B00032202FA03F3DB43BA694C
:103948001340BB613B685B6803F00302FB695B00E3
:1039580002FA03F3BA691343BB617B68BA691A6058
:103968003B685B6803F44033002B00F0B48000230D
:10397800FB60604B5B6C5F4A43F4804353645D4B70
:103988005B6C03F48043FB60FB685B4AFB699B0844
:10399800023352F82330BB61FB6903F003039B0039
:1039A8000F2202FA03F3DB43BA691340BB617B6859
:1039B800524A93422BD07B68514A934225D07B6868
:1039C800504A93421FD07B684F4A934219D07B6874
:1039D8004E4A934213D07B684D4A93420DD07B6880
:1039E8004C4A934207D07B684B4A934201D1072344
:1039F8000EE008230CE006230AE0052308E0042370
:103A080006E0032304E0022302E0012300E0002390
:103A1800FA6902F0030292009340BA691343BB614A
:103A28003549FB699B080233BA6941F823203B4BAF
:103A38009B68BB613B69DB43BA691340BB613B6868
:103A48005B6803F48013002B03D0BA693B69134306
:103A5800BB61324ABB699360304BDB68BB613B6931
:103A6800DB43BA691340BB613B685B6803F400132E
:103A7800002B03D0BA693B691343BB61274ABB6972
:103A8800D360264B5B68BB613B69DB43BA69134073
:103A9800BB613B685B6803F40033002B03D0BA6951
:103AA8003B691343BB611D4ABB6953601B4B1B68D1
:103AB800BB613B69DB43BA691340BB613B685B6828
:103AC80003F48033002B03D0BA693B691343BB610D
:103AD800124ABB691360FB690133FB61FB690F2B59
:103AE8007FF690AE00BF00BF2437BD465DF8047B6B
:103AF800704700BF00380240003801400000024013
:103B08000004024000080240000C0240001002407D
:103B18000014024000180240001C0240003C014012
:103B280080B483B000AF78600B467B8013467B700F
:103B38007B78002B03D07A887B689A6103E07B88C6
:103B48001A047B689A6100BF0C37BD465DF8047B98
:103B58007047000080B584B000AF78607B68002BA8
:103B680001D101232BE17B6893F83D30DBB2002BB8
:103B780006D17B68002283F83C207868FDF7D6FBE5
:103B88007B68242283F83D207B681B681A687B6861
:103B98001B6822F001021A607B681B681A687B6840
:103BA8001B6842F400421A607B681B681A687B68CD
:103BB8001B6822F400421A6001F0EAFCF8607B6896
:103BC8005B68814A934207D8FB68804A934294BF56
:103BD80001230023DBB206E0FB687D4A934294BFD1
:103BE80001230023DBB2002B01D00123E7E0FB68AF
:103BF800784AA2FB03239B0CBB607B681B685B684D
:103C080023F03F017B681B68BA680A435A607B68E7
:103C18001B681B6A23F03F017B685B686A4A934212
:103C280002D8BB68013309E0BB684FF4967202FB07
:103C380003F3694AA2FB03239B0901337A681268DC
:103C48000B4313627B681B68DB6923F44F4222F045
:103C5800FF027B685B685C498B4219D8FB68591E78
:103C68007B685B685B00B1FBF3F3591C40F6FC739F
:103C78000B40002B0AD0FB68591E7B685B685B0011
:103C8800B1FBF3F30133C3F30B0351E004234FE01B
:103C98007B689B68002B11D1FB68581E7B685968AC
:103CA8000B465B000B44B0FBF3F30133C3F30B0388
:103CB800002B0CBF01230023DBB212E0FB68581E67
:103CC8007B6859680B469B000B4499000B44B0FB7A
:103CD800F3F30133C3F30B03002B0CBF01230023C1
:103CE800DBB2002B01D0012322E07B689B68002B0C
:103CF8000ED1FB68581E7B6859680B465B000B4465
:103D0800B0FBF3F30133C3F30B0343F400430FE0B9
:103D1800FB68581E7B6859680B469B000B4499004A
:103D28000B44B0FBF3F30133C3F30B0343F44043F9
:103D3800796809681343CB617B681B681B6823F0AB
:103D4800C0017B68DA697B681B6A1A437B681B6859
:103D58000A431A607B681B689B6823F4034323F0BB
:103D6800FF037A6811697A68D26811437A68126821
:103D78000B4393607B681B68DB6823F0FF017B685B
:103D88005A697B689B691A437B681B680A43DA6037
:103D98007B681B681A687B681B6842F001021A601E
:103DA8007B6800221A647B68202283F83D207B68A8
:103DB80000221A637B68002283F83E2000231846FD
:103DC8001037BD4680BD00BFA08601007F841E005D
:103DD800FF083D0083DE1B43D34D621080B588B0D9
:103DE80002AFF860084611461A4603467B810B4627
:103DF8003B811346FB80FFF7B5FB7861FB6893F8BE
:103E08003D30DBB2202B40F0D9807B690093192329
:103E180001226D49F86800F0ADFD0346002B01D082
:103E28000223CCE0FB6893F83C30012B01D102233C
:103E3800C5E0FB68012283F83C20FB681B681B680F
:103E480003F00103012B07D0FB681B681A68FB68A5
:103E58001B6842F001021A60FB681B681A68FB685D
:103E68001B6822F400621A60FB68212283F83D2057
:103E7800FB68402283F83E20FB6800221A64FB6836
:103E88003A6A5A62FB68BA8C5A85FB685B8D9AB2AB
:103E9800FB681A85FB684D4ADA62F8883A8979899D
:103EA8007B690193BB6A00930346F86800F0E4FB62
:103EB8000346002B52D0012381E07A69B96AF86879
:103EC80000F02EFE0346002B0DD0FB681B6C042B64
:103ED80007D1FB681B681A68FB681B6842F400720C
:103EE8001A6001236BE0FB685B6A1A78FB681B6841
:103EF8001A61FB685B6A5A1CFB685A62FB681B8D77
:103F0800013B9AB2FB681A85FB685B8D9BB2013B4B
:103F18009AB2FB685A85FB681B685B6903F0040367
:103F2800042B1BD1FB681B8D002B17D0FB685B6A29
:103F38001A78FB681B681A61FB685B6A5A1CFB6885
:103F48005A62FB681B8D013B9AB2FB681A85FB68B5
:103F58005B8D9BB2013B9AB2FB685A85FB681B8D4F
:103F6800002BAAD17A69B96AF86800F01AFE0346EC
:103F7800002B0DD0FB681B6C042B07D1FB681B685A
:103F88001A68FB681B6842F400721A60012316E085
:103F9800FB681B681A68FB681B6842F400721A60A9
:103FA800FB68202283F83D20FB68002283F83E202E
:103FB800FB68002283F83C20002300E00223184617
:103FC8001837BD4680BD00BF020010000000FFFF8B
:103FD80080B58CB002AFF860084611461A46034611
:103FE8007B810B463B811346FB80FFF7BBFA786267
:103FF800FB6893F83D30DBB2202B40F008827B6AE7
:104008000093192301227B49F86800F0B3FC0346AA
:10401800002B01D00223FBE1FB6893F83C30012B15
:1040280001D10223F4E1FB68012283F83C20FB68FC
:104038001B681B6803F00103012B07D0FB681B6892
:104048001A68FB681B6842F001021A60FB681B686B
:104058001A68FB681B6822F400621A60FB68222257
:1040680083F83D20FB68402283F83E20FB6800224D
:104078001A64FB683A6B5A62FB68BA8E5A85FB6809
:104088005B8D9AB2FB681A85FB685B4ADA62F8882E
:104098003A8979897B6A0193BB6B00930346F86878
:1040A80000F080FB0346002B01D00123B0E1FB6840
:1040B8001B8D002B13D100233B62FB681B685B69D7
:1040C8003B62FB681B689B693B623B6AFB681B6839
:1040D8001A68FB681B6842F400721A6084E1FB6886
:1040E8001B8D012B1BD1FB681B681A68FB681B68BA
:1040F80022F480621A600023FB61FB681B685B691D
:10410800FB61FB681B689B69FB61FB69FB681B68BB
:104118001A68FB681B6842F400721A6064E1FB6865
:104128001B8D022B1BD1FB681B681A68FB681B6878
:1041380022F480621A60FB681B681A68FB681B68B7
:1041480042F400621A600023BB61FB681B685B696C
:10415800BB61FB681B689B69BB61BB6944E10023C9
:104168007B61FB681B685B697B61FB681B689B69FB
:104178007B617B6938E1FB681B8D032B00F2F180C2
:10418800FB681B8D012B23D17A6AB96BF86800F0A4
:1041980049FD0346002B01D0012339E1FB681B6868
:1041A8001A69FB685B6AD2B21A70FB685B6A5A1CB0
:1041B800FB685A62FB681B8D013B9AB2FB681A8543
:1041C800FB685B8D9BB2013B9AB2FB685A850BE199
:1041D800FB681B8D022B4ED17B6A0093BB6B0022C0
:1041E8000649F86800F0C6FB0346002B08D00123F7
:1041F8000EE100BF020010000000FFFF04000100F4
:10420800FB681B681A68FB681B6842F400721A6036
:10421800FB681B681A69FB685B6AD2B21A70FB6894
:104228005B6A5A1CFB685A62FB681B8D013B9AB299
:10423800FB681A85FB685B8D9BB2013B9AB2FB68F1
:104248005A85FB681B681A69FB685B6AD2B21A70E8
:10425800FB685B6A5A1CFB685A62FB681B8D013B52
:104268009AB2FB681A85FB685B8D9BB2013B9AB2D8
:10427800FB685A85B8E07B6A0093BB6B00226649ED
:10428800F86800F077FB0346002B01D00123BFE05C
:10429800FB681B681A68FB681B6822F480621A6056
:1042A800FB681B681A69FB685B6AD2B21A70FB6804
:1042B8005B6A5A1CFB685A62FB681B8D013B9AB209
:1042C800FB681A85FB685B8D9BB2013B9AB2FB6861
:1042D8005A857B6A0093BB6B00224F49F86800F04F
:1042E80049FB0346002B01D0012391E0FB681B68C2
:1042F8001A68FB681B6842F400721A60FB681B6846
:104308001A69FB685B6AD2B21A70FB685B6A5A1C4E
:10431800FB685A62FB681B8D013B9AB2FB681A85E1
:10432800FB685B8D9BB2013B9AB2FB685A85FB68C0
:104338001B681A69FB685B6AD2B21A70FB685B6A11
:104348005A1CFB685A62FB681B8D013B9AB2FB68DA
:104358001A85FB685B8D9BB2013B9AB2FB685A8554
:1043680042E07A6AB96BF86800F05CFC0346002BFF
:1043780001D001234CE0FB681B681A69FB685B6A83
:10438800D2B21A70FB685B6A5A1CFB685A62FB68F7
:104398001B8D013B9AB2FB681A85FB685B8D9BB24B
:1043A800013B9AB2FB685A85FB681B685B6903F09E
:1043B8000403042B18D1FB681B681A69FB685B6A45
:1043C800D2B21A70FB685B6A5A1CFB685A62FB68B7
:1043D8001B8D013B9AB2FB681A85FB685B8D9BB20B
:1043E800013B9AB2FB685A85FB681B8D002B7FF452
:1043F800C2AEFB68202283F83D20FB68002283F8C8
:104408003E20FB68002283F83C20002300E00223C2
:1044180018462837BD4680BD0400010080B58AB023
:1044280002AFF8607A603B600B467B81FFF79AF831
:10443800F8610023BB61FB6893F83D30DBB2202BA9
:1044480040F01181FB690093192301228849F8681B
:1044580000F090FA0346002B01D0022304E1FB6828
:1044680093F83C30012B01D10223FDE0FB680122C7
:1044780083F83C20FB681B681B6803F00103012BD1
:1044880007D0FB681B681A68FB681B6842F00102CA
:104498001A60FB681B681A68FB681B6822F40062D4
:1044A8001A60FB68242283F83D20FB6800221A6406
:1044B800FB68704ADA62FB681B681A68FB681B684D
:1044C80042F480721A60FB6900933B6800224FF047
:1044D8000111F86800F04EFA0346002B0DD0FB6876
:1044E8001B681B6803F48073B3F5807F03D1FB68F6
:1044F8004FF400721A640323B6E07B89DBB21A46D4
:10450800FB681B6802F0FE021A61FFF72BF8F861DE
:10451800FB681B685B6903F00203022B0CBF0123D5
:104528000023DBB2FB75FB681B685B6903F48063DF
:10453800B3F5806F0CBF01230023DBB2BB7525E008
:10454800FFF710F80246FB69D31A3A689A4202D379
:104558003B68002B03D1FB68A02283F83D20FB6851
:104568001B685B6903F00203022B0CBF01230023C5
:10457800DBB2FB75FB681B685B6903F48063B3F50A
:10458800806F0CBF01230023DBB2BB75FB6893F877
:104598003D30DBB2A02B05D0FB7D002B02D1BB7DCB
:1045A800002BCDD0FB68202283F83D20FB681B68D8
:1045B8005B6903F00203022B29D1FB681B681A68A8
:1045C800FB681B6842F400721A6000233B61FB68B9
:1045D8001B685B693B61FB681B689B693B613B69C6
:1045E800FB690093192301222149F86800F0C2F9F8
:1045F8000346002B01D0012336E0FB68202283F814
:104608003D20FB68002283F83C2000232CE0FB6857
:104618001B681A68FB681B6842F400721A60FB6822
:104628001B686FF480625A61FB69009319230122A9
:104638000F49F86800F09EF90346002B01D00123CA
:1046480012E0BB690133BB61BA697B689A42FFF427
:1046580032AFFB68202283F83D20FB68002283F8F4
:104668003C20012300E0022318462037BD4680BDC8
:10467800020010000000FFFF80B588B002AFF860AC
:10468800084611461A4603467B810B463B81134672
:10469800FB80FB681B681A68FB681B6842F4807221
:1046A8001A607B6A00933B6A00224FF00111F86898
:1046B80000F060F90346002B0DD0FB681B681B68EF
:1046C80003F48073B3F5807F03D1FB684FF4007265
:1046D8001A6403235FE07B89DBB21A46FB681B6818
:1046E80002F0FE021A617B6A3A6A2D49F86800F006
:1046F80098F90346002B01D001234CE000237B618D
:10470800FB681B685B697B61FB681B689B697B6155
:104718007B697A6A396AF86800F002FA0346002B66
:104728000DD0FB681B6C042B07D1FB681B681A684B
:10473800FB681B6842F400721A6001232BE0FB88B7
:10474800012B05D13B89DAB2FB681B681A6121E0AD
:104758003B891B0A9BB2DAB2FB681B681A617A6A4A
:10476800396AF86800F0DCF90346002B0DD0FB68C5
:104778001B6C042B07D1FB681B681A68FB681B6855
:1047880042F400721A60012305E03B89DAB2FB6843
:104798001B681A61002318461837BD4680BD00BF44
:1047A8000200010080B588B002AFF86008461146E3
:1047B8001A4603467B810B463B811346FB80FB6808
:1047C8001B681A68FB681B6842F480621A60FB6801
:1047D8001B681A68FB681B6842F480721A607B6A5F
:1047E80000933B6A00224FF00111F86800F0C2F80C
:1047F8000346002B0DD0FB681B681B6803F480730D
:10480800B3F5807F03D1FB684FF400721A64032369
:10481800AAE07B89DBB21A46FB681B6802F0FE023D
:104828001A617B6A3A6A5249F86800F0FAF8034656
:10483800002B01D0012397E000237B61FB681B68F4
:104848005B697B61FB681B689B697B617B697A6A32
:10485800396AF86800F064F90346002B0DD0FB684C
:104868001B6C042B07D1FB681B681A68FB681B6864
:1048780042F400721A60012376E0FB88012B05D10F
:104888003B89DAB2FB681B681A6121E03B891B0A85
:104898009BB2DAB2FB681B681A617A6A396AF868EF
:1048A80000F03EF90346002B0DD0FB681B6C042B6F
:1048B80007D1FB681B681A68FB681B6842F4007222
:1048C8001A60012350E03B89DAB2FB681B681A6161
:1048D8007A6A396AF86800F023F90346002B0DD08C
:1048E800FB681B6C042B07D1FB681B681A68FB6804
:1048F8001B6842F400721A60012335E0FB681B68EC
:104908001A68FB681B6842F480721A607B6A00931D
:104918003B6A00224FF00111F86800F02BF80346BB
:10492800002B0DD0FB681B681B6803F48073B3F57C
:10493800807F03D1FB684FF400721A64032313E0ED
:104948007B89DBB243F00103DAB2FB681B681A61AA
:104958007B6A3A6A0649F86800F063F80346002B58
:1049680001D0012300E0002318461837BD4680BD5A
:104978000200010080B584B000AFF860B9603B6008
:104988001346FB7125E03B68B3F1FF3F21D0FEF7EA
:10499800E9FD0246BB69D31A3A689A4202D33B68DA
:1049A800002B16D1FB6800221A63FB68202283F8CB
:1049B8003D20FB68002283F83E20FB681B6C43F017
:1049C8002002FB681A64FB68002283F83C2001235C
:1049D80023E0BB681B0CDBB2012B0DD1FB681B6805
:1049E8005B69DA43BB6813409BB2002B0CBF012301
:1049F8000023DBB21A460CE0FB681B689B69DA43AC
:104A0800BB6813409BB2002B0CBF01230023DBB211
:104A18001A46FB799A42B6D0002318461037BD468D
:104A280080BD80B584B000AFF860B9607A603B6043
:104A380051E0FB681B685B6903F48063B3F5806F22
:104A480023D1FB681B681A68FB681B6842F4007274
:104A58001A60FB681B686FF480625A61FB68002269
:104A68001A63FB68202283F83D20FB68002283F844
:104A78003E20FB681B6C43F00402FB681A64FB6869
:104A8800002283F83C20012346E07B68B3F1FF3F16
:104A980021D0FEF767FD02463B68D31A7A689A422E
:104AA80002D37B68002B16D1FB6800221A63FB68CF
:104AB800202283F83D20FB68002283F83E20FB6813
:104AC8001B6C43F02002FB681A64FB68002283F821
:104AD8003C20012320E0BB681B0CDBB2012B0CD16E
:104AE800FB681B685B69DA43BB6813409BB2002B09
:104AF80014BF01230023DBB20BE0FB681B689B6932
:104B0800DA43BB6813409BB2002B14BF0123002378
:104B1800DBB2002B8DD1002318461037BD4680BD6F
:104B280080B584B000AFF860B9607A602DE0F868AD
:104B380000F0CEF80346002B01D001232DE0BB681E
:104B4800B3F1FF3F21D0FEF70DFD02467B68D31A73
:104B5800BA689A4202D3BB68002B16D1FB680022C0
:104B68001A63FB68202283F83D20FB68002283F843
:104B78003E20FB681B6C43F02002FB681A64FB684C
:104B8800002283F83C20012307E0FB681B685B696F
:104B980003F08003802BCAD1002318461037BD4686
:104BA80080BD80B584B000AFF860B9607A602DE050
:104BB800F86800F08DF80346002B01D001232DE0A2
:104BC800BB68B3F1FF3F21D0FEF7CCFC02467B68FF
:104BD800D31ABA689A4202D3BB68002B16D1FB6875
:104BE80000221A63FB68202283F83D20FB6800221C
:104BF80083F83E20FB681B6C43F02002FB681A64B4
:104C0800FB68002283F83C20012307E0FB681B684F
:104C18005B6903F00403042BCAD10023184610373C
:104C2800BD4680BD80B584B000AFF860B9607A60D9
:104C380042E0FB681B685B6903F01003102B19D175
:104C4800FB681B686FF010025A61FB6800221A6348
:104C5800FB68202283F83D20FB68002283F83E2071
:104C6800FB681A6CFB681A64FB68002283F83C2016
:104C7800012329E0FEF776FC02467B68D31ABA685E
:104C88009A4202D3BB68002B16D1FB6800221A6334
:104C9800FB68202283F83D20FB68002283F83E2031
:104CA800FB681B6C43F02002FB681A64FB68002257
:104CB80083F83C20012307E0FB681B685B6903F06D
:104CC8004003402BB5D1002318461037BD4680BDA0
:104CD80080B483B000AF78607B681B685B6903F4BD
:104CE8008063B3F5806F1BD17B681B686FF48062AB
:104CF8005A617B6800221A637B68202283F83D2072
:104D08007B68002283F83E207B681B6C43F004021A
:104D18007B681A647B68002283F83C20012300E04A
:104D2800002318460C37BD465DF8047B7047000029
:104D380080B586B000AF78607B68002B01D1012375
:104D480067E27B681B6803F00103002B75D0884B72
:104D58009B6803F00C03042B0CD0854B9B6803F075
:104D68000C03082B12D1824B5B6803F48003B3F564
:104D7800800F0BD17E4B1B6803F40033002B5BD0F4
:104D88007B685B68002B57D1012342E27B685B6834
:104D9800B3F5803F06D1764B1B68754A43F48033E0
:104DA80013601DE07B685B68B3F5A02F0CD1704BD6
:104DB8001B686F4A43F4802313606D4B1B686C4A71
:104DC80043F4803313600BE0694B1B68684A23F493
:104DD80080331360664B1B68654A23F48023136095
:104DE8007B685B68002B13D0FEF7BCFB386108E0DA
:104DF800FEF7B8FB02463B69D31A642B01D903239B
:104E080007E25B4B1B6803F40033002BF0D014E07F
:104E1800FEF7A8FB386108E0FEF7A4FB02463B69F1
:104E2800D31A642B01D90323F3E1514B1B6803F414
:104E38000033002BF0D100E000BF7B681B6803F053
:104E48000203002B63D04A4B9B6803F00C03002B32
:104E58000BD0474B9B6803F00C03082B1CD1444B29
:104E68005B6803F48003002B16D1414B1B6803F0E9
:104E78000203002B05D07B68DB68012B01D00123DE
:104E8800C7E13B4B1B6823F0F8027B681B69DB001A
:104E9800374913430B603AE07B68DB68002B20D06E
:104EA800344B01221A60FEF75DFB386108E0FEF71B
:104EB80059FB02463B69D31A022B01D90323A8E107
:104EC8002B4B1B6803F00203002BF0D0284B1B6808
:104ED80023F0F8027B681B69DB00254913430B604C
:104EE80015E0244B00221A60FEF73CFB386108E00D
:104EF800FEF738FB02463B69D31A022B01D903237C
:104F080087E11B4B1B6803F00203002BF0D17B6881
:104F18001B6803F00803002B36D07B685B69002B05
:104F280016D0154B01221A60FEF71CFB386108E009
:104F3800FEF718FB02463B69D31A022B01D903235B
:104F480067E10B4B5B6F03F00203002BF0D01BE013
:104F5800094B00221A60FEF705FB38610EE0FEF7E8
:104F680001FB02463B69D31A022B07D9032350E100
:104F78000038024000004742800E4742884B5B6F72
:104F880003F00203002BEAD17B681B6803F00403DB
:104F9800002B00F097800023FB75814B1B6C03F0FE
:104FA8008053002B0FD10023BB607D4B1B6C7C4AC8
:104FB80043F0805313647A4B1B6C03F08053BB603F
:104FC800BB680123FB75774B1B6803F48073002BC8
:104FD80018D1744B1B68734A43F480731360FEF74F
:104FE800C1FA386108E0FEF7BDFA02463B69D31AF8
:104FF800022B01D903230CE16A4B1B6803F480736D
:10500800002BF0D07B689B68012B06D1644B1B6F8B
:10501800634A43F0010313671CE07B689B68052B18
:105028000CD15F4B1B6F5E4A43F0040313675C4B64
:105038001B6F5B4A43F0010313670BE0584B1B6F70
:10504800574A23F001031367554B1B6F544A23F04B
:10505800040313677B689B68002B15D0FEF782FA60
:1050680038610AE0FEF77EFA02463B69D31A41F23C
:105078008832934201D90323CBE0494B1B6F03F0DD
:105088000203002BEED014E0FEF76CFA38610AE058
:10509800FEF768FA02463B69D31A41F28832934216
:1050A80001D90323B5E03E4B1B6F03F00203002B2D
:1050B800EED1FB7D012B05D1394B1B6C384A23F00F
:1050C800805313647B689B69002B00F0A180344BEC
:1050D8009B6803F00C03082B5CD07B689B69022B50
:1050E80041D1314B00221A60FEF73CFA386108E0E2
:1050F800FEF738FA02463B69D31A022B01D903237B
:1051080087E0274B1B6803F00073002BF0D17B6806
:10511800DA697B681B6A1A437B685B6A9B011A43DE
:105128007B689B6A5B08013B1B041A437B68DB6A4C
:105138001B061B4913434B601B4B01221A60FEF7E9
:1051480011FA386108E0FEF70DFA02463B69D31AF6
:10515800022B01D903235CE0114B1B6803F0007399
:10516800002BF0D054E0104B00221A60FEF7FAF939
:10517800386108E0FEF7F6F902463B69D31A022BBC
:1051880001D9032345E0064B1B6803F00073002B8D
:10519800F0D13DE07B689B69012B07D1012338E002
:1051A8000038024000700040600047421B4B5B68BB
:1051B800FB607B689B69012B28D0FB6803F48002A5
:1051C8007B68DB699A4221D1FB6803F03F027B6868
:1051D8001B6A9A421AD1FA6847F6C07313407A6874
:1051E800526A9201934211D1FB6803F440327B6802
:1051F8009B6A5B08013B1B049A4207D1FB6803F0DA
:1052080070627B68DB6A1B069A4201D0012300E0CA
:10521800002318461837BD4680BD00BF003802403D
:1052280080B584B000AF786039607B68002B01D10D
:105238000123CCE0684B1B6803F007033A689A42E5
:105248000CD9654B3A68D2B21A70634B1B6803F0ED
:1052580007033A689A4201D00123B8E07B681B68CB
:1052680003F00203002B20D07B681B6803F00403C3
:10527800002B05D0594B9B68584A43F4E053936080
:105288007B681B6803F00803002B05D0534B9B6811
:10529800524A43F460439360504B9B6823F0F002FA
:1052A8007B689B684D4913438B607B681B6803F0E0
:1052B8000103002B44D07B685B68012B07D1474B67
:1052C8001B6803F40033002B19D101237FE07B68AE
:1052D8005B68022B03D07B685B68032B07D13F4BCD
:1052E8001B6803F00073002B09D101236FE03B4BCF
:1052F8001B6803F00203002B01D1012367E0374B41
:105308009B6823F003027B685B68344913438B6016
:10531800FEF728F9F8600AE0FEF724F90246FB6870
:10532800D31A41F28832934201D903234FE02B4B21
:105338009B6803F00C027B685B689B009A42EBD188
:10534800254B1B6803F007033A689A420CD2224B9C
:105358003A68D2B21A70204B1B6803F007033A6808
:105368009A4201D0012332E07B681B6803F00403F2
:10537800002B08D0194B9B6823F4E0527B68DB684C
:10538800164913438B607B681B6803F00803002BE6
:1053980009D0124B9B6823F460427B681B69DB00D1
:1053A8000E4913438B6000F021F802460B4B9B68B3
:1053B8001B0903F00F030A49CB5C22FA03F3094ADD
:1053C8001360094B1B681846FEF788F80023184637
:1053D8001037BD4680BD00BF003C02400038024087
:1053E800089A000810000020140000202DE9B04F92
:1053F80090B000AF00237B630023FB6300233B6373
:105408000023BB63594B9B6803F00C03082B0DD09A
:10541800082B00F2A180002B02D0042B03D09BE0C4
:10542800534BBB639BE0534BBB6398E04F4B5B68AC
:1054380003F03F037B634D4B5B6803F48003002B51
:1054480028D04A4B5B689B0900223B627A623B6A20
:10545800C3F308000021474B03FB01F2002300FBC4
:1054680003F31344434AA0FB0212FA620A46BA62E3
:10547800FA6A1344FB627B6B0022BB61FA61D7E9CD
:105488000623D7E90A01FBF789FA02460B461346B9
:10549800FB6353E0354B5B689B0900223B617A61F3
:1054A8003B69C3F3080A4FF0000B52465B464FF0C6
:1054B80000004FF00001590141EAD2615001024653
:1054C8000B46B2EB0A0863EB0B094FF000024FF0F2
:1054D80000034FEA891343EA98634FEA8812B2EB54
:1054E800080463EB09054FF000024FF00003EB00DE
:1054F80043EA5473E20014461D4614EB0A033B606A
:1055080045EB0B037B604FF000024FF00003D7E937
:10551800004529468B02214643EA915321468A02D7
:10552800104619467B6B0022BB60FA60D7E902235C
:10553800FBF734FA02460B461346FB630B4B5B68DA
:105548001B0C03F0030301335B003B63FA6B3B6BFB
:10555800B2FBF3F3BB6302E0054BBB6300BFBB6B5D
:1055680018464037BD46BDE8B08F00BF003802403E
:105578000024F40040787D0180B400AF034B1B6821
:105588001846BD465DF8047B704700BF1000002038
:1055980080B500AFFFF7F0FF0246054B9B689B0AFA
:1055A80003F007030349CB5C22FA03F3184680BDD6
:1055B80000380240189A000880B582B000AF7860C1
:1055C8007B68002B01D101237BE07B685B6A002BA1
:1055D80008D17B685B68B3F5827F09D07B680022BD
:1055E800DA6105E07B6800221A617B6800225A6153
:1055F8007B6800229A627B6893F85130DBB2002BFB
:1056080006D17B68002283F850207868FDF780FD7A
:105618007B68022283F851207B681B681A687B68C4
:105628001B6822F040021A607B685B6803F4827290
:105638007B689B6803F404431A437B68DB6803F4C4
:1056480000631A437B681B6903F002031A437B68F3
:105658005B6903F001031A437B689B6903F40073D9
:105668001A437B68DB6903F038031A437B681B6ABB
:1056780003F0800342EA03017B689B6A03F400524B
:105688007B681B680A431A607B689B691B0C03F0E4
:1056980004017B685B6A03F010027B681B680A439D
:1056A8005A607B681B68DA697B681B6822F40062B1
:1056B800DA617B6800225A657B68012283F85120F1
:1056C800002318460837BD4680BD80B588B002AFB4
:1056D800F860B9603B601346FB800023FB75FB68EC
:1056E8005B68B3F5827F12D1FB689B68002B0ED1F3
:1056F800FB68042283F85120FA883B68009313461C
:10570800BA68B968F86800F0F1F80346EAE0FB689F
:1057180093F85030012B01D10223E3E0FB6801220A
:1057280083F85020FDF71EFF3861FB6893F851306D
:10573800DBB2012B02D00223FB75CAE0BB68002B49
:1057480002D0FB88002B02D10123FB75C1E0FB6866
:10575800042283F85120FB6800225A65FB68BA6866
:105768009A63FB68FA889A87FB68FA88DA87FB6885
:1057780000221A63FB6800229A86FB680022DA86F8
:10578800FB6800221A64FB6800225A64FB689B6865
:10579800B3F5004F0FD1FB681B681A68FB681B68DC
:1057A80022F040021A60FB681B681A68FB681B68D5
:1057B80022F480421A60FB681B681B6803F04003F0
:1057C800402B07D0FB681B681A68FB681B6842F00F
:1057D80040021A60FB68DB68002B62D12EE0FB6890
:1057E8001B689B6803F00103012B15D1FB681B683C
:1057F80003F10C02FB689B6B1278D2B21A70FB683B
:105808009B6B5A1CFB689A63FB68DB8F9BB2013B5E
:105818009AB2FB68DA8711E0FDF7A4FE02463B69FD
:10582800D31A3A689A4203D83B68B3F1FF3F02D1D2
:105838003B68002B02D10323FB754AE0FB68DB8F32
:105848009BB2002BCBD131E0FB681B689B6803F04F
:105858000103012B13D1FB681B68DA68FB689B6B9B
:1058680092B21A80FB689B6B9A1CFB689A63FB6870
:10587800DB8F9BB2013B9AB2FB68DA8711E0FDF738
:1058880071FE02463B69D31A3A689A4203D83B68CC
:10589800B3F1FF3F02D13B68002B02D10323FB7514
:1058A80017E0FB68DB8F9BB2002BCDD13A693968D2
:1058B800F86800F045FA0346002B02D0FB68202266
:1058C8005A65FB685B6D002B02D00123FB7500E075
:1058D80000BFFB68012283F85120FB68002283F88F
:1058E8005020FB7D18461837BD4680BD80B58CB06A
:1058F80000AFF860B9607A607B800123FB62002307
:1059080087F82B30FB6893F85030012B01D1022324
:105918008AE1FB68012283F85020FDF723FE7862B4
:10592800FB6893F8513087F82330FB685B68FB61AC
:105938007B887B8397F82330012B0FD0FB69B3F565
:10594800827F07D1FB689B68002B03D197F823302F
:10595800042B03D0022387F82B305BE1BB68002BB4
:1059680005D07B68002B02D07B88002B03D1012354
:1059780087F82B304EE1FB6893F85130DBB2042BEB
:1059880003D0FB68052283F85120FB6800225A6582
:10599800FB687A689A63FB687A88DA87FB687A8892
:1059A8009A87FB68BA681A63FB687A88DA86FB68A4
:1059B8007A889A86FB6800221A64FB6800225A6477
:1059C800FB681B681B6803F04003402B07D0FB688B
:1059D8001B681A68FB681B6842F040021A60FB6883
:1059E800DB68B3F5006F78D1FB685B68002B02D0E9
:1059F8007B8B012B66D1FB681B6B1A88FB681B68C5
:105A0800DA60FB681B6B9A1CFB681A63FB68DB8E09
:105A18009BB2013B9AB2FB68DA8653E0FB681B68CD
:105A28009B6803F00203022B1BD1FB68DB8E9BB241
:105A3800002B16D0FB6A012B13D1FB681B6B1A884D
:105A4800FB681B68DA60FB681B6B9A1CFB681A63AF
:105A5800FB68DB8E9BB2013B9AB2FB68DA860023B7
:105A6800FB62FB681B689B6803F00103012B19D1DB
:105A7800FB68DB8F9BB2002B14D0FB681B68DA68CD
:105A8800FB689B6B92B21A80FB689B6B9A1CFB6845
:105A98009A63FB68DB8F9BB2013B9AB2FB68DA879B
:105AA8000123FB62FDF75EFD02467B6AD31ABA6BDF
:105AB8009A4207D8BB6BB3F1FF3F03D0032387F8A3
:105AC8002B30A7E0FB68DB8E9BB2002BA6D1FB68CE
