:020000040800F2
:1000000000000220F53A00083136000837360008B3
:100010003D3600084336000849360008000000005D
:100020000000000000000000000000004F36000843
:100030005D360008000000006B36000879360008C5
:10004000453B0008453B0008453B0008453B000890
:10005000453B0008453B0008453B0008453B000880
:10006000453B0008453B0008453B0008453B000870
:10007000453B0008453B0008453B0008453B000860
:10008000453B0008453B0008453B0008453B000850
:10009000453B0008453B0008453B0008453B000840
:1000A000453B0008453B0008453B0008453B000830
:1000B00085360008453B0008453B0008453B0008E5
:1000C000453B0008453B0008453B0008453B000810
:1000D000453B000899360008453B0008453B0008B1
:1000E000453B0008453B0008453B0008453B0008F0
:1000F000453B0008453B0008453B0008453B0008E0
:10010000453B0008453B0008453B0008453B0008CF
:10011000453B0008453B0008453B0008453B0008BF
:10012000AD360008453B0008453B0008453B00084C
:10013000453B0008453B0008453B0008453B00089F
:10014000453B0008453B0008453B0008453B00088F
:10015000453B0008453B0008453B0008453B00087F
:10016000453B0008453B0008453B0008453B00086F
:10017000453B0008453B0008453B000800000000E7
:08018000453B0008453B000867
:1001880010B5054C237833B9044B13B10448AFF3C9
:1001980000800123237010BD1C0000200000000017
:1001A800B497000808B5034B1BB103490348AFF3E4
:1001B800008008BD0000000020000020B49700085F
:1001C80081F0004102E000BF83F0004330B54FEA00
:1001D80041044FEA430594EA050F08BF90EA020F6D
:1001E8001FBF54EA000C55EA020C7FEA645C7FEA00
:1001F800655C00F0E2804FEA5454D4EB5555B8BF23
:100208006D420CDD2C4480EA020281EA030382EA93
:10021800000083EA010180EA020281EA0303362D25
:1002280088BF30BD11F0004F4FEA01314FF4801CF8
:100238004CEA113102D0404261EB410113F0004F0A
:100248004FEA03334CEA133302D0524263EB4303C1
:1002580094EA050F00F0A780A4F10104D5F1200E5F
:100268000DDB02FA0EFC22FA05F2801841F10001BA
:1002780003FA0EF2801843FA05F359410EE0A5F18E
:1002880020050EF1200E012A03FA0EFC28BF4CF0BF
:10029800020C43FA05F3C01851EBE37101F0004575
:1002A80007D54FF0000EDCF1000C7EEB00006EEB82
:1002B8000101B1F5801F1BD3B1F5001F0CD349080C
:1002C8005FEA30004FEA3C0C04F101044FEA445263
:1002D80012F5800F80F09A80BCF1004F08BF5FEAEA
:1002E800500C50F1000041EB045141EA050130BDCA
:1002F8005FEA4C0C404141EB0101013C28BFB1F5DC
:10030800801FE9D291F0000F04BF01460020B1FA26
:1003180081F308BF2033A3F10B03B3F120020CDAF9
:100328000C3208DD02F1140CC2F10C0201FA0CF0D7
:1003380021FA02F10CE002F11402D8BFC2F1200C3C
:1003480001FA02F120FA0CFCDCBF41EA0C019040F2
:10035800E41AA2BF01EB0451294330BD6FEA04043B
:100368001F3C1CDA0C340EDC04F11404C4F1200226
:1003780020FA04F001FA02F340EA030021FA04F338
:1003880045EA030130BDC4F10C04C4F1200220FA8F
:1003980002F001FA04F340EA0300294630BD21FACD
:1003A80004F0294630BD94F0000F83F4801306BF93
:1003B80081F480110134013D4EE77FEA645C18BF87
:1003C8007FEA655C29D094EA050F08BF90EA020F1E
:1003D80005D054EA000C04BF1946104630BD91EA16
:1003E800030F1EBF0021002030BD5FEA545C05D119
:1003F8004000494128BF41F0004130BD14F5800458
:100408003CBF01F5801130BD01F0004545F0FE41CB
:1004180041F470014FF0000030BD7FEA645C1ABF00
:10042800194610467FEA655C1CBF0B46024650EA37
:10043800013406BF52EA033591EA030F41F4002163
:1004480030BD00BF90F0000F04BF0021704730B5E9
:100458004FF4806404F132044FF000054FF00001BE
:1004680050E700BF90F0000F04BF0021704730B57F
:100478004FF4806404F1320410F0004548BF404254
:100488004FF000013EE700BF42004FEAE2014FEAA9
:1004980031014FEA02701FBF12F07F4393F07F4F84
:1004A80081F06051704732F07F4208BF704793F087
:1004B8007F4F04BF41F40021704730B54FF460749A
:1004C80001F0004521F000411CE700BF50EA01029D
:1004D80008BF704730B54FF000050AE050EA010246
:1004E80008BF704730B511F0004502D5404261EBB6
:1004F80041014FF4806404F132045FEA915C3FF4F7
:10050800D8AE4FF003025FEADC0C18BF03325FEA93
:10051800DC0C18BF033202EBDC02C2F1200300FA44
:1005280003FC20FA02F001FA03FE40EA0E0021FA69
:1005380002F11444BDE600BF70B54FF0FF0C4CF457
:10054800E06C1CEA11541DBF1CEA135594EA0C0F09
:1005580095EA0C0F00F0DEF82C4481EA030621EA44
:100568004C5123EA4C5350EA013518BF52EA03357F
:1005780041F4801143F4801338D0A0FB02CE4FF031
:100588000005E1FB02E506F00042E0FB03E54FF061
:100598000006E1FB03569CF0000F18BF4EF0010E59
:1005A800A4F1FF04B6F5007F64F5407404D25FEA55
:1005B8004E0E6D4146EB060642EAC62141EA555108
:1005C8004FEAC52040EA5E504FEACE2EB4F1FD0C4A
:1005D80088BFBCF5E06F1ED8BEF1004F08BF5FEAC8
:1005E800500E50F1000041EB045170BD06F000467A
:1005F80046EA010140EA020081EA0301B4EB5C0427
:10060800C2BFD4EB0C0541EA045170BD41F480111E
:100618004FF0000E013C00F3AB8014F1360FDEBF43
:10062800002001F0004170BDC4F10004203C35DA1F
:100638000C341BDC04F11404C4F1200500FA05F3A2
:1006480020FA04F001FA05F240EA020001F0004243
:1006580021F0004110EBD37021FA04F642EB0601B9
:100668005EEA430E08BF20EAD37070BDC4F10C04E3
:10067800C4F1200500FA04F320FA05F001FA04F2A7
:1006880040EA020001F0004110EBD37041F1000193
:100698005EEA430E08BF20EAD37070BDC4F120059E
:1006A80000FA05F24EEA020E20FA04F301FA05F206
:1006B80043EA020321FA04F001F0004121FA04F2AE
:1006C80020EA020000EBD3705EEA430E08BF20EA7E
:1006D800D37070BD94F0000F0FD101F000464000B8
:1006E80041EB010111F4801F08BF013CF7D041EA3A
:1006F800060195F0000F18BF704703F0004652003E
:1007080043EB030313F4801F08BF013DF7D043EA0E
:100718000603704794EA0C0F0CEA135518BF95EAC4
:100728000C0F0CD050EA410618BF52EA4306D1D14B
:1007380081EA030101F000414FF0000070BD50EA6A
:10074800410606BF1046194652EA430619D094EAF4
:100758000C0F02D150EA013613D195EA0C0F05D1DE
:1007680052EA03361CBF104619460AD181EA030132
:1007780001F0004141F0FE4141F470014FF00000EA
:1007880070BD41F0FE4141F4780170BD70B54FF085
:10079800FF0C4CF4E06C1CEA11541DBF1CEA135505
:1007A80094EA0C0F95EA0C0F00F0A7F8A4EB0504E7
:1007B80081EA030E52EA03354FEA013100F08880DE
:1007C8004FEA03334FF0805545EA131343EA1263A7
:1007D8004FEA022245EA111545EA10654FEA00265C
:1007E8000EF000419D4208BF964244F1FD0404F515
:1007F800407402D25B084FEA3202B61A65EB030571
:100808005B084FEA32024FF480104FF4002CB6EB2D
:10081800020E75EB030E22BFB61A754640EA0C00AD
:100828005B084FEA3202B6EB020E75EB030E22BFED
:10083800B61A754640EA5C005B084FEA3202B6EB2E
:10084800020E75EB030E22BFB61A754640EA9C00ED
:100858005B084FEA3202B6EB020E75EB030E22BFBD
:10086800B61A754640EADC0055EA060E18D04FEA7B
:10087800051545EA16754FEA06164FEAC30343EA1B
:1008880052734FEAC2025FEA1C1CC0D111F4801FE8
:100898000BD141EA00014FF000004FF0004CB6E7E1
:1008A80011F4801F04BF01430020B4F1FD0C88BF80
:1008B800BCF5E06F3FF6AFAEB5EB030C04BFB6EB8B
:1008C800020C5FEA500C50F1000041EB045170BD7E
:1008D8000EF0004E4EEA113114EB5C04C2BFD4EBAB
:1008E8000C0541EA045170BD41F480114FF0000E2F
:1008F800013C90E645EA060E8DE60CEA135594EAAB
:100908000C0F08BF95EA0C0F3FF43BAF94EA0C0FAD
:100918000AD150EA01347FF434AF95EA0C0F7FF422
:1009280025AF104619462CE795EA0C0F06D152EA76
:1009380003353FF4FDAE1046194622E750EA41065A
:1009480018BF52EA43067FF4C5AE50EA41047FF46B
:100958000DAF52EA43057FF4EBAE12E74A0011D21D
:1009680012F5001211D20DD56FF47873B3EB625201
:100978000ED44FEAC12343F0004343EA505323FA0D
:1009880002F070474FF00000704750EA013002D182
:100998004FF0FF3070474FF00000704753B94AB925
:1009A800002908BF00281CBF4FF0FF314FF0FF306F
:1009B80000F070B9ADF1080C6DE904CE00F006F84E
:1009C800DDF804E0DDE9022304B070472DE9F047C3
:1009D800089E0D4604460F46002B4AD18A4294468B
:1009E80065D9B2FA82F343B102FA03FCC3F12002DB
:1009F8009F4020FA02F217439C404FEA1C4E1FFA10
:100A08008CF5B7FBFEF1220C0EFB117742EA074288
:100A180001FB05F090420AD91CEB020201F1FF37F5
:100A280080F01C81904240F2198102396244121A06
:100A3800A4B2B2FBFEF00EFB102244EA024400FB13
:100A480005F5A5420AD91CEB040400F1FF3280F039
:100A58000781A54240F204816444023840EA01401B
:100A6800641B00211EB1DC400023C6E90043BDE839
:100A7800F0878B4208D9002E00F0ED800021C6E9EE
:100A880000050846BDE8F087B3FA83F1002949D18B
:100A9800AB4202D3824200F2F880841A65EB03026B
:100AA80001201746002EE2D0C6E90047DFE702B969
:100AB800FFDEB2FA82F3002B40F090808A1A4FEAE8
:100AC8001C471FFA8CFE0121B2FBF7F507FB152026
:100AD800220C42EA00420EFB05F0904208D91CEBBA
:100AE800020205F1FF3802D2904200F2CB8045465F
:100AF800121AA4B2B2FBF7F007FB102244EA024430
:100B08000EFB00FEA64508D91CEB040400F1FF32D9
:100B180002D2A64500F2BB801046A4EB0E0440EAC0
:100B280005409FE7C1F120078B4022FA07FC4CEAF9
:100B3800030C05FA01F420FA07F3FD404FEA1C49BB
:100B48002343B5FBF9F81FFA8CFE09FB18551C0C5A
:100B580044EA054408FB0EF5A54202FA01F200FA40
:100B680001F00BD91CEB040408F1FF3A80F08880EF
:100B7800A54240F28580A8F102086444641B9DB236
:100B8800B4FBF9F309FB134445EA044403FB0EFEE6
:100B9800A64508D91CEB040403F1FF356CD2A64521
:100BA8006AD9023B644443EA0843A3FB0295A4EBD9
:100BB8000E04AC42C846AE4656D353D056B1B0EB3D
:100BC800080264EB0E0404FA07F7CA40CC40174346
:100BD800C6E9007418460021BDE8F087C3F120017A
:100BE80002FA03FC20FA01F225FA01F19D402A439A
:100BF8004FEA1C471FFA8CFEB1FBF7F007FB1015F4
:100C0800110C41EA054100FB0EF58D4204FA03F48C
:100C180008D91CEB010100F1FF382FD28D422DD9E4
:100C280002386144491B92B2B1FBF7F507FB151175
:100C380042EA014205FB0EF1914208D91CEB02027F
:100C480005F1FF3816D2914214D9023D6244521A76
:100C580045EA004138E73146304608E73946E6E6D6
:100C68001046FBE64845A9D2B9EB020865EB0C0E25
:100C7800013BA3E74546EAE72B4694E74046D1E720
:100C8800D0467BE7023D624432E708460AE76444FF
:100C9800023842E7704700BF80B584B000AF3B46DA
:100CA80000221A605A609A60DA603D4B3D4A1A6029
:100CB8003B4B00225A603A4B00229A60384B012283
:100CC8001A61374B00221A76354B002283F8202010
:100CD800334B0022DA62324B334A9A62304B00229D
:100CE800DA602F4B0522DA612D4B002283F8302081
:100CF8002B4B01225A612A4802F0B8FF0346002B09
:100D080001D001F07BF908233B6001237B600023BD
:100D1800BB603B461946224803F01AF90346002BEC
:100D280001D001F06BF909233B6002237B603B464D
:100D380019461B4803F00CF90346002B01D001F0BB
:100D48005DF90A233B6003237B603B461946144840
:100D580003F0FEF80346002B01D001F04FF90B23F6
:100D68003B6004237B603B4619460D4803F0F0F8CE
:100D78000346002B01D001F041F90C233B60052309
:100D88007B603B461946064803F0E2F80346002B11
:100D980001D001F033F900BF1037BD4680BD00BF58
:100DA80038000020002001400100000F80B58AB003
:100DB80000AF786007F1140300221A605A609A6045
:100DC800DA601A617B681B683C4A934271D1002340
:100DD8003B613B4B5B6C3A4A43F480735364384B3A
:100DE8005B6C03F480733B613B690023FB60344B0D
:100DF8001B6B334A43F004031363314B1B6B03F043
:100E08000403FB60FB680023BB602D4B1B6B2C4A63
:100E180043F0020313632A4B1B6B03F00203BB600E
:100E2800BB6807237B610323BB610023FB6107F1D8
:100E380014031946234804F03FF803237B61032376
:100E4800BB610023FB6107F1140319461E4804F037
:100E580033F81E4B1E4A1A601C4B00225A601B4B6B
:100E680000229A60194B0022DA60184B4FF4806216
:100E78001A61164B4FF400625A61144B4FF400523A
:100E88009A61124B4FF48072DA61104B00221A6299
:100E98000E4B00225A620D4803F00CFC0346002B4F
:100EA80001D001F0ABF87B68084A9A63074A7B686F
:100EB800936300BF2837BD4680BD00BF00200140B6
:100EC8000038024000080240000402408000002070
:100ED8001064024080B500AF01220821024804F0E6
:100EE80087F900BF80BD00BF000C024080B584B008
:100EF80000AF002208212F4804F07AF901220821C6
:100F08002C4804F075F90A2302222B492B4805F0D6
:100F18006AFE0023FB604FF400437B8100237B6063
:100F28003FE07B68002B06DB7B68032B03DC7B68D8
:100F38000433FB6018E07B68032B07DD7B68072B15
:100F480004DC7B68C3F10703FB600DE07B68072BBB
:100F580006DD7B680B2B03DC7B680433FB6003E056
:100F68007B68C3F11703FB60134B1A887B89134016
:100F78009BB2002B05D0124AFB68002122F81310FF
:100F880009E00F4AFB6832F81330013399B20C4A72
:100F9800FB6822F813107B895B087B817B6801332F
:100FA8007B607B680F2BBCDD00BF00BF1037BD46E0
:100FB80080BD00BF000C0240000100201802002084
:100FC800E000002080B483B000AF0346FB71FB79DA
:100FD800102B01D9002308E0FB79074A32F81330B7
:100FE800002B14BF01230023DBB218460C37BD4683
:100FF8005DF8047B704700BFE000002080B483B038
:1010080000AF0346FB71FB79102B01D9002308E0E0
:10101800FB79074A32F81330C72B01D8002300E0C8
:10102800012318460C37BD465DF8047B704700BFA6
:10103800E000002080B500AF0021024806F018FB50
:1010480000BF80BDB802002080B483B000AF034663
:10105800FB71074AFB791370054B1A78054B1B681F
:101068005A6300BF0C37BD465DF8047B704700BF6C
:1010780002010020B802002080B582B000AF002332
:101088007B600C4B1B6B0B4A43F480031363094BC7
:101098001B6B03F480037B607B68002200213820EF
:1010A80003F0D1FA382003F0EAFA00BF0837BD464A
:1010B80080BD00BF0038024080B588B004AF034649
:1010C8000A46FB711346BB71BB79184602F0EAFC6D
:1010D8000346FB73FB799AB20A2302930123019317
:1010E80007F10F0300930123D021034804F0DEF930
:1010F80000BF1037BD4680BD6801002080B584B0B0
:1011080004AF0A23029307230193254B009301237D
:101118000022D021234804F0C3FA214B1B7818463B
:1011280002F0A6FC03461A461F4B1A701C4B5B784C
:10113800184602F09DFC03461A461C4B1A70184BC1
:101148009B78184602F094FC03461A46184B1A700E
:10115800134BDB78184602F08BFC03461A46154BF6
:101168001A700F4B1B79184602F082FC03461A4688
:10117800114B1A700A4B5B79184602F079FC03464A
:101188001A460E4B1A70064B9B79184602F070FCF3
:1011980003461A460A4B1A7000BFBD4680BD00BF01
:1011A80004010020680100200D0100200C0100202E
:1011B8000B0100200F0100200E010020100100206B
:1011C8001101002080B58EB000AF07F11C0300228A
:1011D8001A605A609A60DA601A615A619A613B46ED
:1011E80000221A605A609A60DA601A615A619A613C
:1011F8002F4B4FF020421A602D4B2E4A5A602C4B31
:1012080000229A602A4B0022DA60294B00221A61D8
:10121800274B10225A61264B00229A61244B002248
:10122800DA61234B00221A62214B00225A62204BBA
:101238004FF480529A621E4B0022DA621C4B4FF424
:1012480080421A631A4B00225A63194B00229A6390
:10125800174B00225A640F23FB610F233B623C2388
:101268007B620023BB621023FB6211233B630023D4
:101278007B6308233B600F237B600923BB6000234B
:10128800FB6010233B6111237B610023BB613A465D
:1012980007F11C031946064806F088F80346002B98
:1012A80001D000F0ABFE00BF3837BD4680BD00BF9F
:1012B80014010020040100A080B586B000AF3B1DDA
:1012C80000221A605A609A60DA601A611C4B1B6827
:1012D800002B31D11A4B01221A6000233B60194BB5
:1012E8009B6B184A43F001039363164B9B6B03F007
:1012F80001033B603B684FF688737B600223BB6049
:101308000023FB6003233B610C237B613B1D1946D3
:101318000D4803F0D1FD4CF2B3737B600223BB6030
:101328000023FB6003233B610C237B613B1D1946B3
:10133800064803F0C1FD00E000BF1837BD4680BD78
:10134800640100200038024000100240000C0240F6
:1013580080B582B000AF7860FFF7AEFF00BF0837F6
:10136800BD4680BD80B58EB000AF07F124030022D2
:101378001A605A609A60DA601A6100233B62764B01
:101388001B6B754A43F010031363734B1B6B03F01D
:1013980010033B623B6A0023FB616F4B1B6B6E4A79
:1013A80043F0040313636C4B1B6B03F00403FB61F2
:1013B800FB690023BB61684B1B6B674A43F0200342
:1013C8001363654B1B6B03F02003BB61BB690023F0
:1013D8007B61614B1B6B604A43F0800313635E4B78
:1013E8001B6B03F080037B617B6900233B615A4BD5
:1013F8001B6B594A43F001031363574B1B6B03F0F4
:1014080001033B613B690023FB60534B1B6B524A52
:1014180043F002031363504B1B6B03F00203FB60A2
:10142800FB680023BB604C4B1B6B4B4A43F0080323
:101438001363494B1B6B03F00803BB60BB680023B5
:101448007B60454B1B6B444A43F040031363424B9C
:101458001B6B03F040037B607B68002270213F48D0
:1014680003F0C6FE00224FF400513D4803F0C0FED1
:10147800002240213B4803F0BBFE00224FF480715C
:10148800394803F0B5FE00220821384803F0B0FEC1
:1014980070237B620123BB620023FB6200233B6352
:1014A80007F1240319462D4803F006FD4FF40053B5
:1014B8007B620123BB620023FB6200233B6307F1CD
:1014C80024031946264803F0F7FCC0237B62002357
:1014D800BB620023FB6207F124031946224803F08C
:1014E800EBFC30237B620023BB620023FB6207F125
:1014F800240319461A4803F0DFFC40237B620123CA
:10150800BB620023FB6200233B6307F124031946F7
:10151800144803F0D1FC4FF480737B620123BB6253
:101528000023FB6200233B6307F1240319460E489E
:1015380003F0C2FC08237B620123BB620023FB6229
:1015480000233B6307F124031946084803F0B4FC61
:1015580000BF3837BD4680BD003802400010024049
:10156800000802400018024000000240000C02403F
:1015780080B500AF124B134A1A60114B124A5A60D9
:101588000F4B00229A600E4B0022DA600C4B4FF48E
:1015980080421A610A4B00225A61094B00229A6163
:1015A800074B0022DA61064B00221A62044803F056
:1015B80039FE0346002B01D000F020FD00BF80BD9E
:1015C8006801002000540040A086010080B58AB060
:1015D80000AF786007F1140300221A605A609A601D
:1015E800DA601A617B681B68194A93422BD1002381
:1015F8003B61184B1B6B174A43F002031363154BEF
:101608001B6B03F002033B613B69C0237B61122320
:10161800BB610023FB6103233B6204237B6207F168
:10162800140319460C4803F047FC0023FB60094BE0
:101638001B6C084A43F400131364064B1B6C03F439
:101648000013FB60FB6800BF2837BD4680BD00BFA4
:1016580000540040003802400004024080B483B0C7
:1016680000AF0346FB80044AFB88138000BF0C3799
:10167800BD465DF8047B7047FEFF0F6080B483B001
:1016880000AF0346FB80044AFB88538000BF0C3739
:10169800BD465DF8047B7047FEFF0F6080B483B0E1
:1016A80000AF064B5B889BB2FB80FB889BB2184659
:1016B8000C37BD465DF8047B704700BFFEFF0F6026
:1016C80090B583B000AF0446084611461A46234633
:1016D800FB800346BB800B467B8013463B802A2059
:1016E800FFF7BCFFFB881B0A9BB21846FFF7C6FF33
:1016F800FB88DBB29BB21846FFF7C0FF7B881B0A4A
:101708009BB21846FFF7BAFF7B88DBB29BB218463C
:10171800FFF7B4FF2B20FFF7A1FFBB881B0A9BB282
:101728001846FFF7ABFFBB88DBB29BB21846FFF742
:10173800A5FF3B881B0A9BB21846FFF79FFF3B8813
:10174800DBB29BB21846FFF799FF2C20FFF786FF04
:1017580000BF0C37BD4690BD80B584B000AF0346CE
:10176800FB80154B1B88013B9AB2134B5B88013BEE
:101778009BB200210020FFF7A3FF0023FB8111E0AB
:101788000023BB8106E0FB881846FFF777FFBB897B
:101798000133BB81084B5B88BA899A42F3D3FB8932
:1017A8000133FB81044B1B88FA899A42E8D300BFB6
:1017B80000BF1037BD4680BDBC01002080B582B097
:1017C80000AF0346FB800B46BB8013467B80BB887B
:1017D800FA88B988F888FFF773FF7B881846FFF7FF
:1017E8004DFF00BF0837BD4680BD000090B587B0EB
:1017F80000AF0446084611461A462346FB800346B6
:10180800BB800B46FB7013463B8000237B75FB882F
:101818003B8297F82C305B08FB73FB7BDB08DBB261
:101828001A46FB7B03F00703DBB2002B14BF01232E
:101838000023DBB213449AB297F82C309BB212FB08
:1018480003F3BB81FB78203BFB70FB7B9AB2FB88E0
:1018580013449BB2013B9CB297F82C309AB2BB88D8
:1018680013449BB2013B9BB2B988F8882246FFF724
:1018780027FF00237B827AE097F82C300C2B28D0A6
:1018880097F82C30102B08D1FA787B8A3C49120142
:101898000A4413441B78FB751BE097F82C30182B6F
:1018A8000BD1FA78798A374813465B0013441B0139
:1018B80003440B441B78FB750BE097F82C30202B66
:1018C8005AD1FA787B8A304992010A4413441B782A
:1018D800FB750023BB7544E097F83030002B20D10E
:1018E800FA7DBB7D42FA03F303F00103002B04D019
:1018F8003B881846FFF7C2FE03E03B8D1846FFF70A
:10190800BDFE7B7D01337B757B7DFA7BB3FBF2F1FA
:1019180001FB02F29B1ADBB2002B1FD100237B755F
:1019280022E0FA7DBB7D42FA03F303F00103002BAA
:1019380005D03A88B988FB881846FFF73FFFFB882F
:101948000133FB80FA883B8AD21AFB7B9A4205D185
:101958003B8AFB80BB880133BB8005E0BB7D01333C
:10196800BB75BB7D072BB7D97B8A01337B827A8A0B
:10197800BB899A4280D300E000BF1C37BD4690BDAA
:1019880028980008189E0008E8AF000880B485B0C1
:1019980000AF03460A46FB711346BB710123FB6087
:1019A80004E0FA79FB6802FB03F3FB60BB795A1E7B
:1019B800BA71002BF5D1FB6818461437BD465DF89F
:1019C800047B704790B589B004AF044608461146B9
:1019D8001A462346FB800346BB800B467B80134692
:1019E8007B700023BB7397F828305B087B73002358
:1019F800FB7359E07C887A78FB7BD31ADBB2013B16
:101A0800DBB219460A20FFF7C1FF0346B4FBF3F126
:101A18002A4BA3FB0123DA0813469B0013445B00FF
:101A2800CA1A13463B73BB7B002B21D1FA7B7B7808
:101A3800013B9A421CDA3B7B002B17D1FB7B9AB205
:101A48007B7B9BB212FB03F39AB2FB88134498B2D8
:101A58003A8CB9880023029397F828300193BB8CFD
:101A6800009313462022FFF7C1FE1AE00123BB733F
:101A7800FB7B9AB27B7B9BB212FB03F39AB2FB8887
:101A8800134498B23B7B3033DAB23C8CB9880023DC
:101A9800029397F828300193BB8C00932346FFF7F5
:101AA800A5FEFB7B0133FB73FA7B7B789A42A1D3BB
:101AB80000BF00BF1437BD4690BD00BFCDCCCCCC15
:101AC80080B483B000AF0346FB71FB791B09DBB21E
:101AD80003F00303DBB2002B07D00A4B4FF4A072CC
:101AE8001A80084BF0225A8006E0064BF0221A8032
:101AF800044B4FF4A0725A8000BF0C37BD465DF806
:101B0800047B7047BC01002080B500AF00224FF471
:101B18000051AA4803F06CFB4FF4FA7002F082F807
:101B280001224FF40051A54803F062FB4FF4FA700C
:101B380002F078F80020FFF7C3FFD320FFF78EFDEF
:101B4800FFF7ACFD03461A469D4B9A80FFF7A6FDAA
:101B580003461A469A4B9A80FFF7A0FD03461A4699
:101B6800974B9A80964B9B881B029AB2944B9A800B
:101B7800FFF794FD03461A46914B9B8813439AB28C
:101B88008F4B9A80CF20FFF769FD0020FFF776FD85
:101B9800C120FFF773FD3020FFF770FDED20FFF740
:101BA8005DFD6420FFF76AFD0320FFF767FD122043
:101BB800FFF764FD8120FFF761FDE820FFF74EFD88
:101BC8008520FFF75BFD1020FFF758FD7A20FFF70F
:101BD80055FDCB20FFF742FD3920FFF74FFD2C20A4
:101BE800FFF74CFD0020FFF749FD3420FFF746FDC5
:101BF8000220FFF743FDF720FFF730FD2020FFF715
:101C08003DFDEA20FFF72AFD0020FFF737FD002001
:101C1800FFF734FDC020FFF721FD1B20FFF72EFD45
:101C2800C120FFF71BFD0120FFF728FDC520FFF7A6
:101C380015FD3020FFF722FD3020FFF71FFDC720DC
:101C4800FFF70CFDB720FFF719FD3620FFF706FD5B
:101C58000820FFF713FD3A20FFF700FD5520FFF796
:101C68000DFDB120FFF7FAFC0020FFF707FD1A2051
:101C7800FFF704FDB620FFF7F1FC0A20FFF7FEFC92
:101C8800A220FFF7FBFCF220FFF7E8FC0020FFF79B
:101C9800F5FC2620FFF7E2FC0120FFF7EFFCE0202F
:101CA800FFF7DCFC0F20FFF7E9FC2A20FFF7E6FC32
:101CB8002820FFF7E3FC0820FFF7E0FC0E20FFF7E1
:101CC800DDFC0820FFF7DAFC5420FFF7D7FCA92039
:101CD800FFF7D4FC4320FFF7D1FC0A20FFF7CEFC26
:101CE8000F20FFF7CBFC0020FFF7C8FC0020FFF710
:101CF800C5FC0020FFF7C2FC0020FFF7BFFCE12075
:101D0800FFF7ACFC0020FFF7B9FC1520FFF7B6FC85
:101D18001720FFF7B3FC0720FFF7B0FC1120FFF7EF
:101D2800ADFC0620FFF7AAFC2B20FFF7A7FC5620E6
:101D3800FFF7A4FC3C20FFF7A1FC0520FFF79EFC61
:101D48001020FFF79BFC0F20FFF798FC3F20FFF7C0
:101D580095FC3F20FFF792FC0F20FFF78FFC2B200C
:101D6800FFF77CFC0020FFF789FC0020FFF786FCCA
:101D78000120FFF783FC3F20FFF780FC2A20FFF7B4
:101D88006DFC0020FFF77AFC0020FFF777FC0020AD
:101D9800FFF774FCEF20FFF771FC1120FFF75EFCE2
:101DA800782001F03FFF2920FFF758FC01224FF46B
:101DB8008071044803F01CFA00BF80BD000802408F
:101DC800BC0100200000024090B58BB004AFBA609F
:101DD8001A460346FB810B46BB811346FB80FB89F1
:101DE800BB820023FB7548E0FB7D002B45D1FA89B7
:101DF800264B1B88194697F82C305B08DBB2CB1AA8
:101E08009A423FDCBA89214B5B88194697F82C30F7
:101E1800CB1A9A4236DCBB681B78802B02D9012387
:101E2800FB752AE0BB681B780D2B0BD197F82C307B
:101E38009AB2BB891344BB81BB8AFB81BB6801335F
:101E4800BB6017E0BB681A78FC88B989F88997F8ED
:101E58003030029397F82C3001933B8D0093234642
:101E6800FFF7C4FC97F82C305B08DBB29AB2FB8909
:101E78001344FB81BB680133BB60BB681B78002B34
:101E8800B2D100E000BF1C37BD4690BDBC010020A8
:101E980080B500AFFFF738FE01F094FAFFF7CAF8F3
:101EA800FFF718F801F03EFD00F0C6FF0A210020F8
:101EB80001F0A0FA4FF47A71012001F09BFAC821D1
:101EC800022001F097FA4FF4FA71032001F092FA18
:101ED8004FF47A71042001F08DFA01F0B5F900BFD2
:101EE80080BD000080B500AF01F02AFE00F01CF8AC
:101EF800FFF738FAFFF7C0F801F0F0FAFFF762F9D8
:101F0800FFF736FB01F04AFC01F0FCFBFEF7C4FECC
:101F180001F034FD034805F0E1FAFFF7B9FF01F0DD
:101F2800CBFBFCE77002002080B594B000AF07F14E
:101F3800200330220021184607F00CFC07F10C039F
:101F480000221A605A609A60DA601A610023BB6046
:101F5800284B1B6C274A43F080531364254B1B6C9A
:101F680003F08053BB60BB6800237B60224B1B6877
:101F7800214A43F4804313601F4B1B6803F48043DA
:101F88007B607B6802233B620123FB6210233B6377
:101F98000223BB630023FB6308233B64A8237B6401
:101FA8000223BB640423FB6407F12003184604F0F2
:101FB800F9F80346002B01D000F020F80F23FB604E
:101FC80002233B6100237B614FF4A053BB614FF4B4
:101FD800A053FB6107F10C030521184604F05AFBD6
:101FE8000346002B01D000F009F800BF5037BD466A
:101FF80080BD00BF003802400070004080B400AFD0
:1020080072B600BFFEE7000080B584B004AF244B71
:102018001A78244B1B789A422FD1234B1A78234BDA
:102028001B789A4229D1224B1A78224B1B789A4264
:1020380023D1214B1A78214B1B789A421DD1204B72
:102048001A78204B1B789A4217D11F4B1A781F4BCE
:102058001B789A4211D100230293182301934FF45D
:10206800784300934FF6FF73194AC8210A20FFF7F7
:10207800ABFE3220FEF7E8FF0FE00020FEF7E4FF9A
:102088000023029318230193002300930023104A8E
:10209800C8210A20FFF798FE00BF00BFBD4680BDDB
:1020A8000C000020060000200B0000200500002086
:1020B8000A0000200400002009000020030000207E
:1020C8000800002002000020070000200100002076
:1020D800CC97000880B500AF124B1B78022B18D0A4
:1020E800022B1DDC002B02D0012B0BD018E000F0D6
:1020F800ADFD00F0EBFD00F025FEFFF785FF00F0D9
:1021080061FB0DE000F092F900F01CFE00F05AFBB4
:1021180006E000F009F800F015FE00F053FBFFE7B9
:1021280000BF80BDC201002080B500AFB74B1B784F
:10213800062B00F2698101A252F823F06121000800
:1021480071210008E121000851220008C12200087D
:1021580031230008A12300080021012000F0A6FE79
:10216800AA4B01221A704FE1A94B1B78002B02D011
:10217800012B15D02AE0A74B1B780121184600F047
:10218800D3FE012001F094F90346002B1DD1A04B8A
:1021980001221A704FF47A71012001F02BF914E032
:1021A8009C4B1B780021184600F0BEFE012001F070
:1021B8007FF90346002B09D1954B00221A704FF482
:1021C8007A71012001F016F900E000BF914800F093
:1021D800DBFC00F04DFB17E18D4B1B78002B02D088
:1021E800012B15D02AE08C4B1B780121184600F0F2
:1021F800D9FE012001F05CF90346002B1DD1844B68
:1022080001221A704FF47A71012001F0F3F814E0FA
:10221800814B1B780021184600F0C4FE012001F014
:1022280047F90346002B09D1794B00221A704FF465
:102238007A71012001F0DEF800E000BF764800F076
:10224800A3FC00F015FBDFE0714B1B78002B02D0DC
:10225800012B15D02AE0714B1B780121184600F09C
:10226800DFFE012001F024F90346002B1DD1684B45
:1022780001221A704FF47A71012001F0BBF814E0C2
:10228800664B1B780021184600F0CAFE012001F0B9
:102298000FF90346002B09D15D4B00221A704FF449
:1022A8007A71012001F0A6F800E000BF5B4800F059
:1022B8006BFC00F0DDFAA7E0554B1B78002B02D031
:1022C800012B15D02AE0564B1B780121184600F047
:1022D80001FF012001F0ECF80346002B1DD14C4B07
:1022E80001221A704FF47A71012001F083F814E08A
:1022F8004B4B1B780021184600F0ECFE012001F042
:10230800D7F80346002B09D1414B00221A704FF42D
:102318007A71012001F06EF800E000BF404800F03B
:1023280033FC00F0A5FA6FE0394B1B78002B02D084
:10233800012B15D02AE03B4B1B780121184600F0F1
:1023480007FF012001F0B4F80346002B1DD1304BE4
:1023580001221A704FF47A71012001F04BF814E051
:10236800304B1B780021184600F0F2FE012001F0E6
:102378009FF80346002B09D1254B00221A704FF411
:102388007A71012001F036F800E000BF254800F01E
:10239800FBFB00F06DFA37E01D4B1B78002B02D0D9
:1023A800012B15D02AE0204B1B780121184600F09C
:1023B8000DFF012001F07CF80346002B1DD1144BC2
:1023C80001221A704FF47A71012001F013F814E019
:1023D800154B1B780021184600F0F8FE012001F08B
:1023E80067F80346002B09D1094B00221A704FF4F5
:1023F8007A71012000F0FEFF00E000BF0A4800F0FB
:10240800C3FB00F035FAFFE700BF80BDC70100201D
:10241800C801002007000020080000200900002053
:102428000A0000200B0000200C00002080B500AF3F
:10243800B64B1B78062B00F2AA8101A252F823F0B2
:1024480065240008D524000845250008B52500089E
:10245800252600089526000805270008AC4B1B78A0
:10246800002B02D0012B15D02AE0AA4B1B780121A2
:10247800184600F01BFD012001F01AF80346002B56
:102488001DD1A34B01221A704FF47A71012000F07C
:10249800B1FF14E09F4B1B780021184600F006FDA1
:1024A800012001F005F80346002B09D1984B0022C2
:1024B8001A704FF47A71012000F09CFF00E000BF11
:1024C800944800F061FB00F0D3F960E1904B1B7871
:1024D800002B02D0012B15D02AE08F4B1B7801214D
:1024E800184600F021FD012000F0E2FF0346002B12
:1024F8001DD1874B01221A704FF47A71012000F028
:1025080079FF14E0844B1B780021184600F00CFD7D
:10251800012000F0CDFF0346002B09D17C4B00229F
:102528001A704FF47A71012000F064FF00E000BFD8
:10253800794800F029FB00F09BF928E1744B1B78DF
:10254800002B02D0012B15D02AE0744B1B780121F7
:10255800184600F027FD012000F0AAFF0346002BD3
:102568001DD16B4B01221A704FF47A71012000F0D3
:1025780041FF14E0694B1B780021184600F012FD5A
:10258800012000F095FF0346002B09D1604B002283
:102598001A704FF47A71012000F02CFF00E000BFA0
:1025A8005E4800F0F1FA00F063F9F0E0584B1B7850
:1025B800002B02D0012B15D02AE0594B1B780121A2
:1025C800184600F02DFD012000F072FF0346002B95
:1025D8001DD14F4B01221A704FF47A71012000F07F
:1025E80009FF14E04E4B1B780021184600F018FD37
:1025F800012000F05DFF0346002B09D1444B002267
:102608001A704FF47A71012000F0F4FE00E000BF68
:10261800434800F0B9FA00F02BF9B8E03C4B1B78BE
:10262800002B02D0012B15D02AE03E4B1B7801214C
:10263800184600F04FFD012000F03AFF0346002B3A
:102648001DD1334B01221A704FF47A71012000F02A
:10265800D1FE14E0334B1B780021184600F03AFDF8
:10266800012000F025FF0346002B09D1284B00224A
:102678001A704FF47A71012000F0BCFE00E000BF30
:10268800284800F081FA00F0F3F880E0204B1B782E
:10269800002B02D0012B15D02AE0234B1B780121F7
:1026A800184600F055FD012000F002FF0346002BFC
:1026B8001DD1174B01221A704FF47A71012000F0D6
:1026C80099FE14E0184B1B780021184600F040FDD5
:1026D800012000F0EDFE0346002B09D10C4B00222F
:1026E8001A704FF47A71012000F084FE00E000BFF8
:1026F8000D4800F049FA00F0BBF848E0044B1B789D
:10270800002B13D0012B26D03BE000BFC7010020CF
:10271800C801002000000020010000200200002065
:10272800030000200400002005000020194B1B783E
:102738000121184600F04AFD012000F0B9FE0346C9
:10274800002B1DD1144B01221A704FF47A7101200D
:1027580000F050FE14E00F4B1B780021184600F0E3
:1027680035FD012000F0A4FE0346002B09D10A4BD9
:1027780000221A704FF47A71012000F03BFE00E04D
:1027880000BF044800F000FA00F072F8FFE700BF4D
:1027980080BD00BF06000020C801002080B584B0BD
:1027A80004AF00230293182301930023009300230E
:1027B800034A1E211420FFF707FB00BFBD4680BD5A
:1027C800D497000880B500AF264B1B78002B02D0A9
:1027D800012B34D03FE00020FEF7F4FB0346012B29
:1027E80025D1214B1B78022B18D0022B19DC002B8A
:1027F80002D0012B09D014E000F068FA1A4B01222C
:102808001A701A4B00221A700BE000F0E1FA174B0D
:1028180000221A70144B02221A7002E0124B002296
:102828001A70FFF7BBFF0F4B01221A7015E000204A
:10283800FEF7C8FB0346012B0FD100230FE0002051
:10284800FEF7C0FB0346002B03D1064B00221A708B
:1028580004E0002303E0002301E000BF0123184641
:1028680080BD00BFC4010020C2010020C7010020B4
:1028780080B500AF5F4B9B78002B03D0012B00F095
:10288800A780B1E00C20FEF79DFB0346012B40F02A
:102898009780594B1B78012B5DD1584B1B78062B21
:1028A80056D801A252F823F0CD280008E1280008E4
:1028B800F5280008092900084529000831290008D9
:1028C8001D2900084E4B1B7819460020FEF7F4FB23
:1028D8004A4B01221A703BE04A4B1B7819460120EB
:1028E800FEF7EAFB454B02221A7031E0464B1B7893
:1028F80019460220FEF7E0FB404B03221A7027E03E
:10290800424B1B7819460320FEF7D6FB3B4B0622A9
:102918001A701DE03E4B1B7819460620FEF7CCFBCB
:10292800364B05221A7013E03A4B1B7819460520DE
:10293800FEF7C2FB314B04221A7009E0364B1B78B4
:1029480019460420FEF7B8FB2C4B00221A7000BF72
:1029580000F0BCF930E0294B1B78062B2CD801A2DB
:1029680052F823F0892900089129000899290008BC
:10297800A1290008B9290008B1290008A9290008D7
:102988001E4B01221A7017E01C4B02221A7013E02A
:102998001A4B03221A700FE0184B06221A700BE02C
:1029A800164B05221A7007E0144B04221A7003E034
:1029B800124B00221A7000BF0E4B01229A7015E0CC
:1029C8000C20FEF7FFFA0346012B0FD100230FE07E
:1029D8000C20FEF7F7FA0346002B03D1054B002223
:1029E8009A7004E0002303E0002301E000BF012304
:1029F800184680BDC4010020C2010020C701002084
:102A08000000002001000020020000200300002038
:102A180006000020050000200400002080B485B0D6
:102A280000AF7860554B1B78062B00F2A18001A2FD
:102A380052F823F0592A0008592A0008752A000874
:102A4800912A0008E52A0008C92A0008AD2A0008CA
:102A58007B681B780133DAB27B681A707B681B7855
:102A68003B2B7CD97B6800221A7078E07B681B7846
:102A78000133DAB27B681A707B681B78172B70D920
:102A88007B6800221A706CE07B681B780133DAB22D
:102A98007B681A707B681B78072B64D97B680122D6
:102AA8001A7060E07B681B780133DAB27B681A70B1
:102AB8007B681B78632B58D97B6800221A7054E016
:102AC8007B681B780133DAB27B681A707B681B78E5
:102AD8000C2B4CD97B6801221A7048E07B681B7864
:102AE8000133DAB27B681A701E23FB73244B1B7800
:102AF8000C2B8CBF01220022D2B2002A25D1012240
:102B08009A4041F2AA531340002B14BF012300231B
:102B1800DBB2002B09D102F00403002B14BF012300
:102B28000023DBB2002B03D10FE01F23FB730DE062
:102B3800144B1B7803F00303DBB2002B02D01C23D9
:102B4800FB7303E01D23FB7300E000BF7B681B7869
:102B5800FA7B9A420CD27B6801221A7008E000BF07
:102B680006E000BF04E000BF02E000BF00E000BFD5
:102B780000BF1437BD465DF8047B7047C7010020CD
:102B8800050000200600002080B582B000AF786004
:102B98002C4B5B78022B31D0022B49DC002B02D066
:102BA800012B15D044E00320FEF70CFA0346012B55
:102BB80006D17868FFF732FF224B01225A7039E0BC
:102BC8000320FEF7FFF90346012B33D1002335E03C
:102BD8000320FEF7F7F90346002B03D1194B002217
:102BE8005A702AE00320FEF709FA0346012B03D1A5
:102BF800144B02225A7020E000231FE0124B0022DF
:102C08001A70022000F054FC0346002B06D17868A5
:102C1800FFF704FFC821022000F0ECFB0320FEF7B9
:102C2800D1F90346002B07D1064B00225A7003E066
:102C3800002303E000BF00E000BF01231846083767
:102C4800BD4680BDC4010020C801002080B400AF8B
:102C5800104B1A78104B1A70104B1A78104B1A70C8
:102C6800104B1A78104B1A70104B1A78104B1A70B8
:102C7800104B1A78104B1A70104B1A78104B1A70A8
:102C8800104B1A78104B1A7000BFBD465DF8047BD4
:102C9800704700BF0D010020000000200C0100203B
:102CA800010000200B010020020000200F0100207D
:102CB800030000200E010020040000201001002065
:102CC80005000020110100200600002080B500AF9B
:102CD800154B1B780121184600F0FCF9134B1B78A3
:102CE8000121184600F09CF9114B1B780121184668
:102CF80000F058F90F4B1B780121184600F014F921
:102D08000D4B1B780121184600F022FA0B4B1B785B
:102D18000121184600F05AFA094B1B780121184680
:102D280000F0C4F800BF80BD0400002003000020AC
:102D380002000020010000200500002006000020FD
:102D48000000002080B584B004AF1D4B1B78022B17
:102D580024D0022B31DC002B02D0012B0FD02CE029
:102D680000230293182301934FF4784300934FF6FE
:102D7800FF73144A1E211420FFF726F81DE00023D4
:102D88000293182301934FF4784300934FF6FF738F
:102D98000D4A1E211420FFF717F80EE000230293B6
:102DA800182301934FF4784300934FF6FF73074AB3
:102DB8001E211420FFF708F800BF00BFBD4680BDE4
:102DC800C2010020E8970008D4970008F897000887
:102DD80080B500AF124B1B780121184600F07AF934
:102DE800104B1B780121184600F01AF90E4B1B787E
:102DF8000121184600F0D6F80C4B1B780121184623
:102E080000F092F80A4B1B780121184600F0A0F94F
:102E1800084B1B780121184600F0D8F900BF80BD87
:102E28000A000020090000200800002007000020F8
:102E38000B0000200C00002080B400AF1A4B4FF4A8
:102E4800FC621A60184B00225A60174B96221A72BD
:102E5800154B64225A72144B6E229A72124B6422DA
:102E6800DA72114B46221A730F4B64225A730E4BB7
:102E780014229A730C4B9A22DA730B4B46221A745B
:102E8800094B9A225A74084B6E229A74064B9A225E
:102E9800DA74054B96221A75034B9A225A7500BFAD
:102EA800BD465DF8047B7047CC010020B0B586B004
:102EB80004AF03460A46FB711346BB71BB79002B6E
:102EC80016D0184B1B7A98B2164B5B7A99B2FB79DD
:102ED8009CB2144B1B689BB2124A526892B21825D6
:102EE80002950192009302232246FEF76BFD15E03E
:102EF8000C4B1B7A98B20B4B5B7A99B2FB799CB25C
:102F0800084B5B689BB2074A526892B21825029533
:102F18000192009302232246FEF754FD00BF0837B2
:102F2800BD46B0BDCC010020B0B586B004AF0346A5
:102F38000A46FB711346BB71BB79002B16D0184BA0
:102F48009B7A98B2164BDB7A99B2FB799CB2144BF8
:102F58001B689BB2124A526892B2182502950192D8
:102F6800009302232246FEF72DFD15E00C4B9B7AB9
:102F780098B20B4BDB7A99B2FB799CB2084B5B6831
:102F88009BB2074A526892B21825029501920093A3
:102F980002232246FEF716FD00BF0837BD46B0BD26
:102FA800CC010020B0B586B004AF03460A46FB71D9
:102FB8001346BB71BB79002B16D0184B1B7B98B2FC
:102FC800164B5B7B99B2FB799CB2144B1B689BB286
:102FD800124A526892B21825029501920093022370
:102FE8002246FEF7EFFC15E00C4B1B7B98B20B4B0F
:102FF8005B7B99B2FB799CB2084B5B689BB2074A32
:10300800526892B218250295019200930223224633
:10301800FEF7D8FC00BF0837BD46B0BDCC01002084
:10302800B0B586B004AF03460A46FB711346BB71C0
:10303800BB79002B2FD0FB79012B16D0234B9B7B20
:1030480098B2224BDB7B99B2FB799CB21F4B1B6871
:103058009BB21E4A526892B21825029501920093BB
:1030680002232246FEF7AEFC2BE0184B9B7B98B25E
:10307800164BDB7B99B2154B1B689AB2134B5B68F6
:103088009BB2002402941824019400931346104A1A
:10309800FEF79AFE15E00D4B9B7B98B20B4BDB7B42
:1030A80099B2FB799CB2094B5B689BB2074A52689C
:1030B80092B2182502950192009302232246FEF748
:1030C80081FC00BF0837BD46B0BD00BFCC01002061
:1030D80004980008B0B586B004AF03460A46FB71F1
:1030E8001346BB71BB79002B16D0184B1B7C98B2CA
:1030F800164B5B7C99B2FB799CB2144B1B689BB254
:10310800124A526892B2182502950192009302233E
:103118002246FEF757FC15E00C4B1B7C98B20B4B74
:103128005B7C99B2FB799CB2084B5B689BB2074AFF
:10313800526892B218250295019200930223224602
:10314800FEF740FC00BF0837BD46B0BDCC010020EB
:10315800B0B586B004AF03460A46FB711346BB718F
:10316800BB79002B16D0184B9B7C98B2164BDB7C96
:1031780099B2FB799CB2144B1B689BB2124A5268F5
:1031880092B2182502950192009302232246FEF777
:1031980019FC15E00C4B9B7C98B20B4BDB7C99B26D
:1031A800FB799CB2084B5B689BB2074A526892B2A3
:1031B800182502950192009302232246FEF702FC8D
:1031C80000BF0837BD46B0BDCC010020B0B586B001
:1031D80004AF03460A46FB711346BB71BB79002B4B
:1031E80016D0184B1B7D98B2164B5B7D99B2FB79B4
:1031F8009CB2144B1B689BB2124A526892B21825B3
:1032080002950192009302232246FEF7DBFB15E0AC
:103218000C4B1B7D98B20B4B5B7D99B2FB799CB232
:10322800084B5B689BB2074A526892B21825029510
:103238000192009302232246FEF7C4FB00BF083721
:10324800BD46B0BDCC01002090B585B004AF0020CC
:10325800FEF782FA534B9B7B98B2524BDB7B9BB2B7
:10326800183B99B24F4B1B689AB24E4B5B689BB2A6
:103278000024029418240194009313464A4AFEF746
:10328800A3FD484B1B7A98B2464B5B7A9BB2183B1E
:1032980099B2444B1B689AB2424B5B689BB20024BC
:1032A80002941824019400931346404AFEF78CFDBB
:1032B8003C4B9B7A98B23B4BDB7A9BB2183B99B25A
:1032C800384B1B689AB2374B5B689BB20024029458
:1032D8001824019400931346354AFEF775FD314BC7
:1032E8001B7B9BB2183B98B22E4B5B7B9BB2183B67
:1032F80099B22C4B1B689AB22A4B5B689BB200248C
:10330800029418240194009313462A4AFEF75CFDA0
:10331800244B1B7C98B2234B5B7C9BB2183B99B225
:10332800204B1B689AB21F4B5B689BB20024029427
:1033380018240194009313461F4AFEF745FD194BC4
:103348009B7C98B2174BDB7C9BB2183B99B2154B10
:103358001B689AB2134B5B689BB200240294182432
:10336800019400931346154AFEF72EFD0D4B1B7D65
:1033780098B20C4B5B7D9BB2183B99B2094B1B680A
:103388009AB2084B5B689BB20024029418240194FB
:10339800009313460A4AFEF717FD00BF0437BD46DF
:1033A80090BD00BFCC010020089800080C980008C8
:1033B80010980008149800081C9800082098000825
:1033C8002498000880B500AF05220349034800F09F
:1033D80091FC00BF80BD00BFE40100203800002040
:1033E80080B582B000AF786000F030F800BF0837D1
:1033F800BD4680BD80B582B000AF786039603B685B
:103408004FF47A7202FB03F31846FDF71BF84FF0EE
:1034180000020C4BFDF7BAF902460B461046194656
:10342800FDF79CFA024608497B68DB000B445A60AA
:10343800054A7B68012102F8331000BF0837BD46F2
:1034480080BD00BF00408F40F001002080B483B0F1
:1034580000AF00237B601FE0144A7B6812F833300A
:10346800002B16D0114A7B68DB0013445B685A1E98
:103478000E497B68DB000B445A600C4A7B68DB0012
:1034880013445B68002B04D1084A7B68002102F8CA
:1034980033107B6801337B607B68042BDCD900BF69
:1034A80000BF0C37BD465DF8047B7047F001002073
:1034B80080B483B000AF7860074A7B6812F8333075
:1034C800012B0CBF01230023DBB218460C37BD4685
:1034D8005DF8047B704700BFF001002080B500AFA5
:1034E800174B184A1A60164B4FF482725A60144BE5
:1034F80000229A60124B0022DA60114B00221A61F6
:103508000F4B00225A610E4B4FF400729A610C4B1C
:103518000022DA610A4B00221A62094B00225A6221
:10352800074B00229A62064B0A22DA62044803F02B
:10353800D1FA0346002B01D0FEF760FD00BF80BD25
:10354800180200200030014080B58AB000AF7860D2
:1035580007F1140300221A605A609A60DA601A614F
:103568007B681B68194A93422BD100233B61184B97
:103578005B6C174A43F480535364154B5B6C03F43C
:1035880080533B613B690023FB60114B1B6B104A66
:1035980043F0020313630E4B1B6B03F00203FB6043
:1035A800FB6838237B610223BB610023FB61032393
:1035B8003B6205237B6207F114031946054801F0B5
:1035C8007BFC00BF2837BD4680BD00BF00300140EE
:1035D800003802400004024080B483B000AF0023EA
:1035E8007B60104B5B6C0F4A43F4804353640D4B74
:1035F8005B6C03F480437B607B6800233B60094B72
:103608001B6C084A43F080531364064B1B6C03F091
:1036180080533B603B6800BF0C37BD465DF8047BB8
:10362800704700BF0038024080B400AFFEE780B4A6
:1036380000AFFEE780B400AFFEE780B400AFFEE75E
:1036480080B400AFFEE780B400AF00BFBD465DF8B0
:10365800047B704780B400AF00BFBD465DF8047BB3
:10366800704780B400AF00BFBD465DF8047B70476B
:1036780080B500AF00F0B6FA00BF80BD80B500AFDE
:10368800024804F0BDF800BF80BD00BF70020020F2
:1036980080B500AF024805F01DF800BF80BD00BF2F
:1036A8000403002080B500AF024801F09BF900BF79
:1036B80080BD00BF8000002080B500AF0020FFF76C
:1036C800F7FE0346002B07D1FDF718FDFDF70EFCAA
:1036D8000A210020FFF78EFEFEF7FCFC00BF80BD2C
:1036E80080B400AF064BD3F88830054A43F4700322
:1036F800C2F8883000BFBD465DF8047B704700BF44
:1037080000ED00E080B586B000AF07F108030022A5
:103718001A605A609A60DA603B4600221A605A6062
:103728001D4B4FF080421A601B4B53225A601A4BB4
:1037380000229A60184B40F2E732DA60164B0022FA
:103748001A61154B00229A61134803F077FE03466D
:10375800002B01D0FEF752FC4FF48053BB6007F1F9
:10376800080319460C4804F015FA0346002B01D04B
:10377800FEF744FC00233B6000237B603B46194670
:10378800054804F007FE0346002B01D0FEF736FC7F
:1037980000BF1837BD4680BD7002002080B588B0D4
:1037A80000AF3B1D00221A605A609A60DA601A6105
:1037B8005A619A611E4B1F4A1A601D4B40F24732EC
:1037C8005A601B4B00229A60194B6322DA60184B2F
:1037D80000221A61164B00229A61154803F02EFE4A
:1037E8000346002B01D0FEF709FC114803F0E6FE62
:1037F8000346002B01D0FEF701FC60237B60002309
:10380800BB600023FB6000237B613B1D002219463F
:10381800074804F0FDF80346002B01D0FEF7EEFB45
:10382800034800F045F800BF2037BD4680BD00BF03
:10383800B8020020001C004080B584B000AF78605A
:103848007B681B68B3F1804F16D10023FB60164BD1
:103858001B6C154A43F001031364134B1B6C03F0F4
:103868000103FB60FB68002200211C2000F0EBFE36
:103878001C2000F004FF12E07B681B680B4A93428F
:103888000DD10023BB60084B1B6C074A43F0800333
:103898001364054B1B6C03F08003BB60BB6800BF5F
:1038A8001037BD4680BD00BF00380240001C0040F4
:1038B80080B588B000AF786007F10C0300221A6069
:1038C8005A609A60DA601A617B681B68124A9342F0
:1038D8001ED10023BB60114B1B6B104A43F0200321
:1038E80013630E4B1B6B03F02003BB60BB684FF4E4
:1038F8008073FB6002233B6100237B610023BB6173
:103908000923FB6107F10C031946054801F0D4FAB5
:1039180000BF2037BD4680BD001C00400038024073
:103928000014024080B500AF01220349034804F0A7
:10393800A0FE00BF80BD00BF0003002004030020DC
:1039480080B582B000AF78607B681B68084A9342F4
:103958000AD10A2301220749074804F0F8FD012289
:103968000449054804F085FE00BF0837BD4680BD00
:1039780000100140000300200403002080B500AFC0
:10398800114B124A1A60104B4FF4E1325A600E4B39
:1039980000229A600C4B0022DA600B4B00221A615D
:1039A800094B0C225A61084B00229A61064B0022EF
:1039B800DA61054804F07EFD0346002B01D0FEF7CE
:1039C8001DFB00BF80BD00BF0403002000100140A4
:1039D80080B58AB000AF786007F1140300221A603E
:1039E8005A609A60DA601A617B681B681D4A9342C4
:1039F80034D100233B611C4B5B6C1B4A43F0100322
:103A08005364194B5B6C03F010033B613B69002363
:103A1800FB60154B1B6B144A43F001031363124BF5
:103A28001B6B03F00103FB60FB684FF4C0637B6111
:103A38000223BB610023FB6103233B6207237B62F4
:103A480007F114031946094801F036FA002200214B
:103A5800252000F0F8FD252000F011FE00BF2837D2
:103A6800BD4680BD00100140003802400000024001
:103A780080B483B000AF0346FB71FB791B09DBB24E
:103A88001A46920013445B00DAB2FB7903F00F0385
:103A9800DBB21344DBB218460C37BD465DF8047B35
:103AA8007047000080B483B000AF0346FB71FB7918
:103AB8000D4AA2FB0323DB08DBB21B0158B2FA79DB
:103AC800094BA3FB0213D9080B469B000B445B0070
:103AD800D31ADBB25BB203435BB2DBB218460C37D6
:103AE800BD465DF8047B7047CDCCCCCCDFF834D034
:103AF8000D480E490E4A002302E0D458C45004333E
:103B0800C4188C42F9D30B4A0B4C002301E0136014
:103B18000432A242FBD3FFF7E3FD05F023FEFEF7D4
:103B2800E1F9704700000220000000201C0000207E
:103B3800D8C700081C0000204C030020FEE7000046
:103B480080B500AF0E4B1B680D4A43F40073136039
:103B58000B4B1B680A4A43F480631360084B1B68CD
:103B6800074A43F480731360032000F061FD0F20BF
:103B780000F008F8FFF730FD0023184680BD00BFAD
:103B8800003C024080B582B000AF7860124B1A68E2
:103B9800124B1B7819464FF47A73B3FBF1F3B2FB5F
:103BA800F3F3184600F079FD0346002B01D00123FA
:103BB8000EE07B680F2B0AD8002279684FF0FF309F
:103BC80000F041FD064A7B681360002300E00123F2
:103BD80018460837BD4680BD100000201800002098
:103BE8001400002080B400AF064B1B781A46064B21
:103BF8001B681344044A136000BFBD465DF8047B8C
:103C0800704700BF180000204803002080B400AFB0
:103C1800034B1B681846BD465DF8047B704700BF20
:103C28004803002080B584B000AF7860FFF7EEFF4E
:103C3800B8607B68FB60FB68B3F1FF3F05D00A4BB7
:103C48001B781A46FB681344FB6000BFFFF7DEFFD2
:103C58000246BB68D31AFA689A42F7D800BF00BF79
:103C68001037BD4680BD00BF1800002080B584B065
:103C780000AF78600023FB737B68002B01D1012320
:103C880033E07B681B6C002B09D17868FDF78EF850
:103C98007B6800225A647B68002283F83C207B689A
:103CA8001B6C03F01003002B18D17B681B6C23F4EA
:103CB800885323F0020343F002027B681A64786891
:103CC80000F068FA7B6800225A647B681B6C23F05A
:103CD800030343F001027B681A6401E00123FB73CC
:103CE8007B68002283F83C20FB7B18461037BD46D2
:103CF80080BD000080B586B000AFF860B9607A601A
:103D080000233B61FB6893F83C30012B01D102236F
:103D1800E9E0FB68012283F83C20FB681B689B688C
:103D280003F00103012B18D0FB681B689A68FB6835
:103D38001B6842F001029A606D4B1B686D4AA2FB3A
:103D480003239A0C13465B0013443B6102E03B6972
:103D5800013B3B613B69002BF9D1FB681B689B6801
:103D680003F48073B3F5807F07D1FB681B689A68FA
:103D7800FB681B6822F480729A60FB681B689B686A
:103D880003F00103012B40F0A180FB681B6C23F4B6
:103D9800E06323F0010343F48072FB681A64FB6854
:103DA8001B685B6803F48063002B07D0FB681B6CFF
:103DB80023F4405343F48052FB681A64FB681B6C7D
:103DC80003F48053B3F5805F06D1FB685B6C23F086
:103DD8000602FB685A6402E0FB6800225A64FB682A
:103DE800002283F83C20444B7B61FB689B6B434A71
:103DF800DA63FB689B6B424A1A64FB689B6B414A17
:103E0800DA64FB681B686FF022021A60FB681B68A3
:103E18005A68FB681B6842F080625A60FB681B683E
:103E28009A68FB681B6842F480729A60FB68986B1A
:103E3800FB681B684C331946BA687B6800F0E8FCDD
:103E48007B695B6803F01F03002B2AD1FB681B68A2
:103E58002D4A934215D0FB681B682C4A934205D122
:103E6800254B5B6803F01F03002B0AD0FB681B6817
:103E7800274A934236D1204B5B6803F01003002B8E
:103E880030D1FB681B689B6803F04053002B29D195
:103E9800FB681B689A68FB681B6842F080429A605E
:103EA80020E0FB681B68184A93421BD1FB681B681B
:103EB8009B6803F04053002B14D1FB681B689A6879
:103EC800FB681B6842F080429A600BE0FB681B6C41
:103ED80043F01002FB681A64FB685B6C43F0010254
:103EE800FB685A64002318461837BD4680BD00BFDA
:103EF8001000002083DE1B43002301409543000887
:103F08004F4400086B440008002001400021014094
:103F18000022014080B483B000AF786000BF0C3746
:103F2800BD465DF8047B704780B483B000AF78600D
:103F380000BF0C37BD465DF8047B704780B483B082
:103F480000AF786000BF0C37BD465DF8047B704752
:103F580080B485B000AF786039600023BB607B68AF
:103F680093F83C30012B01D1022305E17B68012243
:103F780083F83C203B681B68092B25D97B681B68A4
:103F8800D9683B681B689BB21A4613465B0013440A
:103F98001E3B072202FA03F3DA437B681B680A40D8
:103FA800DA607B681B68D9683B689A683B681B685D
:103FB8009BB2184603465B0003441E3B9A407B684D
:103FC8001B680A43DA6022E07B681B6819693B6852
:103FD8001B689BB21A4613465B001344072202FA79
:103FE80003F3DA437B681B680A401A617B681B6825
:103FF80019693B689A683B681B689BB21846034678
:104008005B0003449A407B681B680A431A613B685B
:104018005B68062B24D87B681B68596B3B685A6819
:1040280013469B001344053B1F2202FA03F3DA43AD
:104038007B681B680A405A637B681B68596B3B683E
:104048001B689BB218463B685A6813469B0013448A
:10405800053B00FA03F27B681B680A435A634CE08D
:104068003B685B680C2B24D87B681B68196B3B6822
:104078005A6813469B001344233B1F2202FA03F39A
:10408800DA437B681B680A401A637B681B68196BF4
:104098003B681B689BB218463B685A6813469B00EE
:1040A8001344233B00FA03F27B681B680A431A6334
:1040B80023E07B681B68D96A3B685A6813469B00F3
:1040C8001344413B1F2202FA03F3DA437B681B685F
:1040D8000A40DA627B681B68D96A3B681B689BB236
:1040E80018463B685A6813469B001344413B00FA44
:1040F80003F27B681B680A43DA62224BFB607B6829
:104108001B68214A934209D13B681B68122B05D1D1
:10411800FB685B6843F48002FB685A607B681B6835
:10412800194A934223D13B681B68102B03D03B6884
:104138001B68112B1BD1FB685B6843F40002FB680A
:104148005A603B681B68102B11D1104B1B68104A32
:10415800A2FB03239A0C13469B0013445B00BB602D
:1041680002E0BB68013BBB60BB68002BF9D17B68F0
:10417800002283F83C20002318461437BD465DF81A
:10418800047B7047002301400020014010000020FC
:1041980083DE1B4380B485B000AF7860794BFB6049
:1041A800FB685B6823F44032FB685A60FB685A6816
:1041B8007B685B681A43FB685A607B681B685A68AF
:1041C8007B681B6822F480725A607B681B68596898
:1041D8007B681B691A027B681B680A435A607B6804
:1041E8001B685A687B681B6822F040725A607B68BB
:1041F8001B6859687B689A687B681B680A435A6021
:104208007B681B689A687B681B6822F400629A6066
:104218007B681B6899687B68DA687B681B680A4357
:104228009A607B689B6A584A934222D07B681B68D5
:104238009A687B681B6822F070629A607B681B68CA
:1042480099687B689A6A7B681B680A439A607B68EE
:104258001B689A687B681B6822F040529A607B68EA
:104268001B6899687B68DA6A7B681B680A439A60EE
:104278000FE07B681B689A687B681B6822F0706295
:104288009A607B681B689A687B681B6822F04052BA
:104298009A607B681B689A687B681B6822F0020238
:1042A8009A607B681B6899687B681B7E5A007B68EC
:1042B8001B680A439A607B6893F82030002B1BD058
:1042C8007B681B685A687B681B6842F400625A6006
:1042D8007B681B685A687B681B6822F460425A60D6
:1042E8007B681B6859687B685B6A013B5A037B687B
:1042F8001B680A435A6007E07B681B685A687B683A
:104308001B6822F400625A607B681B68DA6A7B6863
:104318001B6822F47002DA627B681B68D96A7B68C2
:10432800DB69013B1A057B681B680A43DA627B6814
:104338001B689A687B681B6822F400729A607B6825
:104348001B6899687B6893F830305A027B681B6851
:104358000A439A607B681B689A687B681B6822F42A
:1043680080629A607B681B6899687B685B699A02BF
:104378007B681B680A439A6000BF1437BD465DF826
:10438800047B7047002301400100000F80B584B012
:1043980000AF78607B689B6BFB60FB681B6C03F06D
:1043A8005003002B3CD1FB681B6C43F40072FB6884
:1043B8001A64FB681B689B6803F04053002B2BD1E1
:1043C800FB681B7E002B27D1FB681B68DB6A03F4A4
:1043D8007003002B06D0FB681B689B6803F480639E
:1043E800002B19D1FB681B685A68FB681B6822F010
:1043F80020025A60FB681B6C23F48072FB681A6405
:10440800FB681B6C03F48053002B05D1FB681B6C05
:1044180043F00102FB681A64F868FFF77BFD0EE0C1
:10442800FB681B6C03F01003002B03D0F868FFF740
:1044380085FD04E0FB689B6BDB6C7868984700BFE0
:104448001037BD4680BD80B584B000AF78607B680A
:104458009B6BFB60F868FFF767FD00BF1037BD4630
:1044680080BD80B584B000AF78607B689B6BFB60D3
:10447800FB6840221A64FB685B6C43F00402FB682B
:104488005A64F868FFF75AFD00BF1037BD4680BD73
:1044980080B485B000AF78607B6803F00703FB60E9
:1044A8000C4BDB68BB60BA684FF6FF031340BB6078
:1044B800FB681A02BB68134343F0BF6343F400333D
:1044C800BB60044ABB68D36000BF1437BD465DF8C3
:1044D800047B704700ED00E080B400AF044BDB685C
:1044E8001B0A03F007031846BD465DF8047B7047B6
:1044F80000ED00E080B483B000AF0346FB7197F98C
:104508000730002B0BDBFB7903F01F02074997F9F3
:1045180007305B09012000FA02F241F8232000BFAE
:104528000C37BD465DF8047B704700BF00E100E032
:1045380080B483B000AF03463960FB7197F9073048
:10454800002B0ADB3B68DAB20C4997F907301201F5
:10455800D2B20B4483F800230AE03B68DAB2084978
:10456800FB7903F00F03043B1201D2B20B441A7615
:1045780000BF0C37BD465DF8047B704700E100E0E2
:1045880000ED00E080B489B000AFF860B9607A60EF
:10459800FB6803F00703FB61FB69C3F10703042B06
:1045A80028BF0423BB61FB690433062B02D9FB69CE
:1045B800033B00E000237B614FF0FF32BB6902FA46
:1045C80003F3DA43BB681A407B699A404FF0FF3126
:1045D8007B6901FA03F3D9437B680B401343184600
:1045E8002437BD465DF8047B7047000080B582B073
:1045F80000AF78607B68013BB3F1807F01D3012372
:104608000FE00A4A7B68013B53600F214FF0FF30EF
:10461800FFF78EFF054B00229A60044B07221A60B1
:10462800002318460837BD4680BD00BF10E000E0F3
:1046380080B582B000AF78607868FFF729FF00BFC7
:104648000837BD4680BD80B586B000AF0346B96067
:104658007A60FB7300237B61FFF73EFF78617A681D
:10466800B9687869FFF78EFF024697F90F3011464F
:104678001846FFF75DFF00BF1837BD4680BD80B5FF
:1046880082B000AF0346FB7197F907301846FFF771
:1046980031FF00BF0837BD4680BD80B582B000AF8E
:1046A80078607868FFF7A2FF034618460837BD46CA
:1046B80080BD000080B586B000AF786000237B61C4
:1046C800FFF7A4FA38617B68002B01D1012399E038
:1046D8007B68022283F835207B68002283F8342027
:1046E8007B681B681A687B681B6822F001021A60E5
:1046F8000FE0FFF78BFA02463B69D31A052B08D95E
:104708007B6820225A657B68032283F835200323BF
:1047180078E07B681B681B6803F00103002BE8D175
:104728007B681B681B687B617A69384B13407B6127
:104738007B685A687B689B681A437B68DB681A4306
:104748007B681B691A437B685B691A437B689B69B2
:104758001A437B68DB691A437B681B6A13437A69CF
:1047680013437B617B685B6A042B07D17B68DA6A39
:104778007B681B6B13437A6913437B617B681B68F7
:104788007A691A607B681B685B697B617B6923F0C7
:1047980007037B617B685B6A7A6913437B617B688B
:1047A8005B6A042B17D17B689B6A7A6913437B6128
:1047B8007B68DB6A002B0ED0786800F001FB0346AB
:1047C800002B08D07B6840225A657B68012283F859
:1047D8003520012316E07B681B687A695A6178687E
:1047E80000F0B8FA0346FB607B68DB6D3F229A4015
:1047F800FB689A607B6800225A657B68012283F80F
:104808003520002318461837BD4680BD3F8010F07C
:1048180080B586B000AFF860B9607A603B6000236D
:10482800FB75FB689B6D3B61FB6893F83430012B8B
:1048380001D1022340E0FB68012283F83420FB68A1
:1048480093F83530DBB2012B2FD1FB68022283F8B5
:104858003520FB6800225A653B687A68B968F868B1
:1048680000F04AFAFB68DB6D3F229A403B699A6088
:10487800FB681B681A68FB681B6842F016021A601E
:10488800FB681B6C002B07D0FB681B681A68FB6869
:104898001B6842F008021A60FB681B681A68FB680C
:1048A8001B6842F001021A6005E0FB68002283F8E9
:1048B80034200223FB75FB7D18461837BD4680BDA2
:1048C80080B584B000AF78607B689B6DFB60FFF7B4
:1048D8009DF9B8607B6893F83530DBB2022B08D0BD
:1048E8007B6880225A657B68002283F83420012384
:1048F80052E07B681B681A687B681B6822F0160206
:104908001A607B681B685A697B681B6822F0800202
:104918005A617B681B6C002B03D17B689B6C002B56
:1049280007D07B681B681A687B681B6822F008023E
:104938001A607B681B681A687B681B6822F0010292
:104948001A6013E0FFF762F90246BB68D31A052B19
:104958000CD97B6820225A657B68032283F83520AE
:104968007B68002283F83420032315E07B681B68EA
:104978001B6803F00103002BE4D17B68DB6D3F2249
:104988009A40FB689A607B68012283F835207B682F
:10499800002283F83420002318461037BD4680BD16
:1049A80080B483B000AF78607B6893F83530DBB2B1
:1049B800022B04D07B6880225A6501230CE07B68B7
:1049C800052283F835207B681B681A687B681B689A
:1049D80022F001021A60002318460C37BD465DF824
:1049E800047B704780B586B000AF78600023BB6059
:1049F8008E4B1B688E4AA2FB03239B0A7B617B6854
:104A08009B6D3B613B691B68FB607B68DB6D082223
:104A18009A40FB681340002B1AD07B681B681B6800
:104A280003F00403002B13D07B681B681A687B68AB
:104A38001B6822F004021A607B68DB6D08229A402A
:104A48003B699A607B685B6D43F001027B685A653D
:104A58007B68DB6D01229A40FB681340002B12D063
:104A68007B681B685B6903F08003002B0BD07B68B5
:104A7800DB6D01229A403B699A607B685B6D43F06D
:104A880002027B685A657B68DB6D04229A40FB68EA
:104A98001340002B12D07B681B681B6803F00203CD
:104AA800002B0BD07B68DB6D04229A403B699A602F
:104AB8007B685B6D43F004027B685A657B68DB6D3D
:104AC80010229A40FB681340002B43D07B681B6878
:104AD8001B6803F00803002B3CD07B68DB6D1022B9
:104AE8009A403B699A607B681B681B6803F48023C3
:104AF800002B18D07B681B681B6803F40023002B6D
:104B080008D17B681B6C002B24D07B681B6C7868F1
:104B180098471FE07B689B6C002B1BD07B689B6CC5
:104B28007868984716E07B681B681B6803F48073F5
:104B3800002B07D17B681B681A687B681B6822F00A
:104B480008021A607B681B6C002B03D07B681B6C07
:104B5800786898477B68DB6D20229A40FB68134091
:104B6800002B00F08F807B681B681B6803F0100324
:104B7800002B00F087807B68DB6D20229A403B6920
:104B88009A607B6893F83530DBB2052B36D17B68A9
:104B98001B681A687B681B6822F016021A607B681B
:104BA8001B685A697B681B6822F080025A617B681F
:104BB8001B6C002B03D17B689B6C002B07D07B6898
:104BC8001B681A687B681B6822F008021A607B68F9
:104BD800DB6D3F229A403B699A607B68012283F82B
:104BE80035207B68002283F834207B681B6D002BFE
:104BF8007ED07B681B6D7868984779E07B681B6876
:104C08001B6803F48023002B1DD07B681B681B687E
:104C180003F40023002B0DD17B685B6C002B31D093
:104C28007B685B6C786898472CE000BF1000002018
:104C3800B5814E1B7B68DB6B002B23D07B68DB6B5D
:104C4800786898471EE07B681B681B6803F48073CC
:104C5800002B0FD17B681B681A687B681B6822F0E1
:104C680010021A607B68012283F835207B680022D5
:104C780083F834207B68DB6B002B03D07B68DB6B0D
:104C8800786898477B685B6D002B32D07B685B6DDA
:104C980003F00103002B22D07B68052283F835201E
:104CA8007B681B681A687B681B6822F001021A601F
:104CB800BB680133BB607A699A4207D37B681B687B
:104CC8001B6803F00103002BF2D100E000BF7B68F2
:104CD800012283F835207B68002283F834207B6822
:104CE800DB6C002B05D07B68DB6C7868984700E0AC
:104CF80000BF1837BD4680BD80B485B000AFF860EE
:104D0800B9607A603B60FB681B681A68FB681B68BF
:104D180022F480221A60FB681B683A685A60FB68B4
:104D28009B68402B08D1FB681B687A689A60FB680F
:104D38001B68BA68DA6007E0FB681B68BA689A60A3
:104D4800FB681B687A68DA6000BF1437BD465DF8F7
:104D5800047B704780B485B000AF78607B681B68BF
:104D6800DBB2103B144AA2FB03231B09FB60134A66
:104D7800FB6813441B781A467B68DA65FB68032BCB
:104D880009D97B681B6823F47F7323F003031A1D7A
:104D98007B689A6507E07B681B6823F47F7323F0C0
:104DA80003037A6893657B689B6D18461437BD4684
:104DB8005DF8047B704700BFABAAAAAAC0C7000869
:104DC80080B485B000AF78600023FB737B689B6A72
:104DD800BB607B689B69002B1FD1BB68032B56D82F
:104DE80001A252F823F000BF014E0008134E00083C
:104DF800014E0008974E00087B68DB6A03F0807359
:104E0800002B46D00123FB7343E07B68DB6AB3F1D8
:104E1800C07F40D10123FB733DE07B689B69B3F5FC
:104E2800005F21D1BB68032B37D801A252F823F0C9
:104E3800494E00084F4E0008494E0008614E0008D0
:104E48000123FB7330E07B68DB6A03F08073002B7F
:104E580025D00123FB7322E07B68DB6AB3F1C07FB6
:104E68001FD10123FB731CE0BB68022B03D9BB686D
:104E7800032B03D018E00123FB7315E07B68DB6A82
:104E880003F08073002B0ED00123FB730BE000BFEF
:104E98000AE000BF08E000BF06E000BF04E000BF72
:104EA80002E000BF00E000BFFB7B18461437BD4698
:104EB8005DF8047B704700BF80B489B000AF7860AC
:104EC800396000237B6100233B610023BB61002321
:104ED800FB616BE10122FB6902FA03F37B613B682A
:104EE8001B687A6913403B613A697B699A4240F0D2
:104EF8005A813B685B6803F00303012B05D03B68CC
:104F08005B6803F00303022B30D17B689B68BB61AD
:104F1800FB695B00032202FA03F3DB43BA6913401F
:104F2800BB613B68DA68FB695B0002FA03F3BA69A4
:104F38001343BB617B68BA699A607B685B68BB6135
:104F48000122FB6902FA03F3DB43BA691340BB6130
:104F58003B685B681B0903F00102FB6902FA03F373
:104F6800BA691343BB617B68BA695A603B685B687E
:104F780003F00303032B17D07B68DB68BB61FB6975
:104F88005B00032202FA03F3DB43BA691340BB61F7
:104F98003B689A68FB695B0002FA03F3BA6913433A
:104FA800BB617B68BA69DA603B685B6803F003033E
:104FB800022B23D1FB69DA087B68083253F82230C8
:104FC800BB61FB6903F007039B000F2202FA03F39E
:104FD800DB43BA691340BB613B681A69FB6903F09C
:104FE80007039B0002FA03F3BA691343BB61FB6929
:104FF800DA087B680832B96943F822107B681B68B5
:10500800BB61FB695B00032202FA03F3DB43BA6965
:105018001340BB613B685B6803F00302FB695B00FC
:1050280002FA03F3BA691343BB617B68BA691A6071
:105038003B685B6803F44033002B00F0B480002326
:10504800FB60604B5B6C5F4A43F4804353645D4B89
:105058005B6C03F48043FB60FB685B4AFB699B085D
:10506800023352F82330BB61FB6903F003039B0052
:105078000F2202FA03F3DB43BA691340BB617B6872
:10508800524A93422BD07B68514A934225D07B6881
:10509800504A93421FD07B684F4A934219D07B688D
:1050A8004E4A934213D07B684D4A93420DD07B6899
:1050B8004C4A934207D07B684B4A934201D107235D
:1050C8000EE008230CE006230AE0052308E0042389
:1050D80006E0032304E0022302E0012300E00023AA
:1050E800FA6902F0030292009340BA691343BB6164
:1050F8003549FB699B080233BA6941F823203B4BC9
:105108009B68BB613B69DB43BA691340BB613B6881
:105118005B6803F48013002B03D0BA693B6913431F
:10512800BB61324ABB699360304BDB68BB613B694A
:10513800DB43BA691340BB613B685B6803F4001347
:10514800002B03D0BA693B691343BB61274ABB698B
:10515800D360264B5B68BB613B69DB43BA6913408C
:10516800BB613B685B6803F40033002B03D0BA696A
:105178003B691343BB611D4ABB6953601B4B1B68EA
:10518800BB613B69DB43BA691340BB613B685B6841
:1051980003F48033002B03D0BA693B691343BB6126
:1051A800124ABB691360FB690133FB61FB690F2B72
:1051B8007FF690AE00BF00BF2437BD465DF8047B84
:1051C800704700BF0038024000380140000002402C
:1051D8000004024000080240000C02400010024097
:1051E8000014024000180240001C0240003C01402C
:1051F80080B483B000AF78600B467B8013467B7029
:105208007B78002B03D07A887B689A6103E07B88DF
:105218001A047B689A6100BF0C37BD465DF8047BB1
:105228007047000080B584B000AF78607B68002BC1
:1052380001D101232BE17B6893F83D30DBB2002BD1
:1052480006D17B68002283F83C207868FCF7BEF919
:105258007B68242283F83D207B681B681A687B687A
:105268001B6822F001021A607B681B681A687B6859
:105278001B6842F400421A607B681B681A687B68E6
:105288001B6822F400421A6001F0FCFBF8607B689E
:105298005B68814A934207D8FB68804A934294BF6F
:1052A80001230023DBB206E0FB687D4A934294BFEA
:1052B80001230023DBB2002B01D00123E7E0FB68C8
:1052C800784AA2FB03239B0CBB607B681B685B6866
:1052D80023F03F017B681B68BA680A435A607B6801
:1052E8001B681B6A23F03F017B685B686A4A93422C
:1052F80002D8BB68013309E0BB684FF4967202FB21
:1053080003F3694AA2FB03239B0901337A681268F5
:105318000B4313627B681B68DB6923F44F4222F05E
:10532800FF027B685B685C498B4219D8FB68591E91
:105338007B685B685B00B1FBF3F3591C40F6FC73B8
:105348000B40002B0AD0FB68591E7B685B685B002A
:10535800B1FBF3F30133C3F30B0351E004234FE034
:105368007B689B68002B11D1FB68581E7B685968C5
:105378000B465B000B44B0FBF3F30133C3F30B03A1
:10538800002B0CBF01230023DBB212E0FB68581E80
:105398007B6859680B469B000B4499000B44B0FB93
:1053A800F3F30133C3F30B03002B0CBF01230023DA
:1053B800DBB2002B01D0012322E07B689B68002B25
:1053C8000ED1FB68581E7B6859680B465B000B447E
:1053D800B0FBF3F30133C3F30B0343F400430FE0D3
:1053E800FB68581E7B6859680B469B000B44990064
:1053F8000B44B0FBF3F30133C3F30B0343F4404313
:10540800796809681343CB617B681B681B6823F0C4
:10541800C0017B68DA697B681B6A1A437B681B6872
:105428000A431A607B681B689B6823F4034323F0D4
:10543800FF037A6811697A68D26811437A6812683A
:105448000B4393607B681B68DB6823F0FF017B6874
:105458005A697B689B691A437B681B680A43DA6050
:105468007B681B681A687B681B6842F001021A6037
:105478007B6800221A647B68202283F83D207B68C1
:1054880000221A637B68002283F83E200023184616
:105498001037BD4680BD00BFA08601007F841E0076
:1054A800FF083D0083DE1B43D34D621080B588B0F2
:1054B80002AFF860084611461A4603467B810B4640
:1054C8003B811346FB80FEF7A1FB7861FB6893F8EC
:1054D8003D30DBB2202B40F0D9807B690093192343
:1054E80001226D49F86800F07FFC0346002B01D0CB
:1054F8000223CCE0FB6893F83C30012B01D1022356
:10550800C5E0FB68012283F83C20FB681B681B6828
:1055180003F00103012B07D0FB681B681A68FB68BE
:105528001B6842F001021A60FB681B681A68FB6876
:105538001B6822F400621A60FB68212283F83D2070
:10554800FB68402283F83E20FB6800221A64FB684F
:105558003A6A5A62FB68BA8C5A85FB685B8D9AB2C4
:10556800FB681A85FB684D4ADA62F8883A897989B6
:105578007B690193BB6A00930346F86800F0B6FAAA
:105588000346002B52D0012381E07A69B96AF86892
:1055980000F000FD0346002B0DD0FB681B6C042BAC
:1055A80007D1FB681B681A68FB681B6842F4007225
:1055B8001A6001236BE0FB685B6A1A78FB681B685A
:1055C8001A61FB685B6A5A1CFB685A62FB681B8D90
:1055D800013B9AB2FB681A85FB685B8D9BB2013B65
:1055E8009AB2FB685A85FB681B685B6903F0040381
:1055F800042B1BD1FB681B8D002B17D0FB685B6A43
:105608001A78FB681B681A61FB685B6A5A1CFB689E
:105618005A62FB681B8D013B9AB2FB681A85FB68CE
:105628005B8D9BB2013B9AB2FB685A85FB681B8D68
:10563800002BAAD17A69B96AF86800F0ECFC034635
:10564800002B0DD0FB681B6C042B07D1FB681B6873
:105658001A68FB681B6842F400721A60012316E09E
:10566800FB681B681A68FB681B6842F400721A60C2
:10567800FB68202283F83D20FB68002283F83E2047
:10568800FB68002283F83C20002300E00223184630
:105698001837BD4680BD00BF020010000000FFFFA4
:1056A80080B58CB002AFF860084611461A4603462A
:1056B8007B810B463B811346FB80FEF7A7FA786295
:1056C800FB6893F83D30DBB2202B40F008827B6A00
:1056D8000093192301227B49F86800F085FB0346F3
:1056E800002B01D00223FBE1FB6893F83C30012B2F
:1056F80001D10223F4E1FB68012283F83C20FB6816
:105708001B681B6803F00103012B07D0FB681B68AB
:105718001A68FB681B6842F001021A60FB681B6884
:105728001A68FB681B6822F400621A60FB68222270
:1057380083F83D20FB68402283F83E20FB68002266
:105748001A64FB683A6B5A62FB68BA8E5A85FB6822
:105758005B8D9AB2FB681A85FB685B4ADA62F88847
:105768003A8979897B6A0193BB6B00930346F86891
:1057780000F052FA0346002B01D00123B0E1FB6888
:105788001B8D002B13D100233B62FB681B685B69F0
:105798003B62FB681B689B693B623B6AFB681B6852
:1057A8001A68FB681B6842F400721A6084E1FB689F
:1057B8001B8D012B1BD1FB681B681A68FB681B68D3
:1057C80022F480621A600023FB61FB681B685B6936
:1057D800FB61FB681B689B69FB61FB69FB681B68D5
:1057E8001A68FB681B6842F400721A6064E1FB687F
:1057F8001B8D022B1BD1FB681B681A68FB681B6892
:1058080022F480621A60FB681B681A68FB681B68D0
:1058180042F400621A600023BB61FB681B685B6985
:10582800BB61FB681B689B69BB61BB6944E10023E2
:105838007B61FB681B685B697B61FB681B689B6914
:105848007B617B6938E1FB681B8D032B00F2F180DB
:10585800FB681B8D012B23D17A6AB96BF86800F0BD
:105868001BFC0346002B01D0012339E1FB681B68B0
:105878001A69FB685B6AD2B21A70FB685B6A5A1CC9
:10588800FB685A62FB681B8D013B9AB2FB681A855C
:10589800FB685B8D9BB2013B9AB2FB685A850BE1B2
:1058A800FB681B8D022B4ED17B6A0093BB6B0022D9
:1058B8000649F86800F098FA0346002B08D001233F
:1058C8000EE100BF020010000000FFFF040001000D
:1058D800FB681B681A68FB681B6842F400721A6050
:1058E800FB681B681A69FB685B6AD2B21A70FB68AE
:1058F8005B6A5A1CFB685A62FB681B8D013B9AB2B3
:10590800FB681A85FB685B8D9BB2013B9AB2FB680A
:105918005A85FB681B681A69FB685B6AD2B21A7001
:10592800FB685B6A5A1CFB685A62FB681B8D013B6B
:105938009AB2FB681A85FB685B8D9BB2013B9AB2F1
:10594800FB685A85B8E07B6A0093BB6B0022664906
:10595800F86800F049FA0346002B01D00123BFE0A4
:10596800FB681B681A68FB681B6822F480621A606F
:10597800FB681B681A69FB685B6AD2B21A70FB681D
:105988005B6A5A1CFB685A62FB681B8D013B9AB222
:10599800FB681A85FB685B8D9BB2013B9AB2FB687A
:1059A8005A857B6A0093BB6B00224F49F86800F068
:1059B8001BFA0346002B01D0012391E0FB681B680A
:1059C8001A68FB681B6842F400721A60FB681B685F
:1059D8001A69FB685B6AD2B21A70FB685B6A5A1C68
:1059E800FB685A62FB681B8D013B9AB2FB681A85FB
:1059F800FB685B8D9BB2013B9AB2FB685A85FB68DA
:105A08001B681A69FB685B6AD2B21A70FB685B6A2A
:105A18005A1CFB685A62FB681B8D013B9AB2FB68F3
:105A28001A85FB685B8D9BB2013B9AB2FB685A856D
:105A380042E07A6AB96BF86800F02EFB0346002B47
:105A480001D001234CE0FB681B681A69FB685B6A9C
:105A5800D2B21A70FB685B6A5A1CFB685A62FB6810
:105A68001B8D013B9AB2FB681A85FB685B8D9BB264
:105A7800013B9AB2FB685A85FB681B685B6903F0B7
:105A88000403042B18D1FB681B681A69FB685B6A5E
:105A9800D2B21A70FB685B6A5A1CFB685A62FB68D0
:105AA8001B8D013B9AB2FB681A85FB685B8D9BB224
:105AB800013B9AB2FB685A85FB681B8D002B7FF46B
:105AC800C2AEFB68202283F83D20FB68002283F8E1
