:020000040800F2
:1000000000000220414100085D3800086338000804
:10001000693800086F3800087538000800000000D3
:100020000000000000000000000000007B38000815
:10003000893800080000000097380008A53800083B
:100040009141000891410008914100089141000848
:100050009141000891410008914100089141000838
:100060009141000891410008914100089141000828
:100070009141000891410008914100089141000818
:100080009141000891410008914100089141000808
:1000900091410008914100089141000891410008F8
:1000A00091410008914100089141000891410008E8
:1000B000B1380008914100089141000891410008C1
:1000C00091410008914100089141000891410008C8
:1000D00091410008C538000891410008914100088D
:1000E00091410008914100089141000891410008A8
:1000F0009141000891410008914100089141000898
:100100009141000891410008914100089141000887
:100110009141000891410008914100089141000877
:10012000D938000891410008914100089141000828
:100130009141000891410008914100089141000857
:100140009141000891410008914100089141000847
:100150009141000891410008914100089141000837
:100160009141000891410008914100089141000827
:1001700091410008914100089141000800000000F1
:080180009141000891410008C3
:1001900010B5054C237833B9044B13B10448AFF3C1
:1001A00000800123237010BD7000002000000000BB
:1001B000F0A6000808B5034B1BB103490348AFF391
:1001C000008008BD0000000074000020F0A60008B8
:1001D00001F0FF01102A2BDB10F0070F08D010F8F8
:1001E000013B013A8B422DD010F0070F42B3F6D1FC
:1001F000F0B441EA012141EA014122F007047FF015
:1002000000070023F0E80256083C85EA010586EA6B
:10021000010685FA47F5A3FA87F586FA47F6A5FAA7
:1002200087F68EB9EED1F0BC01F0FF0102F00702B3
:1002300032B110F8013B013A83EA010313B1F8D15E
:100240000020704701387047002D06BF354603383F
:10025000073815F0010F07D1013015F4807F02BF78
:10026000013015F4C03F0130F0BC0138704700BFC9
:1002700081F0004102E000BF83F0004330B54FEA57
:1002800041044FEA430594EA050F08BF90EA020FC4
:100290001FBF54EA000C55EA020C7FEA645C7FEA57
:1002A000655C00F0E2804FEA5454D4EB5555B8BF7A
:1002B0006D420CDD2C4480EA020281EA030382EAEB
:1002C000000083EA010180EA020281EA0303362D7D
:1002D00088BF30BD11F0004F4FEA01314FF4801C50
:1002E0004CEA113102D0404261EB410113F0004F62
:1002F0004FEA03334CEA133302D0524263EB430319
:1003000094EA050F00F0A780A4F10104D5F1200EB6
:100310000DDB02FA0EFC22FA05F2801841F1000111
:1003200003FA0EF2801843FA05F359410EE0A5F1E5
:1003300020050EF1200E012A03FA0EFC28BF4CF016
:10034000020C43FA05F3C01851EBE37101F00045CC
:1003500007D54FF0000EDCF1000C7EEB00006EEBD9
:100360000101B1F5801F1BD3B1F5001F0CD3490863
:100370005FEA30004FEA3C0C04F101044FEA4452BA
:1003800012F5800F80F09A80BCF1004F08BF5FEA41
:10039000500C50F1000041EB045141EA050130BD21
:1003A0005FEA4C0C404141EB0101013C28BFB1F533
:1003B000801FE9D291F0000F04BF01460020B1FA7E
:1003C00081F308BF2033A3F10B03B3F120020CDA51
:1003D0000C3208DD02F1140CC2F10C0201FA0CF02F
:1003E00021FA02F10CE002F11402D8BFC2F1200C94
:1003F00001FA02F120FA0CFCDCBF41EA0C0190404A
:10040000E41AA2BF01EB0451294330BD6FEA040492
:100410001F3C1CDA0C340EDC04F11404C4F120027D
:1004200020FA04F001FA02F340EA030021FA04F38F
:1004300045EA030130BDC4F10C04C4F1200220FAE6
:1004400002F001FA04F340EA0300294630BD21FA24
:1004500004F0294630BD94F0000F83F4801306BFEA
:1004600081F480110134013D4EE77FEA645C18BFDE
:100470007FEA655C29D094EA050F08BF90EA020F75
:1004800005D054EA000C04BF1946104630BD91EA6D
:10049000030F1EBF0021002030BD5FEA545C05D170
:1004A0004000494128BF41F0004130BD14F58004AF
:1004B0003CBF01F5801130BD01F0004545F0FE4123
:1004C00041F470014FF0000030BD7FEA645C1ABF58
:1004D000194610467FEA655C1CBF0B46024650EA8F
:1004E000013406BF52EA033591EA030F41F40021BB
:1004F00030BD00BF90F0000F04BF0021704730B541
:100500004FF4806404F132044FF000054FF0000115
:1005100050E700BF90F0000F04BF0021704730B5D6
:100520004FF4806404F1320410F0004548BF4042AB
:100530004FF000013EE700BF42004FEAE2014FEA00
:1005400031014FEA02701FBF12F07F4393F07F4FDB
:1005500081F06051704732F07F4208BF704793F0DE
:100560007F4F04BF41F40021704730B54FF46074F1
:1005700001F0004521F000411CE700BF50EA0102F4
:1005800008BF704730B54FF000050AE050EA01029D
:1005900008BF704730B511F0004502D5404261EB0D
:1005A00041014FF4806404F132045FEA915C3FF44E
:1005B000D8AE4FF003025FEADC0C18BF03325FEAEB
:1005C000DC0C18BF033202EBDC02C2F1200300FA9C
:1005D00003FC20FA02F001FA03FE40EA0E0021FAC1
:1005E00002F11444BDE600BF70B54FF0FF0C4CF4AF
:1005F000E06C1CEA11541DBF1CEA135594EA0C0F61
:1006000095EA0C0F00F0DEF82C4481EA030621EA9B
:100610004C5123EA4C5350EA013518BF52EA0335D6
:1006200041F4801143F4801338D0A0FB02CE4FF088
:100630000005E1FB02E506F00042E0FB03E54FF0B8
:100640000006E1FB03569CF0000F18BF4EF0010EB0
:10065000A4F1FF04B6F5007F64F5407404D25FEAAC
:100660004E0E6D4146EB060642EAC62141EA55515F
:100670004FEAC52040EA5E504FEACE2EB4F1FD0CA1
:1006800088BFBCF5E06F1ED8BEF1004F08BF5FEA1F
:10069000500E50F1000041EB045170BD06F00046D1
:1006A00046EA010140EA020081EA0301B4EB5C047E
:1006B000C2BFD4EB0C0541EA045170BD41F4801176
:1006C0004FF0000E013C00F3AB8014F1360FDEBF9B
:1006D000002001F0004170BDC4F10004203C35DA77
:1006E0000C341BDC04F11404C4F1200500FA05F3FA
:1006F00020FA04F001FA05F240EA020001F000429B
:1007000021F0004110EBD37021FA04F642EB060110
:100710005EEA430E08BF20EAD37070BDC4F10C043A
:10072000C4F1200500FA04F320FA05F001FA04F2FE
:1007300040EA020001F0004110EBD37041F10001EA
:100740005EEA430E08BF20EAD37070BDC4F12005F5
:1007500000FA05F24EEA020E20FA04F301FA05F25D
:1007600043EA020321FA04F001F0004121FA04F205
:1007700020EA020000EBD3705EEA430E08BF20EAD5
:10078000D37070BD94F0000F0FD101F0004640000F
:1007900041EB010111F4801F08BF013CF7D041EA91
:1007A000060195F0000F18BF704703F00046520095
:1007B00043EB030313F4801F08BF013DF7D043EA66
:1007C0000603704794EA0C0F0CEA135518BF95EA1C
:1007D0000C0F0CD050EA410618BF52EA4306D1D1A3
:1007E00081EA030101F000414FF0000070BD50EAC2
:1007F000410606BF1046194652EA430619D094EA4C
:100800000C0F02D150EA013613D195EA0C0F05D135
:1008100052EA03361CBF104619460AD181EA030189
:1008200001F0004141F0FE4141F470014FF0000041
:1008300070BD41F0FE4141F4780170BD70B54FF0DC
:10084000FF0C4CF4E06C1CEA11541DBF1CEA13555C
:1008500094EA0C0F95EA0C0F00F0A7F8A4EB05043E
:1008600081EA030E52EA03354FEA013100F0888035
:100870004FEA03334FF0805545EA131343EA1263FE
:100880004FEA022245EA111545EA10654FEA0026B3
:100890000EF000419D4208BF964244F1FD0404F56C
:1008A000407402D25B084FEA3202B61A65EB0305C8
:1008B0005B084FEA32024FF480104FF4002CB6EB85
:1008C000020E75EB030E22BFB61A754640EA0C0005
:1008D0005B084FEA3202B6EB020E75EB030E22BF45
:1008E000B61A754640EA5C005B084FEA3202B6EB86
:1008F000020E75EB030E22BFB61A754640EA9C0045
:100900005B084FEA3202B6EB020E75EB030E22BF14
:10091000B61A754640EADC0055EA060E18D04FEAD2
:10092000051545EA16754FEA06164FEAC30343EA72
:1009300052734FEAC2025FEA1C1CC0D111F4801F3F
:100940000BD141EA00014FF000004FF0004CB6E738
:1009500011F4801F04BF01430020B4F1FD0C88BFD7
:10096000BCF5E06F3FF6AFAEB5EB030C04BFB6EBE2
:10097000020C5FEA500C50F1000041EB045170BDD5
:100980000EF0004E4EEA113114EB5C04C2BFD4EB02
:100990000C0541EA045170BD41F480114FF0000E86
:1009A000013C90E645EA060E8DE60CEA135594EA02
:1009B0000C0F08BF95EA0C0F3FF43BAF94EA0C0F05
:1009C0000AD150EA01347FF434AF95EA0C0F7FF47A
:1009D00025AF104619462CE795EA0C0F06D152EACE
:1009E00003353FF4FDAE1046194622E750EA4106B2
:1009F00018BF52EA43067FF4C5AE50EA41047FF4C3
:100A00000DAF52EA43057FF4EBAE12E74A0011D274
:100A100012F5001211D20DD56FF47873B3EB625258
:100A20000ED44FEAC12343F0004343EA505323FA64
:100A300002F070474FF00000704750EA013002D1D9
:100A40004FF0FF3070474FF0000070474FEA41020F
:100A5000B2F1E04324BFB3F5001CDCF1FE5C0DD91C
:100A600001F0004C4FEAC0024CEA5070B2F1004F66
:100A700040EB830008BF20F00100704711F0804F69
:100A800021D113F13872BCBF01F00040704741F42E
:100A900080114FEA5252C2F11802C2F1200C10FA32
:100AA0000CF320FA02F018BF40F001004FEAC12316
:100AB0004FEAD32303FA0CFC40EA0C0023FA02F3BA
:100AC0004FEA4303CCE77FEA625307D150EA013390
:100AD0001EBF4FF0FE4040F44000704701F0004060
:100AE00040F0FE4040F40000704700BF53B94AB9DF
:100AF000002908BF00281CBF4FF0FF314FF0FF3026
:100B000000F070B9ADF1080C6DE904CE00F006F804
:100B1000DDF804E0DDE9022304B070472DE9F04779
:100B2000089E0D4604460F46002B4AD18A42944641
:100B300065D9B2FA82F343B102FA03FCC3F1200291
:100B40009F4020FA02F217439C404FEA1C4E1FFAC6
:100B50008CF5B7FBFEF1220C0EFB117742EA07423F
:100B600001FB05F090420AD91CEB020201F1FF37AC
:100B700080F01C81904240F2198102396244121ABD
:100B8000A4B2B2FBFEF00EFB102244EA024400FBCA
:100B900005F5A5420AD91CEB040400F1FF3280F0F0
:100BA0000781A54240F204816444023840EA0140D2
:100BB000641B00211EB1DC400023C6E90043BDE8F0
:100BC000F0878B4208D9002E00F0ED800021C6E9A5
:100BD00000050846BDE8F087B3FA83F1002949D142
:100BE000AB4202D3824200F2F880841A65EB030222
:100BF00001201746002EE2D0C6E90047DFE702B920
:100C0000FFDEB2FA82F3002B40F090808A1A4FEA9E
:100C10001C471FFA8CFE0121B2FBF7F507FB1520DC
:100C2000220C42EA00420EFB05F0904208D91CEB70
:100C3000020205F1FF3802D2904200F2CB80454615
:100C4000121AA4B2B2FBF7F007FB102244EA0244E6
:100C50000EFB00FEA64508D91CEB040400F1FF3290
:100C600002D2A64500F2BB801046A4EB0E0440EA77
:100C700005409FE7C1F120078B4022FA07FC4CEAB0
:100C8000030C05FA01F420FA07F3FD404FEA1C4972
:100C90002343B5FBF9F81FFA8CFE09FB18551C0C11
:100CA00044EA054408FB0EF5A54202FA01F200FAF7
:100CB00001F00BD91CEB040408F1FF3A80F08880A6
:100CC000A54240F28580A8F102086444641B9DB2ED
:100CD000B4FBF9F309FB134445EA044403FB0EFE9D
:100CE000A64508D91CEB040403F1FF356CD2A645D8
:100CF0006AD9023B644443EA0843A3FB0295A4EB90
:100D00000E04AC42C846AE4656D353D056B1B0EBF3
:100D1000080264EB0E0404FA07F7CA40CC401743FC
:100D2000C6E9007418460021BDE8F087C3F1200130
:100D300002FA03FC20FA01F225FA01F19D402A4350
:100D40004FEA1C471FFA8CFEB1FBF7F007FB1015AA
:100D5000110C41EA054100FB0EF58D4204FA03F443
:100D600008D91CEB010100F1FF382FD28D422DD99B
:100D700002386144491B92B2B1FBF7F507FB15112C
:100D800042EA014205FB0EF1914208D91CEB020236
:100D900005F1FF3816D2914214D9023D6244521A2D
:100DA00045EA004138E73146304608E73946E6E68D
:100DB0001046FBE64845A9D2B9EB020865EB0C0EDC
:100DC000013BA3E74546EAE72B4694E74046D1E7D7
:100DD000D0467BE7023D624432E708460AE76444B6
:100DE000023842E7704700BF80B584B000AF3B4691
:100DF00000221A605A609A60DA603D4B3D4A1A60E0
:100E00003B4B00225A603A4B00229A60384B012239
:100E10001A61374B00221A76354B002283F82020C6
:100E2000334B0022DA62324B334A9A62304B002253
:100E3000DA602F4B0522DA612D4B002283F8302037
:100E40002B4B01225A612A4803F03AFA0346002B41
:100E500001D001F0CFF908233B6001237B60002320
:100E6000BB603B461946224803F09CFB0346002B1F
:100E700001D001F0BFF909233B6002237B603B46B0
:100E800019461B4803F08EFB0346002B01D001F0EE
:100E9000B1F90A233B6003237B603B4619461448A3
:100EA00003F080FB0346002B01D001F0A3F90B23D4
:100EB0003B6004237B603B4619460D4803F072FB00
:100EC0000346002B01D001F095F90C233B6005236C
:100ED0007B603B461946064803F064FB0346002B43
:100EE00001D001F087F900BF1037BD4680BD00BFBB
:100EF0008C000020002001400100000F80B58AB066
:100F000000AF786007F1140300221A605A609A60FB
:100F1000DA601A617B681B683C4A934271D10023F6
:100F20003B613B4B5B6C3A4A43F480735364384BF0
:100F30005B6C03F480733B613B690023FB60344BC3
:100F40001B6B334A43F004031363314B1B6B03F0F9
:100F50000403FB60FB680023BB602D4B1B6B2C4A1A
:100F600043F0020313632A4B1B6B03F00203BB60C5
:100F7000BB6807237B610323BB610023FB6107F18F
:100F800014031946234804F0C1FA03237B610323A9
:100F9000BB610023FB6107F1140319461E4804F0EE
:100FA000B5FA1E4B1E4A1A601C4B00225A601B4B9E
:100FB00000229A60194B0022DA60184B4FF48062CD
:100FC0001A61164B4FF400625A61144B4FF40052F1
:100FD0009A61124B4FF48072DA61104B00221A6250
:100FE0000E4B00225A620D4803F08EFE0346002B82
:100FF00001D001F0FFF87B68084A9A63074A7B68D2
:10100000936300BF2837BD4680BD00BF002001406C
:10101000003802400008024000040240D4000020D2
:101020001064024080B500AF01220821024804F09C
:1010300009FC00BF80BD00BF000C024080B584B039
:1010400000AF002208212F4804F0FCFB01220821F8
:101050002C4804F0F7FB0A2302222B492B4806F008
:10106000ECF80023FB604FF400437B8100237B609E
:101070003FE07B68002B06DB7B68032B03DC7B688F
:101080000433FB6018E07B68032B07DD7B68072BCC
:1010900004DC7B68C3F10703FB600DE07B68072B72
:1010A00006DD7B680B2B03DC7B680433FB6003E00D
:1010B0007B68C3F11703FB60134B1A887B891340CD
:1010C0009BB2002B05D0124AFB68002122F81310B6
:1010D00009E00F4AFB6832F81330013399B20C4A29
:1010E000FB6822F813107B895B087B817B680133E6
:1010F0007B607B680F2BBCDD00BF00BF1037BD4697
:1011000080BD00BF000C0240540100206C02002092
:101110003401002080B483B000AF0346FB71FB793B
:10112000102B01D9002308E0FB79074A32F813306D
:10113000002B14BF01230023DBB218460C37BD4639
:101140005DF8047B704700BF3401002080B483B099
:1011500000AF0346FB71FB79102B01D9002308E097
:10116000FB79074A32F81330C72B01D8002300E07F
:10117000012318460C37BD465DF8047B704700BF5D
:101180003401002080B500AF0021024806F09AFD2E
:1011900000BF80BD1403002080B483B000AF0346BD
:1011A000FB71074AFB791370054B1A78054B1B68D6
:1011B0005A6300BF0C37BD465DF8047B704700BF23
:1011C000560100201403002080B582B000AF002338
:1011D0007B600C4B1B6B0B4A43F480031363094B7E
:1011E0001B6B03F480037B607B68002200213820A6
:1011F00003F053FD382003F06CFD00BF0837BD46F7
:1012000080BD00BF0038024080B588B004AF0346FF
:101210000A46FB711346BB71BB79184602F06CFF9E
:101220000346FB73FB799AB20A23029301230193CD
:1012300007F10F0300930123D021034804F060FC61
:1012400000BF1037BD4680BDBC01002080B584B012
:1012500004AF0A23029307230193254B0093012334
:101260000022D021234804F045FD214B1B7818466D
:1012700002F028FF03461A461F4B1A701C4B5B787E
:10128000184602F01FFF03461A461C4B1A70184BF3
:101290009B78184602F016FF03461A46184B1A7040
:1012A000134BDB78184602F00DFF03461A46154B28
:1012B0001A700F4B1B79184602F004FF03461A46BA
:1012C000114B1A700A4B5B79184602F0FBFE03467D
:1012D0001A460E4B1A70064B9B79184602F0F2FE26
:1012E00003461A460A4B1A7000BFBD4680BD00BFB8
:1012F00058010020BC010020610100206001002095
:101300005F010020630100206201002064010020D1
:101310006501002080B58EB000AF07F11C030022EC
:101320001A605A609A60DA601A615A619A613B46A3
:1013300000221A605A609A60DA601A615A619A61F2
:101340002F4B4FF020421A602D4B2E4A5A602C4BE7
:1013500000229A602A4B0022DA60294B00221A618F
:10136000274B10225A61264B00229A61244B0022FF
:10137000DA61234B00221A62214B00225A62204B71
:101380004FF480529A621E4B0022DA621C4B4FF4DB
:1013900080421A631A4B00225A63194B00229A6347
:1013A000174B00225A640F23FB610F233B623C233F
:1013B0007B620023BB621023FB6211233B6300238B
:1013C0007B6308233B600F237B600923BB60002302
:1013D000FB6010233B6111237B610023BB613A4614
:1013E00007F11C031946064806F00AFB0346002BCA
:1013F00001D000F0FFFE00BF3837BD4680BD00BF02
:1014000068010020040100A080B586B000AF3B1D3C
:1014100000221A605A609A60DA601A611C4B1B68DD
:10142000002B31D11A4B01221A6000233B60194B6B
:101430009B6B184A43F001039363164B9B6B03F0BD
:1014400001033B603B684FF688737B600223BB60FF
:101450000023FB6003233B610C237B613B1D19468A
:101460000D4804F053F84CF2B3737B600223BB6069
:101470000023FB6003233B610C237B613B1D19466A
:10148000064804F043F800E000BF1837BD4680BDB1
:10149000B80100200038024000100240000C024059
:1014A00080B582B000AF7860FFF7AEFF00BF0837AD
:1014B000BD4680BD80B58EB000AF07F12403002289
:1014C0001A605A609A60DA601A6100233B62764BB8
:1014D0001B6B754A43F010031363734B1B6B03F0D4
:1014E00010033B623B6A0023FB616F4B1B6B6E4A30
:1014F00043F0040313636C4B1B6B03F00403FB61A9
:10150000FB690023BB61684B1B6B674A43F02003F8
:101510001363654B1B6B03F02003BB61BB690023A6
:101520007B61614B1B6B604A43F0800313635E4B2E
:101530001B6B03F080037B617B6900233B615A4B8B
:101540001B6B594A43F001031363574B1B6B03F0AA
:1015500001033B613B690023FB60534B1B6B524A09
:1015600043F002031363504B1B6B03F00203FB6059
:10157000FB680023BB604C4B1B6B4B4A43F00803DA
:101580001363494B1B6B03F00803BB60BB6800236C
:101590007B60454B1B6B444A43F040031363424B53
:1015A0001B6B03F040037B607B68002270213F4887
:1015B00004F048F900224FF400513D4804F042F98C
:1015C000002240213B4804F03DF900224FF4807195
:1015D000394804F037F900220821384804F032F97C
:1015E00070237B620123BB620023FB6200233B6309
:1015F00007F1240319462D4803F088FF4FF40053E8
:101600007B620123BB620023FB6200233B6307F183
:1016100024031946264803F079FFC0237B62002388
:10162000BB620023FB6207F124031946224803F042
:101630006DFF30237B620023BB620023FB6207F156
:10164000240319461A4803F061FF40237B620123FB
:10165000BB620023FB6200233B6307F124031946AE
:10166000144803F053FF4FF480737B620123BB6285
:101670000023FB6200233B6307F1240319460E4855
:1016800003F044FF08237B620123BB620023FB625B
:1016900000233B6307F124031946084803F036FF93
:1016A00000BF3837BD4680BD003802400010024000
:1016B000000802400018024000000240000C0240F6
:1016C00080B500AF124B134A1A60114B124A5A6090
:1016D0000F4B00229A600E4B0022DA600C4B4FF445
:1016E00080421A610A4B00225A61094B00229A611A
:1016F000074B0022DA61064B00221A62044804F00C
:10170000BBF80346002B01D000F074FD00BF80BD84
:10171000BC01002000540040A086010080B58AB0C2
:1017200000AF786007F1140300221A605A609A60D3
:10173000DA601A617B681B68194A93422BD1002337
:101740003B61184B1B6B174A43F002031363154BA5
:101750001B6B03F002033B613B69C0237B611223D7
:10176000BB610023FB6103233B6204237B6207F11F
:10177000140319460C4803F0C9FE0023FB60094B13
:101780001B6C084A43F400131364064B1B6C03F4F0
:101790000013FB60FB6800BF2837BD4680BD00BF5B
:1017A00000540040003802400004024080B483B07E
:1017B00000AF0346FB80044AFB88138000BF0C3750
:1017C000BD465DF8047B7047FEFF0F6080B483B0B8
:1017D00000AF0346FB80044AFB88538000BF0C37F0
:1017E000BD465DF8047B7047FEFF0F6080B483B098
:1017F00000AF064B5B889BB2FB80FB889BB2184610
:101800000C37BD465DF8047B704700BFFEFF0F60DC
:1018100090B583B000AF0446084611461A462346E9
:10182000FB800346BB800B467B8013463B802A200F
:10183000FFF7BCFFFB881B0A9BB21846FFF7C6FFE9
:10184000FB88DBB29BB21846FFF7C0FF7B881B0A00
:101850009BB21846FFF7BAFF7B88DBB29BB21846F3
:10186000FFF7B4FF2B20FFF7A1FFBB881B0A9BB239
:101870001846FFF7ABFFBB88DBB29BB21846FFF7F9
:10188000A5FF3B881B0A9BB21846FFF79FFF3B88CA
:10189000DBB29BB21846FFF799FF2C20FFF786FFBB
:1018A00000BF0C37BD4690BD80B582B000AF034687
:1018B000FB800B46BB8013467B80BB88FA88B988C7
:1018C000F888FFF7A5FF7B881846FFF77FFF00BF6A
:1018D0000837BD4680BD000090B587B000AF044614
:1018E000084611461A462346FB800346BB800B463A
:1018F000FB7013463B8000237B75FB883B8297F887
:101900002C305B08FB73FB7BDB08DBB21A46FB7BEE
:1019100003F00703DBB2002B14BF01230023DBB26B
:1019200013449AB297F82C309BB212FB03F3BB819D
:10193000FB78203BFB70FB7B9AB2FB8813449BB285
:10194000013B9CB297F82C309AB2BB8813449BB2EF
:10195000013B9BB2B988F8882246FFF759FF002364
:101960007B827AE097F82C300C2B28D097F82C301B
:10197000102B08D1FA787B8A3C4912010A4413449F
:101980001B78FB751BE097F82C30182B0BD1FA78DD
:10199000798A374813465B0013441B0103440B4408
:1019A0001B78FB750BE097F82C30202B5AD1FA7876
:1019B0007B8A304992010A4413441B78FB7500234B
:1019C000BB7544E097F83030002B20D1FA7DBB7D09
:1019D00042FA03F303F00103002B04D03B881846BE
:1019E000FFF7F4FE03E03B8D1846FFF7EFFE7B7D2B
:1019F00001337B757B7DFA7BB3FBF2F101FB02F2D5
:101A00009B1ADBB2002B1FD100237B7522E0FA7DED
:101A1000BB7D42FA03F303F00103002B05D03A88A3
:101A2000B988FB881846FFF73FFFFB880133FB802E
:101A3000FA883B8AD21AFB7B9A4205D13B8AFB800B
:101A4000BB880133BB8005E0BB7D0133BB75BB7D2B
:101A5000072BB7D97B8A01337B827A8ABB899A426A
:101A600080D300E000BF1C37BD4690BD14A800081D
:101A700004AE0008D4BF000880B485B000AF0346B0
:101A80000A46FB711346BB710123FB6004E0FA793F
:101A9000FB6802FB03F3FB60BB795A1EBA71002B93
:101AA000F5D1FB6818461437BD465DF8047B7047D6
:101AB00090B589B004AF0446084611461A4623463D
:101AC000FB800346BB800B467B8013467B70002364
:101AD000BB7397F828305B087B730023FB7359E0D6
:101AE0007C887A78FB7BD31ADBB2013BDBB21946E8
:101AF0000A20FFF7C1FF0346B4FBF3F12A4BA3FB17
:101B00000123DA0813469B0013445B00CA1A1346EC
:101B10003B73BB7B002B21D1FA7B7B78013B9A4244
:101B20001CDA3B7B002B17D1FB7B9AB27B7B9BB2F1
:101B300012FB03F39AB2FB88134498B23A8CB9882B
:101B40000023029397F828300193BB8C009313462F
:101B50002022FFF7C1FE1AE00123BB73FB7B9AB280
:101B60007B7B9BB212FB03F39AB2FB88134498B2BF
:101B70003B7B3033DAB23C8CB9880023029397F870
:101B800028300193BB8C00932346FFF7A5FEFB7B17
:101B90000133FB73FA7B7B789A42A1D300BF00BF6D
:101BA0001437BD4690BD00BFCDCCCCCC90B58BB02A
:101BB00004AF0446084687ED020A11461A4623463A
:101BC000FB810346BB810B46FB711346BB8097F834
:101BD0002C305B08BB75D7ED027A9FED367A67EE45
:101BE000877AFCEEE77A17EE903ABB820023FB750A
:101BF00057E0BC8AFA79FB7DD31ADBB2013BDBB23A
:101C000019460A20FFF738FF0346B4FBF3F12A4BCD
:101C1000A3FB0123DA0813469B0013445B00CA1A96
:101C20001346FB74FA7DFB79023B9A421DD1FB7986
:101C3000023B9AB2BB7D9BB212FB03F39AB2FB89C3
:101C4000134498B2BA88B9890023029397F82C30CC
:101C500001933B8D009313462E22FFF73DFEFB7D43
:101C60000133FB75FB790133FB71FB7D9AB2BB7DC0
:101C70009BB212FB03F39AB2FB89134498B2FB7C2C
:101C80003033DAB2BC88B9890023029397F82C303C
:101C900001933B8D00932346FFF71EFEFB7D01332E
:101CA000FB75FA7DFB799A42A3D300BF00BF1C37B6
:101CB000BD4690BD0000C842CDCCCCCC80B483B032
:101CC00000AF0346FB71FB791B09DBB203F0030392
:101CD000DBB2002B07D00A4B4FF4A0721A80084BDE
:101CE000F0225A8006E0064BF0221A80044B4FF493
:101CF000A0725A8000BF0C37BD465DF8047B704768
:101D00001002002080B500AF00224FF40051AA4815
:101D100003F098FD4FF4FA7002F0AEFA01224FF48E
:101D20000051A54803F08EFD4FF4FA7002F0A4FABA
:101D30000020FFF7C3FFD320FFF738FDFFF756FD64
:101D400003461A469D4B9A80FFF750FD03461A46FC
:101D50009A4B9A80FFF74AFD03461A46974B9A80A2
:101D6000964B9B881B029AB2944B9A80FFF73EFDDC
:101D700003461A46914B9B8813439AB28F4B9A8025
:101D8000CF20FFF713FD0020FFF720FDC120FFF754
:101D90001DFD3020FFF71AFDED20FFF707FD642041
:101DA000FFF714FD0320FFF711FD1220FFF70EFDD2
:101DB0008120FFF70BFDE820FFF7F8FC8520FFF7F7
:101DC00005FD1020FFF702FD7A20FFF7FFFCCB2076
:101DD000FFF7ECFC3920FFF7F9FC2C20FFF7F6FCAD
:101DE0000020FFF7F3FC3420FFF7F0FC0220FFF7A0
:101DF000EDFCF720FFF7DAFC2020FFF7E7FCEA20F4
:101E0000FFF7D4FC0020FFF7E1FC0020FFF7DEFC29
:101E1000C020FFF7CBFC1B20FFF7D8FCC120FFF749
:101E2000C5FC0120FFF7D2FCC520FFF7BFFC302026
:101E3000FFF7CCFC3020FFF7C9FCC720FFF7B6FC4A
:101E4000B720FFF7C3FC3620FFF7B0FC0820FFF7F0
:101E5000BDFC3A20FFF7AAFC5520FFF7B7FCB120E4
:101E6000FFF7A4FC0020FFF7B1FC1A20FFF7AEFC3F
:101E7000B620FFF79BFC0A20FFF7A8FCA220FFF783
:101E8000A5FCF220FFF792FC0020FFF79FFC262024
:101E9000FFF78CFC0120FFF799FCE020FFF786FCA0
:101EA0000F20FFF793FC2A20FFF790FC2820FFF774
:101EB0008DFC0820FFF78AFC0E20FFF787FC082026
:101EC000FFF784FC5420FFF781FCA920FFF77EFC7C
:101ED0004320FFF77BFC0A20FFF778FC0F20FFF779
:101EE00075FC0020FFF772FC0020FFF76FFC00205C
:101EF000FFF76CFC0020FFF769FCE120FFF756FCC0
:101F00000020FFF763FC1520FFF760FC1720FFF7A8
:101F10005DFC0720FFF75AFC1120FFF757FC062055
:101F2000FFF754FC2B20FFF751FC5620FFF74EFC27
:101F30003C20FFF74BFC0520FFF748FC1020FFF783
:101F400045FC0F20FFF742FC3F20FFF73FFC3F20FE
:101F5000FFF73CFC0F20FFF739FC2B20FFF726FC96
:101F60000020FFF733FC0020FFF730FC0120FFF7D3
:101F70002DFC3F20FFF72AFC2A20FFF717FC00204A
:101F8000FFF724FC0020FFF721FC0020FFF71EFCD8
:101F9000EF20FFF71BFC1120FFF708FC782002F070
:101FA0006BF92920FFF702FC01224FF480710448ED
:101FB00003F048FC00BF80BD000802401002002072
:101FC0000000024090B58BB004AFBA601A460346D9
:101FD000FB810B46BB811346FB80FB89BB82002340
:101FE000FB7548E0FB7D002B45D1FA89264B1B8809
:101FF000194697F82C305B08DBB2CB1A9A423FDCCB
:10200000BA89214B5B88194697F82C30CB1A9A4233
:1020100036DCBB681B78802B02D90123FB752AE0D4
:10202000BB681B780D2B0BD197F82C309AB2BB896B
:102030001344BB81BB8AFB81BB680133BB6017E0E3
:10204000BB681A78FC88B989F88997F83030029310
:1020500097F82C3001933B8D00932346FFF73CFC0F
:1020600097F82C305B08DBB29AB2FB891344FB81F2
:10207000BB680133BB60BB681B78002BB2D100E0AA
:1020800000BF1C37BD4690BD1002002080B500AFD8
:10209000FFF738FE01F0D4F9FFF774F8FEF7C2FF3E
:1020A00001F050FF00F0C4FF0A21002001F0BCFA4B
:1020B0004FF47A71012001F0B7FAC821022001F033
:1020C000B3FA4FF4FA71032001F0AEFA4FF47A71CB
:1020D000042001F0A9FA00BF80BD000080B500AF68
:1020E00002F058F800F01CF8FFF7E4F9FFF76CF87D
:1020F00001F00EFBFFF70EF9FFF7E2FA01F05EFECA
:1021000001F010FEFEF770FE01F062FF034805F0DB
:102110000FFDFFF7BBFF01F0EBFDFCE7CC02002059
:1021200080B594B000AF07F120033022002118469B
:1021300007F05AFE07F10C0300221A605A609A60F9
:10214000DA601A610023BB60284B1B6C274A43F0FE
:1021500080531364254B1B6C03F08053BB60BB683A
:1021600000237B60224B1B68214A43F480431360A9
:102170001F4B1B6803F480437B607B6802233B6238
:102180000123FB6210233B630223BB630023FB6339
:1021900008233B64A8237B640223BB640423FB6401
:1021A00007F12003184604F027FB0346002B01D05B
:1021B00000F020F80F23FB6002233B6100237B61CA
:1021C0004FF4A053BB614FF4A053FB6107F10C0324
:1021D0000521184604F088FD0346002B01D000F0CD
:1021E00009F800BF5037BD4680BD00BF003802402F
:1021F0000070004080B400AF72B600BFFEE7000080
:1022000080B584B004AF244B1A78244B1B789A42D3
:102210002FD1234B1A78234B1B789A4229D1224B7A
:102220001A78224B1B789A4223D1214B1A78214BE2
:102230001B789A421DD1204B1A78204B1B789A426A
:1022400017D11F4B1A781F4B1B789A4211D10023CC
:102250000293182301934FF4784300934FF6FF73D2
:10226000194AC8210A20FFF7ADFE3220FEF794FF7D
:102270000FE00020FEF790FF002302931823019344
:10228000002300930023104AC8210A20FFF79AFE7A
:1022900000BF00BFBD4680BD0C000020060000202E
:1022A0000B000020050000200A0000200400002090
:1022B0000900002003000020080000200200002088
:1022C000070000200100002008A7000880B500AF2B
:1022D000124B1B78022B18D0022B1DDC002B02D0D6
:1022E000012B0BD018E000F0ADFD00F0EBFD00F08D
:1022F00025FEFFF785FF00F061FB0DE000F092F98D
:1023000000F01CFE00F05AFB06E000F009F800F0B7
:1023100015FE00F053FBFFE700BF80BD1602002052
:1023200080B500AFB74B1B78062B00F2698101A284
:1023300052F823F05123000861230008D12300083C
:1023400041240008B1240008212500089125000837
:102350000021012000F0A6FEAA4B01221A704FE1D5
:10236000A94B1B78002B02D0012B15D02AE0A74BDC
:102370001B780121184600F0D3FE012001F0B2F9CC
:102380000346002B1DD1A04B01221A704FF47A7125
:10239000012001F049F914E09C4B1B7800211846FC
:1023A00000F0BEFE012001F09DF90346002B09D18B
:1023B000954B00221A704FF47A71012001F034F924
:1023C00000E000BF914800F0DBFC00F04DFB17E19E
:1023D0008D4B1B78002B02D0012B15D02AE08C4BA3
:1023E0001B780121184600F0D9FE012001F07AF98E
:1023F0000346002B1DD1844B01221A704FF47A71D1
:10240000012001F011F914E0814B1B7800211846DE
:1024100000F0C4FE012001F065F90346002B09D14C
:10242000794B00221A704FF47A71012001F0FCF808
:1024300000E000BF764800F0A3FC00F015FBDFE0F1
:10244000714B1B78002B02D0012B15D02AE0714B69
:102450001B780121184600F0DFFE012001F042F94F
:102460000346002B1DD1684B01221A704FF47A717C
:10247000012001F0D9F814E0664B1B7800211846C2
:1024800000F0CAFE012001F02DF90346002B09D10E
:102490005D4B00221A704FF47A71012001F0C4F8EC
:1024A00000E000BF5B4800F06BFC00F0DDFAA7E045
:1024B000554B1B78002B02D0012B15D02AE0564B30
:1024C0001B780121184600F001FF012001F00AF9F4
:1024D0000346002B1DD14C4B01221A704FF47A7128
:1024E000012001F0A1F814E04B4B1B7800211846A5
:1024F00000F0ECFE012001F0F5F80346002B09D1B5
:10250000414B00221A704FF47A71012001F08CF8CF
:1025100000E000BF404800F033FC00F0A5FA6FE097
:10252000394B1B78002B02D0012B15D02AE03B4BF6
:102530001B780121184600F007FF012001F0D2F8B6
:102540000346002B1DD1304B01221A704FF47A71D3
:10255000012001F069F814E0304B1B780021184687
:1025600000F0F2FE012001F0BDF80346002B09D176
:10257000254B00221A704FF47A71012001F054F8B3
:1025800000E000BF254800F0FBFB00F06DFA37E0EB
:102590001D4B1B78002B02D0012B15D02AE0204BBD
:1025A0001B780121184600F00DFF012001F09AF878
:1025B0000346002B1DD1144B01221A704FF47A717F
:1025C000012001F031F814E0154B1B78002118466A
:1025D00000F0F8FE012001F085F80346002B09D138
:1025E000094B00221A704FF47A71012001F01CF897
:1025F00000E000BF0A4800F0C3FB00F035FAFFE737
:1026000000BF80BD1B0200201C020020070000202C
:1026100008000020090000200A0000200B00002014
:102620000C00002080B500AFB64B1B78062B00F2E3
:10263000AA8101A252F823F055260008C5260008F9
:1026400035270008A5270008152800088528000858
:10265000F5280008AC4B1B78002B02D0012B15D0BD
:102660002AE0AA4B1B780121184600F01BFD01202F
:1026700001F038F80346002B1DD1A34B01221A703C
:102680004FF47A71012000F0CFFF14E09F4B1B78CC
:102690000021184600F006FD012001F023F8034652
:1026A000002B09D1984B00221A704FF47A71012047
:1026B00000F0BAFF00E000BF944800F061FB00F0BA
:1026C000D3F960E1904B1B78002B02D0012B15D081
:1026D0002AE08F4B1B780121184600F021FD0120D4
:1026E00001F000F80346002B1DD1874B01221A7020
:1026F0004FF47A71012000F097FF14E0844B1B78AF
:102700000021184600F00CFD012000F0EBFF03460D
:10271000002B09D17C4B00221A704FF47A710120F2
:1027200000F082FF00E000BF794800F029FB00F0D4
:102730009BF928E1744B1B78002B02D0012B15D09C
:102740002AE0744B1B780121184600F027FD012078
:1027500000F0C8FF0346002B1DD16B4B01221A70FD
:102760004FF47A71012000F05FFF14E0694B1B7891
:102770000021184600F012FD012000F0B3FF0346CF
:10278000002B09D1604B00221A704FF47A7101209E
:1027900000F04AFF00E000BF5E4800F0F1FA00F0F0
:1027A00063F9F0E0584B1B78002B02D0012B15D0B9
:1027B0002AE0594B1B780121184600F02DFD01201D
:1027C00000F090FF0346002B1DD14F4B01221A70E1
:1027D0004FF47A71012000F027FF14E04E4B1B7874
:1027E0000021184600F018FD012000F07BFF034691
:1027F000002B09D1444B00221A704FF47A7101204A
:1028000000F012FF00E000BF434800F0B9FA00F00A
:102810002BF9B8E03C4B1B78002B02D0012B15D0D4
:102820002AE03E4B1B780121184600F04FFD0120A5
:1028300000F058FF0346002B1DD1334B01221A70C4
:102840004FF47A71012000F0EFFE14E0334B1B7857
:102850000021184600F03AFD012000F043FF034636
:10286000002B09D1284B00221A704FF47A710120F5
:1028700000F0DAFE00E000BF284800F081FA00F026
:10288000F3F880E0204B1B78002B02D0012B15D0F1
:102890002AE0234B1B780121184600F055FD01204A
:1028A00000F020FF0346002B1DD1174B01221A70A8
:1028B0004FF47A71012000F0B7FE14E0184B1B783A
:1028C0000021184600F040FD012000F00BFF0346F8
:1028D000002B09D10C4B00221A704FF47A710120A1
:1028E00000F0A2FE00E000BF0D4800F049FA00F041
:1028F000BBF848E0044B1B78002B13D0012B26D0EB
:102900003BE000BF1B0200201C0200200000002052
:10291000010000200200002003000020040000202D
:1029200005000020194B1B780121184600F04AFDD4
:10293000012000F0D7FE0346002B1DD1144B0122CD
:102940001A704FF47A71012000F06EFE14E00F4B04
:102950001B780021184600F035FD012000F0C2FE72
:102960000346002B09D10A4B00221A704FF47A71EA
:10297000012000F059FE00E000BF044800F000FA1A
:1029800000F072F8FFE700BF80BD00BF0600002026
:102990001C02002080B584B004AF002302931823EA
:1029A0000193002300930023034A1E211420FFF704
:1029B00009FB00BFBD4680BD10A7000880B500AF71
:1029C000264B1B78002B02D0012B34D03FE0002097
:1029D000FEF7A0FB0346012B25D1214B1B78022BD0
:1029E00018D0022B19DC002B02D0012B09D014E0E7
:1029F00000F068FA1A4B01221A701A4B00221A7062
:102A00000BE000F0E1FA174B00221A70144B02227F
:102A10001A7002E0124B00221A70FFF7BBFF0F4B37
:102A200001221A7015E00020FEF774FB0346012B0B
:102A30000FD100230FE00020FEF76CFB0346002BB4
:102A400003D1064B00221A7004E0002303E00023A8
:102A500001E000BF0123184680BD00BF180200201E
:102A6000160200201B02002080B500AF5F4B9B7850
:102A7000002B03D0012B00F0A780B1E00C20FEF763
:102A800049FB0346012B40F09780594B1B78012BE3
:102A90005DD1584B1B78062B56D801A252F823F073
:102AA000BD2A0008D12A0008E52A0008F92A0008F2
:102AB000352B0008212B00080D2B00084E4B1B78EE
:102AC00019460020FEF7A0FB4A4B01221A703BE09A
:102AD0004A4B1B7819460120FEF796FB454B022214
:102AE0001A7031E0464B1B7819460220FEF78CFB2A
:102AF000404B03221A7027E0424B1B7819460320F3
:102B0000FEF782FB3B4B06221A701DE03E4B1B7802
:102B100019460620FEF778FB364B05221A7013E0A3
:102B20003A4B1B7819460520FEF76EFB314B042209
:102B30001A7009E0364B1B7819460420FEF764FB37
:102B40002C4B00221A7000BF00F0BCF930E0294B7A
:102B50001B78062B2CD801A252F823F0792B000801
:102B6000812B0008892B0008912B0008A92B000855
:102B7000A12B0008992B00081E4B01221A7017E0A8
:102B80001C4B02221A7013E01A4B03221A700FE03A
:102B9000184B06221A700BE0164B05221A7007E03C
:102BA000144B04221A7003E0124B00221A7000BF6B
:102BB0000E4B01229A7015E00C20FEF7ABFA03468B
:102BC000012B0FD100230FE00C20FEF7A3FA0346E0
:102BD000002B03D1054B00229A7004E0002303E090
:102BE000002301E000BF0123184680BD1802002029
:102BF000160200201B02002000000020010000201F
:102C00000200002003000020060000200500002034
:102C10000400002080B485B000AF7860554B1B786D
:102C2000062B00F2A18001A252F823F0492C0008E3
:102C3000492C0008652C0008812C0008D52C0008C0
:102C4000B92C00089D2C00087B681B780133DAB290
:102C50007B681A707B681B783B2B7CD97B680022D1
:102C60001A7078E07B681B780133DAB27B681A70DF
:102C70007B681B78172B70D97B6800221A706CE078
:102C80007B681B780133DAB27B681A707B681B782B
:102C9000072B64D97B6801221A7060E07B681B787F
:102CA0000133DAB27B681A707B681B78632B58D9C2
:102CB0007B6800221A7054E07B681B780133DAB21B
:102CC0007B681A707B681B780C2B4CD97B680122BF
:102CD0001A7048E07B681B780133DAB27B681A709F
:102CE0001E23FB73244B1B780C2B8CBF012200226C
:102CF000D2B2002A25D101229A4041F2AA531340B0
:102D0000002B14BF01230023DBB2002B09D102F0FA
:102D10000403002B14BF01230023DBB2002B03D1DB
:102D20000FE01F23FB730DE0144B1B7803F003032C
:102D3000DBB2002B02D01C23FB7303E01D23FB73CB
:102D400000E000BF7B681B78FA7B9A420CD27B685C
:102D500001221A7008E000BF06E000BF04E000BFD7
:102D600002E000BF00E000BF00BF1437BD465DF8C1
:102D7000047B70471B020020050000200600002095
:102D800080B582B000AF78602C4B5B78022B31D0DD
:102D9000022B49DC002B02D0012B15D044E003208C
:102DA000FEF7B8F90346012B06D17868FFF732FF2A
:102DB000224B01225A7039E00320FEF7ABF903469B
:102DC000012B33D1002335E00320FEF7A3F903469E
:102DD000002B03D1194B00225A702AE00320FEF782
:102DE000B5F90346012B03D1144B02225A7020E09F
:102DF00000231FE0124B00221A70022000F072FC28
:102E00000346002B06D17868FFF704FFC821022093
:102E100000F00AFC0320FEF77DF90346002B07D1E2
:102E2000064B00225A7003E0002303E000BF00E0DD
:102E300000BF012318460837BD4680BD1802002098
:102E40001C02002080B400AF104B1A78104B1A708F
:102E5000104B1A78104B1A70104B1A78104B1A70CE
:102E6000104B1A78104B1A70104B1A78104B1A70BE
:102E7000104B1A78104B1A70104B1A78104B1A70AE
:102E800000BFBD465DF8047B704700BF61010020B4
:102E90000000002060010020010000205F010020F0
:102EA00002000020630100200300002062010020D6
:102EB00004000020640100200500002065010020BE
:102EC0000600002080B500AF154B1B780121184685
:102ED00000F0FCF9134B1B780121184600F09CF917
:102EE000114B1B780121184600F058F90F4B1B7845
:102EF0000121184600F014F90D4B1B7801211846EA
:102F000000F022FA0B4B1B780121184600F05AFA08
:102F1000094B1B780121184600F0C4F800BF80BDA2
:102F20000400002003000020020000200100002017
:102F300005000020060000200000002080B584B0BD
:102F400004AF1D4B1B78022B24D0022B31DC002B4D
:102F500002D0012B0FD02CE0002302931823019301
:102F60004FF4784300934FF6FF73144A1E21142048
:102F7000FFF728F81DE000230293182301934FF474
:102F8000784300934FF6FF730D4A1E211420FFF77C
:102F900019F80EE000230293182301934FF47843AD
:102FA00000934FF6FF73074A1E211420FFF70AF81B
:102FB00000BF00BFBD4680BD1602002024A7000848
:102FC00010A7000834A7000880B500AF124B1B788B
:102FD0000121184600F07AF9104B1B7801211846A0
:102FE00000F01AF90E4B1B780121184600F0D6F8B4
:102FF0000C4B1B780121184600F092F80A4B1B7805
:103000000121184600F0A0F9084B1B780121184651
:1030100000F0D8F900BF80BD0A00002009000020A0
:1030200008000020070000200B0000200C000020FA
:1030300080B400AF1A4B4FF4FC621A60184B0022A8
:103040005A60174B96221A72154B06225A72144B6D
:103050006E229A72124B0622DA72114B46221A73B2
:103060000F4B06225A730E4B14229A730C4B3C22C0
:10307000DA730B4B46221A74094B3C225A74084BE4
:103080006E229A74064B3C22DA74054B96221A750E
:10309000034B3C225A7500BFBD465DF8047B704768
:1030A00020020020B0B586B004AF03460A46FB718B
:1030B0001346BB71BB79002B16D0184B1B7A98B204
:1030C000164B5B7A99B2FB799CB2144B1B689BB28E
:1030D000124A526892B21825029501920093022377
:1030E0002246FEF7E5FC15E00C4B1B7A98B20B4B21
:1030F0005B7A99B2FB799CB2084B5B689BB2074A3A
:10310000526892B21825029501920093022322463A
:10311000FEF7CEFC00BF0837BD46B0BD2002002040
:10312000B0B586B004AF03460A46FB711346BB71C7
:10313000BB79002B16D0184B9B7A98B2164BDB7AD2
:1031400099B2FB799CB2144B1B689BB2124A52682D
:1031500092B2182502950192009302232246FEF7AF
:10316000A7FC15E00C4B9B7A98B20B4BDB7A99B21B
:10317000FB799CB2084B5B689BB2074A526892B2DB
:10318000182502950192009302232246FEF790FC37
:1031900000BF0837BD46B0BD20020020B0B586B0E4
:1031A00004AF03460A46FB711346BB71BB79002B83
:1031B00016D0184B1B7B98B2164B5B7B99B2FB79F0
:1031C0009CB2144B1B689BB2124A526892B21825EB
:1031D00002950192009302232246FEF769FC15E056
:1031E0000C4B1B7B98B20B4B5B7B99B2FB799CB26F
:1031F000084B5B689BB2074A526892B21825029549
:103200000192009302232246FEF752FC00BF0837CA
:10321000BD46B0BD20020020B0B586B004AF034665
:103220000A46FB711346BB71BB79002B2FD0FB798B
:10323000012B16D0234B9B7B98B2224BDB7B99B2A0
:10324000FB799CB21F4B1B689BB21E4A526892B21C
:10325000182502950192009302232246FEF728FCCE
:103260002BE0184B9B7B98B2164BDB7B99B2154B2E
:103270001B689AB2134B5B689BB20024029418241B
:10328000019400931346104AFEF79CFE15E00D4B87
:103290009B7B98B20B4BDB7B99B2FB799CB2094BC1
:1032A0005B689BB2074A526892B218250295019258
:1032B000009302232246FEF7FBFB00BF0837BD4602
:1032C000B0BD00BF2002002040A70008B0B586B006
:1032D00004AF03460A46FB711346BB71BB79002B52
:1032E00016D0184B1B7C98B2164B5B7C99B2FB79BD
:1032F0009CB2144B1B689BB2124A526892B21825BA
:1033000002950192009302232246FEF7D1FB15E0BD
:103310000C4B1B7C98B20B4B5B7C99B2FB799CB23B
:10332000084B5B689BB2074A526892B21825029517
:103330000192009302232246FEF7BAFB00BF083732
:10334000BD46B0BD20020020B0B586B004AF034634
:103350000A46FB711346BB71BB79002B16D0184B84
:103360009B7C98B2164BDB7C99B2FB799CB2144BD8
:103370001B689BB2124A526892B2182502950192BC
:10338000009302232246FEF793FB15E00C4B9B7C37
:1033900098B20B4BDB7C99B2FB799CB2084B5B6813
:1033A0009BB2074A526892B2182502950192009387
:1033B00002232246FEF77CFB00BF0837BD46B0BDA6
:1033C00020020020B0B586B004AF03460A46FB7168
:1033D0001346BB71BB79002B16D0184B1B7D98B2DE
:1033E000164B5B7D99B2FB799CB2144B1B689BB268
:1033F000124A526892B21825029501920093022354
:103400002246FEF755FB15E00C4B1B7D98B20B4B8B
:103410005B7D99B2FB799CB2084B5B689BB2074A13
:10342000526892B218250295019200930223224617
:10343000FEF73EFB00BF0837BD46B0BD20020020AE
:1034400080B500AF05220349034800F07DFF00BFAF
:1034500080BD00BF380200208C00002080B500AF86
:1034600005220349034800F06FFF00BF80BD00BF85
:10347000380200208C00002080B400AF034B9B88F2
:103480001846BD465DF8047B704700BF3802002037
:1034900080B400AF034BDB881846BD465DF8047B63
:1034A000704700BF3802002080B500AF1A4B1B8860
:1034B00007EE903AF8EE677A17EE900AFDF73CF8BF
:1034C00011A3D3E90023FDF78FF802460B461046FF
:1034D00019464FF00002114BFDF786F802460B46E5
:1034E000104619460AA3D3E90023FDF7A7F90246BF
:1034F0000B4610461946FDF7A9FA034607EE903A27
:10350000B0EE670A80BD00BF6666666666660A4002
:10351000CDCCCCCCAC08B94038020020000028400B
:1035200080B500AF284B5B8807EE903AF8EE677ADB
:1035300017EE900AFDF700F81FA3D3E90023FDF76B
:1035400053F802460B46104619464FF000021F4B37
:10355000FDF74AF802460B461046194618A3D3E970
:103560000023FDF76BF902460B46104619464FF053
:103570000002174BFCF780FE02460B461046194628
:103580004FF00002134BFDF72FF802460B46104692
:1035900019464FF000020E4BFDF750F902460B465C
:1035A00010461946FDF752FA034607EE903AB0EE80
:1035B000670A80BDAFF300806666666666660A408D
:1035C00048E17A14EEB2A4403802002000408F4057
:1035D000000004400000144080B400AF0A4B1B8977
:1035E00007EE903AF8EE677A9FED087A67EE877AF1
:1035F0009FED077AC7EE876AF0EE667AB0EE670A4B
:10360000BD465DF8047B7047380200200000A543EA
:1036100000F07F4580B582B000AF786000F030F8F0
:1036200000BF0837BD4680BD80B582B000AF78606E
:1036300039603B684FF47A7202FB03F31846FCF7DB
:1036400059FF4FF000020C4BFDF7F8F802460B460D
:1036500010461946FDF7DAF9024608497B68DB0097
:103660000B445A60054A7B68012102F8331000BF01
:103670000837BD4680BD00BF00408F404402002097
:1036800080B483B000AF00237B601FE0144A7B68E6
:1036900012F83330002B16D0114A7B68DB0013443C
:1036A0005B685A1E0E497B68DB000B445A600C4A6B
:1036B0007B68DB0013445B68002B04D1084A7B68FD
:1036C000002102F833107B6801337B607B68042B98
:1036D000DCD900BF00BF0C37BD465DF8047B7047E6
:1036E0004402002080B483B000AF7860074A7B6852
:1036F00012F83330012B0CBF01230023DBB2184634
:103700000C37BD465DF8047B704700BF44020020C3
:1037100080B500AF174B184A1A60164B4FF48272EF
:103720005A60144B00229A60124B0022DA60114B4F
:1037300000221A610F4B00225A610E4B4FF40072A7
:103740009A610C4B0022DA610A4B00221A62094B83
:1037500000225A62074B00229A62064B0A22DA6262
:10376000044803F0E1FC0346002B01D0FEF742FDC4
:1037700000BF80BD6C0200200030014080B58AB0DF
:1037800000AF786007F1140300221A605A609A6053
:10379000DA601A617B681B68194A93422BD10023B7
:1037A0003B61184B5B6C174A43F480535364154BD1
:1037B0005B6C03F480533B613B690023FB60114B5E
:1037C0001B6B104A43F0020313630E4B1B6B03F099
:1037D0000203FB60FB6838237B610223BB6100238B
:1037E000FB6103233B6205237B6207F11403194647
:1037F000054801F08BFE00BF2837BD4680BD00BFE5
:1038000000300140003802400004024080B483B020
:1038100000AF00237B60104B5B6C0F4A43F4804386
:1038200053640D4B5B6C03F480437B607B68002327
:103830003B60094B1B6C084A43F080531364064BF2
:103840001B6C03F080533B603B6800BF0C37BD46E8
:103850005DF8047B704700BF0038024080B400AFC1
:10386000FEE780B400AFFEE780B400AFFEE780B4AF
:1038700000AFFEE780B400AFFEE780B400AF00BF4A
:10388000BD465DF8047B704780B400AF00BFBD4605
:103890005DF8047B704780B400AF00BFBD465DF8A3
:1038A000047B704780B500AF00F0C6FC00BF80BD50
:1038B00080B500AF024804F0CDFA00BF80BD00BF64
:1038C000CC02002080B500AF024805F02DFA00BF01
:1038D00080BD00BFC403002080B500AF024801F0E6
:1038E000ABFB00BF80BD00BFD400002080B586B018
:1038F00000AF7860144A154BD31A7B617B693B613A
:10390000134B1B68002B02D1114B124A1A60104B4B
:103910001A687B6813443A699A4207D206F06CFA37
:1039200003460C221A604FF0FF3309E0084B1B6876
:10393000FB60074B1A687B681344054A1360FB68F9
:1039400018461837BD4680BD000002200004000064
:10395000C40200205805002080B584B004AF0020C8
:10396000FFF7C0FE0346002B40F08A800A210020AA
:10397000FFF75AFEFDF76AFCFDF760FBFFF76EFDEF
:10398000FFF786FD03461A4640F632339A4234D991
:10399000434B1B78012B1AD1424B1B68DBB21846F4
:1039A000FDF7FAFB0420FFF79DFE0346002B27D10D
:1039B0004FF47A710420FFF737FE394B00221A705A
:1039C000394800F0CDFA394800F0CAFA18E0344B13
:1039D0001B78002B14D10020FDF7DEFB0420FFF73D
:1039E00081FE0346002B0BD14FF47A710420FFF7C0
:1039F0001BFE2B4B01221A7002E00020FDF7CCFBCE
:103A00002B4BDB8A012B1BD1264B1B680A33254A23
:103A10001360244B1B68632B02DD224B00221A60CB
:103A2000204B1B689AB2102302934FF6FF73019349
:103A30001F23009302234FF496710A20FEF738F8F3
:103A40001B4BDB8B012B1BD1164B1B680A3B154A0A
:103A50001360144B1B68002B02DA124B63221A60AE
:103A6000104B1B689AB2102302934FF6FF73019319
:103A70001F23009302234FF496710A20FEF718F8D3
:103A80000320FFF72FFE0346002B06D14FF4FA71F7
:103A90000320FFF7C9FD00F00DF800BFBD4680BD53
:103AA000C80200201000002064A700087CA70008BE
:103AB0003401002080B52DED028B84B004AF0023CB
:103AC0000293102301934FF6FF7300934FF4784352
:103AD0007D4A64210A20FEF775FAFFF7E5FCF0EE57
:103AE000407A102301934FF6FF7300934FF478430D
:103AF0000422B0EE670A64218220FEF757F8002303
:103B00000293102301934FF6FF7300934FF4784311
:103B10006E4A78210A20FEF755FAFFF701FDF0EE14
:103B2000407A102301934FF6FF7300934FF47843CC
:103B30000422B0EE670A78218220FEF737F80023CE
:103B40000293102301934FF6FF7300934FF47843D1
:103B50005F4A8C210A20FEF735FAFFF7E1FCB0EE50
:103B6000408AFFF7A1FCF0EE407A68EE277A102336
:103B700001934FF6FF7300934FF478430422B0EEA5
:103B8000670A8C218220FEF711F80023029310238C
:103B900001934FF6FF7300934FF478434D4AA021F1
:103BA0000A20FEF70FFAFFF767FC0346B3F5406FF4
:103BB0000ED200230293102301934FF6FF7300935C
:103BC0004FF47843444AA0213C20FEF7FBF90DE076
:103BD00000230293102301934FF6FF7300934FF4D9
:103BE00078433E4AA0213C20FEF7ECF9FFF744FC65
:103BF00003461A46102302934FF6FF7301934FF4C6
:103C0000784300930423A0218220FDF751FF002375
:103C10000293102301934FF6FF7300934FF4784300
:103C20002F4AB4210A20FEF7CDF9FFF731FC0346F5
:103C30001A46642302FB03F32A4A82FB03121A4446
:103C4000D212DB17D31A9AB2102302934FF6FF73E6
:103C500001934FF4784300930223B4218220FDF7AF
:103C600027FF00230293102301934FF6FF73009365
:103C70004FF478431C4AB421B420FEF7A3F9002383
:103C80000293102301934FF6FF7300934FF4784390
:103C9000164AC8210A20FEF795F9FFF79DFCF0EEC1
:103CA000407A102301934FF6FF7300934FF478434B
:103CB0000422B0EE670AC8218220FDF777FF00BF1B
:103CC000BD46BDEC028B80BD9CA70008A8A70008DC
:103CD000B8A70008C4A70008CCA70008D8A7000808
:103CE000E4A7000881000880F0A70008F4A70008F6
:103CF00080B500AFFFF730FEFEF7E8FA00BF80BDE9
:103D000080B400AF064BD3F88830054A43F4700303
:103D1000C2F8883000BFBD465DF8047B704700BF25
:103D200000ED00E080B586B000AF07F10803002287
:103D30001A605A609A60DA603B4600221A605A6044
:103D40001D4B4FF080421A601B4B53225A601A4B96
:103D500000229A60184B40F2E732DA60164B0022DC
:103D60001A61154B00229A61134803F091FE034635
:103D7000002B01D0FEF73EFA4FF48053BB6007F1F1
:103D8000080319460C4804F02FFA0346002B01D013
:103D9000FEF730FA00233B6000237B603B46194668
:103DA000054804F021FE0346002B01D0FEF722FA5D
:103DB00000BF1837BD4680BDCC02002080B588B05A
:103DC00000AF3B1D00221A605A609A60DA601A61E7
:103DD0005A619A611E4B1F4A1A601D4B40F24732CE
:103DE0005A601B4B00229A60194B6322DA60184B11
:103DF00000221A61164B00229A61154803F048FE12
:103E00000346002B01D0FEF7F5F9114803F000FF3F
:103E10000346002B01D0FEF7EDF960237B60002301
:103E2000BB600023FB6000237B613B1D0022194621
:103E3000074804F017F90346002B01D0FEF7DAF922
:103E4000034800F045F800BF2037BD4680BD00BFE5
:103E500014030020001C004080B584B000AF7860DF
:103E60007B681B68B3F1804F16D10023FB60164BB3
:103E70001B6C154A43F001031364134B1B6C03F0D6
:103E80000103FB60FB68002200211C2000F005FFFD
:103E90001C2000F01EFF12E07B681B680B4A934257
:103EA0000DD10023BB60084B1B6C074A43F0800315
:103EB0001364054B1B6C03F08003BB60BB6800BF41
:103EC0001037BD4680BD00BF00380240001C0040D6
:103ED00080B588B000AF786007F10C0300221A604B
:103EE0005A609A60DA601A617B681B68124A9342D2
:103EF0001ED10023BB60114B1B6B104A43F0200303
:103F000013630E4B1B6B03F02003BB60BB684FF4C5
:103F10008073FB6002233B6100237B610023BB6154
:103F20000923FB6107F10C031946054801F0EEFA7D
:103F300000BF2037BD4680BD001C00400038024055
:103F40000014024080B500AF01220349034804F089
:103F5000BAFE00BF80BD00BF5C030020C403002088
:103F600080B582B000AF78607A680749074805F0ED
:103F70001BFF03469AB20A230449054804F011FEC8
:103F800000BF0837BD4680BD00A8000860030020C0
:103F9000C403002080B582B000AF78607B681B68E6
:103FA000084A93420AD10A2301220749074804F02C
:103FB000F8FD01220449054804F085FE00BF0837DA
:103FC000BD4680BD001001405C030020C4030020FA
:103FD00080B500AF114B124A1A60104B4FF4E1321A
:103FE0005A600E4B00229A600C4B0022DA600B4B99
:103FF00000221A61094B0C225A61084B00229A6177
:10400000064B0022DA61054804F07EFD0346002BD2
:1040100001D0FEF7EFF800BF80BD00BFC403002051
:104020000010014080B58AB000AF786007F114033A
:1040300000221A605A609A60DA601A617B681B6815
:104040001D4A934234D100233B611C4B5B6C1B4ADD
:1040500043F010035364194B5B6C03F010033B6196
:104060003B690023FB60154B1B6B144A43F00103B3
:104070001363124B1B6B03F00103FB60FB684FF4EF
:10408000C0637B610223BB610023FB6103233B62AE
:1040900007237B6207F114031946094801F036FA39
:1040A00000220021252000F0F8FD252000F011FE5F
:1040B00000BF2837BD4680BD0010014000380240D7
:1040C0000000024080B483B000AF0346FB71FB796F
:1040D0001B09DBB21A46920013445B00DAB2FB798B
:1040E00003F00F03DBB21344DBB218460C37BD46B6
:1040F0005DF8047B7047000080B483B000AF0346D6
:10410000FB71FB790D4AA2FB0323DB08DBB21B0129
:1041100058B2FA79094BA3FB0213D9080B469B004E
:104120000B445B00D31ADBB25BB203435BB2DBB27E
:1041300018460C37BD465DF8047B7047CDCCCCCC1F
:10414000DFF834D00D480E490E4A002302E0D4585F
:10415000C4500433C4188C42F9D30B4A0B4C0023CF
:1041600001E013600432A242FBD3FFF7C9FD05F062
:1041700049FEFDF7B3FF7047000002200000002059
:1041800070000020F8D700087000002054050020BF
:10419000FEE7000080B500AF0E4B1B680D4A43F4EC
:1041A000007313600B4B1B680A4A43F4806313606F
:1041B000084B1B68074A43F480731360032000F028
:1041C00061FD0F2000F008F8FFF720FB00231846E0
:1041D00080BD00BF003C024080B582B000AF786077
:1041E000124B1A68124B1B7819464FF47A73B3FBC3
:1041F000F1F3B2FBF3F3184600F079FD0346002B10
:1042000001D001230EE07B680F2B0AD800227968C9
:104210004FF0FF3000F041FD064A7B681360002339
:1042200000E0012318460837BD4680BD1400002079
:104230001C0000201800002080B400AF064B1B7843
:104240001A46064B1B681344044A136000BFBD4660
:104250005DF8047B704700BF1C00002008040020AC
:1042600080B400AF034B1B681846BD465DF8047B65
:10427000704700BF0804002080B584B000AF7860AC
:10428000FFF7EEFFB8607B68FB60FB68B3F1FF3FB0
:1042900005D00A4B1B781A46FB681344FB6000BF2D
:1042A000FFF7DEFF0246BB68D31AFA689A42F7D8D6
:1042B00000BF00BF1037BD4680BD00BF1C000020FE
:1042C00080B584B000AF78600023FB737B68002B5F
:1042D00001D1012333E07B681B6C002B09D1786886
:1042E000FCF70CFE7B6800225A647B68002283F88E
:1042F0003C207B681B6C03F01003002B18D17B68FB
:104300001B6C23F4885323F0020343F002027B6802
:104310001A64786800F068FA7B6800225A647B6847
:104320001B6C23F0030343F001027B681A6401E075
:104330000123FB737B68002283F83C20FB7B18463B
:104340001037BD4680BD000080B586B000AFF86074
:10435000B9607A6000233B61FB6893F83C30012B25
:1043600001D10223E9E0FB68012283F83C20FB68CD
:104370001B689B6803F00103012B18D0FB681B68C6
:104380009A68FB681B6842F001029A606D4B1B68DB
:104390006D4AA2FB03239A0C13465B0013443B6156
:1043A00002E03B69013B3B613B69002BF9D1FB68B3
:1043B0001B689B6803F48073B3F5807F07D1FB68AB
:1043C0001B689A68FB681B6822F480729A60FB681D
:1043D0001B689B6803F00103012B40F0A180FB6880
:1043E0001B6C23F4E06323F0010343F48072FB6849
:1043F0001A64FB681B685B6803F48063002B07D0BA
:10440000FB681B6C23F4405343F48052FB681A642E
:10441000FB681B6C03F48053B3F5805F06D1FB6827
:104420005B6C23F00602FB685A6402E0FB68002222
:104430005A64FB68002283F83C20444B7B61FB6894
:104440009B6B434ADA63FB689B6B424A1A64FB68C6
:104450009B6B414ADA64FB681B686FF022021A60AA
:10446000FB681B685A68FB681B6842F080625A60F0
:10447000FB681B689A68FB681B6842F480729A604C
:10448000FB68986BFB681B684C331946BA687B68FD
:1044900000F0E8FC7B695B6803F01F03002B2AD166
:1044A000FB681B682D4A934215D0FB681B682C4A99
:1044B000934205D1254B5B6803F01F03002B0AD004
:1044C000FB681B68274A934236D1204B5B6803F098
:1044D0001003002B30D1FB681B689B6803F040532E
:1044E000002B29D1FB681B689A68FB681B6842F0A7
:1044F00080429A6020E0FB681B68184A93421BD1F7
:10450000FB681B689B6803F04053002B14D1FB68C9
:104510001B689A68FB681B6842F080429A600BE057
:10452000FB681B6C43F01002FB681A64FB685B6C51
:1045300043F00102FB685A64002318461837BD4651
:1045400080BD00BF1400002083DE1B430023014018
:10455000E14900089B4A0008B74A000800200140D2
:10456000002101400022014080B483B000AF786098
:1045700000BF0C37BD465DF8047B704780B483B044
:1045800000AF786000BF0C37BD465DF8047B704714
:1045900080B483B000AF786000BF0C37BD465DF8D3
:1045A000047B704780B485B000AF78603960002329
:1045B000BB607B6893F83C30012B01D1022305E1FD
:1045C0007B68012283F83C203B681B68092B25D9B6
:1045D0007B681B68D9683B681B689BB21A46134608
:1045E0005B0013441E3B072202FA03F3DA437B68A5
:1045F0001B680A40DA607B681B68D9683B689A6868
:104600003B681B689BB2184603465B0003441E3B95
:104610009A407B681B680A43DA6022E07B681B686B
:1046200019693B681B689BB21A4613465B0013442A
:10463000072202FA03F3DA437B681B680A401A6117
:104640007B681B6819693B689A683B681B689BB26A
:10465000184603465B0003449A407B681B680A4384
:104660001A613B685B68062B24D87B681B68596B12
:104670003B685A6813469B001344053B1F2202FA0D
:1046800003F3DA437B681B680A405A637B681B6844
:10469000596B3B681B689BB218463B685A681346C7
:1046A0009B001344053B00FA03F27B681B680A4336
:1046B0005A634CE03B685B680C2B24D87B681B6812
:1046C000196B3B685A6813469B001344233B1F2217
:1046D00002FA03F3DA437B681B680A401A637B68BB
:1046E0001B68196B3B681B689BB218463B685A688D
:1046F00013469B001344233B00FA03F27B681B68BC
:104700000A431A6323E07B681B68D96A3B685A68CE
:1047100013469B001344413B1F2202FA03F3DA4382
:104720007B681B680A40DA627B681B68D96A3B6851
:104730001B689BB218463B685A6813469B0013449B
:10474000413B00FA03F27B681B680A43DA62224BA2
:10475000FB607B681B68214A934209D13B681B6858
:10476000122B05D1FB685B6843F48002FB685A603A
:104770007B681B68194A934223D13B681B68102B46
:1047800003D03B681B68112B1BD1FB685B6843F4AB
:104790000002FB685A603B681B68102B11D1104B5C
:1047A0001B68104AA2FB03239A0C13469B00134478
:1047B0005B00BB6002E0BB68013BBB60BB68002BD9
:1047C000F9D17B68002283F83C2000231846143777
:1047D000BD465DF8047B7047002301400020014086
:1047E0001400002083DE1B4380B485B000AF7860E6
:1047F000794BFB60FB685B6823F44032FB685A60CE
:10480000FB685A687B685B681A43FB685A607B6880
:104810001B685A687B681B6822F480725A607B6848
:104820001B6859687B681B691A027B681B680A430E
:104830005A607B681B685A687B681B6822F040726C
:104840005A607B681B6859687B689A687B681B683C
:104850000A435A607B681B689A687B681B6822F46D
:1048600000629A607B681B6899687B68DA687B687D
:104870001B680A439A607B689B6A584A934222D01D
:104880007B681B689A687B681B6822F070629A607C
:104890007B681B6899687B689A6A7B681B680A4317
:1048A0009A607B681B689A687B681B6822F040529C
:1048B0009A607B681B6899687B68DA6A7B681B680A
:1048C0000A439A600FE07B681B689A687B681B68E4
:1048D00022F070629A607B681B689A687B681B682C
:1048E00022F040529A607B681B689A687B681B685C
:1048F00022F002029A607B681B6899687B681B7EC5
:104900005A007B681B680A439A607B6893F82030E2
:10491000002B1BD07B681B685A687B681B6842F4BD
:1049200000625A607B681B685A687B681B6822F4C7
:1049300060425A607B681B6859687B685B6A013B10
:104940005A037B681B680A435A6007E07B681B6850
:104950005A687B681B6822F400625A607B681B6897
:10496000DA6A7B681B6822F47002DA627B681B6873
:10497000D96A7B68DB69013B1A057B681B680A43BF
:10498000DA627B681B689A687B681B6822F4007295
:104990009A607B681B6899687B6893F830305A028C
:1049A0007B681B680A439A607B681B689A687B680F
:1049B0001B6822F480629A607B681B6899687B6838
:1049C0005B699A027B681B680A439A6000BF1437D0
:1049D000BD465DF8047B7047002301400100000FD5
:1049E00080B584B000AF78607B689B6BFB60FB6830
:1049F0001B6C03F05003002B3CD1FB681B6C43F491
:104A00000072FB681A64FB681B689B6803F04053E4
:104A1000002B2BD1FB681B7E002B27D1FB681B686A
:104A2000DB6A03F47003002B06D0FB681B689B68ED
:104A300003F48063002B19D1FB681B685A68FB687C
:104A40001B6822F020025A60FB681B6C23F4807202
:104A5000FB681A64FB681B6C03F48053002B05D1C0
:104A6000FB681B6C43F00102FB681A64F868FFF7EF
:104A70007BFD0EE0FB681B6C03F01003002B03D0E2
:104A8000F868FFF785FD04E0FB689B6BDB6C7868DA
:104A9000984700BF1037BD4680BD80B584B000AFD9
:104AA00078607B689B6BFB60F868FFF767FD00BF71
:104AB0001037BD4680BD80B584B000AF78607B689C
:104AC0009B6BFB60FB6840221A64FB685B6C43F0E5
:104AD0000402FB685A64F868FFF75AFD00BF1037FC
:104AE000BD4680BD80B485B000AF78607B6803F0C0
:104AF0000703FB600C4BDB68BB60BA684FF6FF0333
:104B00001340BB60FB681A02BB68134343F0BF63EA
:104B100043F40033BB60044ABB68D36000BF143762
:104B2000BD465DF8047B704700ED00E080B400AF47
:104B3000044BDB681B0A03F007031846BD465DF80B
:104B4000047B704700ED00E080B483B000AF034603
:104B5000FB7197F90730002B0BDBFB7903F01F0289
:104B6000074997F907305B09012000FA02F241F882
:104B7000232000BF0C37BD465DF8047B704700BFA3
:104B800000E100E080B483B000AF03463960FB7100
:104B900097F90730002B0ADB3B68DAB20C4997F92A
:104BA00007301201D2B20B4483F800230AE03B68BD
:104BB000DAB20849FB7903F00F03043B1201D2B2C9
:104BC0000B441A7600BF0C37BD465DF8047B704776
:104BD00000E100E000ED00E080B489B000AFF860D3
:104BE000B9607A60FB6803F00703FB61FB69C3F1FE
:104BF0000703042B28BF0423BB61FB690433062B86
:104C000002D9FB69033B00E000237B614FF0FF32D8
:104C1000BB6902FA03F3DA43BB681A407B699A4026
:104C20004FF0FF317B6901FA03F3D9437B680B40F6
:104C3000134318462437BD465DF8047B70470000D7
:104C400080B582B000AF78607B68013BB3F1807FB4
:104C500001D301230FE00A4A7B68013B53600F2117
:104C60004FF0FF30FFF78EFF054B00229A60044B98
:104C700007221A60002318460837BD4680BD00BFD2
:104C800010E000E080B582B000AF78607868FFF790
:104C900029FF00BF0837BD4680BD80B586B000AF94
:104CA0000346B9607A60FB7300237B61FFF73EFF28
:104CB00078617A68B9687869FFF78EFF024697F9DC
:104CC0000F3011461846FFF75DFF00BF1837BD468D
:104CD00080BD80B582B000AF0346FB7197F9073005
:104CE0001846FFF731FF00BF0837BD4680BD80B5CD
:104CF00082B000AF78607868FFF7A2FF03461846DD
:104D00000837BD4680BD000080B586B000AF786032
:104D100000237B61FFF7A4FA38617B68002B01D187
:104D2000012399E07B68022283F835207B6800220A
:104D300083F834207B681B681A687B681B6822F044
:104D400001021A600FE0FFF78BFA02463B69D31AA3
:104D5000052B08D97B6820225A657B68032283F8DB
:104D60003520032378E07B681B681B6803F0010390
:104D7000002BE8D17B681B681B687B617A69384B24
:104D800013407B617B685A687B689B681A437B6829
:104D9000DB681A437B681B691A437B685B691A43AB
:104DA0007B689B691A437B68DB691A437B681B6AD3
:104DB00013437A6913437B617B685B6A042B07D1D9
:104DC0007B68DA6A7B681B6B13437A6913437B61E8
:104DD0007B681B687A691A607B681B685B697B610A
:104DE0007B6923F007037B617B685B6A7A69134305
:104DF0007B617B685B6A042B17D17B689B6A7A694D
:104E000013437B617B68DB6A002B0ED0786800F06F
:104E100001FB0346002B08D07B6840225A657B6863
:104E2000012283F83520012316E07B681B687A692C
:104E30005A61786800F0B8FA0346FB607B68DB6D66
:104E40003F229A40FB689A607B6800225A657B6823
:104E5000012283F83520002318461837BD4680BD4F
:104E60003F8010F080B586B000AFF860B9607A601E
:104E70003B600023FB75FB689B6D3B61FB6893F80F
:104E80003430012B01D1022340E0FB68012283F87A
:104E90003420FB6893F83530DBB2012B2FD1FB684F
:104EA000022283F83520FB6800225A653B687A6845
:104EB000B968F86800F04AFAFB68DB6D3F229A4057
:104EC0003B699A60FB681B681A68FB681B6842F0C4
:104ED00016021A60FB681B6C002B07D0FB681B686E
:104EE0001A68FB681B6842F008021A60FB681B68BE
:104EF0001A68FB681B6842F001021A6005E0FB6853
:104F0000002283F834200223FB75FB7D18461837F6
:104F1000BD4680BD80B584B000AF78607B689B6D76
:104F2000FB60FFF79DF9B8607B6893F83530DBB222
:104F3000022B08D07B6880225A657B68002283F8A8
:104F40003420012352E07B681B681A687B681B6869
:104F500022F016021A607B681B685A697B681B681E
:104F600022F080025A617B681B6C002B03D17B68A6
:104F70009B6C002B07D07B681B681A687B681B68DA
:104F800022F008021A607B681B681A687B681B683D
:104F900022F001021A6013E0FFF762F90246BB68D3
:104FA000D31A052B0CD97B6820225A657B68032213
:104FB00083F835207B68002283F83420032315E032
:104FC0007B681B681B6803F00103002BE4D17B683E
:104FD000DB6D3F229A40FB689A607B68012283F870
:104FE00035207B68002283F83420002318461037D0
:104FF000BD4680BD80B483B000AF78607B6893F815
:105000003530DBB2022B04D07B6880225A65012345
:105010000CE07B68052283F835207B681B681A68E2
:105020007B681B6822F001021A60002318460C37C7
:10503000BD465DF8047B704780B586B000AF7860F0
:105040000023BB608E4B1B688E4AA2FB03239B0A86
:105050007B617B689B6D3B613B691B68FB607B6888
:10506000DB6D08229A40FB681340002B1AD07B6846
:105070001B681B6803F00403002B13D07B681B68BC
:105080001A687B681B6822F004021A607B68DB6D7B
:1050900008229A403B699A607B685B6D43F001028D
:1050A0007B685A657B68DB6D01229A40FB68134080
:1050B000002B12D07B681B685B6903F08003002B18
:1050C0000BD07B68DB6D01229A403B699A607B685C
:1050D0005B6D43F002027B685A657B68DB6D0422DE
:1050E0009A40FB681340002B12D07B681B681B683A
:1050F00003F00203002B0BD07B68DB6D04229A4087
:105100003B699A607B685B6D43F004027B685A657B
:105110007B68DB6D10229A40FB681340002B43D064
:105120007B681B681B6803F00803002B3CD07B687E
:10513000DB6D10229A403B699A607B681B681B6894
:1051400003F48023002B18D07B681B681B6803F4D2
:105150000023002B08D17B681B6C002B24D07B68BC
:105160001B6C786898471FE07B689B6C002B1BD0FA
:105170007B689B6C7868984716E07B681B681B68A7
:1051800003F48073002B07D17B681B681A687B6867
:105190001B6822F008021A607B681B6C002B03D08E
:1051A0007B681B6C786898477B68DB6D20229A408F
:1051B000FB681340002B00F08F807B681B681B6826
:1051C00003F01003002B00F087807B68DB6D20224A
:1051D0009A403B699A607B6893F83530DBB2052BC7
:1051E00036D17B681B681A687B681B6822F0160240
:1051F0001A607B681B685A697B681B6822F0800212
:105200005A617B681B6C002B03D17B689B6C002B65
:1052100007D07B681B681A687B681B6822F008024D
:105220001A607B68DB6D3F229A403B699A607B681D
:10523000012283F835207B68002283F834207B68C4
:105240001B6D002B7ED07B681B6D7868984779E0DA
:105250007B681B681B6803F48023002B1DD07B68D0
:105260001B681B6803F40023002B0DD17B685B6C6B
:10527000002B31D07B685B6C786898472CE000BFCE
:1052800014000020B5814E1B7B68DB6B002B23D004
:105290007B68DB6B786898471EE07B681B681B683F
:1052A00003F48073002B0FD17B681B681A687B683E
:1052B0001B6822F010021A607B68012283F83520F7
:1052C0007B68002283F834207B68DB6B002B03D0E3
:1052D0007B68DB6B786898477B685B6D002B32D00E
:1052E0007B685B6D03F00103002B22D07B680522F5
:1052F00083F835207B681B681A687B681B6822F07E
:1053000001021A60BB680133BB607A699A4207D315
:105310007B681B681B6803F00103002BF2D100E0DF
:1053200000BF7B68012283F835207B68002283F868
:1053300034207B68DB6C002B05D07B68DB6C7868E5
:10534000984700E000BF1837BD4680BD80B485B0E7
:1053500000AFF860B9607A603B60FB681B681A6850
:10536000FB681B6822F480221A60FB681B683A689D
:105370005A60FB689B68402B08D1FB681B687A6801
:105380009A60FB681B68BA68DA6007E0FB681B6814
:10539000BA689A60FB681B687A68DA6000BF1437E5
:1053A000BD465DF8047B704780B485B000AF78607F
:1053B0007B681B68DBB2103B144AA2FB03231B096A
:1053C000FB60134AFB6813441B781A467B68DA6556
:1053D000FB68032B09D97B681B6823F47F7323F0D8
:1053E00003031A1D7B689A6507E07B681B6823F43A
:1053F0007F7323F003037A6893657B689B6D18467F
:105400001437BD465DF8047B704700BFABAAAAAA5B
:10541000ACD7000880B485B000AF78600023FB7380
:105420007B689B6ABB607B689B69002B1FD1BB6854
:10543000032B56D801A252F823F000BF4D540008A8
:105440005F5400084D540008E35400087B68DB6A91
:1054500003F08073002B46D00123FB7343E07B688D
:10546000DB6AB3F1C07F40D10123FB733DE07B6871
:105470009B69B3F5005F21D1BB68032B37D801A22C
:1054800052F823F0955400089B54000895540008E6
:10549000AD5400080123FB7330E07B68DB6A03F046
:1054A0008073002B25D00123FB7322E07B68DB6A2D
:1054B000B3F1C07F1FD10123FB731CE0BB68022B3B
:1054C00003D9BB68032B03D018E00123FB7315E05D
:1054D0007B68DB6A03F08073002B0ED00123FB7323
:1054E0000BE000BF0AE000BF08E000BF06E000BF1D
:1054F00004E000BF02E000BF00E000BFFB7B1846F5
:105500001437BD465DF8047B704700BF80B489B096
:1055100000AF7860396000237B6100233B6100238A
:10552000BB610023FB616BE10122FB6902FA03F31B
:105530007B613B681B687A6913403B613A697B6910
:105540009A4240F05A813B685B6803F00303012BE9
:1055500005D03B685B6803F00303022B30D17B6806
:105560009B68BB61FB695B00032202FA03F3DB4328
:10557000BA691340BB613B68DA68FB695B0002FAF9
:1055800003F3BA691343BB617B68BA699A607B68AD
:105590005B68BB610122FB6902FA03F3DB43BA6972
:1055A0001340BB613B685B681B0903F00102FB69A8
:1055B00002FA03F3BA691343BB617B68BA695A60A4
:1055C0003B685B6803F00303032B17D07B68DB6841
:1055D000BB61FB695B00032202FA03F3DB43BA6998
:1055E0001340BB613B689A68FB695B0002FA03F3F6
:1055F000BA691343BB617B68BA69DA603B685B6870
:1056000003F00303022B23D1FB69DA087B6808321D
:1056100053F82230BB61FB6903F007039B000F22A4
:1056200002FA03F3DB43BA691340BB613B681A69B2
:10563000FB6903F007039B0002FA03F3BA69134303
:10564000BB61FB69DA087B680832B96943F822104C
:105650007B681B68BB61FB695B00032202FA03F3F2
:10566000DB43BA691340BB613B685B6803F003022C
:10567000FB695B0002FA03F3BA691343BB617B6801
:10568000BA691A603B685B6803F44033002B00F092
:10569000B4800023FB60604B5B6C5F4A43F4804343
:1056A00053645D4B5B6C03F48043FB60FB685B4AB7
:1056B000FB699B08023352F82330BB61FB6903F09E
:1056C00003039B000F2202FA03F3DB43BA69134082
:1056D000BB617B68524A93422BD07B68514A93420C
:1056E00025D07B68504A93421FD07B684F4A934233
:1056F00019D07B684E4A934213D07B684D4A93423F
:105700000DD07B684C4A934207D07B684B4A93424A
:1057100001D107230EE008230CE006230AE005234D
:1057200008E0042306E0032304E0022302E001234F
:1057300000E00023FA6902F0030292009340BA6984
:105740001343BB613549FB699B080233BA6941F8D1
:1057500023203B4B9B68BB613B69DB43BA69134029
:10576000BB613B685B6803F48013002B03D0BA690C
:105770003B691343BB61324ABB699360304BDB68C2
:10578000BB613B69DB43BA691340BB613B685B6843
:1057900003F40013002B03D0BA693B691343BB61C8
:1057A000274ABB69D360264B5B68BB613B69DB431F
:1057B000BA691340BB613B685B6803F40033002B9C
:1057C00003D0BA693B691343BB611D4ABB6953608F
:1057D0001B4B1B68BB613B69DB43BA691340BB6170
:1057E0003B685B6803F48033002B03D0BA693B69E4
:1057F0001343BB61124ABB691360FB690133FB6150
:10580000FB690F2B7FF690AE00BF00BF2437BD466B
:105810005DF8047B704700BF00380240003801404B
:10582000000002400004024000080240000C024058
:10583000001002400014024000180240001C024008
:10584000003C014080B483B000AF78600B467B80A1
:1058500013467B707B78002B03D07A887B689A6133
:1058600003E07B881A047B689A6100BF0C37BD4651
:105870005DF8047B7047000080B584B000AF7860AD
:105880007B68002B01D101232BE17B6893F83D302D
:10589000DBB2002B06D17B68002283F83C207868BD
:1058A000FBF73CFF7B68242283F83D207B681B6864
:1058B0001A687B681B6822F001021A607B681B680B
:1058C0001A687B681B6842F400421A607B681B6898
:1058D0001A687B681B6822F400421A6001F0FCFB26
:1058E000F8607B685B68814A934207D8FB68804A0E
:1058F000934294BF01230023DBB206E0FB687D4A9C
:10590000934294BF01230023DBB2002B01D001237B
:10591000E7E0FB68784AA2FB03239B0CBB607B6833
:105920001B685B6823F03F017B681B68BA680A4309
:105930005A607B681B681B6A23F03F017B685B68C9
:105940006A4A934202D8BB68013309E0BB684FF44E
:10595000967202FB03F3694AA2FB03239B090133FE
:105960007A6812680B4313627B681B68DB6923F457
:105970004F4222F0FF027B685B685C498B4219D87A
:10598000FB68591E7B685B685B00B1FBF3F3591C35
:1059900040F6FC730B40002B0AD0FB68591E7B6855
:1059A0005B685B00B1FBF3F30133C3F30B0351E01E
:1059B00004234FE07B689B68002B11D1FB68581EC5
:1059C0007B6859680B465B000B44B0FBF3F3013373
:1059D000C3F30B03002B0CBF01230023DBB212E047
:1059E000FB68581E7B6859680B469B000B44990066
:1059F0000B44B0FBF3F30133C3F30B03002B0CBFD9
:105A000001230023DBB2002B01D0012322E07B68BD
:105A10009B68002B0ED1FB68581E7B6859680B46AB
:105A20005B000B44B0FBF3F30133C3F30B0343F40C
:105A300000430FE0FB68581E7B6859680B469B00CB
:105A40000B4499000B44B0FBF3F30133C3F30B0396
:105A500043F44043796809681343CB617B681B6852
:105A60001B6823F0C0017B68DA697B681B6A1A43F4
:105A70007B681B680A431A607B681B689B6823F479
:105A8000034323F0FF037A6811697A68D2681143EF
:105A90007A6812680B4393607B681B68DB6823F0AD
:105AA000FF017B685A697B689B691A437B681B68A6
:105AB0000A43DA607B681B681A687B681B6842F0DF
:105AC00001021A607B6800221A647B68202283F836
:105AD0003D207B6800221A637B68002283F83E2009
